{
  "_format": "hh-sol-artifact-1",
  "contractName": "AcademicRecords",
  "sourceName": "contracts/AcademicRecords.sol",
  "abi": [
    {
      "inputs": [],
      "stateMutability": "nonpayable",
      "type": "constructor"
    },
    {
      "anonymous": false,
      "inputs": [
        {
          "indexed": false,
          "internalType": "address",
          "name": "account",
          "type": "address"
        }
      ],
      "name": "Paused",
      "type": "event"
    },
    {
      "anonymous": false,
      "inputs": [
        {
          "indexed": true,
          "internalType": "uint256",
          "name": "recordId",
          "type": "uint256"
        },
        {
          "indexed": false,
          "internalType": "address",
          "name": "accessor",
          "type": "address"
        }
      ],
      "name": "RecordAccessed",
      "type": "event"
    },
    {
      "anonymous": false,
      "inputs": [
        {
          "indexed": true,
          "internalType": "uint256",
          "name": "recordId",
          "type": "uint256"
        },
        {
          "indexed": false,
          "internalType": "string",
          "name": "studentId",
          "type": "string"
        },
        {
          "indexed": false,
          "internalType": "enum AcademicRecords.RecordType",
          "name": "recordType",
          "type": "uint8"
        },
        {
          "indexed": false,
          "internalType": "address",
          "name": "issuer",
          "type": "address"
        }
      ],
      "name": "RecordAdded",
      "type": "event"
    },
    {
      "anonymous": false,
      "inputs": [
        {
          "indexed": true,
          "internalType": "uint256",
          "name": "recordId",
          "type": "uint256"
        },
        {
          "indexed": false,
          "internalType": "address",
          "name": "verifier",
          "type": "address"
        }
      ],
      "name": "RecordVerified",
      "type": "event"
    },
    {
      "anonymous": false,
      "inputs": [
        {
          "indexed": true,
          "internalType": "bytes32",
          "name": "role",
          "type": "bytes32"
        },
        {
          "indexed": true,
          "internalType": "bytes32",
          "name": "previousAdminRole",
          "type": "bytes32"
        },
        {
          "indexed": true,
          "internalType": "bytes32",
          "name": "newAdminRole",
          "type": "bytes32"
        }
      ],
      "name": "RoleAdminChanged",
      "type": "event"
    },
    {
      "anonymous": false,
      "inputs": [
        {
          "indexed": true,
          "internalType": "bytes32",
          "name": "role",
          "type": "bytes32"
        },
        {
          "indexed": true,
          "internalType": "address",
          "name": "account",
          "type": "address"
        },
        {
          "indexed": true,
          "internalType": "address",
          "name": "sender",
          "type": "address"
        }
      ],
      "name": "RoleGranted",
      "type": "event"
    },
    {
      "anonymous": false,
      "inputs": [
        {
          "indexed": true,
          "internalType": "bytes32",
          "name": "role",
          "type": "bytes32"
        },
        {
          "indexed": true,
          "internalType": "address",
          "name": "account",
          "type": "address"
        },
        {
          "indexed": true,
          "internalType": "address",
          "name": "sender",
          "type": "address"
        }
      ],
      "name": "RoleRevoked",
      "type": "event"
    },
    {
      "anonymous": false,
      "inputs": [
        {
          "indexed": true,
          "internalType": "address",
          "name": "university",
          "type": "address"
        },
        {
          "indexed": false,
          "internalType": "string",
          "name": "name",
          "type": "string"
        }
      ],
      "name": "UniversityNameUpdated",
      "type": "event"
    },
    {
      "anonymous": false,
      "inputs": [
        {
          "indexed": false,
          "internalType": "address",
          "name": "account",
          "type": "address"
        }
      ],
      "name": "Unpaused",
      "type": "event"
    },
    {
      "inputs": [],
      "name": "ADMIN_ROLE",
      "outputs": [
        {
          "internalType": "bytes32",
          "name": "",
          "type": "bytes32"
        }
      ],
      "stateMutability": "view",
      "type": "function"
    },
    {
      "inputs": [],
      "name": "DEFAULT_ADMIN_ROLE",
      "outputs": [
        {
          "internalType": "bytes32",
          "name": "",
          "type": "bytes32"
        }
      ],
      "stateMutability": "view",
      "type": "function"
    },
    {
      "inputs": [],
      "name": "UNIVERSITY_ROLE",
      "outputs": [
        {
          "internalType": "bytes32",
          "name": "",
          "type": "bytes32"
        }
      ],
      "stateMutability": "view",
      "type": "function"
    },
    {
      "inputs": [
        {
          "internalType": "string",
          "name": "studentId",
          "type": "string"
        },
        {
          "internalType": "string",
          "name": "studentName",
          "type": "string"
        },
        {
          "internalType": "string",
          "name": "universityName",
          "type": "string"
        },
        {
          "internalType": "string",
          "name": "ipfsHash",
          "type": "string"
        },
        {
          "internalType": "string",
          "name": "metadataHash",
          "type": "string"
        },
        {
          "internalType": "enum AcademicRecords.RecordType",
          "name": "recordType",
          "type": "uint8"
        }
      ],
      "name": "addRecord",
      "outputs": [
        {
          "internalType": "uint256",
          "name": "",
          "type": "uint256"
        }
      ],
      "stateMutability": "nonpayable",
      "type": "function"
    },
    {
      "inputs": [
        {
          "internalType": "address",
          "name": "universityAddress",
          "type": "address"
        },
        {
          "internalType": "string",
          "name": "name",
          "type": "string"
        }
      ],
      "name": "addUniversity",
      "outputs": [],
      "stateMutability": "nonpayable",
      "type": "function"
    },
    {
      "inputs": [],
      "name": "getAllUniversities",
      "outputs": [
        {
          "internalType": "address[]",
          "name": "",
          "type": "address[]"
        }
      ],
      "stateMutability": "view",
      "type": "function"
    },
    {
      "inputs": [
        {
          "internalType": "uint256",
          "name": "recordId",
          "type": "uint256"
        }
      ],
      "name": "getRecord",
      "outputs": [
        {
          "components": [
            {
              "internalType": "uint256",
              "name": "id",
              "type": "uint256"
            },
            {
              "internalType": "string",
              "name": "studentId",
              "type": "string"
            },
            {
              "internalType": "string",
              "name": "studentName",
              "type": "string"
            },
            {
              "internalType": "string",
              "name": "universityName",
              "type": "string"
            },
            {
              "internalType": "string",
              "name": "ipfsHash",
              "type": "string"
            },
            {
              "internalType": "string",
              "name": "metadataHash",
              "type": "string"
            },
            {
              "internalType": "enum AcademicRecords.RecordType",
              "name": "recordType",
              "type": "uint8"
            },
            {
              "internalType": "uint256",
              "name": "timestamp",
              "type": "uint256"
            },
            {
              "internalType": "bool",
              "name": "isVerified",
              "type": "bool"
            },
            {
              "internalType": "address",
              "name": "issuer",
              "type": "address"
            }
          ],
          "internalType": "struct AcademicRecords.Record",
          "name": "",
          "type": "tuple"
        }
      ],
      "stateMutability": "view",
      "type": "function"
    },
    {
      "inputs": [
        {
          "internalType": "bytes32",
          "name": "role",
          "type": "bytes32"
        }
      ],
      "name": "getRoleAdmin",
      "outputs": [
        {
          "internalType": "bytes32",
          "name": "",
          "type": "bytes32"
        }
      ],
      "stateMutability": "view",
      "type": "function"
    },
    {
      "inputs": [
        {
          "internalType": "string",
          "name": "studentId",
          "type": "string"
        }
      ],
      "name": "getStudentRecords",
      "outputs": [
        {
          "internalType": "uint256[]",
          "name": "",
          "type": "uint256[]"
        }
      ],
      "stateMutability": "view",
      "type": "function"
    },
    {
      "inputs": [
        {
          "internalType": "address",
          "name": "universityAddress",
          "type": "address"
        }
      ],
      "name": "getUniversityName",
      "outputs": [
        {
          "internalType": "string",
          "name": "",
          "type": "string"
        }
      ],
      "stateMutability": "view",
      "type": "function"
    },
    {
      "inputs": [],
      "name": "getUniversityRecords",
      "outputs": [
        {
          "internalType": "uint256[]",
          "name": "",
          "type": "uint256[]"
        }
      ],
      "stateMutability": "view",
      "type": "function"
    },
    {
      "inputs": [
        {
          "internalType": "bytes32",
          "name": "role",
          "type": "bytes32"
        },
        {
          "internalType": "address",
          "name": "account",
          "type": "address"
        }
      ],
      "name": "grantRole",
      "outputs": [],
      "stateMutability": "nonpayable",
      "type": "function"
    },
    {
      "inputs": [
        {
          "internalType": "bytes32",
          "name": "role",
          "type": "bytes32"
        },
        {
          "internalType": "address",
          "name": "account",
          "type": "address"
        }
      ],
      "name": "hasRole",
      "outputs": [
        {
          "internalType": "bool",
          "name": "",
          "type": "bool"
        }
      ],
      "stateMutability": "view",
      "type": "function"
    },
    {
      "inputs": [],
      "name": "pause",
      "outputs": [],
      "stateMutability": "nonpayable",
      "type": "function"
    },
    {
      "inputs": [],
      "name": "paused",
      "outputs": [
        {
          "internalType": "bool",
          "name": "",
          "type": "bool"
        }
      ],
      "stateMutability": "view",
      "type": "function"
    },
    {
      "inputs": [
        {
          "internalType": "uint256",
          "name": "recordId",
          "type": "uint256"
        }
      ],
      "name": "recordAccess",
      "outputs": [],
      "stateMutability": "nonpayable",
      "type": "function"
    },
    {
      "inputs": [
        {
          "internalType": "address",
          "name": "universityAddress",
          "type": "address"
        }
      ],
      "name": "removeUniversity",
      "outputs": [],
      "stateMutability": "nonpayable",
      "type": "function"
    },
    {
      "inputs": [
        {
          "internalType": "bytes32",
          "name": "role",
          "type": "bytes32"
        },
        {
          "internalType": "address",
          "name": "account",
          "type": "address"
        }
      ],
      "name": "renounceRole",
      "outputs": [],
      "stateMutability": "nonpayable",
      "type": "function"
    },
    {
      "inputs": [
        {
          "internalType": "bytes32",
          "name": "role",
          "type": "bytes32"
        },
        {
          "internalType": "address",
          "name": "account",
          "type": "address"
        }
      ],
      "name": "revokeRole",
      "outputs": [],
      "stateMutability": "nonpayable",
      "type": "function"
    },
    {
      "inputs": [
        {
          "internalType": "address",
          "name": "universityAddress",
          "type": "address"
        },
        {
          "internalType": "string",
          "name": "name",
          "type": "string"
        }
      ],
      "name": "setUniversityName",
      "outputs": [],
      "stateMutability": "nonpayable",
      "type": "function"
    },
    {
      "inputs": [
        {
          "internalType": "bytes4",
          "name": "interfaceId",
          "type": "bytes4"
        }
      ],
      "name": "supportsInterface",
      "outputs": [
        {
          "internalType": "bool",
          "name": "",
          "type": "bool"
        }
      ],
      "stateMutability": "view",
      "type": "function"
    },
    {
      "inputs": [],
      "name": "unpause",
      "outputs": [],
      "stateMutability": "nonpayable",
      "type": "function"
    },
    {
      "inputs": [
        {
          "internalType": "uint256",
          "name": "recordId",
          "type": "uint256"
        }
      ],
      "name": "verifyRecord",
      "outputs": [
        {
          "internalType": "bool",
          "name": "",
          "type": "bool"
        }
      ],
      "stateMutability": "view",
      "type": "function"
    }
  ],
  "bytecode": "0x608060405234610110576001805460ff19169055336000908152600080516020612190833981519152602052604090205460ff16156100d0575b336000908152600080516020612170833981519152602052604090205460ff161561006e575b60405161203a90816101168239f35b33600081815260008051602061217083398151915260205260408120805460ff1916600117905581907fa49807205ce4d355092ef5a8a18f56e8913cf4a201fbe287825b095693c21775906000805160206121508339815191529080a461005f565b33600081815260008051602061219083398151915260205260408120805460ff1916600117905581906000805160206121508339815191528180a4610039565b600080fdfe608080604052600436101561001357600080fd5b60003560e01c90816301ffc9a7146117475750806303e9e60914611538578063248a9ca31461150357806328f54b2f146112cf5780632d175a18146112405780632f2ff15d1461118457806336568abe146110f25780633af4d950146110a55780633d1784141461107c5780633f4ba83a14610fe85780635c975abb14610fc557806375b238fc14610f8a5780638456cb5914610f31578063882f040314610ee357806391d1485414610e9657806392fd707d14610e17578063a217fddf14610dfb578063a908dc6214610b64578063baf9077b14610910578063c4dd1e371461028d578063d547741f14610246578063f597d9941461017a5763f795a6461461011c57600080fd5b34610175576020366003190112610175576004358060005260036020526101498160406000205414611902565b7f980d15b088d1127894ac6300da68467873935cb71f64d1ff99f85614bf474c6c6020604051338152a2005b600080fd5b34610175576000366003190112610175576040518060206007549283815201809260076000527fa66cc928b5edb82af9bd49922954155ab7b0942694bea4ce44661d9a8736c6889060005b81811061022757505050816101db9103826118e1565b6040519182916020830190602084525180915260408301919060005b818110610205575050500390f35b82516001600160a01b03168452859450602093840193909201916001016101f7565b82546001600160a01b03168452602090930192600192830192016101c5565b346101755760403660031901126101755761028b600435610265611805565b9061028661028182600052600060205260016040600020015490565b611cd7565b611d15565b005b346101755760c0366003190112610175576004356001600160401b038111610175576102bd90369060040161181b565b6024356001600160401b038111610175576102dc90369060040161181b565b6044939193356001600160401b038111610175576102fe90369060040161181b565b9290936064356001600160401b0381116101755761032090369060040161181b565b946084356001600160401b0381116101755761034090369060040161181b565b959060a43593600485101561017557610357611c88565b61035f611d97565b600254600101998a6002556040519b8c94610379866118c5565b8c8652610387368a8c611af9565b95602001958652369061039992611af9565b9460408d0195865236906103ac92611af9565b9860608c01998a5236906103bf92611af9565b9660808b0197885236906103d292611af9565b60a08a0190815260c08a01966103e88589611a24565b60e08b0198428a526101008c0194600186526101208d01943386528c60005260036020526040600020809e51815560010190518051906001600160401b03821161073d576104408261043a8554611946565b85611a78565b602090601f83116001146108a957610471929160009183610837575b50508160011b916000199060031b1c19161790565b90555b51805160028e01916001600160401b03821161073d576104988261043a8554611946565b602090601f8311600114610842576104c89291600091836108375750508160011b916000199060031b1c19161790565b90555b51805160038d01916001600160401b03821161073d576104ef8261043a8554611946565b602090601f83116001146107d05761051f9291600091836107c55750508160011b916000199060031b1c19161790565b90555b51805160048c01916001600160401b03821161073d576105468261043a8554611946565b602090601f831160011461075e576105769291600091836107535750508160011b916000199060031b1c19161790565b90555b51805160058b01916001600160401b03821161073d5761059d8261043a8554611946565b602090601f83116001146106d6576105cd9291600091836106cb5750508160011b916000199060031b1c19161790565b90555b60068901955160048110156106b55760209989987f8a9f62701df42f18a82cdd37c50a7bce4cd48487ff236cabc609440251f87c3e9860089360ff80198354169116179055516007820155019151151560ff8019845416911617825551815490610100600160a81b039060081b1690610100600160a81b03191617905561066a856040518486823789818681016004815203019020611b30565b3360005260058752610680856040600020611b30565b6106a461069a604051948594606086526060860191611abd565b91888401906117e2565b3360408301520390a2604051908152f35b634e487b7160e01b600052602160045260246000fd5b015190508d8061045c565b90601f1983169184600052816000209260005b818110610725575090846001959493921061070c575b505050811b0190556105d0565b015160001960f88460031b161c191690558c80806106ff565b929360206001819287860151815501950193016106e9565b634e487b7160e01b600052604160045260246000fd5b015190508e8061045c565b90601f1983169184600052816000209260005b8181106107ad5750908460019594939210610794575b505050811b019055610579565b015160001960f88460031b161c191690558d8080610787565b92936020600181928786015181550195019301610771565b015190508f8061045c565b90601f1983169184600052816000209260005b81811061081f5750908460019594939210610806575b505050811b019055610522565b015160001960f88460031b161c191690558e80806107f9565b929360206001819287860151815501950193016107e3565b01519050388061045c565b90601f1983169184600052816000209260005b8181106108915750908460019594939210610878575b505050811b0190556104cb565b015160001960f88460031b161c191690558f808061086b565b92936020600181928786015181550195019301610855565b90601f1983169184600052816000209260005b8181106108f857509084600195949392106108df575b505050811b019055610474565b015160001960f88460031b161c191690553880806108d2565b929360206001819287860151815501950193016108bc565b346101755761091e36611882565b3360009081527f7d7ffb7a348e1c6a02869081a26547b49160dd3df72d1d75a570eb9b698292ec602052604090205490929060ff168015610b52575b15610b0d576001600160a01b0381166000908152600080516020611fc5833981519152602052604090205460ff1615610ac8576001600160a01b03166000818152600660205260409020929091906001600160401b03811161073d576109ca816109c48654611946565b86611a78565b600093601f8211600114610a4657610a1c82807fc27f3bae021ab8e78d67f94f2cd8248055d6ae911c4cf44c62bd025cd3574ee19697600091610a3b575b508160011b916000199060031b1c19161790565b90555b610a36604051928392602084526020840191611abd565b0390a2005b905085013588610a08565b80855260208520601f19831695805b878110610ab05750837fc27f3bae021ab8e78d67f94f2cd8248055d6ae911c4cf44c62bd025cd3574ee1969710610a96575b5050600182811b019055610a1f565b840135600019600385901b60f8161c191690558580610a87565b90916020600181928589013581550193019101610a55565b60405162461bcd60e51b815260206004820152601b60248201527f41646472657373206973206e6f74206120756e697665727369747900000000006044820152606490fd5b60405162461bcd60e51b815260206004820152601a60248201527f4e6f7420617574686f72697a656420746f20736574206e616d650000000000006044820152606490fd5b50336001600160a01b0382161461095a565b3461017557610b7236611882565b9190610b7c611b6f565b6001600160a01b0382166000908152600080516020611fc5833981519152602052604090205460ff16610dbf57600080516020611fe583398151915260009081526020527f1a7760066bd1f06df3a1a816a948cb99a3a2e8ffa5089500e84706868bfe072e54610beb90611cd7565b6001600160a01b0382166000908152600080516020611fc5833981519152602052604090205460ff1615610d53575b6001600160a01b03821660008181526006602052604090209093906001600160401b03821161073d57610c5782610c518354611946565b83611a78565b600082601f8111600114610cf05780610c8592600091610a3b57508160011b916000199060031b1c19161790565b90555b600754600160401b81101561073d577fc27f3bae021ab8e78d67f94f2cd8248055d6ae911c4cf44c62bd025cd3574ee193610ccc826001610a1f9401600755611a47565b81546001600160a01b0393841660039290921b91821b9390911b1916919091179055565b50818152602081209083601f198116825b818110610d38575010610d1e575b5050600182811b019055610c88565b840135600019600385901b60f8161c191690558580610d0f565b87840135855560019094019360209384019387935001610d01565b6001600160a01b0382166000818152600080516020611fc583398151915260205260408120805460ff19166001179055339190600080516020611fe5833981519152907f2f8788117e7eff1d82e926ec794901d17c78024a50270940304540a733656f0d9080a4610c1a565b60405162461bcd60e51b8152602060048201526014602482015273416c7265616479206120756e697665727369747960601b6044820152606490fd5b3461017557600036600319011261017557602060405160008152f35b3461017557600036600319011261017557610e30611c88565b336000526005602052604060002060405190816020825491828152019160005260206000209060005b818110610e8057610e7c85610e70818703826118e1565b60405191829182611848565b0390f35b8254845260209093019260019283019201610e59565b3461017557604036600319011261017557610eaf611805565b600435600052600060205260406000209060018060a01b0316600052602052602060ff604060002054166040519015158152f35b34610175576020366003190112610175576001600160a01b03610f046117ef565b166000526006602052610e7c610f1d6040600020611980565b6040519182916020835260208301906117bd565b3461017557600036600319011261017557610f4a611b6f565b610f52611d97565b600160ff19815416176001557f62e78cea01bee320cd4e420270b5ea74000d11b0c9f74754ebdbfc544b05a2586020604051338152a1005b346101755760003660031901126101755760206040517fa49807205ce4d355092ef5a8a18f56e8913cf4a201fbe287825b095693c217758152f35b3461017557600036600319011261017557602060ff600154166040519015158152f35b3461017557600036600319011261017557611001611b6f565b60015460ff8116156110405760ff19166001557f5db9ee0a495bf2e6ff9c91a7834c1ba4fdd244a5e8aa4e537bd38aeae4b073aa6020604051338152a1005b60405162461bcd60e51b815260206004820152601460248201527314185d5cd8589b194e881b9bdd081c185d5cd95960621b6044820152606490fd5b34610175576000366003190112610175576020604051600080516020611fe58339815191528152f35b34610175576020366003190112610175576004358060005260036020526110d28160406000205414611902565b6000526003602052602060ff600860406000200154166040519015158152f35b346101755760403660031901126101755761110b611805565b336001600160a01b038216036111275761028b90600435611d15565b60405162461bcd60e51b815260206004820152602f60248201527f416363657373436f6e74726f6c3a2063616e206f6e6c792072656e6f756e636560448201526e103937b632b9903337b91039b2b63360891b6064820152608490fd5b34610175576040366003190112610175576004356111a0611805565b906111bc61028182600052600060205260016040600020015490565b6000818152602081815260408083206001600160a01b038616845290915290205460ff16156111e757005b6000818152602081815260408083206001600160a01b0395909516808452949091528120805460ff19166001179055339291907f2f8788117e7eff1d82e926ec794901d17c78024a50270940304540a733656f0d9080a4005b34610175576020366003190112610175576004356001600160401b03811161017557611272602091369060040161181b565b91908260405193849283378101600481520301902060405190816020825491828152019160005260206000209060005b8181106112b957610e7c85610e70818703826118e1565b82548452602090930192600192830192016112a2565b34610175576020366003190112610175576112e86117ef565b6112f0611b6f565b600080516020611fe583398151915260009081526020527f1a7760066bd1f06df3a1a816a948cb99a3a2e8ffa5089500e84706868bfe072e5461133290611cd7565b6001600160a01b0381166000908152600080516020611fc5833981519152602052604090205460ff1661149a575b6001600160a01b03166000818152600660205260409020805461138290611946565b9081611456575b505060005b6007548082101561028b57826113a383611a47565b905460039190911b1c6001600160a01b0316146113c3575060010161138e565b60001981019250821161144057610ccc6113df6113f793611a47565b905460039190911b1c6001600160a01b031691611a47565b600754801561142a576000190161140d81611a47565b81546001600160a01b0360039290921b9190911b19169055600755005b634e487b7160e01b600052603160045260246000fd5b634e487b7160e01b600052601160045260246000fd5b81601f6000931160011461146e5750555b8180611389565b8183526020832061148a91601f0160051c810190600101611a30565b8082528160208120915555611467565b6001600160a01b0381166000818152600080516020611fc583398151915260205260408120805460ff19169055339190600080516020611fe5833981519152907ff6391f5c32d9c69d2a47ea670b442974b53935d1edc7fd64eb21e047a839171b9080a4611360565b34610175576020366003190112610175576020611530600435600052600060205260016040600020015490565b604051908152f35b3461017557602036600319011261017557600435604051611558816118c5565b60008152602081016060905260408101606090526060810160609052608081016060905260a081016060905260c081016000905260e0810160009052610100810160009052610120016000905280600052600360205280604060002054146115bf90611902565b600052600360205260406000206040516115d8816118c5565b815481526115e860018301611980565b60208201908152916115fc60028201611980565b6040830190815261160f60038301611980565b606084019081529061162360048401611980565b608085019081529261163760058201611980565b60a08601908152600682015460ff169460c08701956116569087611a24565b60078301549260e08801938452600801549461010088019460ff871615158652610120890196600160a01b600190039060081c168752604051998a9960208b525160208b01525160408a0161014090526101608a016116b4916117bd565b9051898203601f190160608b01526116cc91906117bd565b9051888203601f190160808a01526116e491906117bd565b9051878203601f190160a08901526116fc91906117bd565b9051868203601f190160c088015261171491906117bd565b935160e08601611723916117e2565b51610100850152511515610120840152516001600160a01b03166101408301520390f35b34610175576020366003190112610175576004359063ffffffff60e01b821680920361017557602091637965db0b60e01b8114908115611789575b5015158152f35b6301ffc9a760e01b14905083611782565b60005b8381106117ad5750506000910152565b818101518382015260200161179d565b906020916117d68151809281855285808601910161179a565b601f01601f1916010190565b9060048210156106b55752565b600435906001600160a01b038216820361017557565b602435906001600160a01b038216820361017557565b9181601f84011215610175578235916001600160401b038311610175576020838186019501011161017557565b602060408183019282815284518094520192019060005b81811061186c5750505090565b825184526020938401939092019160010161185f565b906040600319830112610175576004356001600160a01b03811681036101755791602435906001600160401b038211610175576118c19160040161181b565b9091565b61014081019081106001600160401b0382111761073d57604052565b90601f801991011681019081106001600160401b0382111761073d57604052565b1561190957565b60405162461bcd60e51b8152602060048201526015602482015274149958dbdc9908191bd95cc81b9bdd08195e1a5cdd605a1b6044820152606490fd5b90600182811c92168015611976575b602083101461196057565b634e487b7160e01b600052602260045260246000fd5b91607f1691611955565b906040519182600082549261199484611946565b8084529360018116908115611a0257506001146119bb575b506119b9925003836118e1565b565b90506000929192526020600020906000915b8183106119e65750509060206119b992820101386119ac565b60209193508060019154838589010152019101909184926119cd565b9050602092506119b994915060ff191682840152151560051b820101386119ac565b60048210156106b55752565b818110611a3b575050565b60008155600101611a30565b600754811015611a6257600760005260206000200190600090565b634e487b7160e01b600052603260045260246000fd5b9190601f8111611a8757505050565b6119b9926000526020600020906020601f840160051c83019310611ab3575b601f0160051c0190611a30565b9091508190611aa6565b908060209392818452848401376000828201840152601f01601f1916010190565b6001600160401b03811161073d57601f01601f191660200190565b929192611b0582611ade565b91611b1360405193846118e1565b829481845281830111610175578281602093846000960137010152565b805490600160401b82101561073d576001820181556000908054831015611b5b578152602090200155565b634e487b7160e01b82526032600452602482fd5b3360009081527f7d7ffb7a348e1c6a02869081a26547b49160dd3df72d1d75a570eb9b698292ec602052604090205460ff1615611ba857565b611c84611bb433611dec565b611c646011611be27fa49807205ce4d355092ef5a8a18f56e8913cf4a201fbe287825b095693c21775611f18565b9260376040519485927f416363657373436f6e74726f6c3a206163636f756e74200000000000000000006020850152611c24815180926020868801910161179a565b83017001034b99036b4b9b9b4b733903937b6329607d1b83820152611c5382518093602060488501910161179a565b01010301601f1981018352826118e1565b60405162461bcd60e51b81526020600482015291829160248301906117bd565b0390fd5b336000908152600080516020611fc5833981519152602052604090205460ff1615611caf57565b611c84611cbb33611dec565b611c646011611be2600080516020611fe5833981519152611f18565b60008181526020818152604080832033845290915290205460ff1615611cfa5750565b611c8490611c646011611be2611d0f33611dec565b93611f18565b6000818152602081815260408083206001600160a01b038616845290915290205460ff16611d41575050565b6000818152602081815260408083206001600160a01b0395909516808452949091528120805460ff19169055339291907ff6391f5c32d9c69d2a47ea670b442974b53935d1edc7fd64eb21e047a839171b9080a4565b60ff60015416611da357565b60405162461bcd60e51b815260206004820152601060248201526f14185d5cd8589b194e881c185d5cd95960821b6044820152606490fd5b908151811015611a62570160200190565b600090611df9602a611ade565b91611e0760405193846118e1565b602a8352611e15602a611ade565b6020840190601f1901368237835115611b5b5760309053825160011015611f04576078602184015350602960005b60018211611e98575050611e545790565b606460405162461bcd60e51b815260206004820152602060248201527f537472696e67733a20686578206c656e67746820696e73756666696369656e746044820152fd5b9091600f81166010811015611ef0576f181899199a1a9b1b9c1cb0b131b232b360811b901a611ec78486611ddb565b5360041c918015611edc576000190190611e43565b634e487b7160e01b82526011600452602482fd5b634e487b7160e01b83526032600452602483fd5b634e487b7160e01b81526032600452602490fd5b600090611f256042611ade565b91611f3360405193846118e1565b60428352611f416042611ade565b6020840190601f1901368237835115611b5b5760309053825160011015611f04576078602184015350604160005b60018211611f80575050611e545790565b9091600f81166010811015611ef0576f181899199a1a9b1b9c1cb0b131b232b360811b901a611faf8486611ddb565b5360041c918015611edc576000190190611f6f56fe1a7760066bd1f06df3a1a816a948cb99a3a2e8ffa5089500e84706868bfe072d5bb0bf1fabd5e975fc7a4520766d9e86e0eb281f8c7c44fcd3dfe60a11e786caa264697066735822122086af6aabded6e3168b3d0000738b5d968350132e52643644ef961aef10f5aabb64736f6c634300081c00332f8788117e7eff1d82e926ec794901d17c78024a50270940304540a733656f0d7d7ffb7a348e1c6a02869081a26547b49160dd3df72d1d75a570eb9b698292ecad3228b676f7d3cd4284a5443f17f1962b36e491b30a40b2405849e597ba5fb5",
  "linkReferences": {},
  "deployedLinkReferences": {}
}