{"contracts/AcademicRecords.sol":{"AcademicRecords":{"abi":[{"inputs":[],"stateMutability":"nonpayable","type":"constructor"},{"anonymous":false,"inputs":[{"indexed":false,"internalType":"address","name":"account","type":"address"}],"name":"Paused","type":"event"},{"anonymous":false,"inputs":[{"indexed":true,"internalType":"uint256","name":"recordId","type":"uint256"},{"indexed":false,"internalType":"address","name":"accessor","type":"address"}],"name":"RecordAccessed","type":"event"},{"anonymous":false,"inputs":[{"indexed":true,"internalType":"uint256","name":"recordId","type":"uint256"},{"indexed":false,"internalType":"string","name":"studentId","type":"string"},{"indexed":false,"internalType":"enum AcademicRecords.RecordType","name":"recordType","type":"uint8"},{"indexed":false,"internalType":"address","name":"issuer","type":"address"}],"name":"RecordAdded","type":"event"},{"anonymous":false,"inputs":[{"indexed":true,"internalType":"uint256","name":"recordId","type":"uint256"},{"indexed":false,"internalType":"address","name":"verifier","type":"address"}],"name":"RecordVerified","type":"event"},{"anonymous":false,"inputs":[{"indexed":true,"internalType":"bytes32","name":"role","type":"bytes32"},{"indexed":true,"internalType":"bytes32","name":"previousAdminRole","type":"bytes32"},{"indexed":true,"internalType":"bytes32","name":"newAdminRole","type":"bytes32"}],"name":"RoleAdminChanged","type":"event"},{"anonymous":false,"inputs":[{"indexed":true,"internalType":"bytes32","name":"role","type":"bytes32"},{"indexed":true,"internalType":"address","name":"account","type":"address"},{"indexed":true,"internalType":"address","name":"sender","type":"address"}],"name":"RoleGranted","type":"event"},{"anonymous":false,"inputs":[{"indexed":true,"internalType":"bytes32","name":"role","type":"bytes32"},{"indexed":true,"internalType":"address","name":"account","type":"address"},{"indexed":true,"internalType":"address","name":"sender","type":"address"}],"name":"RoleRevoked","type":"event"},{"anonymous":false,"inputs":[{"indexed":false,"internalType":"address","name":"account","type":"address"}],"name":"Unpaused","type":"event"},{"inputs":[],"name":"ADMIN_ROLE","outputs":[{"internalType":"bytes32","name":"","type":"bytes32"}],"stateMutability":"view","type":"function"},{"inputs":[],"name":"DEFAULT_ADMIN_ROLE","outputs":[{"internalType":"bytes32","name":"","type":"bytes32"}],"stateMutability":"view","type":"function"},{"inputs":[],"name":"UNIVERSITY_ROLE","outputs":[{"internalType":"bytes32","name":"","type":"bytes32"}],"stateMutability":"view","type":"function"},{"inputs":[{"internalType":"string","name":"studentId","type":"string"},{"internalType":"string","name":"studentName","type":"string"},{"internalType":"string","name":"universityName","type":"string"},{"internalType":"string","name":"ipfsHash","type":"string"},{"internalType":"string","name":"metadataHash","type":"string"},{"internalType":"enum AcademicRecords.RecordType","name":"recordType","type":"uint8"}],"name":"addRecord","outputs":[{"internalType":"uint256","name":"","type":"uint256"}],"stateMutability":"nonpayable","type":"function"},{"inputs":[{"internalType":"address","name":"universityAddress","type":"address"}],"name":"addUniversity","outputs":[],"stateMutability":"nonpayable","type":"function"},{"inputs":[{"internalType":"uint256","name":"recordId","type":"uint256"}],"name":"getRecord","outputs":[{"components":[{"internalType":"uint256","name":"id","type":"uint256"},{"internalType":"string","name":"studentId","type":"string"},{"internalType":"string","name":"studentName","type":"string"},{"internalType":"string","name":"universityName","type":"string"},{"internalType":"string","name":"ipfsHash","type":"string"},{"internalType":"string","name":"metadataHash","type":"string"},{"internalType":"enum AcademicRecords.RecordType","name":"recordType","type":"uint8"},{"internalType":"uint256","name":"timestamp","type":"uint256"},{"internalType":"bool","name":"isVerified","type":"bool"},{"internalType":"address","name":"issuer","type":"address"}],"internalType":"struct AcademicRecords.Record","name":"","type":"tuple"}],"stateMutability":"view","type":"function"},{"inputs":[{"internalType":"bytes32","name":"role","type":"bytes32"}],"name":"getRoleAdmin","outputs":[{"internalType":"bytes32","name":"","type":"bytes32"}],"stateMutability":"view","type":"function"},{"inputs":[{"internalType":"string","name":"studentId","type":"string"}],"name":"getStudentRecords","outputs":[{"internalType":"uint256[]","name":"","type":"uint256[]"}],"stateMutability":"view","type":"function"},{"inputs":[],"name":"getUniversityRecords","outputs":[{"internalType":"uint256[]","name":"","type":"uint256[]"}],"stateMutability":"view","type":"function"},{"inputs":[{"internalType":"bytes32","name":"role","type":"bytes32"},{"internalType":"address","name":"account","type":"address"}],"name":"grantRole","outputs":[],"stateMutability":"nonpayable","type":"function"},{"inputs":[{"internalType":"bytes32","name":"role","type":"bytes32"},{"internalType":"address","name":"account","type":"address"}],"name":"hasRole","outputs":[{"internalType":"bool","name":"","type":"bool"}],"stateMutability":"view","type":"function"},{"inputs":[],"name":"pause","outputs":[],"stateMutability":"nonpayable","type":"function"},{"inputs":[],"name":"paused","outputs":[{"internalType":"bool","name":"","type":"bool"}],"stateMutability":"view","type":"function"},{"inputs":[{"internalType":"uint256","name":"recordId","type":"uint256"}],"name":"recordAccess","outputs":[],"stateMutability":"nonpayable","type":"function"},{"inputs":[{"internalType":"address","name":"universityAddress","type":"address"}],"name":"removeUniversity","outputs":[],"stateMutability":"nonpayable","type":"function"},{"inputs":[{"internalType":"bytes32","name":"role","type":"bytes32"},{"internalType":"address","name":"account","type":"address"}],"name":"renounceRole","outputs":[],"stateMutability":"nonpayable","type":"function"},{"inputs":[{"internalType":"bytes32","name":"role","type":"bytes32"},{"internalType":"address","name":"account","type":"address"}],"name":"revokeRole","outputs":[],"stateMutability":"nonpayable","type":"function"},{"inputs":[{"internalType":"bytes4","name":"interfaceId","type":"bytes4"}],"name":"supportsInterface","outputs":[{"internalType":"bool","name":"","type":"bool"}],"stateMutability":"view","type":"function"},{"inputs":[],"name":"unpause","outputs":[],"stateMutability":"nonpayable","type":"function"},{"inputs":[{"internalType":"uint256","name":"recordId","type":"uint256"}],"name":"verifyRecord","outputs":[{"internalType":"bool","name":"","type":"bool"}],"stateMutability":"view","type":"function"}],"evm":{"bytecode":{"linkReferences":{},"object":"608060405234610110576001805460ff19169055336000908152600080516020611bfd833981519152602052604090205460ff16156100d0575b336000908152600080516020611bdd833981519152602052604090205460ff161561006e575b604051611aa790816101168239f35b336000818152600080516020611bdd83398151915260205260408120805460ff1916600117905581907fa49807205ce4d355092ef5a8a18f56e8913cf4a201fbe287825b095693c2177590600080516020611bbd8339815191529080a461005f565b336000818152600080516020611bfd83398151915260205260408120805460ff191660011790558190600080516020611bbd8339815191528180a4610039565b600080fdfe608080604052600436101561001357600080fd5b60003560e01c90816301ffc9a71461128c5750806303e9e6091461107d578063248a9ca31461104857806328f54b2f14610f515780632d175a1814610ec25780632f2ff15d14610e0657806336568abe14610d7457806339bdf2a114610c795780633af4d95014610c2c5780633d17841414610c035780633f4ba83a14610b6f5780635c975abb14610b4c57806375b238fc14610b115780638456cb5914610ab857806391d1485414610a6b57806392fd707d146109ec578063a217fddf146109d0578063c4dd1e37146101a0578063d547741f146101595763f795a646146100fb57600080fd5b34610154576020366003190112610154576004358060005260036020526101288160406000205414611404565b7f980d15b088d1127894ac6300da68467873935cb71f64d1ff99f85614bf474c6c6020604051338152a2005b600080fd5b346101545760403660031901126101545761019e60043561017861134a565b9061019961019482600052600060205260016040600020015490565b611730565b61176e565b005b346101545760c0366003190112610154576004356001600160401b038111610154576101d0903690600401611360565b906024356001600160401b038111610154576101f0903690600401611360565b90916044356001600160401b03811161015457610211903690600401611360565b9490936064356001600160401b03811161015457610233903690600401611360565b6084949194356001600160401b03811161015457610255903690600401611360565b9060a4359660048810156101545761026b6116e1565b6102736117f0565b600254600101998a6002556040519661028b886113c7565b8b8852610299368a8961154d565b9a602089019b8c5236906102ac9261154d565b9b604088019c8d5236906102bf9261154d565b936060870194855236906102d29261154d565b916080860192835236906102e59261154d565b60a0850190815260c08501916102fb8884611526565b60e086019342855261010087019b60018d5261012088019a338c528c60005260036020526040600020985189556001890190518051906001600160401b0382116106ae57819061034b8454611448565b601f811161097d575b50602090601f83116001146109185760009261090d575b50508160011b916000199060031b1c19161790555b51805160028901916001600160401b0382116106ae5781906103a28454611448565b601f81116108ba575b50602090601f83116001146108555760009261084a575b50508160011b916000199060031b1c19161790555b51805160038801916001600160401b0382116106ae5781906103f98454611448565b601f81116107f7575b50602090601f831160011461079257600092610787575b50508160011b916000199060031b1c19161790555b51805160048701916001600160401b0382116106ae5781906104508454611448565b601f8111610734575b50602090601f83116001146106cf576000926106c4575b50508160011b916000199060031b1c19161790555b51805160058601916001600160401b0382116106ae5781906104a78454611448565b601f811161065b575b50602090601f83116001146105f6576000926105eb575b50508160011b916000199060031b1c19161790555b6006840190519560048710156105d5576020998998600860809789966105ba967f8a9f62701df42f18a82cdd37c50a7bce4cd48487ff236cabc609440251f87c3e9c60ff80198354169116179055516007820155019151151560ff8019845416911617825551815490610100600160a81b039060081b1690610100600160a81b03191617905561057f88604051858782378c818781016004815203019020611584565b3360005260058a52610595886040600020611584565b6040519586946060865281606087015286860137600085848601015289840190611327565b336040830152601f01601f19168101030190a2604051908152f35b634e487b7160e01b600052602160045260246000fd5b015190508c806104c7565b60008581528281209350601f198516905b818110610643575090846001959493921061062a575b505050811b0190556104dc565b015160001960f88460031b161c191690558c808061061d565b92936020600181928786015181550195019301610607565b909150836000526020600020601f840160051c810191602085106106a4575b90601f859493920160051c01905b81811061069557506104b0565b60008155849350600101610688565b909150819061067a565b634e487b7160e01b600052604160045260246000fd5b015190508d80610470565b60008581528281209350601f198516905b81811061071c5750908460019594939210610703575b505050811b019055610485565b015160001960f88460031b161c191690558d80806106f6565b929360206001819287860151815501950193016106e0565b909150836000526020600020601f840160051c8101916020851061077d575b90601f859493920160051c01905b81811061076e5750610459565b60008155849350600101610761565b9091508190610753565b015190508e80610419565b60008581528281209350601f198516905b8181106107df57509084600195949392106107c6575b505050811b01905561042e565b015160001960f88460031b161c191690558e80806107b9565b929360206001819287860151815501950193016107a3565b909150836000526020600020601f840160051c81019160208510610840575b90601f859493920160051c01905b8181106108315750610402565b60008155849350600101610824565b9091508190610816565b015190508f806103c2565b60008581528281209350601f198516905b8181106108a25750908460019594939210610889575b505050811b0190556103d7565b015160001960f88460031b161c191690558f808061087c565b92936020600181928786015181550195019301610866565b909150836000526020600020601f840160051c81019160208510610903575b90601f859493920160051c01905b8181106108f457506103ab565b600081558493506001016108e7565b90915081906108d9565b01519050388061036b565b60008581528281209350601f198516905b818110610965575090846001959493921061094c575b505050811b019055610380565b015160001960f88460031b161c1916905538808061093f565b92936020600181928786015181550195019301610929565b909150836000526020600020601f840160051c810191602085106109c6575b90601f859493920160051c01905b8181106109b75750610354565b600081558493506001016109aa565b909150819061099c565b3461015457600036600319011261015457602060405160008152f35b3461015457600036600319011261015457610a056116e1565b336000526005602052604060002060405190816020825491828152019160005260206000209060005b818110610a5557610a5185610a45818703826113e3565b6040519182918261138d565b0390f35b8254845260209093019260019283019201610a2e565b3461015457604036600319011261015457610a8461134a565b600435600052600060205260406000209060018060a01b0316600052602052602060ff604060002054166040519015158152f35b3461015457600036600319011261015457610ad16115c8565b610ad96117f0565b600160ff19815416176001557f62e78cea01bee320cd4e420270b5ea74000d11b0c9f74754ebdbfc544b05a2586020604051338152a1005b346101545760003660031901126101545760206040517fa49807205ce4d355092ef5a8a18f56e8913cf4a201fbe287825b095693c217758152f35b3461015457600036600319011261015457602060ff600154166040519015158152f35b3461015457600036600319011261015457610b886115c8565b60015460ff811615610bc75760ff19166001557f5db9ee0a495bf2e6ff9c91a7834c1ba4fdd244a5e8aa4e537bd38aeae4b073aa6020604051338152a1005b60405162461bcd60e51b815260206004820152601460248201527314185d5cd8589b194e881b9bdd081c185d5cd95960621b6044820152606490fd5b34610154576000366003190112610154576020604051600080516020611a528339815191528152f35b3461015457602036600319011261015457600435806000526003602052610c598160406000205414611404565b6000526003602052602060ff600860406000200154166040519015158152f35b3461015457602036600319011261015457610c92611334565b610c9a6115c8565b600080516020611a5283398151915260009081526020527f1a7760066bd1f06df3a1a816a948cb99a3a2e8ffa5089500e84706868bfe072e54610cdc90611730565b6001600160a01b0381166000908152600080516020611a32833981519152602052604090205460ff1615610d0c57005b6001600160a01b03166000818152600080516020611a3283398151915260205260408120805460ff19166001179055339190600080516020611a52833981519152907f2f8788117e7eff1d82e926ec794901d17c78024a50270940304540a733656f0d9080a4005b3461015457604036600319011261015457610d8d61134a565b336001600160a01b03821603610da95761019e9060043561176e565b60405162461bcd60e51b815260206004820152602f60248201527f416363657373436f6e74726f6c3a2063616e206f6e6c792072656e6f756e636560448201526e103937b632b9903337b91039b2b63360891b6064820152608490fd5b3461015457604036600319011261015457600435610e2261134a565b90610e3e61019482600052600060205260016040600020015490565b6000818152602081815260408083206001600160a01b038616845290915290205460ff1615610e6957005b6000818152602081815260408083206001600160a01b0395909516808452949091528120805460ff19166001179055339291907f2f8788117e7eff1d82e926ec794901d17c78024a50270940304540a733656f0d9080a4005b34610154576020366003190112610154576004356001600160401b03811161015457610ef46020913690600401611360565b91908260405193849283378101600481520301902060405190816020825491828152019160005260206000209060005b818110610f3b57610a5185610a45818703826113e3565b8254845260209093019260019283019201610f24565b3461015457602036600319011261015457610f6a611334565b610f726115c8565b600080516020611a5283398151915260009081526020527f1a7760066bd1f06df3a1a816a948cb99a3a2e8ffa5089500e84706868bfe072e54610fb490611730565b6001600160a01b0381166000908152600080516020611a32833981519152602052604090205460ff16610fe357005b6001600160a01b03166000818152600080516020611a3283398151915260205260408120805460ff19169055339190600080516020611a52833981519152907ff6391f5c32d9c69d2a47ea670b442974b53935d1edc7fd64eb21e047a839171b9080a4005b34610154576020366003190112610154576020611075600435600052600060205260016040600020015490565b604051908152f35b346101545760203660031901126101545760043560405161109d816113c7565b60008152602081016060905260408101606090526060810160609052608081016060905260a081016060905260c081016000905260e08101600090526101008101600090526101200160009052806000526003602052806040600020541461110490611404565b6000526003602052604060002060405161111d816113c7565b8154815261112d60018301611482565b602082019081529161114160028201611482565b6040830190815261115460038301611482565b606084019081529061116860048401611482565b608085019081529261117c60058201611482565b60a08601908152600682015460ff169460c087019561119b9087611526565b60078301549260e08801938452600801549461010088019460ff871615158652610120890196600160a01b600190039060081c168752604051998a9960208b525160208b01525160408a0161014090526101608a016111f991611302565b9051898203601f190160608b01526112119190611302565b9051888203601f190160808a01526112299190611302565b9051878203601f190160a08901526112419190611302565b9051868203601f190160c08801526112599190611302565b935160e0860161126891611327565b51610100850152511515610120840152516001600160a01b03166101408301520390f35b34610154576020366003190112610154576004359063ffffffff60e01b821680920361015457602091637965db0b60e01b81149081156112ce575b5015158152f35b6301ffc9a760e01b149050836112c7565b60005b8381106112f25750506000910152565b81810151838201526020016112e2565b9060209161131b815180928185528580860191016112df565b601f01601f1916010190565b9060048210156105d55752565b600435906001600160a01b038216820361015457565b602435906001600160a01b038216820361015457565b9181601f84011215610154578235916001600160401b038311610154576020838186019501011161015457565b602060408183019282815284518094520192019060005b8181106113b15750505090565b82518452602093840193909201916001016113a4565b61014081019081106001600160401b038211176106ae57604052565b90601f801991011681019081106001600160401b038211176106ae57604052565b1561140b57565b60405162461bcd60e51b8152602060048201526015602482015274149958dbdc9908191bd95cc81b9bdd08195e1a5cdd605a1b6044820152606490fd5b90600182811c92168015611478575b602083101461146257565b634e487b7160e01b600052602260045260246000fd5b91607f1691611457565b906040519182600082549261149684611448565b808452936001811690811561150457506001146114bd575b506114bb925003836113e3565b565b90506000929192526020600020906000915b8183106114e85750509060206114bb92820101386114ae565b60209193508060019154838589010152019101909184926114cf565b9050602092506114bb94915060ff191682840152151560051b820101386114ae565b60048210156105d55752565b6001600160401b0381116106ae57601f01601f191660200190565b92919261155982611532565b9161156760405193846113e3565b829481845281830111610154578281602093846000960137010152565b805490680100000000000000008210156106ae57600182018082558210156115b25760005260206000200155565b634e487b7160e01b600052603260045260246000fd5b3360009081527f7d7ffb7a348e1c6a02869081a26547b49160dd3df72d1d75a570eb9b698292ec602052604090205460ff161561160157565b6116dd61160d33611845565b6116bd601161163b7fa49807205ce4d355092ef5a8a18f56e8913cf4a201fbe287825b095693c21775611985565b9260376040519485927f416363657373436f6e74726f6c3a206163636f756e7420000000000000000000602085015261167d81518092602086880191016112df565b83017001034b99036b4b9b9b4b733903937b6329607d1b838201526116ac8251809360206048850191016112df565b01010301601f1981018352826113e3565b60405162461bcd60e51b8152602060048201529182916024830190611302565b0390fd5b336000908152600080516020611a32833981519152602052604090205460ff161561170857565b6116dd61171433611845565b6116bd601161163b600080516020611a52833981519152611985565b60008181526020818152604080832033845290915290205460ff16156117535750565b6116dd906116bd601161163b61176833611845565b93611985565b6000818152602081815260408083206001600160a01b038616845290915290205460ff1661179a575050565b6000818152602081815260408083206001600160a01b0395909516808452949091528120805460ff19169055339291907ff6391f5c32d9c69d2a47ea670b442974b53935d1edc7fd64eb21e047a839171b9080a4565b60ff600154166117fc57565b60405162461bcd60e51b815260206004820152601060248201526f14185d5cd8589b194e881c185d5cd95960821b6044820152606490fd5b9081518110156115b2570160200190565b600090611852602a611532565b9161186060405193846113e3565b602a835261186e602a611532565b6020840190601f1901368237835115611971576030905382516001101561195d576078602184015350602960005b600182116118f15750506118ad5790565b606460405162461bcd60e51b815260206004820152602060248201527f537472696e67733a20686578206c656e67746820696e73756666696369656e746044820152fd5b9091600f81166010811015611949576f181899199a1a9b1b9c1cb0b131b232b360811b901a6119208486611834565b5360041c91801561193557600019019061189c565b634e487b7160e01b82526011600452602482fd5b634e487b7160e01b83526032600452602483fd5b634e487b7160e01b81526032600452602490fd5b634e487b7160e01b82526032600452602482fd5b6000906119926042611532565b916119a060405193846113e3565b604283526119ae6042611532565b6020840190601f1901368237835115611971576030905382516001101561195d576078602184015350604160005b600182116119ed5750506118ad5790565b9091600f81166010811015611949576f181899199a1a9b1b9c1cb0b131b232b360811b901a611a1c8486611834565b5360041c9180156119355760001901906119dc56fe1a7760066bd1f06df3a1a816a948cb99a3a2e8ffa5089500e84706868bfe072d5bb0bf1fabd5e975fc7a4520766d9e86e0eb281f8c7c44fcd3dfe60a11e786caa26469706673582212209b0bda47564653941f0801fb788b6bdf68a4462a777291af04d3657236ad427764736f6c634300081c00332f8788117e7eff1d82e926ec794901d17c78024a50270940304540a733656f0d7d7ffb7a348e1c6a02869081a26547b49160dd3df72d1d75a570eb9b698292ecad3228b676f7d3cd4284a5443f17f1962b36e491b30a40b2405849e597ba5fb5","opcodes":"PUSH1 0x80 PUSH1 0x40 MSTORE CALLVALUE PUSH2 0x110 JUMPI PUSH1 0x1 DUP1 SLOAD PUSH1 0xFF NOT AND SWAP1 SSTORE CALLER PUSH1 0x0 SWAP1 DUP2 MSTORE PUSH1 0x0 DUP1 MLOAD PUSH1 0x20 PUSH2 0x1BFD DUP4 CODECOPY DUP2 MLOAD SWAP2 MSTORE PUSH1 0x20 MSTORE PUSH1 0x40 SWAP1 KECCAK256 SLOAD PUSH1 0xFF AND ISZERO PUSH2 0xD0 JUMPI JUMPDEST CALLER PUSH1 0x0 SWAP1 DUP2 MSTORE PUSH1 0x0 DUP1 MLOAD PUSH1 0x20 PUSH2 0x1BDD DUP4 CODECOPY DUP2 MLOAD SWAP2 MSTORE PUSH1 0x20 MSTORE PUSH1 0x40 SWAP1 KECCAK256 SLOAD PUSH1 0xFF AND ISZERO PUSH2 0x6E JUMPI JUMPDEST PUSH1 0x40 MLOAD PUSH2 0x1AA7 SWAP1 DUP2 PUSH2 0x116 DUP3 CODECOPY RETURN JUMPDEST CALLER PUSH1 0x0 DUP2 DUP2 MSTORE PUSH1 0x0 DUP1 MLOAD PUSH1 0x20 PUSH2 0x1BDD DUP4 CODECOPY DUP2 MLOAD SWAP2 MSTORE PUSH1 0x20 MSTORE PUSH1 0x40 DUP2 KECCAK256 DUP1 SLOAD PUSH1 0xFF NOT AND PUSH1 0x1 OR SWAP1 SSTORE DUP2 SWAP1 PUSH32 0xA49807205CE4D355092EF5A8A18F56E8913CF4A201FBE287825B095693C21775 SWAP1 PUSH1 0x0 DUP1 MLOAD PUSH1 0x20 PUSH2 0x1BBD DUP4 CODECOPY DUP2 MLOAD SWAP2 MSTORE SWAP1 DUP1 LOG4 PUSH2 0x5F JUMP JUMPDEST CALLER PUSH1 0x0 DUP2 DUP2 MSTORE PUSH1 0x0 DUP1 MLOAD PUSH1 0x20 PUSH2 0x1BFD DUP4 CODECOPY DUP2 MLOAD SWAP2 MSTORE PUSH1 0x20 MSTORE PUSH1 0x40 DUP2 KECCAK256 DUP1 SLOAD PUSH1 0xFF NOT AND PUSH1 0x1 OR SWAP1 SSTORE DUP2 SWAP1 PUSH1 0x0 DUP1 MLOAD PUSH1 0x20 PUSH2 0x1BBD DUP4 CODECOPY DUP2 MLOAD SWAP2 MSTORE DUP2 DUP1 LOG4 PUSH2 0x39 JUMP JUMPDEST PUSH1 0x0 DUP1 REVERT INVALID PUSH1 0x80 DUP1 PUSH1 0x40 MSTORE PUSH1 0x4 CALLDATASIZE LT ISZERO PUSH2 0x13 JUMPI PUSH1 0x0 DUP1 REVERT JUMPDEST PUSH1 0x0 CALLDATALOAD PUSH1 0xE0 SHR SWAP1 DUP2 PUSH4 0x1FFC9A7 EQ PUSH2 0x128C JUMPI POP DUP1 PUSH4 0x3E9E609 EQ PUSH2 0x107D JUMPI DUP1 PUSH4 0x248A9CA3 EQ PUSH2 0x1048 JUMPI DUP1 PUSH4 0x28F54B2F EQ PUSH2 0xF51 JUMPI DUP1 PUSH4 0x2D175A18 EQ PUSH2 0xEC2 JUMPI DUP1 PUSH4 0x2F2FF15D EQ PUSH2 0xE06 JUMPI DUP1 PUSH4 0x36568ABE EQ PUSH2 0xD74 JUMPI DUP1 PUSH4 0x39BDF2A1 EQ PUSH2 0xC79 JUMPI DUP1 PUSH4 0x3AF4D950 EQ PUSH2 0xC2C JUMPI DUP1 PUSH4 0x3D178414 EQ PUSH2 0xC03 JUMPI DUP1 PUSH4 0x3F4BA83A EQ PUSH2 0xB6F JUMPI DUP1 PUSH4 0x5C975ABB EQ PUSH2 0xB4C JUMPI DUP1 PUSH4 0x75B238FC EQ PUSH2 0xB11 JUMPI DUP1 PUSH4 0x8456CB59 EQ PUSH2 0xAB8 JUMPI DUP1 PUSH4 0x91D14854 EQ PUSH2 0xA6B JUMPI DUP1 PUSH4 0x92FD707D EQ PUSH2 0x9EC JUMPI DUP1 PUSH4 0xA217FDDF EQ PUSH2 0x9D0 JUMPI DUP1 PUSH4 0xC4DD1E37 EQ PUSH2 0x1A0 JUMPI DUP1 PUSH4 0xD547741F EQ PUSH2 0x159 JUMPI PUSH4 0xF795A646 EQ PUSH2 0xFB JUMPI PUSH1 0x0 DUP1 REVERT JUMPDEST CALLVALUE PUSH2 0x154 JUMPI PUSH1 0x20 CALLDATASIZE PUSH1 0x3 NOT ADD SLT PUSH2 0x154 JUMPI PUSH1 0x4 CALLDATALOAD DUP1 PUSH1 0x0 MSTORE PUSH1 0x3 PUSH1 0x20 MSTORE PUSH2 0x128 DUP2 PUSH1 0x40 PUSH1 0x0 KECCAK256 SLOAD EQ PUSH2 0x1404 JUMP JUMPDEST PUSH32 0x980D15B088D1127894AC6300DA68467873935CB71F64D1FF99F85614BF474C6C PUSH1 0x20 PUSH1 0x40 MLOAD CALLER DUP2 MSTORE LOG2 STOP JUMPDEST PUSH1 0x0 DUP1 REVERT JUMPDEST CALLVALUE PUSH2 0x154 JUMPI PUSH1 0x40 CALLDATASIZE PUSH1 0x3 NOT ADD SLT PUSH2 0x154 JUMPI PUSH2 0x19E PUSH1 0x4 CALLDATALOAD PUSH2 0x178 PUSH2 0x134A JUMP JUMPDEST SWAP1 PUSH2 0x199 PUSH2 0x194 DUP3 PUSH1 0x0 MSTORE PUSH1 0x0 PUSH1 0x20 MSTORE PUSH1 0x1 PUSH1 0x40 PUSH1 0x0 KECCAK256 ADD SLOAD SWAP1 JUMP JUMPDEST PUSH2 0x1730 JUMP JUMPDEST PUSH2 0x176E JUMP JUMPDEST STOP JUMPDEST CALLVALUE PUSH2 0x154 JUMPI PUSH1 0xC0 CALLDATASIZE PUSH1 0x3 NOT ADD SLT PUSH2 0x154 JUMPI PUSH1 0x4 CALLDATALOAD PUSH1 0x1 PUSH1 0x1 PUSH1 0x40 SHL SUB DUP2 GT PUSH2 0x154 JUMPI PUSH2 0x1D0 SWAP1 CALLDATASIZE SWAP1 PUSH1 0x4 ADD PUSH2 0x1360 JUMP JUMPDEST SWAP1 PUSH1 0x24 CALLDATALOAD PUSH1 0x1 PUSH1 0x1 PUSH1 0x40 SHL SUB DUP2 GT PUSH2 0x154 JUMPI PUSH2 0x1F0 SWAP1 CALLDATASIZE SWAP1 PUSH1 0x4 ADD PUSH2 0x1360 JUMP JUMPDEST SWAP1 SWAP2 PUSH1 0x44 CALLDATALOAD PUSH1 0x1 PUSH1 0x1 PUSH1 0x40 SHL SUB DUP2 GT PUSH2 0x154 JUMPI PUSH2 0x211 SWAP1 CALLDATASIZE SWAP1 PUSH1 0x4 ADD PUSH2 0x1360 JUMP JUMPDEST SWAP5 SWAP1 SWAP4 PUSH1 0x64 CALLDATALOAD PUSH1 0x1 PUSH1 0x1 PUSH1 0x40 SHL SUB DUP2 GT PUSH2 0x154 JUMPI PUSH2 0x233 SWAP1 CALLDATASIZE SWAP1 PUSH1 0x4 ADD PUSH2 0x1360 JUMP JUMPDEST PUSH1 0x84 SWAP5 SWAP2 SWAP5 CALLDATALOAD PUSH1 0x1 PUSH1 0x1 PUSH1 0x40 SHL SUB DUP2 GT PUSH2 0x154 JUMPI PUSH2 0x255 SWAP1 CALLDATASIZE SWAP1 PUSH1 0x4 ADD PUSH2 0x1360 JUMP JUMPDEST SWAP1 PUSH1 0xA4 CALLDATALOAD SWAP7 PUSH1 0x4 DUP9 LT ISZERO PUSH2 0x154 JUMPI PUSH2 0x26B PUSH2 0x16E1 JUMP JUMPDEST PUSH2 0x273 PUSH2 0x17F0 JUMP JUMPDEST PUSH1 0x2 SLOAD PUSH1 0x1 ADD SWAP10 DUP11 PUSH1 0x2 SSTORE PUSH1 0x40 MLOAD SWAP7 PUSH2 0x28B DUP9 PUSH2 0x13C7 JUMP JUMPDEST DUP12 DUP9 MSTORE PUSH2 0x299 CALLDATASIZE DUP11 DUP10 PUSH2 0x154D JUMP JUMPDEST SWAP11 PUSH1 0x20 DUP10 ADD SWAP12 DUP13 MSTORE CALLDATASIZE SWAP1 PUSH2 0x2AC SWAP3 PUSH2 0x154D JUMP JUMPDEST SWAP12 PUSH1 0x40 DUP9 ADD SWAP13 DUP14 MSTORE CALLDATASIZE SWAP1 PUSH2 0x2BF SWAP3 PUSH2 0x154D JUMP JUMPDEST SWAP4 PUSH1 0x60 DUP8 ADD SWAP5 DUP6 MSTORE CALLDATASIZE SWAP1 PUSH2 0x2D2 SWAP3 PUSH2 0x154D JUMP JUMPDEST SWAP2 PUSH1 0x80 DUP7 ADD SWAP3 DUP4 MSTORE CALLDATASIZE SWAP1 PUSH2 0x2E5 SWAP3 PUSH2 0x154D JUMP JUMPDEST PUSH1 0xA0 DUP6 ADD SWAP1 DUP2 MSTORE PUSH1 0xC0 DUP6 ADD SWAP2 PUSH2 0x2FB DUP9 DUP5 PUSH2 0x1526 JUMP JUMPDEST PUSH1 0xE0 DUP7 ADD SWAP4 TIMESTAMP DUP6 MSTORE PUSH2 0x100 DUP8 ADD SWAP12 PUSH1 0x1 DUP14 MSTORE PUSH2 0x120 DUP9 ADD SWAP11 CALLER DUP13 MSTORE DUP13 PUSH1 0x0 MSTORE PUSH1 0x3 PUSH1 0x20 MSTORE PUSH1 0x40 PUSH1 0x0 KECCAK256 SWAP9 MLOAD DUP10 SSTORE PUSH1 0x1 DUP10 ADD SWAP1 MLOAD DUP1 MLOAD SWAP1 PUSH1 0x1 PUSH1 0x1 PUSH1 0x40 SHL SUB DUP3 GT PUSH2 0x6AE JUMPI DUP2 SWAP1 PUSH2 0x34B DUP5 SLOAD PUSH2 0x1448 JUMP JUMPDEST PUSH1 0x1F DUP2 GT PUSH2 0x97D JUMPI JUMPDEST POP PUSH1 0x20 SWAP1 PUSH1 0x1F DUP4 GT PUSH1 0x1 EQ PUSH2 0x918 JUMPI PUSH1 0x0 SWAP3 PUSH2 0x90D JUMPI JUMPDEST POP POP DUP2 PUSH1 0x1 SHL SWAP2 PUSH1 0x0 NOT SWAP1 PUSH1 0x3 SHL SHR NOT AND OR SWAP1 SSTORE JUMPDEST MLOAD DUP1 MLOAD PUSH1 0x2 DUP10 ADD SWAP2 PUSH1 0x1 PUSH1 0x1 PUSH1 0x40 SHL SUB DUP3 GT PUSH2 0x6AE JUMPI DUP2 SWAP1 PUSH2 0x3A2 DUP5 SLOAD PUSH2 0x1448 JUMP JUMPDEST PUSH1 0x1F DUP2 GT PUSH2 0x8BA JUMPI JUMPDEST POP PUSH1 0x20 SWAP1 PUSH1 0x1F DUP4 GT PUSH1 0x1 EQ PUSH2 0x855 JUMPI PUSH1 0x0 SWAP3 PUSH2 0x84A JUMPI JUMPDEST POP POP DUP2 PUSH1 0x1 SHL SWAP2 PUSH1 0x0 NOT SWAP1 PUSH1 0x3 SHL SHR NOT AND OR SWAP1 SSTORE JUMPDEST MLOAD DUP1 MLOAD PUSH1 0x3 DUP9 ADD SWAP2 PUSH1 0x1 PUSH1 0x1 PUSH1 0x40 SHL SUB DUP3 GT PUSH2 0x6AE JUMPI DUP2 SWAP1 PUSH2 0x3F9 DUP5 SLOAD PUSH2 0x1448 JUMP JUMPDEST PUSH1 0x1F DUP2 GT PUSH2 0x7F7 JUMPI JUMPDEST POP PUSH1 0x20 SWAP1 PUSH1 0x1F DUP4 GT PUSH1 0x1 EQ PUSH2 0x792 JUMPI PUSH1 0x0 SWAP3 PUSH2 0x787 JUMPI JUMPDEST POP POP DUP2 PUSH1 0x1 SHL SWAP2 PUSH1 0x0 NOT SWAP1 PUSH1 0x3 SHL SHR NOT AND OR SWAP1 SSTORE JUMPDEST MLOAD DUP1 MLOAD PUSH1 0x4 DUP8 ADD SWAP2 PUSH1 0x1 PUSH1 0x1 PUSH1 0x40 SHL SUB DUP3 GT PUSH2 0x6AE JUMPI DUP2 SWAP1 PUSH2 0x450 DUP5 SLOAD PUSH2 0x1448 JUMP JUMPDEST PUSH1 0x1F DUP2 GT PUSH2 0x734 JUMPI JUMPDEST POP PUSH1 0x20 SWAP1 PUSH1 0x1F DUP4 GT PUSH1 0x1 EQ PUSH2 0x6CF JUMPI PUSH1 0x0 SWAP3 PUSH2 0x6C4 JUMPI JUMPDEST POP POP DUP2 PUSH1 0x1 SHL SWAP2 PUSH1 0x0 NOT SWAP1 PUSH1 0x3 SHL SHR NOT AND OR SWAP1 SSTORE JUMPDEST MLOAD DUP1 MLOAD PUSH1 0x5 DUP7 ADD SWAP2 PUSH1 0x1 PUSH1 0x1 PUSH1 0x40 SHL SUB DUP3 GT PUSH2 0x6AE JUMPI DUP2 SWAP1 PUSH2 0x4A7 DUP5 SLOAD PUSH2 0x1448 JUMP JUMPDEST PUSH1 0x1F DUP2 GT PUSH2 0x65B JUMPI JUMPDEST POP PUSH1 0x20 SWAP1 PUSH1 0x1F DUP4 GT PUSH1 0x1 EQ PUSH2 0x5F6 JUMPI PUSH1 0x0 SWAP3 PUSH2 0x5EB JUMPI JUMPDEST POP POP DUP2 PUSH1 0x1 SHL SWAP2 PUSH1 0x0 NOT SWAP1 PUSH1 0x3 SHL SHR NOT AND OR SWAP1 SSTORE JUMPDEST PUSH1 0x6 DUP5 ADD SWAP1 MLOAD SWAP6 PUSH1 0x4 DUP8 LT ISZERO PUSH2 0x5D5 JUMPI PUSH1 0x20 SWAP10 DUP10 SWAP9 PUSH1 0x8 PUSH1 0x80 SWAP8 DUP10 SWAP7 PUSH2 0x5BA SWAP7 PUSH32 0x8A9F62701DF42F18A82CDD37C50A7BCE4CD48487FF236CABC609440251F87C3E SWAP13 PUSH1 0xFF DUP1 NOT DUP4 SLOAD AND SWAP2 AND OR SWAP1 SSTORE MLOAD PUSH1 0x7 DUP3 ADD SSTORE ADD SWAP2 MLOAD ISZERO ISZERO PUSH1 0xFF DUP1 NOT DUP5 SLOAD AND SWAP2 AND OR DUP3 SSTORE MLOAD DUP2 SLOAD SWAP1 PUSH2 0x100 PUSH1 0x1 PUSH1 0xA8 SHL SUB SWAP1 PUSH1 0x8 SHL AND SWAP1 PUSH2 0x100 PUSH1 0x1 PUSH1 0xA8 SHL SUB NOT AND OR SWAP1 SSTORE PUSH2 0x57F DUP9 PUSH1 0x40 MLOAD DUP6 DUP8 DUP3 CALLDATACOPY DUP13 DUP2 DUP8 DUP2 ADD PUSH1 0x4 DUP2 MSTORE SUB ADD SWAP1 KECCAK256 PUSH2 0x1584 JUMP JUMPDEST CALLER PUSH1 0x0 MSTORE PUSH1 0x5 DUP11 MSTORE PUSH2 0x595 DUP9 PUSH1 0x40 PUSH1 0x0 KECCAK256 PUSH2 0x1584 JUMP JUMPDEST PUSH1 0x40 MLOAD SWAP6 DUP7 SWAP5 PUSH1 0x60 DUP7 MSTORE DUP2 PUSH1 0x60 DUP8 ADD MSTORE DUP7 DUP7 ADD CALLDATACOPY PUSH1 0x0 DUP6 DUP5 DUP7 ADD ADD MSTORE DUP10 DUP5 ADD SWAP1 PUSH2 0x1327 JUMP JUMPDEST CALLER PUSH1 0x40 DUP4 ADD MSTORE PUSH1 0x1F ADD PUSH1 0x1F NOT AND DUP2 ADD SUB ADD SWAP1 LOG2 PUSH1 0x40 MLOAD SWAP1 DUP2 MSTORE RETURN JUMPDEST PUSH4 0x4E487B71 PUSH1 0xE0 SHL PUSH1 0x0 MSTORE PUSH1 0x21 PUSH1 0x4 MSTORE PUSH1 0x24 PUSH1 0x0 REVERT JUMPDEST ADD MLOAD SWAP1 POP DUP13 DUP1 PUSH2 0x4C7 JUMP JUMPDEST PUSH1 0x0 DUP6 DUP2 MSTORE DUP3 DUP2 KECCAK256 SWAP4 POP PUSH1 0x1F NOT DUP6 AND SWAP1 JUMPDEST DUP2 DUP2 LT PUSH2 0x643 JUMPI POP SWAP1 DUP5 PUSH1 0x1 SWAP6 SWAP5 SWAP4 SWAP3 LT PUSH2 0x62A JUMPI JUMPDEST POP POP POP DUP2 SHL ADD SWAP1 SSTORE PUSH2 0x4DC JUMP JUMPDEST ADD MLOAD PUSH1 0x0 NOT PUSH1 0xF8 DUP5 PUSH1 0x3 SHL AND SHR NOT AND SWAP1 SSTORE DUP13 DUP1 DUP1 PUSH2 0x61D JUMP JUMPDEST SWAP3 SWAP4 PUSH1 0x20 PUSH1 0x1 DUP2 SWAP3 DUP8 DUP7 ADD MLOAD DUP2 SSTORE ADD SWAP6 ADD SWAP4 ADD PUSH2 0x607 JUMP JUMPDEST SWAP1 SWAP2 POP DUP4 PUSH1 0x0 MSTORE PUSH1 0x20 PUSH1 0x0 KECCAK256 PUSH1 0x1F DUP5 ADD PUSH1 0x5 SHR DUP2 ADD SWAP2 PUSH1 0x20 DUP6 LT PUSH2 0x6A4 JUMPI JUMPDEST SWAP1 PUSH1 0x1F DUP6 SWAP5 SWAP4 SWAP3 ADD PUSH1 0x5 SHR ADD SWAP1 JUMPDEST DUP2 DUP2 LT PUSH2 0x695 JUMPI POP PUSH2 0x4B0 JUMP JUMPDEST PUSH1 0x0 DUP2 SSTORE DUP5 SWAP4 POP PUSH1 0x1 ADD PUSH2 0x688 JUMP JUMPDEST SWAP1 SWAP2 POP DUP2 SWAP1 PUSH2 0x67A JUMP JUMPDEST PUSH4 0x4E487B71 PUSH1 0xE0 SHL PUSH1 0x0 MSTORE PUSH1 0x41 PUSH1 0x4 MSTORE PUSH1 0x24 PUSH1 0x0 REVERT JUMPDEST ADD MLOAD SWAP1 POP DUP14 DUP1 PUSH2 0x470 JUMP JUMPDEST PUSH1 0x0 DUP6 DUP2 MSTORE DUP3 DUP2 KECCAK256 SWAP4 POP PUSH1 0x1F NOT DUP6 AND SWAP1 JUMPDEST DUP2 DUP2 LT PUSH2 0x71C JUMPI POP SWAP1 DUP5 PUSH1 0x1 SWAP6 SWAP5 SWAP4 SWAP3 LT PUSH2 0x703 JUMPI JUMPDEST POP POP POP DUP2 SHL ADD SWAP1 SSTORE PUSH2 0x485 JUMP JUMPDEST ADD MLOAD PUSH1 0x0 NOT PUSH1 0xF8 DUP5 PUSH1 0x3 SHL AND SHR NOT AND SWAP1 SSTORE DUP14 DUP1 DUP1 PUSH2 0x6F6 JUMP JUMPDEST SWAP3 SWAP4 PUSH1 0x20 PUSH1 0x1 DUP2 SWAP3 DUP8 DUP7 ADD MLOAD DUP2 SSTORE ADD SWAP6 ADD SWAP4 ADD PUSH2 0x6E0 JUMP JUMPDEST SWAP1 SWAP2 POP DUP4 PUSH1 0x0 MSTORE PUSH1 0x20 PUSH1 0x0 KECCAK256 PUSH1 0x1F DUP5 ADD PUSH1 0x5 SHR DUP2 ADD SWAP2 PUSH1 0x20 DUP6 LT PUSH2 0x77D JUMPI JUMPDEST SWAP1 PUSH1 0x1F DUP6 SWAP5 SWAP4 SWAP3 ADD PUSH1 0x5 SHR ADD SWAP1 JUMPDEST DUP2 DUP2 LT PUSH2 0x76E JUMPI POP PUSH2 0x459 JUMP JUMPDEST PUSH1 0x0 DUP2 SSTORE DUP5 SWAP4 POP PUSH1 0x1 ADD PUSH2 0x761 JUMP JUMPDEST SWAP1 SWAP2 POP DUP2 SWAP1 PUSH2 0x753 JUMP JUMPDEST ADD MLOAD SWAP1 POP DUP15 DUP1 PUSH2 0x419 JUMP JUMPDEST PUSH1 0x0 DUP6 DUP2 MSTORE DUP3 DUP2 KECCAK256 SWAP4 POP PUSH1 0x1F NOT DUP6 AND SWAP1 JUMPDEST DUP2 DUP2 LT PUSH2 0x7DF JUMPI POP SWAP1 DUP5 PUSH1 0x1 SWAP6 SWAP5 SWAP4 SWAP3 LT PUSH2 0x7C6 JUMPI JUMPDEST POP POP POP DUP2 SHL ADD SWAP1 SSTORE PUSH2 0x42E JUMP JUMPDEST ADD MLOAD PUSH1 0x0 NOT PUSH1 0xF8 DUP5 PUSH1 0x3 SHL AND SHR NOT AND SWAP1 SSTORE DUP15 DUP1 DUP1 PUSH2 0x7B9 JUMP JUMPDEST SWAP3 SWAP4 PUSH1 0x20 PUSH1 0x1 DUP2 SWAP3 DUP8 DUP7 ADD MLOAD DUP2 SSTORE ADD SWAP6 ADD SWAP4 ADD PUSH2 0x7A3 JUMP JUMPDEST SWAP1 SWAP2 POP DUP4 PUSH1 0x0 MSTORE PUSH1 0x20 PUSH1 0x0 KECCAK256 PUSH1 0x1F DUP5 ADD PUSH1 0x5 SHR DUP2 ADD SWAP2 PUSH1 0x20 DUP6 LT PUSH2 0x840 JUMPI JUMPDEST SWAP1 PUSH1 0x1F DUP6 SWAP5 SWAP4 SWAP3 ADD PUSH1 0x5 SHR ADD SWAP1 JUMPDEST DUP2 DUP2 LT PUSH2 0x831 JUMPI POP PUSH2 0x402 JUMP JUMPDEST PUSH1 0x0 DUP2 SSTORE DUP5 SWAP4 POP PUSH1 0x1 ADD PUSH2 0x824 JUMP JUMPDEST SWAP1 SWAP2 POP DUP2 SWAP1 PUSH2 0x816 JUMP JUMPDEST ADD MLOAD SWAP1 POP DUP16 DUP1 PUSH2 0x3C2 JUMP JUMPDEST PUSH1 0x0 DUP6 DUP2 MSTORE DUP3 DUP2 KECCAK256 SWAP4 POP PUSH1 0x1F NOT DUP6 AND SWAP1 JUMPDEST DUP2 DUP2 LT PUSH2 0x8A2 JUMPI POP SWAP1 DUP5 PUSH1 0x1 SWAP6 SWAP5 SWAP4 SWAP3 LT PUSH2 0x889 JUMPI JUMPDEST POP POP POP DUP2 SHL ADD SWAP1 SSTORE PUSH2 0x3D7 JUMP JUMPDEST ADD MLOAD PUSH1 0x0 NOT PUSH1 0xF8 DUP5 PUSH1 0x3 SHL AND SHR NOT AND SWAP1 SSTORE DUP16 DUP1 DUP1 PUSH2 0x87C JUMP JUMPDEST SWAP3 SWAP4 PUSH1 0x20 PUSH1 0x1 DUP2 SWAP3 DUP8 DUP7 ADD MLOAD DUP2 SSTORE ADD SWAP6 ADD SWAP4 ADD PUSH2 0x866 JUMP JUMPDEST SWAP1 SWAP2 POP DUP4 PUSH1 0x0 MSTORE PUSH1 0x20 PUSH1 0x0 KECCAK256 PUSH1 0x1F DUP5 ADD PUSH1 0x5 SHR DUP2 ADD SWAP2 PUSH1 0x20 DUP6 LT PUSH2 0x903 JUMPI JUMPDEST SWAP1 PUSH1 0x1F DUP6 SWAP5 SWAP4 SWAP3 ADD PUSH1 0x5 SHR ADD SWAP1 JUMPDEST DUP2 DUP2 LT PUSH2 0x8F4 JUMPI POP PUSH2 0x3AB JUMP JUMPDEST PUSH1 0x0 DUP2 SSTORE DUP5 SWAP4 POP PUSH1 0x1 ADD PUSH2 0x8E7 JUMP JUMPDEST SWAP1 SWAP2 POP DUP2 SWAP1 PUSH2 0x8D9 JUMP JUMPDEST ADD MLOAD SWAP1 POP CODESIZE DUP1 PUSH2 0x36B JUMP JUMPDEST PUSH1 0x0 DUP6 DUP2 MSTORE DUP3 DUP2 KECCAK256 SWAP4 POP PUSH1 0x1F NOT DUP6 AND SWAP1 JUMPDEST DUP2 DUP2 LT PUSH2 0x965 JUMPI POP SWAP1 DUP5 PUSH1 0x1 SWAP6 SWAP5 SWAP4 SWAP3 LT PUSH2 0x94C JUMPI JUMPDEST POP POP POP DUP2 SHL ADD SWAP1 SSTORE PUSH2 0x380 JUMP JUMPDEST ADD MLOAD PUSH1 0x0 NOT PUSH1 0xF8 DUP5 PUSH1 0x3 SHL AND SHR NOT AND SWAP1 SSTORE CODESIZE DUP1 DUP1 PUSH2 0x93F JUMP JUMPDEST SWAP3 SWAP4 PUSH1 0x20 PUSH1 0x1 DUP2 SWAP3 DUP8 DUP7 ADD MLOAD DUP2 SSTORE ADD SWAP6 ADD SWAP4 ADD PUSH2 0x929 JUMP JUMPDEST SWAP1 SWAP2 POP DUP4 PUSH1 0x0 MSTORE PUSH1 0x20 PUSH1 0x0 KECCAK256 PUSH1 0x1F DUP5 ADD PUSH1 0x5 SHR DUP2 ADD SWAP2 PUSH1 0x20 DUP6 LT PUSH2 0x9C6 JUMPI JUMPDEST SWAP1 PUSH1 0x1F DUP6 SWAP5 SWAP4 SWAP3 ADD PUSH1 0x5 SHR ADD SWAP1 JUMPDEST DUP2 DUP2 LT PUSH2 0x9B7 JUMPI POP PUSH2 0x354 JUMP JUMPDEST PUSH1 0x0 DUP2 SSTORE DUP5 SWAP4 POP PUSH1 0x1 ADD PUSH2 0x9AA JUMP JUMPDEST SWAP1 SWAP2 POP DUP2 SWAP1 PUSH2 0x99C JUMP JUMPDEST CALLVALUE PUSH2 0x154 JUMPI PUSH1 0x0 CALLDATASIZE PUSH1 0x3 NOT ADD SLT PUSH2 0x154 JUMPI PUSH1 0x20 PUSH1 0x40 MLOAD PUSH1 0x0 DUP2 MSTORE RETURN JUMPDEST CALLVALUE PUSH2 0x154 JUMPI PUSH1 0x0 CALLDATASIZE PUSH1 0x3 NOT ADD SLT PUSH2 0x154 JUMPI PUSH2 0xA05 PUSH2 0x16E1 JUMP JUMPDEST CALLER PUSH1 0x0 MSTORE PUSH1 0x5 PUSH1 0x20 MSTORE PUSH1 0x40 PUSH1 0x0 KECCAK256 PUSH1 0x40 MLOAD SWAP1 DUP2 PUSH1 0x20 DUP3 SLOAD SWAP2 DUP3 DUP2 MSTORE ADD SWAP2 PUSH1 0x0 MSTORE PUSH1 0x20 PUSH1 0x0 KECCAK256 SWAP1 PUSH1 0x0 JUMPDEST DUP2 DUP2 LT PUSH2 0xA55 JUMPI PUSH2 0xA51 DUP6 PUSH2 0xA45 DUP2 DUP8 SUB DUP3 PUSH2 0x13E3 JUMP JUMPDEST PUSH1 0x40 MLOAD SWAP2 DUP3 SWAP2 DUP3 PUSH2 0x138D JUMP JUMPDEST SUB SWAP1 RETURN JUMPDEST DUP3 SLOAD DUP5 MSTORE PUSH1 0x20 SWAP1 SWAP4 ADD SWAP3 PUSH1 0x1 SWAP3 DUP4 ADD SWAP3 ADD PUSH2 0xA2E JUMP JUMPDEST CALLVALUE PUSH2 0x154 JUMPI PUSH1 0x40 CALLDATASIZE PUSH1 0x3 NOT ADD SLT PUSH2 0x154 JUMPI PUSH2 0xA84 PUSH2 0x134A JUMP JUMPDEST PUSH1 0x4 CALLDATALOAD PUSH1 0x0 MSTORE PUSH1 0x0 PUSH1 0x20 MSTORE PUSH1 0x40 PUSH1 0x0 KECCAK256 SWAP1 PUSH1 0x1 DUP1 PUSH1 0xA0 SHL SUB AND PUSH1 0x0 MSTORE PUSH1 0x20 MSTORE PUSH1 0x20 PUSH1 0xFF PUSH1 0x40 PUSH1 0x0 KECCAK256 SLOAD AND PUSH1 0x40 MLOAD SWAP1 ISZERO ISZERO DUP2 MSTORE RETURN JUMPDEST CALLVALUE PUSH2 0x154 JUMPI PUSH1 0x0 CALLDATASIZE PUSH1 0x3 NOT ADD SLT PUSH2 0x154 JUMPI PUSH2 0xAD1 PUSH2 0x15C8 JUMP JUMPDEST PUSH2 0xAD9 PUSH2 0x17F0 JUMP JUMPDEST PUSH1 0x1 PUSH1 0xFF NOT DUP2 SLOAD AND OR PUSH1 0x1 SSTORE PUSH32 0x62E78CEA01BEE320CD4E420270B5EA74000D11B0C9F74754EBDBFC544B05A258 PUSH1 0x20 PUSH1 0x40 MLOAD CALLER DUP2 MSTORE LOG1 STOP JUMPDEST CALLVALUE PUSH2 0x154 JUMPI PUSH1 0x0 CALLDATASIZE PUSH1 0x3 NOT ADD SLT PUSH2 0x154 JUMPI PUSH1 0x20 PUSH1 0x40 MLOAD PUSH32 0xA49807205CE4D355092EF5A8A18F56E8913CF4A201FBE287825B095693C21775 DUP2 MSTORE RETURN JUMPDEST CALLVALUE PUSH2 0x154 JUMPI PUSH1 0x0 CALLDATASIZE PUSH1 0x3 NOT ADD SLT PUSH2 0x154 JUMPI PUSH1 0x20 PUSH1 0xFF PUSH1 0x1 SLOAD AND PUSH1 0x40 MLOAD SWAP1 ISZERO ISZERO DUP2 MSTORE RETURN JUMPDEST CALLVALUE PUSH2 0x154 JUMPI PUSH1 0x0 CALLDATASIZE PUSH1 0x3 NOT ADD SLT PUSH2 0x154 JUMPI PUSH2 0xB88 PUSH2 0x15C8 JUMP JUMPDEST PUSH1 0x1 SLOAD PUSH1 0xFF DUP2 AND ISZERO PUSH2 0xBC7 JUMPI PUSH1 0xFF NOT AND PUSH1 0x1 SSTORE PUSH32 0x5DB9EE0A495BF2E6FF9C91A7834C1BA4FDD244A5E8AA4E537BD38AEAE4B073AA PUSH1 0x20 PUSH1 0x40 MLOAD CALLER DUP2 MSTORE LOG1 STOP JUMPDEST PUSH1 0x40 MLOAD PUSH3 0x461BCD PUSH1 0xE5 SHL DUP2 MSTORE PUSH1 0x20 PUSH1 0x4 DUP3 ADD MSTORE PUSH1 0x14 PUSH1 0x24 DUP3 ADD MSTORE PUSH20 0x14185D5CD8589B194E881B9BDD081C185D5CD959 PUSH1 0x62 SHL PUSH1 0x44 DUP3 ADD MSTORE PUSH1 0x64 SWAP1 REVERT JUMPDEST CALLVALUE PUSH2 0x154 JUMPI PUSH1 0x0 CALLDATASIZE PUSH1 0x3 NOT ADD SLT PUSH2 0x154 JUMPI PUSH1 0x20 PUSH1 0x40 MLOAD PUSH1 0x0 DUP1 MLOAD PUSH1 0x20 PUSH2 0x1A52 DUP4 CODECOPY DUP2 MLOAD SWAP2 MSTORE DUP2 MSTORE RETURN JUMPDEST CALLVALUE PUSH2 0x154 JUMPI PUSH1 0x20 CALLDATASIZE PUSH1 0x3 NOT ADD SLT PUSH2 0x154 JUMPI PUSH1 0x4 CALLDATALOAD DUP1 PUSH1 0x0 MSTORE PUSH1 0x3 PUSH1 0x20 MSTORE PUSH2 0xC59 DUP2 PUSH1 0x40 PUSH1 0x0 KECCAK256 SLOAD EQ PUSH2 0x1404 JUMP JUMPDEST PUSH1 0x0 MSTORE PUSH1 0x3 PUSH1 0x20 MSTORE PUSH1 0x20 PUSH1 0xFF PUSH1 0x8 PUSH1 0x40 PUSH1 0x0 KECCAK256 ADD SLOAD AND PUSH1 0x40 MLOAD SWAP1 ISZERO ISZERO DUP2 MSTORE RETURN JUMPDEST CALLVALUE PUSH2 0x154 JUMPI PUSH1 0x20 CALLDATASIZE PUSH1 0x3 NOT ADD SLT PUSH2 0x154 JUMPI PUSH2 0xC92 PUSH2 0x1334 JUMP JUMPDEST PUSH2 0xC9A PUSH2 0x15C8 JUMP JUMPDEST PUSH1 0x0 DUP1 MLOAD PUSH1 0x20 PUSH2 0x1A52 DUP4 CODECOPY DUP2 MLOAD SWAP2 MSTORE PUSH1 0x0 SWAP1 DUP2 MSTORE PUSH1 0x20 MSTORE PUSH32 0x1A7760066BD1F06DF3A1A816A948CB99A3A2E8FFA5089500E84706868BFE072E SLOAD PUSH2 0xCDC SWAP1 PUSH2 0x1730 JUMP JUMPDEST PUSH1 0x1 PUSH1 0x1 PUSH1 0xA0 SHL SUB DUP2 AND PUSH1 0x0 SWAP1 DUP2 MSTORE PUSH1 0x0 DUP1 MLOAD PUSH1 0x20 PUSH2 0x1A32 DUP4 CODECOPY DUP2 MLOAD SWAP2 MSTORE PUSH1 0x20 MSTORE PUSH1 0x40 SWAP1 KECCAK256 SLOAD PUSH1 0xFF AND ISZERO PUSH2 0xD0C JUMPI STOP JUMPDEST PUSH1 0x1 PUSH1 0x1 PUSH1 0xA0 SHL SUB AND PUSH1 0x0 DUP2 DUP2 MSTORE PUSH1 0x0 DUP1 MLOAD PUSH1 0x20 PUSH2 0x1A32 DUP4 CODECOPY DUP2 MLOAD SWAP2 MSTORE PUSH1 0x20 MSTORE PUSH1 0x40 DUP2 KECCAK256 DUP1 SLOAD PUSH1 0xFF NOT AND PUSH1 0x1 OR SWAP1 SSTORE CALLER SWAP2 SWAP1 PUSH1 0x0 DUP1 MLOAD PUSH1 0x20 PUSH2 0x1A52 DUP4 CODECOPY DUP2 MLOAD SWAP2 MSTORE SWAP1 PUSH32 0x2F8788117E7EFF1D82E926EC794901D17C78024A50270940304540A733656F0D SWAP1 DUP1 LOG4 STOP JUMPDEST CALLVALUE PUSH2 0x154 JUMPI PUSH1 0x40 CALLDATASIZE PUSH1 0x3 NOT ADD SLT PUSH2 0x154 JUMPI PUSH2 0xD8D PUSH2 0x134A JUMP JUMPDEST CALLER PUSH1 0x1 PUSH1 0x1 PUSH1 0xA0 SHL SUB DUP3 AND SUB PUSH2 0xDA9 JUMPI PUSH2 0x19E SWAP1 PUSH1 0x4 CALLDATALOAD PUSH2 0x176E JUMP JUMPDEST PUSH1 0x40 MLOAD PUSH3 0x461BCD PUSH1 0xE5 SHL DUP2 MSTORE PUSH1 0x20 PUSH1 0x4 DUP3 ADD MSTORE PUSH1 0x2F PUSH1 0x24 DUP3 ADD MSTORE PUSH32 0x416363657373436F6E74726F6C3A2063616E206F6E6C792072656E6F756E6365 PUSH1 0x44 DUP3 ADD MSTORE PUSH15 0x103937B632B9903337B91039B2B633 PUSH1 0x89 SHL PUSH1 0x64 DUP3 ADD MSTORE PUSH1 0x84 SWAP1 REVERT JUMPDEST CALLVALUE PUSH2 0x154 JUMPI PUSH1 0x40 CALLDATASIZE PUSH1 0x3 NOT ADD SLT PUSH2 0x154 JUMPI PUSH1 0x4 CALLDATALOAD PUSH2 0xE22 PUSH2 0x134A JUMP JUMPDEST SWAP1 PUSH2 0xE3E PUSH2 0x194 DUP3 PUSH1 0x0 MSTORE PUSH1 0x0 PUSH1 0x20 MSTORE PUSH1 0x1 PUSH1 0x40 PUSH1 0x0 KECCAK256 ADD SLOAD SWAP1 JUMP JUMPDEST PUSH1 0x0 DUP2 DUP2 MSTORE PUSH1 0x20 DUP2 DUP2 MSTORE PUSH1 0x40 DUP1 DUP4 KECCAK256 PUSH1 0x1 PUSH1 0x1 PUSH1 0xA0 SHL SUB DUP7 AND DUP5 MSTORE SWAP1 SWAP2 MSTORE SWAP1 KECCAK256 SLOAD PUSH1 0xFF AND ISZERO PUSH2 0xE69 JUMPI STOP JUMPDEST PUSH1 0x0 DUP2 DUP2 MSTORE PUSH1 0x20 DUP2 DUP2 MSTORE PUSH1 0x40 DUP1 DUP4 KECCAK256 PUSH1 0x1 PUSH1 0x1 PUSH1 0xA0 SHL SUB SWAP6 SWAP1 SWAP6 AND DUP1 DUP5 MSTORE SWAP5 SWAP1 SWAP2 MSTORE DUP2 KECCAK256 DUP1 SLOAD PUSH1 0xFF NOT AND PUSH1 0x1 OR SWAP1 SSTORE CALLER SWAP3 SWAP2 SWAP1 PUSH32 0x2F8788117E7EFF1D82E926EC794901D17C78024A50270940304540A733656F0D SWAP1 DUP1 LOG4 STOP JUMPDEST CALLVALUE PUSH2 0x154 JUMPI PUSH1 0x20 CALLDATASIZE PUSH1 0x3 NOT ADD SLT PUSH2 0x154 JUMPI PUSH1 0x4 CALLDATALOAD PUSH1 0x1 PUSH1 0x1 PUSH1 0x40 SHL SUB DUP2 GT PUSH2 0x154 JUMPI PUSH2 0xEF4 PUSH1 0x20 SWAP2 CALLDATASIZE SWAP1 PUSH1 0x4 ADD PUSH2 0x1360 JUMP JUMPDEST SWAP2 SWAP1 DUP3 PUSH1 0x40 MLOAD SWAP4 DUP5 SWAP3 DUP4 CALLDATACOPY DUP2 ADD PUSH1 0x4 DUP2 MSTORE SUB ADD SWAP1 KECCAK256 PUSH1 0x40 MLOAD SWAP1 DUP2 PUSH1 0x20 DUP3 SLOAD SWAP2 DUP3 DUP2 MSTORE ADD SWAP2 PUSH1 0x0 MSTORE PUSH1 0x20 PUSH1 0x0 KECCAK256 SWAP1 PUSH1 0x0 JUMPDEST DUP2 DUP2 LT PUSH2 0xF3B JUMPI PUSH2 0xA51 DUP6 PUSH2 0xA45 DUP2 DUP8 SUB DUP3 PUSH2 0x13E3 JUMP JUMPDEST DUP3 SLOAD DUP5 MSTORE PUSH1 0x20 SWAP1 SWAP4 ADD SWAP3 PUSH1 0x1 SWAP3 DUP4 ADD SWAP3 ADD PUSH2 0xF24 JUMP JUMPDEST CALLVALUE PUSH2 0x154 JUMPI PUSH1 0x20 CALLDATASIZE PUSH1 0x3 NOT ADD SLT PUSH2 0x154 JUMPI PUSH2 0xF6A PUSH2 0x1334 JUMP JUMPDEST PUSH2 0xF72 PUSH2 0x15C8 JUMP JUMPDEST PUSH1 0x0 DUP1 MLOAD PUSH1 0x20 PUSH2 0x1A52 DUP4 CODECOPY DUP2 MLOAD SWAP2 MSTORE PUSH1 0x0 SWAP1 DUP2 MSTORE PUSH1 0x20 MSTORE PUSH32 0x1A7760066BD1F06DF3A1A816A948CB99A3A2E8FFA5089500E84706868BFE072E SLOAD PUSH2 0xFB4 SWAP1 PUSH2 0x1730 JUMP JUMPDEST PUSH1 0x1 PUSH1 0x1 PUSH1 0xA0 SHL SUB DUP2 AND PUSH1 0x0 SWAP1 DUP2 MSTORE PUSH1 0x0 DUP1 MLOAD PUSH1 0x20 PUSH2 0x1A32 DUP4 CODECOPY DUP2 MLOAD SWAP2 MSTORE PUSH1 0x20 MSTORE PUSH1 0x40 SWAP1 KECCAK256 SLOAD PUSH1 0xFF AND PUSH2 0xFE3 JUMPI STOP JUMPDEST PUSH1 0x1 PUSH1 0x1 PUSH1 0xA0 SHL SUB AND PUSH1 0x0 DUP2 DUP2 MSTORE PUSH1 0x0 DUP1 MLOAD PUSH1 0x20 PUSH2 0x1A32 DUP4 CODECOPY DUP2 MLOAD SWAP2 MSTORE PUSH1 0x20 MSTORE PUSH1 0x40 DUP2 KECCAK256 DUP1 SLOAD PUSH1 0xFF NOT AND SWAP1 SSTORE CALLER SWAP2 SWAP1 PUSH1 0x0 DUP1 MLOAD PUSH1 0x20 PUSH2 0x1A52 DUP4 CODECOPY DUP2 MLOAD SWAP2 MSTORE SWAP1 PUSH32 0xF6391F5C32D9C69D2A47EA670B442974B53935D1EDC7FD64EB21E047A839171B SWAP1 DUP1 LOG4 STOP JUMPDEST CALLVALUE PUSH2 0x154 JUMPI PUSH1 0x20 CALLDATASIZE PUSH1 0x3 NOT ADD SLT PUSH2 0x154 JUMPI PUSH1 0x20 PUSH2 0x1075 PUSH1 0x4 CALLDATALOAD PUSH1 0x0 MSTORE PUSH1 0x0 PUSH1 0x20 MSTORE PUSH1 0x1 PUSH1 0x40 PUSH1 0x0 KECCAK256 ADD SLOAD SWAP1 JUMP JUMPDEST PUSH1 0x40 MLOAD SWAP1 DUP2 MSTORE RETURN JUMPDEST CALLVALUE PUSH2 0x154 JUMPI PUSH1 0x20 CALLDATASIZE PUSH1 0x3 NOT ADD SLT PUSH2 0x154 JUMPI PUSH1 0x4 CALLDATALOAD PUSH1 0x40 MLOAD PUSH2 0x109D DUP2 PUSH2 0x13C7 JUMP JUMPDEST PUSH1 0x0 DUP2 MSTORE PUSH1 0x20 DUP2 ADD PUSH1 0x60 SWAP1 MSTORE PUSH1 0x40 DUP2 ADD PUSH1 0x60 SWAP1 MSTORE PUSH1 0x60 DUP2 ADD PUSH1 0x60 SWAP1 MSTORE PUSH1 0x80 DUP2 ADD PUSH1 0x60 SWAP1 MSTORE PUSH1 0xA0 DUP2 ADD PUSH1 0x60 SWAP1 MSTORE PUSH1 0xC0 DUP2 ADD PUSH1 0x0 SWAP1 MSTORE PUSH1 0xE0 DUP2 ADD PUSH1 0x0 SWAP1 MSTORE PUSH2 0x100 DUP2 ADD PUSH1 0x0 SWAP1 MSTORE PUSH2 0x120 ADD PUSH1 0x0 SWAP1 MSTORE DUP1 PUSH1 0x0 MSTORE PUSH1 0x3 PUSH1 0x20 MSTORE DUP1 PUSH1 0x40 PUSH1 0x0 KECCAK256 SLOAD EQ PUSH2 0x1104 SWAP1 PUSH2 0x1404 JUMP JUMPDEST PUSH1 0x0 MSTORE PUSH1 0x3 PUSH1 0x20 MSTORE PUSH1 0x40 PUSH1 0x0 KECCAK256 PUSH1 0x40 MLOAD PUSH2 0x111D DUP2 PUSH2 0x13C7 JUMP JUMPDEST DUP2 SLOAD DUP2 MSTORE PUSH2 0x112D PUSH1 0x1 DUP4 ADD PUSH2 0x1482 JUMP JUMPDEST PUSH1 0x20 DUP3 ADD SWAP1 DUP2 MSTORE SWAP2 PUSH2 0x1141 PUSH1 0x2 DUP3 ADD PUSH2 0x1482 JUMP JUMPDEST PUSH1 0x40 DUP4 ADD SWAP1 DUP2 MSTORE PUSH2 0x1154 PUSH1 0x3 DUP4 ADD PUSH2 0x1482 JUMP JUMPDEST PUSH1 0x60 DUP5 ADD SWAP1 DUP2 MSTORE SWAP1 PUSH2 0x1168 PUSH1 0x4 DUP5 ADD PUSH2 0x1482 JUMP JUMPDEST PUSH1 0x80 DUP6 ADD SWAP1 DUP2 MSTORE SWAP3 PUSH2 0x117C PUSH1 0x5 DUP3 ADD PUSH2 0x1482 JUMP JUMPDEST PUSH1 0xA0 DUP7 ADD SWAP1 DUP2 MSTORE PUSH1 0x6 DUP3 ADD SLOAD PUSH1 0xFF AND SWAP5 PUSH1 0xC0 DUP8 ADD SWAP6 PUSH2 0x119B SWAP1 DUP8 PUSH2 0x1526 JUMP JUMPDEST PUSH1 0x7 DUP4 ADD SLOAD SWAP3 PUSH1 0xE0 DUP9 ADD SWAP4 DUP5 MSTORE PUSH1 0x8 ADD SLOAD SWAP5 PUSH2 0x100 DUP9 ADD SWAP5 PUSH1 0xFF DUP8 AND ISZERO ISZERO DUP7 MSTORE PUSH2 0x120 DUP10 ADD SWAP7 PUSH1 0x1 PUSH1 0xA0 SHL PUSH1 0x1 SWAP1 SUB SWAP1 PUSH1 0x8 SHR AND DUP8 MSTORE PUSH1 0x40 MLOAD SWAP10 DUP11 SWAP10 PUSH1 0x20 DUP12 MSTORE MLOAD PUSH1 0x20 DUP12 ADD MSTORE MLOAD PUSH1 0x40 DUP11 ADD PUSH2 0x140 SWAP1 MSTORE PUSH2 0x160 DUP11 ADD PUSH2 0x11F9 SWAP2 PUSH2 0x1302 JUMP JUMPDEST SWAP1 MLOAD DUP10 DUP3 SUB PUSH1 0x1F NOT ADD PUSH1 0x60 DUP12 ADD MSTORE PUSH2 0x1211 SWAP2 SWAP1 PUSH2 0x1302 JUMP JUMPDEST SWAP1 MLOAD DUP9 DUP3 SUB PUSH1 0x1F NOT ADD PUSH1 0x80 DUP11 ADD MSTORE PUSH2 0x1229 SWAP2 SWAP1 PUSH2 0x1302 JUMP JUMPDEST SWAP1 MLOAD DUP8 DUP3 SUB PUSH1 0x1F NOT ADD PUSH1 0xA0 DUP10 ADD MSTORE PUSH2 0x1241 SWAP2 SWAP1 PUSH2 0x1302 JUMP JUMPDEST SWAP1 MLOAD DUP7 DUP3 SUB PUSH1 0x1F NOT ADD PUSH1 0xC0 DUP9 ADD MSTORE PUSH2 0x1259 SWAP2 SWAP1 PUSH2 0x1302 JUMP JUMPDEST SWAP4 MLOAD PUSH1 0xE0 DUP7 ADD PUSH2 0x1268 SWAP2 PUSH2 0x1327 JUMP JUMPDEST MLOAD PUSH2 0x100 DUP6 ADD MSTORE MLOAD ISZERO ISZERO PUSH2 0x120 DUP5 ADD MSTORE MLOAD PUSH1 0x1 PUSH1 0x1 PUSH1 0xA0 SHL SUB AND PUSH2 0x140 DUP4 ADD MSTORE SUB SWAP1 RETURN JUMPDEST CALLVALUE PUSH2 0x154 JUMPI PUSH1 0x20 CALLDATASIZE PUSH1 0x3 NOT ADD SLT PUSH2 0x154 JUMPI PUSH1 0x4 CALLDATALOAD SWAP1 PUSH4 0xFFFFFFFF PUSH1 0xE0 SHL DUP3 AND DUP1 SWAP3 SUB PUSH2 0x154 JUMPI PUSH1 0x20 SWAP2 PUSH4 0x7965DB0B PUSH1 0xE0 SHL DUP2 EQ SWAP1 DUP2 ISZERO PUSH2 0x12CE JUMPI JUMPDEST POP ISZERO ISZERO DUP2 MSTORE RETURN JUMPDEST PUSH4 0x1FFC9A7 PUSH1 0xE0 SHL EQ SWAP1 POP DUP4 PUSH2 0x12C7 JUMP JUMPDEST PUSH1 0x0 JUMPDEST DUP4 DUP2 LT PUSH2 0x12F2 JUMPI POP POP PUSH1 0x0 SWAP2 ADD MSTORE JUMP JUMPDEST DUP2 DUP2 ADD MLOAD DUP4 DUP3 ADD MSTORE PUSH1 0x20 ADD PUSH2 0x12E2 JUMP JUMPDEST SWAP1 PUSH1 0x20 SWAP2 PUSH2 0x131B DUP2 MLOAD DUP1 SWAP3 DUP2 DUP6 MSTORE DUP6 DUP1 DUP7 ADD SWAP2 ADD PUSH2 0x12DF JUMP JUMPDEST PUSH1 0x1F ADD PUSH1 0x1F NOT AND ADD ADD SWAP1 JUMP JUMPDEST SWAP1 PUSH1 0x4 DUP3 LT ISZERO PUSH2 0x5D5 JUMPI MSTORE JUMP JUMPDEST PUSH1 0x4 CALLDATALOAD SWAP1 PUSH1 0x1 PUSH1 0x1 PUSH1 0xA0 SHL SUB DUP3 AND DUP3 SUB PUSH2 0x154 JUMPI JUMP JUMPDEST PUSH1 0x24 CALLDATALOAD SWAP1 PUSH1 0x1 PUSH1 0x1 PUSH1 0xA0 SHL SUB DUP3 AND DUP3 SUB PUSH2 0x154 JUMPI JUMP JUMPDEST SWAP2 DUP2 PUSH1 0x1F DUP5 ADD SLT ISZERO PUSH2 0x154 JUMPI DUP3 CALLDATALOAD SWAP2 PUSH1 0x1 PUSH1 0x1 PUSH1 0x40 SHL SUB DUP4 GT PUSH2 0x154 JUMPI PUSH1 0x20 DUP4 DUP2 DUP7 ADD SWAP6 ADD ADD GT PUSH2 0x154 JUMPI JUMP JUMPDEST PUSH1 0x20 PUSH1 0x40 DUP2 DUP4 ADD SWAP3 DUP3 DUP2 MSTORE DUP5 MLOAD DUP1 SWAP5 MSTORE ADD SWAP3 ADD SWAP1 PUSH1 0x0 JUMPDEST DUP2 DUP2 LT PUSH2 0x13B1 JUMPI POP POP POP SWAP1 JUMP JUMPDEST DUP3 MLOAD DUP5 MSTORE PUSH1 0x20 SWAP4 DUP5 ADD SWAP4 SWAP1 SWAP3 ADD SWAP2 PUSH1 0x1 ADD PUSH2 0x13A4 JUMP JUMPDEST PUSH2 0x140 DUP2 ADD SWAP1 DUP2 LT PUSH1 0x1 PUSH1 0x1 PUSH1 0x40 SHL SUB DUP3 GT OR PUSH2 0x6AE JUMPI PUSH1 0x40 MSTORE JUMP JUMPDEST SWAP1 PUSH1 0x1F DUP1 NOT SWAP2 ADD AND DUP2 ADD SWAP1 DUP2 LT PUSH1 0x1 PUSH1 0x1 PUSH1 0x40 SHL SUB DUP3 GT OR PUSH2 0x6AE JUMPI PUSH1 0x40 MSTORE JUMP JUMPDEST ISZERO PUSH2 0x140B JUMPI JUMP JUMPDEST PUSH1 0x40 MLOAD PUSH3 0x461BCD PUSH1 0xE5 SHL DUP2 MSTORE PUSH1 0x20 PUSH1 0x4 DUP3 ADD MSTORE PUSH1 0x15 PUSH1 0x24 DUP3 ADD MSTORE PUSH21 0x149958DBDC9908191BD95CC81B9BDD08195E1A5CDD PUSH1 0x5A SHL PUSH1 0x44 DUP3 ADD MSTORE PUSH1 0x64 SWAP1 REVERT JUMPDEST SWAP1 PUSH1 0x1 DUP3 DUP2 SHR SWAP3 AND DUP1 ISZERO PUSH2 0x1478 JUMPI JUMPDEST PUSH1 0x20 DUP4 LT EQ PUSH2 0x1462 JUMPI JUMP JUMPDEST PUSH4 0x4E487B71 PUSH1 0xE0 SHL PUSH1 0x0 MSTORE PUSH1 0x22 PUSH1 0x4 MSTORE PUSH1 0x24 PUSH1 0x0 REVERT JUMPDEST SWAP2 PUSH1 0x7F AND SWAP2 PUSH2 0x1457 JUMP JUMPDEST SWAP1 PUSH1 0x40 MLOAD SWAP2 DUP3 PUSH1 0x0 DUP3 SLOAD SWAP3 PUSH2 0x1496 DUP5 PUSH2 0x1448 JUMP JUMPDEST DUP1 DUP5 MSTORE SWAP4 PUSH1 0x1 DUP2 AND SWAP1 DUP2 ISZERO PUSH2 0x1504 JUMPI POP PUSH1 0x1 EQ PUSH2 0x14BD JUMPI JUMPDEST POP PUSH2 0x14BB SWAP3 POP SUB DUP4 PUSH2 0x13E3 JUMP JUMPDEST JUMP JUMPDEST SWAP1 POP PUSH1 0x0 SWAP3 SWAP2 SWAP3 MSTORE PUSH1 0x20 PUSH1 0x0 KECCAK256 SWAP1 PUSH1 0x0 SWAP2 JUMPDEST DUP2 DUP4 LT PUSH2 0x14E8 JUMPI POP POP SWAP1 PUSH1 0x20 PUSH2 0x14BB SWAP3 DUP3 ADD ADD CODESIZE PUSH2 0x14AE JUMP JUMPDEST PUSH1 0x20 SWAP2 SWAP4 POP DUP1 PUSH1 0x1 SWAP2 SLOAD DUP4 DUP6 DUP10 ADD ADD MSTORE ADD SWAP2 ADD SWAP1 SWAP2 DUP5 SWAP3 PUSH2 0x14CF JUMP JUMPDEST SWAP1 POP PUSH1 0x20 SWAP3 POP PUSH2 0x14BB SWAP5 SWAP2 POP PUSH1 0xFF NOT AND DUP3 DUP5 ADD MSTORE ISZERO ISZERO PUSH1 0x5 SHL DUP3 ADD ADD CODESIZE PUSH2 0x14AE JUMP JUMPDEST PUSH1 0x4 DUP3 LT ISZERO PUSH2 0x5D5 JUMPI MSTORE JUMP JUMPDEST PUSH1 0x1 PUSH1 0x1 PUSH1 0x40 SHL SUB DUP2 GT PUSH2 0x6AE JUMPI PUSH1 0x1F ADD PUSH1 0x1F NOT AND PUSH1 0x20 ADD SWAP1 JUMP JUMPDEST SWAP3 SWAP2 SWAP3 PUSH2 0x1559 DUP3 PUSH2 0x1532 JUMP JUMPDEST SWAP2 PUSH2 0x1567 PUSH1 0x40 MLOAD SWAP4 DUP5 PUSH2 0x13E3 JUMP JUMPDEST DUP3 SWAP5 DUP2 DUP5 MSTORE DUP2 DUP4 ADD GT PUSH2 0x154 JUMPI DUP3 DUP2 PUSH1 0x20 SWAP4 DUP5 PUSH1 0x0 SWAP7 ADD CALLDATACOPY ADD ADD MSTORE JUMP JUMPDEST DUP1 SLOAD SWAP1 PUSH9 0x10000000000000000 DUP3 LT ISZERO PUSH2 0x6AE JUMPI PUSH1 0x1 DUP3 ADD DUP1 DUP3 SSTORE DUP3 LT ISZERO PUSH2 0x15B2 JUMPI PUSH1 0x0 MSTORE PUSH1 0x20 PUSH1 0x0 KECCAK256 ADD SSTORE JUMP JUMPDEST PUSH4 0x4E487B71 PUSH1 0xE0 SHL PUSH1 0x0 MSTORE PUSH1 0x32 PUSH1 0x4 MSTORE PUSH1 0x24 PUSH1 0x0 REVERT JUMPDEST CALLER PUSH1 0x0 SWAP1 DUP2 MSTORE PUSH32 0x7D7FFB7A348E1C6A02869081A26547B49160DD3DF72D1D75A570EB9B698292EC PUSH1 0x20 MSTORE PUSH1 0x40 SWAP1 KECCAK256 SLOAD PUSH1 0xFF AND ISZERO PUSH2 0x1601 JUMPI JUMP JUMPDEST PUSH2 0x16DD PUSH2 0x160D CALLER PUSH2 0x1845 JUMP JUMPDEST PUSH2 0x16BD PUSH1 0x11 PUSH2 0x163B PUSH32 0xA49807205CE4D355092EF5A8A18F56E8913CF4A201FBE287825B095693C21775 PUSH2 0x1985 JUMP JUMPDEST SWAP3 PUSH1 0x37 PUSH1 0x40 MLOAD SWAP5 DUP6 SWAP3 PUSH32 0x416363657373436F6E74726F6C3A206163636F756E7420000000000000000000 PUSH1 0x20 DUP6 ADD MSTORE PUSH2 0x167D DUP2 MLOAD DUP1 SWAP3 PUSH1 0x20 DUP7 DUP9 ADD SWAP2 ADD PUSH2 0x12DF JUMP JUMPDEST DUP4 ADD PUSH17 0x1034B99036B4B9B9B4B733903937B6329 PUSH1 0x7D SHL DUP4 DUP3 ADD MSTORE PUSH2 0x16AC DUP3 MLOAD DUP1 SWAP4 PUSH1 0x20 PUSH1 0x48 DUP6 ADD SWAP2 ADD PUSH2 0x12DF JUMP JUMPDEST ADD ADD SUB ADD PUSH1 0x1F NOT DUP2 ADD DUP4 MSTORE DUP3 PUSH2 0x13E3 JUMP JUMPDEST PUSH1 0x40 MLOAD PUSH3 0x461BCD PUSH1 0xE5 SHL DUP2 MSTORE PUSH1 0x20 PUSH1 0x4 DUP3 ADD MSTORE SWAP2 DUP3 SWAP2 PUSH1 0x24 DUP4 ADD SWAP1 PUSH2 0x1302 JUMP JUMPDEST SUB SWAP1 REVERT JUMPDEST CALLER PUSH1 0x0 SWAP1 DUP2 MSTORE PUSH1 0x0 DUP1 MLOAD PUSH1 0x20 PUSH2 0x1A32 DUP4 CODECOPY DUP2 MLOAD SWAP2 MSTORE PUSH1 0x20 MSTORE PUSH1 0x40 SWAP1 KECCAK256 SLOAD PUSH1 0xFF AND ISZERO PUSH2 0x1708 JUMPI JUMP JUMPDEST PUSH2 0x16DD PUSH2 0x1714 CALLER PUSH2 0x1845 JUMP JUMPDEST PUSH2 0x16BD PUSH1 0x11 PUSH2 0x163B PUSH1 0x0 DUP1 MLOAD PUSH1 0x20 PUSH2 0x1A52 DUP4 CODECOPY DUP2 MLOAD SWAP2 MSTORE PUSH2 0x1985 JUMP JUMPDEST PUSH1 0x0 DUP2 DUP2 MSTORE PUSH1 0x20 DUP2 DUP2 MSTORE PUSH1 0x40 DUP1 DUP4 KECCAK256 CALLER DUP5 MSTORE SWAP1 SWAP2 MSTORE SWAP1 KECCAK256 SLOAD PUSH1 0xFF AND ISZERO PUSH2 0x1753 JUMPI POP JUMP JUMPDEST PUSH2 0x16DD SWAP1 PUSH2 0x16BD PUSH1 0x11 PUSH2 0x163B PUSH2 0x1768 CALLER PUSH2 0x1845 JUMP JUMPDEST SWAP4 PUSH2 0x1985 JUMP JUMPDEST PUSH1 0x0 DUP2 DUP2 MSTORE PUSH1 0x20 DUP2 DUP2 MSTORE PUSH1 0x40 DUP1 DUP4 KECCAK256 PUSH1 0x1 PUSH1 0x1 PUSH1 0xA0 SHL SUB DUP7 AND DUP5 MSTORE SWAP1 SWAP2 MSTORE SWAP1 KECCAK256 SLOAD PUSH1 0xFF AND PUSH2 0x179A JUMPI POP POP JUMP JUMPDEST PUSH1 0x0 DUP2 DUP2 MSTORE PUSH1 0x20 DUP2 DUP2 MSTORE PUSH1 0x40 DUP1 DUP4 KECCAK256 PUSH1 0x1 PUSH1 0x1 PUSH1 0xA0 SHL SUB SWAP6 SWAP1 SWAP6 AND DUP1 DUP5 MSTORE SWAP5 SWAP1 SWAP2 MSTORE DUP2 KECCAK256 DUP1 SLOAD PUSH1 0xFF NOT AND SWAP1 SSTORE CALLER SWAP3 SWAP2 SWAP1 PUSH32 0xF6391F5C32D9C69D2A47EA670B442974B53935D1EDC7FD64EB21E047A839171B SWAP1 DUP1 LOG4 JUMP JUMPDEST PUSH1 0xFF PUSH1 0x1 SLOAD AND PUSH2 0x17FC JUMPI JUMP JUMPDEST PUSH1 0x40 MLOAD PUSH3 0x461BCD PUSH1 0xE5 SHL DUP2 MSTORE PUSH1 0x20 PUSH1 0x4 DUP3 ADD MSTORE PUSH1 0x10 PUSH1 0x24 DUP3 ADD MSTORE PUSH16 0x14185D5CD8589B194E881C185D5CD959 PUSH1 0x82 SHL PUSH1 0x44 DUP3 ADD MSTORE PUSH1 0x64 SWAP1 REVERT JUMPDEST SWAP1 DUP2 MLOAD DUP2 LT ISZERO PUSH2 0x15B2 JUMPI ADD PUSH1 0x20 ADD SWAP1 JUMP JUMPDEST PUSH1 0x0 SWAP1 PUSH2 0x1852 PUSH1 0x2A PUSH2 0x1532 JUMP JUMPDEST SWAP2 PUSH2 0x1860 PUSH1 0x40 MLOAD SWAP4 DUP5 PUSH2 0x13E3 JUMP JUMPDEST PUSH1 0x2A DUP4 MSTORE PUSH2 0x186E PUSH1 0x2A PUSH2 0x1532 JUMP JUMPDEST PUSH1 0x20 DUP5 ADD SWAP1 PUSH1 0x1F NOT ADD CALLDATASIZE DUP3 CALLDATACOPY DUP4 MLOAD ISZERO PUSH2 0x1971 JUMPI PUSH1 0x30 SWAP1 MSTORE8 DUP3 MLOAD PUSH1 0x1 LT ISZERO PUSH2 0x195D JUMPI PUSH1 0x78 PUSH1 0x21 DUP5 ADD MSTORE8 POP PUSH1 0x29 PUSH1 0x0 JUMPDEST PUSH1 0x1 DUP3 GT PUSH2 0x18F1 JUMPI POP POP PUSH2 0x18AD JUMPI SWAP1 JUMP JUMPDEST PUSH1 0x64 PUSH1 0x40 MLOAD PUSH3 0x461BCD PUSH1 0xE5 SHL DUP2 MSTORE PUSH1 0x20 PUSH1 0x4 DUP3 ADD MSTORE PUSH1 0x20 PUSH1 0x24 DUP3 ADD MSTORE PUSH32 0x537472696E67733A20686578206C656E67746820696E73756666696369656E74 PUSH1 0x44 DUP3 ADD MSTORE REVERT JUMPDEST SWAP1 SWAP2 PUSH1 0xF DUP2 AND PUSH1 0x10 DUP2 LT ISZERO PUSH2 0x1949 JUMPI PUSH16 0x181899199A1A9B1B9C1CB0B131B232B3 PUSH1 0x81 SHL SWAP1 BYTE PUSH2 0x1920 DUP5 DUP7 PUSH2 0x1834 JUMP JUMPDEST MSTORE8 PUSH1 0x4 SHR SWAP2 DUP1 ISZERO PUSH2 0x1935 JUMPI PUSH1 0x0 NOT ADD SWAP1 PUSH2 0x189C JUMP JUMPDEST PUSH4 0x4E487B71 PUSH1 0xE0 SHL DUP3 MSTORE PUSH1 0x11 PUSH1 0x4 MSTORE PUSH1 0x24 DUP3 REVERT JUMPDEST PUSH4 0x4E487B71 PUSH1 0xE0 SHL DUP4 MSTORE PUSH1 0x32 PUSH1 0x4 MSTORE PUSH1 0x24 DUP4 REVERT JUMPDEST PUSH4 0x4E487B71 PUSH1 0xE0 SHL DUP2 MSTORE PUSH1 0x32 PUSH1 0x4 MSTORE PUSH1 0x24 SWAP1 REVERT JUMPDEST PUSH4 0x4E487B71 PUSH1 0xE0 SHL DUP3 MSTORE PUSH1 0x32 PUSH1 0x4 MSTORE PUSH1 0x24 DUP3 REVERT JUMPDEST PUSH1 0x0 SWAP1 PUSH2 0x1992 PUSH1 0x42 PUSH2 0x1532 JUMP JUMPDEST SWAP2 PUSH2 0x19A0 PUSH1 0x40 MLOAD SWAP4 DUP5 PUSH2 0x13E3 JUMP JUMPDEST PUSH1 0x42 DUP4 MSTORE PUSH2 0x19AE PUSH1 0x42 PUSH2 0x1532 JUMP JUMPDEST PUSH1 0x20 DUP5 ADD SWAP1 PUSH1 0x1F NOT ADD CALLDATASIZE DUP3 CALLDATACOPY DUP4 MLOAD ISZERO PUSH2 0x1971 JUMPI PUSH1 0x30 SWAP1 MSTORE8 DUP3 MLOAD PUSH1 0x1 LT ISZERO PUSH2 0x195D JUMPI PUSH1 0x78 PUSH1 0x21 DUP5 ADD MSTORE8 POP PUSH1 0x41 PUSH1 0x0 JUMPDEST PUSH1 0x1 DUP3 GT PUSH2 0x19ED JUMPI POP POP PUSH2 0x18AD JUMPI SWAP1 JUMP JUMPDEST SWAP1 SWAP2 PUSH1 0xF DUP2 AND PUSH1 0x10 DUP2 LT ISZERO PUSH2 0x1949 JUMPI PUSH16 0x181899199A1A9B1B9C1CB0B131B232B3 PUSH1 0x81 SHL SWAP1 BYTE PUSH2 0x1A1C DUP5 DUP7 PUSH2 0x1834 JUMP JUMPDEST MSTORE8 PUSH1 0x4 SHR SWAP2 DUP1 ISZERO PUSH2 0x1935 JUMPI PUSH1 0x0 NOT ADD SWAP1 PUSH2 0x19DC JUMP INVALID BYTE PUSH24 0x60066BD1F06DF3A1A816A948CB99A3A2E8FFA5089500E847 MOD DUP7 DUP12 INVALID SMOD 0x2D JUMPDEST 0xB0 0xBF 0x1F 0xAB 0xD5 0xE9 PUSH22 0xFC7A4520766D9E86E0EB281F8C7C44FCD3DFE60A11E7 DUP7 0xCA LOG2 PUSH5 0x6970667358 0x22 SLT KECCAK256 SWAP12 SIGNEXTEND 0xDA SELFBALANCE JUMP CHAINID MSTORE8 SWAP5 0x1F ADDMOD ADD 0xFB PUSH25 0x8B6BDF68A4462A777291AF04D3657236AD427764736F6C6343 STOP ADDMOD SHR STOP CALLER 0x2F DUP8 DUP9 GT PUSH31 0x7EFF1D82E926EC794901D17C78024A50270940304540A733656F0D7D7FFB7A CALLVALUE DUP15 SHR PUSH11 0x2869081A26547B49160DD RETURNDATASIZE 0xF7 0x2D SAR PUSH22 0xA570EB9B698292ECAD3228B676F7D3CD4284A5443F17 CALL SWAP7 0x2B CALLDATASIZE 0xE4 SWAP2 0xB3 EXP BLOCKHASH 0xB2 BLOCKHASH PC BLOBHASH 0xE5 SWAP8 0xBA PUSH0 0xB5 "},"methodIdentifiers":{"ADMIN_ROLE()":"75b238fc","DEFAULT_ADMIN_ROLE()":"a217fddf","UNIVERSITY_ROLE()":"3d178414","addRecord(string,string,string,string,string,uint8)":"c4dd1e37","addUniversity(address)":"39bdf2a1","getRecord(uint256)":"03e9e609","getRoleAdmin(bytes32)":"248a9ca3","getStudentRecords(string)":"2d175a18","getUniversityRecords()":"92fd707d","grantRole(bytes32,address)":"2f2ff15d","hasRole(bytes32,address)":"91d14854","pause()":"8456cb59","paused()":"5c975abb","recordAccess(uint256)":"f795a646","removeUniversity(address)":"28f54b2f","renounceRole(bytes32,address)":"36568abe","revokeRole(bytes32,address)":"d547741f","supportsInterface(bytes4)":"01ffc9a7","unpause()":"3f4ba83a","verifyRecord(uint256)":"3af4d950"}}}}}