{"contracts/AcademicRecords.sol":{"AcademicRecords":{"abi":[{"inputs":[],"stateMutability":"nonpayable","type":"constructor"},{"anonymous":false,"inputs":[{"indexed":false,"internalType":"address","name":"account","type":"address"}],"name":"Paused","type":"event"},{"anonymous":false,"inputs":[{"indexed":true,"internalType":"uint256","name":"recordId","type":"uint256"},{"indexed":false,"internalType":"address","name":"accessor","type":"address"}],"name":"RecordAccessed","type":"event"},{"anonymous":false,"inputs":[{"indexed":true,"internalType":"uint256","name":"recordId","type":"uint256"},{"indexed":false,"internalType":"string","name":"studentId","type":"string"},{"indexed":false,"internalType":"enum AcademicRecords.RecordType","name":"recordType","type":"uint8"},{"indexed":false,"internalType":"address","name":"issuer","type":"address"}],"name":"RecordAdded","type":"event"},{"anonymous":false,"inputs":[{"indexed":true,"internalType":"uint256","name":"recordId","type":"uint256"},{"indexed":false,"internalType":"address","name":"verifier","type":"address"}],"name":"RecordVerified","type":"event"},{"anonymous":false,"inputs":[{"indexed":true,"internalType":"bytes32","name":"role","type":"bytes32"},{"indexed":true,"internalType":"bytes32","name":"previousAdminRole","type":"bytes32"},{"indexed":true,"internalType":"bytes32","name":"newAdminRole","type":"bytes32"}],"name":"RoleAdminChanged","type":"event"},{"anonymous":false,"inputs":[{"indexed":true,"internalType":"bytes32","name":"role","type":"bytes32"},{"indexed":true,"internalType":"address","name":"account","type":"address"},{"indexed":true,"internalType":"address","name":"sender","type":"address"}],"name":"RoleGranted","type":"event"},{"anonymous":false,"inputs":[{"indexed":true,"internalType":"bytes32","name":"role","type":"bytes32"},{"indexed":true,"internalType":"address","name":"account","type":"address"},{"indexed":true,"internalType":"address","name":"sender","type":"address"}],"name":"RoleRevoked","type":"event"},{"anonymous":false,"inputs":[{"indexed":true,"internalType":"address","name":"university","type":"address"},{"indexed":false,"internalType":"string","name":"name","type":"string"}],"name":"UniversityNameUpdated","type":"event"},{"anonymous":false,"inputs":[{"indexed":false,"internalType":"address","name":"account","type":"address"}],"name":"Unpaused","type":"event"},{"inputs":[],"name":"ADMIN_ROLE","outputs":[{"internalType":"bytes32","name":"","type":"bytes32"}],"stateMutability":"view","type":"function"},{"inputs":[],"name":"DEFAULT_ADMIN_ROLE","outputs":[{"internalType":"bytes32","name":"","type":"bytes32"}],"stateMutability":"view","type":"function"},{"inputs":[],"name":"UNIVERSITY_ROLE","outputs":[{"internalType":"bytes32","name":"","type":"bytes32"}],"stateMutability":"view","type":"function"},{"inputs":[{"internalType":"string","name":"studentId","type":"string"},{"internalType":"string","name":"studentName","type":"string"},{"internalType":"string","name":"universityName","type":"string"},{"internalType":"string","name":"ipfsHash","type":"string"},{"internalType":"string","name":"metadataHash","type":"string"},{"internalType":"enum AcademicRecords.RecordType","name":"recordType","type":"uint8"}],"name":"addRecord","outputs":[{"internalType":"uint256","name":"","type":"uint256"}],"stateMutability":"nonpayable","type":"function"},{"inputs":[{"internalType":"address","name":"universityAddress","type":"address"},{"internalType":"string","name":"name","type":"string"}],"name":"addUniversity","outputs":[],"stateMutability":"nonpayable","type":"function"},{"inputs":[],"name":"getAllUniversities","outputs":[{"internalType":"address[]","name":"","type":"address[]"}],"stateMutability":"view","type":"function"},{"inputs":[{"internalType":"uint256","name":"recordId","type":"uint256"}],"name":"getRecord","outputs":[{"components":[{"internalType":"uint256","name":"id","type":"uint256"},{"internalType":"string","name":"studentId","type":"string"},{"internalType":"string","name":"studentName","type":"string"},{"internalType":"string","name":"universityName","type":"string"},{"internalType":"string","name":"ipfsHash","type":"string"},{"internalType":"string","name":"metadataHash","type":"string"},{"internalType":"enum AcademicRecords.RecordType","name":"recordType","type":"uint8"},{"internalType":"uint256","name":"timestamp","type":"uint256"},{"internalType":"bool","name":"isVerified","type":"bool"},{"internalType":"address","name":"issuer","type":"address"}],"internalType":"struct AcademicRecords.Record","name":"","type":"tuple"}],"stateMutability":"view","type":"function"},{"inputs":[{"internalType":"bytes32","name":"role","type":"bytes32"}],"name":"getRoleAdmin","outputs":[{"internalType":"bytes32","name":"","type":"bytes32"}],"stateMutability":"view","type":"function"},{"inputs":[{"internalType":"string","name":"studentId","type":"string"}],"name":"getStudentRecords","outputs":[{"internalType":"uint256[]","name":"","type":"uint256[]"}],"stateMutability":"view","type":"function"},{"inputs":[{"internalType":"address","name":"universityAddress","type":"address"}],"name":"getUniversityName","outputs":[{"internalType":"string","name":"","type":"string"}],"stateMutability":"view","type":"function"},{"inputs":[],"name":"getUniversityRecords","outputs":[{"internalType":"uint256[]","name":"","type":"uint256[]"}],"stateMutability":"view","type":"function"},{"inputs":[{"internalType":"bytes32","name":"role","type":"bytes32"},{"internalType":"address","name":"account","type":"address"}],"name":"grantRole","outputs":[],"stateMutability":"nonpayable","type":"function"},{"inputs":[{"internalType":"bytes32","name":"role","type":"bytes32"},{"internalType":"address","name":"account","type":"address"}],"name":"hasRole","outputs":[{"internalType":"bool","name":"","type":"bool"}],"stateMutability":"view","type":"function"},{"inputs":[],"name":"pause","outputs":[],"stateMutability":"nonpayable","type":"function"},{"inputs":[],"name":"paused","outputs":[{"internalType":"bool","name":"","type":"bool"}],"stateMutability":"view","type":"function"},{"inputs":[{"internalType":"uint256","name":"recordId","type":"uint256"}],"name":"recordAccess","outputs":[],"stateMutability":"nonpayable","type":"function"},{"inputs":[{"internalType":"address","name":"universityAddress","type":"address"}],"name":"removeUniversity","outputs":[],"stateMutability":"nonpayable","type":"function"},{"inputs":[{"internalType":"bytes32","name":"role","type":"bytes32"},{"internalType":"address","name":"account","type":"address"}],"name":"renounceRole","outputs":[],"stateMutability":"nonpayable","type":"function"},{"inputs":[{"internalType":"bytes32","name":"role","type":"bytes32"},{"internalType":"address","name":"account","type":"address"}],"name":"revokeRole","outputs":[],"stateMutability":"nonpayable","type":"function"},{"inputs":[{"internalType":"address","name":"universityAddress","type":"address"},{"internalType":"string","name":"name","type":"string"}],"name":"setUniversityName","outputs":[],"stateMutability":"nonpayable","type":"function"},{"inputs":[{"internalType":"bytes4","name":"interfaceId","type":"bytes4"}],"name":"supportsInterface","outputs":[{"internalType":"bool","name":"","type":"bool"}],"stateMutability":"view","type":"function"},{"inputs":[],"name":"unpause","outputs":[],"stateMutability":"nonpayable","type":"function"},{"inputs":[{"internalType":"uint256","name":"recordId","type":"uint256"}],"name":"verifyRecord","outputs":[{"internalType":"bool","name":"","type":"bool"}],"stateMutability":"view","type":"function"}],"evm":{"bytecode":{"linkReferences":{},"object":"608060405234610110576001805460ff19169055336000908152600080516020612190833981519152602052604090205460ff16156100d0575b336000908152600080516020612170833981519152602052604090205460ff161561006e575b60405161203a90816101168239f35b33600081815260008051602061217083398151915260205260408120805460ff1916600117905581907fa49807205ce4d355092ef5a8a18f56e8913cf4a201fbe287825b095693c21775906000805160206121508339815191529080a461005f565b33600081815260008051602061219083398151915260205260408120805460ff1916600117905581906000805160206121508339815191528180a4610039565b600080fdfe608080604052600436101561001357600080fd5b60003560e01c90816301ffc9a7146117475750806303e9e60914611538578063248a9ca31461150357806328f54b2f146112cf5780632d175a18146112405780632f2ff15d1461118457806336568abe146110f25780633af4d950146110a55780633d1784141461107c5780633f4ba83a14610fe85780635c975abb14610fc557806375b238fc14610f8a5780638456cb5914610f31578063882f040314610ee357806391d1485414610e9657806392fd707d14610e17578063a217fddf14610dfb578063a908dc6214610b64578063baf9077b14610910578063c4dd1e371461028d578063d547741f14610246578063f597d9941461017a5763f795a6461461011c57600080fd5b34610175576020366003190112610175576004358060005260036020526101498160406000205414611902565b7f980d15b088d1127894ac6300da68467873935cb71f64d1ff99f85614bf474c6c6020604051338152a2005b600080fd5b34610175576000366003190112610175576040518060206007549283815201809260076000527fa66cc928b5edb82af9bd49922954155ab7b0942694bea4ce44661d9a8736c6889060005b81811061022757505050816101db9103826118e1565b6040519182916020830190602084525180915260408301919060005b818110610205575050500390f35b82516001600160a01b03168452859450602093840193909201916001016101f7565b82546001600160a01b03168452602090930192600192830192016101c5565b346101755760403660031901126101755761028b600435610265611805565b9061028661028182600052600060205260016040600020015490565b611cd7565b611d15565b005b346101755760c0366003190112610175576004356001600160401b038111610175576102bd90369060040161181b565b6024356001600160401b038111610175576102dc90369060040161181b565b6044939193356001600160401b038111610175576102fe90369060040161181b565b9290936064356001600160401b0381116101755761032090369060040161181b565b946084356001600160401b0381116101755761034090369060040161181b565b959060a43593600485101561017557610357611c88565b61035f611d97565b600254600101998a6002556040519b8c94610379866118c5565b8c8652610387368a8c611af9565b95602001958652369061039992611af9565b9460408d0195865236906103ac92611af9565b9860608c01998a5236906103bf92611af9565b9660808b0197885236906103d292611af9565b60a08a0190815260c08a01966103e88589611a24565b60e08b0198428a526101008c0194600186526101208d01943386528c60005260036020526040600020809e51815560010190518051906001600160401b03821161073d576104408261043a8554611946565b85611a78565b602090601f83116001146108a957610471929160009183610837575b50508160011b916000199060031b1c19161790565b90555b51805160028e01916001600160401b03821161073d576104988261043a8554611946565b602090601f8311600114610842576104c89291600091836108375750508160011b916000199060031b1c19161790565b90555b51805160038d01916001600160401b03821161073d576104ef8261043a8554611946565b602090601f83116001146107d05761051f9291600091836107c55750508160011b916000199060031b1c19161790565b90555b51805160048c01916001600160401b03821161073d576105468261043a8554611946565b602090601f831160011461075e576105769291600091836107535750508160011b916000199060031b1c19161790565b90555b51805160058b01916001600160401b03821161073d5761059d8261043a8554611946565b602090601f83116001146106d6576105cd9291600091836106cb5750508160011b916000199060031b1c19161790565b90555b60068901955160048110156106b55760209989987f8a9f62701df42f18a82cdd37c50a7bce4cd48487ff236cabc609440251f87c3e9860089360ff80198354169116179055516007820155019151151560ff8019845416911617825551815490610100600160a81b039060081b1690610100600160a81b03191617905561066a856040518486823789818681016004815203019020611b30565b3360005260058752610680856040600020611b30565b6106a461069a604051948594606086526060860191611abd565b91888401906117e2565b3360408301520390a2604051908152f35b634e487b7160e01b600052602160045260246000fd5b015190508d8061045c565b90601f1983169184600052816000209260005b818110610725575090846001959493921061070c575b505050811b0190556105d0565b015160001960f88460031b161c191690558c80806106ff565b929360206001819287860151815501950193016106e9565b634e487b7160e01b600052604160045260246000fd5b015190508e8061045c565b90601f1983169184600052816000209260005b8181106107ad5750908460019594939210610794575b505050811b019055610579565b015160001960f88460031b161c191690558d8080610787565b92936020600181928786015181550195019301610771565b015190508f8061045c565b90601f1983169184600052816000209260005b81811061081f5750908460019594939210610806575b505050811b019055610522565b015160001960f88460031b161c191690558e80806107f9565b929360206001819287860151815501950193016107e3565b01519050388061045c565b90601f1983169184600052816000209260005b8181106108915750908460019594939210610878575b505050811b0190556104cb565b015160001960f88460031b161c191690558f808061086b565b92936020600181928786015181550195019301610855565b90601f1983169184600052816000209260005b8181106108f857509084600195949392106108df575b505050811b019055610474565b015160001960f88460031b161c191690553880806108d2565b929360206001819287860151815501950193016108bc565b346101755761091e36611882565b3360009081527f7d7ffb7a348e1c6a02869081a26547b49160dd3df72d1d75a570eb9b698292ec602052604090205490929060ff168015610b52575b15610b0d576001600160a01b0381166000908152600080516020611fc5833981519152602052604090205460ff1615610ac8576001600160a01b03166000818152600660205260409020929091906001600160401b03811161073d576109ca816109c48654611946565b86611a78565b600093601f8211600114610a4657610a1c82807fc27f3bae021ab8e78d67f94f2cd8248055d6ae911c4cf44c62bd025cd3574ee19697600091610a3b575b508160011b916000199060031b1c19161790565b90555b610a36604051928392602084526020840191611abd565b0390a2005b905085013588610a08565b80855260208520601f19831695805b878110610ab05750837fc27f3bae021ab8e78d67f94f2cd8248055d6ae911c4cf44c62bd025cd3574ee1969710610a96575b5050600182811b019055610a1f565b840135600019600385901b60f8161c191690558580610a87565b90916020600181928589013581550193019101610a55565b60405162461bcd60e51b815260206004820152601b60248201527f41646472657373206973206e6f74206120756e697665727369747900000000006044820152606490fd5b60405162461bcd60e51b815260206004820152601a60248201527f4e6f7420617574686f72697a656420746f20736574206e616d650000000000006044820152606490fd5b50336001600160a01b0382161461095a565b3461017557610b7236611882565b9190610b7c611b6f565b6001600160a01b0382166000908152600080516020611fc5833981519152602052604090205460ff16610dbf57600080516020611fe583398151915260009081526020527f1a7760066bd1f06df3a1a816a948cb99a3a2e8ffa5089500e84706868bfe072e54610beb90611cd7565b6001600160a01b0382166000908152600080516020611fc5833981519152602052604090205460ff1615610d53575b6001600160a01b03821660008181526006602052604090209093906001600160401b03821161073d57610c5782610c518354611946565b83611a78565b600082601f8111600114610cf05780610c8592600091610a3b57508160011b916000199060031b1c19161790565b90555b600754600160401b81101561073d577fc27f3bae021ab8e78d67f94f2cd8248055d6ae911c4cf44c62bd025cd3574ee193610ccc826001610a1f9401600755611a47565b81546001600160a01b0393841660039290921b91821b9390911b1916919091179055565b50818152602081209083601f198116825b818110610d38575010610d1e575b5050600182811b019055610c88565b840135600019600385901b60f8161c191690558580610d0f565b87840135855560019094019360209384019387935001610d01565b6001600160a01b0382166000818152600080516020611fc583398151915260205260408120805460ff19166001179055339190600080516020611fe5833981519152907f2f8788117e7eff1d82e926ec794901d17c78024a50270940304540a733656f0d9080a4610c1a565b60405162461bcd60e51b8152602060048201526014602482015273416c7265616479206120756e697665727369747960601b6044820152606490fd5b3461017557600036600319011261017557602060405160008152f35b3461017557600036600319011261017557610e30611c88565b336000526005602052604060002060405190816020825491828152019160005260206000209060005b818110610e8057610e7c85610e70818703826118e1565b60405191829182611848565b0390f35b8254845260209093019260019283019201610e59565b3461017557604036600319011261017557610eaf611805565b600435600052600060205260406000209060018060a01b0316600052602052602060ff604060002054166040519015158152f35b34610175576020366003190112610175576001600160a01b03610f046117ef565b166000526006602052610e7c610f1d6040600020611980565b6040519182916020835260208301906117bd565b3461017557600036600319011261017557610f4a611b6f565b610f52611d97565b600160ff19815416176001557f62e78cea01bee320cd4e420270b5ea74000d11b0c9f74754ebdbfc544b05a2586020604051338152a1005b346101755760003660031901126101755760206040517fa49807205ce4d355092ef5a8a18f56e8913cf4a201fbe287825b095693c217758152f35b3461017557600036600319011261017557602060ff600154166040519015158152f35b3461017557600036600319011261017557611001611b6f565b60015460ff8116156110405760ff19166001557f5db9ee0a495bf2e6ff9c91a7834c1ba4fdd244a5e8aa4e537bd38aeae4b073aa6020604051338152a1005b60405162461bcd60e51b815260206004820152601460248201527314185d5cd8589b194e881b9bdd081c185d5cd95960621b6044820152606490fd5b34610175576000366003190112610175576020604051600080516020611fe58339815191528152f35b34610175576020366003190112610175576004358060005260036020526110d28160406000205414611902565b6000526003602052602060ff600860406000200154166040519015158152f35b346101755760403660031901126101755761110b611805565b336001600160a01b038216036111275761028b90600435611d15565b60405162461bcd60e51b815260206004820152602f60248201527f416363657373436f6e74726f6c3a2063616e206f6e6c792072656e6f756e636560448201526e103937b632b9903337b91039b2b63360891b6064820152608490fd5b34610175576040366003190112610175576004356111a0611805565b906111bc61028182600052600060205260016040600020015490565b6000818152602081815260408083206001600160a01b038616845290915290205460ff16156111e757005b6000818152602081815260408083206001600160a01b0395909516808452949091528120805460ff19166001179055339291907f2f8788117e7eff1d82e926ec794901d17c78024a50270940304540a733656f0d9080a4005b34610175576020366003190112610175576004356001600160401b03811161017557611272602091369060040161181b565b91908260405193849283378101600481520301902060405190816020825491828152019160005260206000209060005b8181106112b957610e7c85610e70818703826118e1565b82548452602090930192600192830192016112a2565b34610175576020366003190112610175576112e86117ef565b6112f0611b6f565b600080516020611fe583398151915260009081526020527f1a7760066bd1f06df3a1a816a948cb99a3a2e8ffa5089500e84706868bfe072e5461133290611cd7565b6001600160a01b0381166000908152600080516020611fc5833981519152602052604090205460ff1661149a575b6001600160a01b03166000818152600660205260409020805461138290611946565b9081611456575b505060005b6007548082101561028b57826113a383611a47565b905460039190911b1c6001600160a01b0316146113c3575060010161138e565b60001981019250821161144057610ccc6113df6113f793611a47565b905460039190911b1c6001600160a01b031691611a47565b600754801561142a576000190161140d81611a47565b81546001600160a01b0360039290921b9190911b19169055600755005b634e487b7160e01b600052603160045260246000fd5b634e487b7160e01b600052601160045260246000fd5b81601f6000931160011461146e5750555b8180611389565b8183526020832061148a91601f0160051c810190600101611a30565b8082528160208120915555611467565b6001600160a01b0381166000818152600080516020611fc583398151915260205260408120805460ff19169055339190600080516020611fe5833981519152907ff6391f5c32d9c69d2a47ea670b442974b53935d1edc7fd64eb21e047a839171b9080a4611360565b34610175576020366003190112610175576020611530600435600052600060205260016040600020015490565b604051908152f35b3461017557602036600319011261017557600435604051611558816118c5565b60008152602081016060905260408101606090526060810160609052608081016060905260a081016060905260c081016000905260e0810160009052610100810160009052610120016000905280600052600360205280604060002054146115bf90611902565b600052600360205260406000206040516115d8816118c5565b815481526115e860018301611980565b60208201908152916115fc60028201611980565b6040830190815261160f60038301611980565b606084019081529061162360048401611980565b608085019081529261163760058201611980565b60a08601908152600682015460ff169460c08701956116569087611a24565b60078301549260e08801938452600801549461010088019460ff871615158652610120890196600160a01b600190039060081c168752604051998a9960208b525160208b01525160408a0161014090526101608a016116b4916117bd565b9051898203601f190160608b01526116cc91906117bd565b9051888203601f190160808a01526116e491906117bd565b9051878203601f190160a08901526116fc91906117bd565b9051868203601f190160c088015261171491906117bd565b935160e08601611723916117e2565b51610100850152511515610120840152516001600160a01b03166101408301520390f35b34610175576020366003190112610175576004359063ffffffff60e01b821680920361017557602091637965db0b60e01b8114908115611789575b5015158152f35b6301ffc9a760e01b14905083611782565b60005b8381106117ad5750506000910152565b818101518382015260200161179d565b906020916117d68151809281855285808601910161179a565b601f01601f1916010190565b9060048210156106b55752565b600435906001600160a01b038216820361017557565b602435906001600160a01b038216820361017557565b9181601f84011215610175578235916001600160401b038311610175576020838186019501011161017557565b602060408183019282815284518094520192019060005b81811061186c5750505090565b825184526020938401939092019160010161185f565b906040600319830112610175576004356001600160a01b03811681036101755791602435906001600160401b038211610175576118c19160040161181b565b9091565b61014081019081106001600160401b0382111761073d57604052565b90601f801991011681019081106001600160401b0382111761073d57604052565b1561190957565b60405162461bcd60e51b8152602060048201526015602482015274149958dbdc9908191bd95cc81b9bdd08195e1a5cdd605a1b6044820152606490fd5b90600182811c92168015611976575b602083101461196057565b634e487b7160e01b600052602260045260246000fd5b91607f1691611955565b906040519182600082549261199484611946565b8084529360018116908115611a0257506001146119bb575b506119b9925003836118e1565b565b90506000929192526020600020906000915b8183106119e65750509060206119b992820101386119ac565b60209193508060019154838589010152019101909184926119cd565b9050602092506119b994915060ff191682840152151560051b820101386119ac565b60048210156106b55752565b818110611a3b575050565b60008155600101611a30565b600754811015611a6257600760005260206000200190600090565b634e487b7160e01b600052603260045260246000fd5b9190601f8111611a8757505050565b6119b9926000526020600020906020601f840160051c83019310611ab3575b601f0160051c0190611a30565b9091508190611aa6565b908060209392818452848401376000828201840152601f01601f1916010190565b6001600160401b03811161073d57601f01601f191660200190565b929192611b0582611ade565b91611b1360405193846118e1565b829481845281830111610175578281602093846000960137010152565b805490600160401b82101561073d576001820181556000908054831015611b5b578152602090200155565b634e487b7160e01b82526032600452602482fd5b3360009081527f7d7ffb7a348e1c6a02869081a26547b49160dd3df72d1d75a570eb9b698292ec602052604090205460ff1615611ba857565b611c84611bb433611dec565b611c646011611be27fa49807205ce4d355092ef5a8a18f56e8913cf4a201fbe287825b095693c21775611f18565b9260376040519485927f416363657373436f6e74726f6c3a206163636f756e74200000000000000000006020850152611c24815180926020868801910161179a565b83017001034b99036b4b9b9b4b733903937b6329607d1b83820152611c5382518093602060488501910161179a565b01010301601f1981018352826118e1565b60405162461bcd60e51b81526020600482015291829160248301906117bd565b0390fd5b336000908152600080516020611fc5833981519152602052604090205460ff1615611caf57565b611c84611cbb33611dec565b611c646011611be2600080516020611fe5833981519152611f18565b60008181526020818152604080832033845290915290205460ff1615611cfa5750565b611c8490611c646011611be2611d0f33611dec565b93611f18565b6000818152602081815260408083206001600160a01b038616845290915290205460ff16611d41575050565b6000818152602081815260408083206001600160a01b0395909516808452949091528120805460ff19169055339291907ff6391f5c32d9c69d2a47ea670b442974b53935d1edc7fd64eb21e047a839171b9080a4565b60ff60015416611da357565b60405162461bcd60e51b815260206004820152601060248201526f14185d5cd8589b194e881c185d5cd95960821b6044820152606490fd5b908151811015611a62570160200190565b600090611df9602a611ade565b91611e0760405193846118e1565b602a8352611e15602a611ade565b6020840190601f1901368237835115611b5b5760309053825160011015611f04576078602184015350602960005b60018211611e98575050611e545790565b606460405162461bcd60e51b815260206004820152602060248201527f537472696e67733a20686578206c656e67746820696e73756666696369656e746044820152fd5b9091600f81166010811015611ef0576f181899199a1a9b1b9c1cb0b131b232b360811b901a611ec78486611ddb565b5360041c918015611edc576000190190611e43565b634e487b7160e01b82526011600452602482fd5b634e487b7160e01b83526032600452602483fd5b634e487b7160e01b81526032600452602490fd5b600090611f256042611ade565b91611f3360405193846118e1565b60428352611f416042611ade565b6020840190601f1901368237835115611b5b5760309053825160011015611f04576078602184015350604160005b60018211611f80575050611e545790565b9091600f81166010811015611ef0576f181899199a1a9b1b9c1cb0b131b232b360811b901a611faf8486611ddb565b5360041c918015611edc576000190190611f6f56fe1a7760066bd1f06df3a1a816a948cb99a3a2e8ffa5089500e84706868bfe072d5bb0bf1fabd5e975fc7a4520766d9e86e0eb281f8c7c44fcd3dfe60a11e786caa264697066735822122086af6aabded6e3168b3d0000738b5d968350132e52643644ef961aef10f5aabb64736f6c634300081c00332f8788117e7eff1d82e926ec794901d17c78024a50270940304540a733656f0d7d7ffb7a348e1c6a02869081a26547b49160dd3df72d1d75a570eb9b698292ecad3228b676f7d3cd4284a5443f17f1962b36e491b30a40b2405849e597ba5fb5","opcodes":"PUSH1 0x80 PUSH1 0x40 MSTORE CALLVALUE PUSH2 0x110 JUMPI PUSH1 0x1 DUP1 SLOAD PUSH1 0xFF NOT AND SWAP1 SSTORE CALLER PUSH1 0x0 SWAP1 DUP2 MSTORE PUSH1 0x0 DUP1 MLOAD PUSH1 0x20 PUSH2 0x2190 DUP4 CODECOPY DUP2 MLOAD SWAP2 MSTORE PUSH1 0x20 MSTORE PUSH1 0x40 SWAP1 KECCAK256 SLOAD PUSH1 0xFF AND ISZERO PUSH2 0xD0 JUMPI JUMPDEST CALLER PUSH1 0x0 SWAP1 DUP2 MSTORE PUSH1 0x0 DUP1 MLOAD PUSH1 0x20 PUSH2 0x2170 DUP4 CODECOPY DUP2 MLOAD SWAP2 MSTORE PUSH1 0x20 MSTORE PUSH1 0x40 SWAP1 KECCAK256 SLOAD PUSH1 0xFF AND ISZERO PUSH2 0x6E JUMPI JUMPDEST PUSH1 0x40 MLOAD PUSH2 0x203A SWAP1 DUP2 PUSH2 0x116 DUP3 CODECOPY RETURN JUMPDEST CALLER PUSH1 0x0 DUP2 DUP2 MSTORE PUSH1 0x0 DUP1 MLOAD PUSH1 0x20 PUSH2 0x2170 DUP4 CODECOPY DUP2 MLOAD SWAP2 MSTORE PUSH1 0x20 MSTORE PUSH1 0x40 DUP2 KECCAK256 DUP1 SLOAD PUSH1 0xFF NOT AND PUSH1 0x1 OR SWAP1 SSTORE DUP2 SWAP1 PUSH32 0xA49807205CE4D355092EF5A8A18F56E8913CF4A201FBE287825B095693C21775 SWAP1 PUSH1 0x0 DUP1 MLOAD PUSH1 0x20 PUSH2 0x2150 DUP4 CODECOPY DUP2 MLOAD SWAP2 MSTORE SWAP1 DUP1 LOG4 PUSH2 0x5F JUMP JUMPDEST CALLER PUSH1 0x0 DUP2 DUP2 MSTORE PUSH1 0x0 DUP1 MLOAD PUSH1 0x20 PUSH2 0x2190 DUP4 CODECOPY DUP2 MLOAD SWAP2 MSTORE PUSH1 0x20 MSTORE PUSH1 0x40 DUP2 KECCAK256 DUP1 SLOAD PUSH1 0xFF NOT AND PUSH1 0x1 OR SWAP1 SSTORE DUP2 SWAP1 PUSH1 0x0 DUP1 MLOAD PUSH1 0x20 PUSH2 0x2150 DUP4 CODECOPY DUP2 MLOAD SWAP2 MSTORE DUP2 DUP1 LOG4 PUSH2 0x39 JUMP JUMPDEST PUSH1 0x0 DUP1 REVERT INVALID PUSH1 0x80 DUP1 PUSH1 0x40 MSTORE PUSH1 0x4 CALLDATASIZE LT ISZERO PUSH2 0x13 JUMPI PUSH1 0x0 DUP1 REVERT JUMPDEST PUSH1 0x0 CALLDATALOAD PUSH1 0xE0 SHR SWAP1 DUP2 PUSH4 0x1FFC9A7 EQ PUSH2 0x1747 JUMPI POP DUP1 PUSH4 0x3E9E609 EQ PUSH2 0x1538 JUMPI DUP1 PUSH4 0x248A9CA3 EQ PUSH2 0x1503 JUMPI DUP1 PUSH4 0x28F54B2F EQ PUSH2 0x12CF JUMPI DUP1 PUSH4 0x2D175A18 EQ PUSH2 0x1240 JUMPI DUP1 PUSH4 0x2F2FF15D EQ PUSH2 0x1184 JUMPI DUP1 PUSH4 0x36568ABE EQ PUSH2 0x10F2 JUMPI DUP1 PUSH4 0x3AF4D950 EQ PUSH2 0x10A5 JUMPI DUP1 PUSH4 0x3D178414 EQ PUSH2 0x107C JUMPI DUP1 PUSH4 0x3F4BA83A EQ PUSH2 0xFE8 JUMPI DUP1 PUSH4 0x5C975ABB EQ PUSH2 0xFC5 JUMPI DUP1 PUSH4 0x75B238FC EQ PUSH2 0xF8A JUMPI DUP1 PUSH4 0x8456CB59 EQ PUSH2 0xF31 JUMPI DUP1 PUSH4 0x882F0403 EQ PUSH2 0xEE3 JUMPI DUP1 PUSH4 0x91D14854 EQ PUSH2 0xE96 JUMPI DUP1 PUSH4 0x92FD707D EQ PUSH2 0xE17 JUMPI DUP1 PUSH4 0xA217FDDF EQ PUSH2 0xDFB JUMPI DUP1 PUSH4 0xA908DC62 EQ PUSH2 0xB64 JUMPI DUP1 PUSH4 0xBAF9077B EQ PUSH2 0x910 JUMPI DUP1 PUSH4 0xC4DD1E37 EQ PUSH2 0x28D JUMPI DUP1 PUSH4 0xD547741F EQ PUSH2 0x246 JUMPI DUP1 PUSH4 0xF597D994 EQ PUSH2 0x17A JUMPI PUSH4 0xF795A646 EQ PUSH2 0x11C JUMPI PUSH1 0x0 DUP1 REVERT JUMPDEST CALLVALUE PUSH2 0x175 JUMPI PUSH1 0x20 CALLDATASIZE PUSH1 0x3 NOT ADD SLT PUSH2 0x175 JUMPI PUSH1 0x4 CALLDATALOAD DUP1 PUSH1 0x0 MSTORE PUSH1 0x3 PUSH1 0x20 MSTORE PUSH2 0x149 DUP2 PUSH1 0x40 PUSH1 0x0 KECCAK256 SLOAD EQ PUSH2 0x1902 JUMP JUMPDEST PUSH32 0x980D15B088D1127894AC6300DA68467873935CB71F64D1FF99F85614BF474C6C PUSH1 0x20 PUSH1 0x40 MLOAD CALLER DUP2 MSTORE LOG2 STOP JUMPDEST PUSH1 0x0 DUP1 REVERT JUMPDEST CALLVALUE PUSH2 0x175 JUMPI PUSH1 0x0 CALLDATASIZE PUSH1 0x3 NOT ADD SLT PUSH2 0x175 JUMPI PUSH1 0x40 MLOAD DUP1 PUSH1 0x20 PUSH1 0x7 SLOAD SWAP3 DUP4 DUP2 MSTORE ADD DUP1 SWAP3 PUSH1 0x7 PUSH1 0x0 MSTORE PUSH32 0xA66CC928B5EDB82AF9BD49922954155AB7B0942694BEA4CE44661D9A8736C688 SWAP1 PUSH1 0x0 JUMPDEST DUP2 DUP2 LT PUSH2 0x227 JUMPI POP POP POP DUP2 PUSH2 0x1DB SWAP2 SUB DUP3 PUSH2 0x18E1 JUMP JUMPDEST PUSH1 0x40 MLOAD SWAP2 DUP3 SWAP2 PUSH1 0x20 DUP4 ADD SWAP1 PUSH1 0x20 DUP5 MSTORE MLOAD DUP1 SWAP2 MSTORE PUSH1 0x40 DUP4 ADD SWAP2 SWAP1 PUSH1 0x0 JUMPDEST DUP2 DUP2 LT PUSH2 0x205 JUMPI POP POP POP SUB SWAP1 RETURN JUMPDEST DUP3 MLOAD PUSH1 0x1 PUSH1 0x1 PUSH1 0xA0 SHL SUB AND DUP5 MSTORE DUP6 SWAP5 POP PUSH1 0x20 SWAP4 DUP5 ADD SWAP4 SWAP1 SWAP3 ADD SWAP2 PUSH1 0x1 ADD PUSH2 0x1F7 JUMP JUMPDEST DUP3 SLOAD PUSH1 0x1 PUSH1 0x1 PUSH1 0xA0 SHL SUB AND DUP5 MSTORE PUSH1 0x20 SWAP1 SWAP4 ADD SWAP3 PUSH1 0x1 SWAP3 DUP4 ADD SWAP3 ADD PUSH2 0x1C5 JUMP JUMPDEST CALLVALUE PUSH2 0x175 JUMPI PUSH1 0x40 CALLDATASIZE PUSH1 0x3 NOT ADD SLT PUSH2 0x175 JUMPI PUSH2 0x28B PUSH1 0x4 CALLDATALOAD PUSH2 0x265 PUSH2 0x1805 JUMP JUMPDEST SWAP1 PUSH2 0x286 PUSH2 0x281 DUP3 PUSH1 0x0 MSTORE PUSH1 0x0 PUSH1 0x20 MSTORE PUSH1 0x1 PUSH1 0x40 PUSH1 0x0 KECCAK256 ADD SLOAD SWAP1 JUMP JUMPDEST PUSH2 0x1CD7 JUMP JUMPDEST PUSH2 0x1D15 JUMP JUMPDEST STOP JUMPDEST CALLVALUE PUSH2 0x175 JUMPI PUSH1 0xC0 CALLDATASIZE PUSH1 0x3 NOT ADD SLT PUSH2 0x175 JUMPI PUSH1 0x4 CALLDATALOAD PUSH1 0x1 PUSH1 0x1 PUSH1 0x40 SHL SUB DUP2 GT PUSH2 0x175 JUMPI PUSH2 0x2BD SWAP1 CALLDATASIZE SWAP1 PUSH1 0x4 ADD PUSH2 0x181B JUMP JUMPDEST PUSH1 0x24 CALLDATALOAD PUSH1 0x1 PUSH1 0x1 PUSH1 0x40 SHL SUB DUP2 GT PUSH2 0x175 JUMPI PUSH2 0x2DC SWAP1 CALLDATASIZE SWAP1 PUSH1 0x4 ADD PUSH2 0x181B JUMP JUMPDEST PUSH1 0x44 SWAP4 SWAP2 SWAP4 CALLDATALOAD PUSH1 0x1 PUSH1 0x1 PUSH1 0x40 SHL SUB DUP2 GT PUSH2 0x175 JUMPI PUSH2 0x2FE SWAP1 CALLDATASIZE SWAP1 PUSH1 0x4 ADD PUSH2 0x181B JUMP JUMPDEST SWAP3 SWAP1 SWAP4 PUSH1 0x64 CALLDATALOAD PUSH1 0x1 PUSH1 0x1 PUSH1 0x40 SHL SUB DUP2 GT PUSH2 0x175 JUMPI PUSH2 0x320 SWAP1 CALLDATASIZE SWAP1 PUSH1 0x4 ADD PUSH2 0x181B JUMP JUMPDEST SWAP5 PUSH1 0x84 CALLDATALOAD PUSH1 0x1 PUSH1 0x1 PUSH1 0x40 SHL SUB DUP2 GT PUSH2 0x175 JUMPI PUSH2 0x340 SWAP1 CALLDATASIZE SWAP1 PUSH1 0x4 ADD PUSH2 0x181B JUMP JUMPDEST SWAP6 SWAP1 PUSH1 0xA4 CALLDATALOAD SWAP4 PUSH1 0x4 DUP6 LT ISZERO PUSH2 0x175 JUMPI PUSH2 0x357 PUSH2 0x1C88 JUMP JUMPDEST PUSH2 0x35F PUSH2 0x1D97 JUMP JUMPDEST PUSH1 0x2 SLOAD PUSH1 0x1 ADD SWAP10 DUP11 PUSH1 0x2 SSTORE PUSH1 0x40 MLOAD SWAP12 DUP13 SWAP5 PUSH2 0x379 DUP7 PUSH2 0x18C5 JUMP JUMPDEST DUP13 DUP7 MSTORE PUSH2 0x387 CALLDATASIZE DUP11 DUP13 PUSH2 0x1AF9 JUMP JUMPDEST SWAP6 PUSH1 0x20 ADD SWAP6 DUP7 MSTORE CALLDATASIZE SWAP1 PUSH2 0x399 SWAP3 PUSH2 0x1AF9 JUMP JUMPDEST SWAP5 PUSH1 0x40 DUP14 ADD SWAP6 DUP7 MSTORE CALLDATASIZE SWAP1 PUSH2 0x3AC SWAP3 PUSH2 0x1AF9 JUMP JUMPDEST SWAP9 PUSH1 0x60 DUP13 ADD SWAP10 DUP11 MSTORE CALLDATASIZE SWAP1 PUSH2 0x3BF SWAP3 PUSH2 0x1AF9 JUMP JUMPDEST SWAP7 PUSH1 0x80 DUP12 ADD SWAP8 DUP9 MSTORE CALLDATASIZE SWAP1 PUSH2 0x3D2 SWAP3 PUSH2 0x1AF9 JUMP JUMPDEST PUSH1 0xA0 DUP11 ADD SWAP1 DUP2 MSTORE PUSH1 0xC0 DUP11 ADD SWAP7 PUSH2 0x3E8 DUP6 DUP10 PUSH2 0x1A24 JUMP JUMPDEST PUSH1 0xE0 DUP12 ADD SWAP9 TIMESTAMP DUP11 MSTORE PUSH2 0x100 DUP13 ADD SWAP5 PUSH1 0x1 DUP7 MSTORE PUSH2 0x120 DUP14 ADD SWAP5 CALLER DUP7 MSTORE DUP13 PUSH1 0x0 MSTORE PUSH1 0x3 PUSH1 0x20 MSTORE PUSH1 0x40 PUSH1 0x0 KECCAK256 DUP1 SWAP15 MLOAD DUP2 SSTORE PUSH1 0x1 ADD SWAP1 MLOAD DUP1 MLOAD SWAP1 PUSH1 0x1 PUSH1 0x1 PUSH1 0x40 SHL SUB DUP3 GT PUSH2 0x73D JUMPI PUSH2 0x440 DUP3 PUSH2 0x43A DUP6 SLOAD PUSH2 0x1946 JUMP JUMPDEST DUP6 PUSH2 0x1A78 JUMP JUMPDEST PUSH1 0x20 SWAP1 PUSH1 0x1F DUP4 GT PUSH1 0x1 EQ PUSH2 0x8A9 JUMPI PUSH2 0x471 SWAP3 SWAP2 PUSH1 0x0 SWAP2 DUP4 PUSH2 0x837 JUMPI JUMPDEST POP POP DUP2 PUSH1 0x1 SHL SWAP2 PUSH1 0x0 NOT SWAP1 PUSH1 0x3 SHL SHR NOT AND OR SWAP1 JUMP JUMPDEST SWAP1 SSTORE JUMPDEST MLOAD DUP1 MLOAD PUSH1 0x2 DUP15 ADD SWAP2 PUSH1 0x1 PUSH1 0x1 PUSH1 0x40 SHL SUB DUP3 GT PUSH2 0x73D JUMPI PUSH2 0x498 DUP3 PUSH2 0x43A DUP6 SLOAD PUSH2 0x1946 JUMP JUMPDEST PUSH1 0x20 SWAP1 PUSH1 0x1F DUP4 GT PUSH1 0x1 EQ PUSH2 0x842 JUMPI PUSH2 0x4C8 SWAP3 SWAP2 PUSH1 0x0 SWAP2 DUP4 PUSH2 0x837 JUMPI POP POP DUP2 PUSH1 0x1 SHL SWAP2 PUSH1 0x0 NOT SWAP1 PUSH1 0x3 SHL SHR NOT AND OR SWAP1 JUMP JUMPDEST SWAP1 SSTORE JUMPDEST MLOAD DUP1 MLOAD PUSH1 0x3 DUP14 ADD SWAP2 PUSH1 0x1 PUSH1 0x1 PUSH1 0x40 SHL SUB DUP3 GT PUSH2 0x73D JUMPI PUSH2 0x4EF DUP3 PUSH2 0x43A DUP6 SLOAD PUSH2 0x1946 JUMP JUMPDEST PUSH1 0x20 SWAP1 PUSH1 0x1F DUP4 GT PUSH1 0x1 EQ PUSH2 0x7D0 JUMPI PUSH2 0x51F SWAP3 SWAP2 PUSH1 0x0 SWAP2 DUP4 PUSH2 0x7C5 JUMPI POP POP DUP2 PUSH1 0x1 SHL SWAP2 PUSH1 0x0 NOT SWAP1 PUSH1 0x3 SHL SHR NOT AND OR SWAP1 JUMP JUMPDEST SWAP1 SSTORE JUMPDEST MLOAD DUP1 MLOAD PUSH1 0x4 DUP13 ADD SWAP2 PUSH1 0x1 PUSH1 0x1 PUSH1 0x40 SHL SUB DUP3 GT PUSH2 0x73D JUMPI PUSH2 0x546 DUP3 PUSH2 0x43A DUP6 SLOAD PUSH2 0x1946 JUMP JUMPDEST PUSH1 0x20 SWAP1 PUSH1 0x1F DUP4 GT PUSH1 0x1 EQ PUSH2 0x75E JUMPI PUSH2 0x576 SWAP3 SWAP2 PUSH1 0x0 SWAP2 DUP4 PUSH2 0x753 JUMPI POP POP DUP2 PUSH1 0x1 SHL SWAP2 PUSH1 0x0 NOT SWAP1 PUSH1 0x3 SHL SHR NOT AND OR SWAP1 JUMP JUMPDEST SWAP1 SSTORE JUMPDEST MLOAD DUP1 MLOAD PUSH1 0x5 DUP12 ADD SWAP2 PUSH1 0x1 PUSH1 0x1 PUSH1 0x40 SHL SUB DUP3 GT PUSH2 0x73D JUMPI PUSH2 0x59D DUP3 PUSH2 0x43A DUP6 SLOAD PUSH2 0x1946 JUMP JUMPDEST PUSH1 0x20 SWAP1 PUSH1 0x1F DUP4 GT PUSH1 0x1 EQ PUSH2 0x6D6 JUMPI PUSH2 0x5CD SWAP3 SWAP2 PUSH1 0x0 SWAP2 DUP4 PUSH2 0x6CB JUMPI POP POP DUP2 PUSH1 0x1 SHL SWAP2 PUSH1 0x0 NOT SWAP1 PUSH1 0x3 SHL SHR NOT AND OR SWAP1 JUMP JUMPDEST SWAP1 SSTORE JUMPDEST PUSH1 0x6 DUP10 ADD SWAP6 MLOAD PUSH1 0x4 DUP2 LT ISZERO PUSH2 0x6B5 JUMPI PUSH1 0x20 SWAP10 DUP10 SWAP9 PUSH32 0x8A9F62701DF42F18A82CDD37C50A7BCE4CD48487FF236CABC609440251F87C3E SWAP9 PUSH1 0x8 SWAP4 PUSH1 0xFF DUP1 NOT DUP4 SLOAD AND SWAP2 AND OR SWAP1 SSTORE MLOAD PUSH1 0x7 DUP3 ADD SSTORE ADD SWAP2 MLOAD ISZERO ISZERO PUSH1 0xFF DUP1 NOT DUP5 SLOAD AND SWAP2 AND OR DUP3 SSTORE MLOAD DUP2 SLOAD SWAP1 PUSH2 0x100 PUSH1 0x1 PUSH1 0xA8 SHL SUB SWAP1 PUSH1 0x8 SHL AND SWAP1 PUSH2 0x100 PUSH1 0x1 PUSH1 0xA8 SHL SUB NOT AND OR SWAP1 SSTORE PUSH2 0x66A DUP6 PUSH1 0x40 MLOAD DUP5 DUP7 DUP3 CALLDATACOPY DUP10 DUP2 DUP7 DUP2 ADD PUSH1 0x4 DUP2 MSTORE SUB ADD SWAP1 KECCAK256 PUSH2 0x1B30 JUMP JUMPDEST CALLER PUSH1 0x0 MSTORE PUSH1 0x5 DUP8 MSTORE PUSH2 0x680 DUP6 PUSH1 0x40 PUSH1 0x0 KECCAK256 PUSH2 0x1B30 JUMP JUMPDEST PUSH2 0x6A4 PUSH2 0x69A PUSH1 0x40 MLOAD SWAP5 DUP6 SWAP5 PUSH1 0x60 DUP7 MSTORE PUSH1 0x60 DUP7 ADD SWAP2 PUSH2 0x1ABD JUMP JUMPDEST SWAP2 DUP9 DUP5 ADD SWAP1 PUSH2 0x17E2 JUMP JUMPDEST CALLER PUSH1 0x40 DUP4 ADD MSTORE SUB SWAP1 LOG2 PUSH1 0x40 MLOAD SWAP1 DUP2 MSTORE RETURN JUMPDEST PUSH4 0x4E487B71 PUSH1 0xE0 SHL PUSH1 0x0 MSTORE PUSH1 0x21 PUSH1 0x4 MSTORE PUSH1 0x24 PUSH1 0x0 REVERT JUMPDEST ADD MLOAD SWAP1 POP DUP14 DUP1 PUSH2 0x45C JUMP JUMPDEST SWAP1 PUSH1 0x1F NOT DUP4 AND SWAP2 DUP5 PUSH1 0x0 MSTORE DUP2 PUSH1 0x0 KECCAK256 SWAP3 PUSH1 0x0 JUMPDEST DUP2 DUP2 LT PUSH2 0x725 JUMPI POP SWAP1 DUP5 PUSH1 0x1 SWAP6 SWAP5 SWAP4 SWAP3 LT PUSH2 0x70C JUMPI JUMPDEST POP POP POP DUP2 SHL ADD SWAP1 SSTORE PUSH2 0x5D0 JUMP JUMPDEST ADD MLOAD PUSH1 0x0 NOT PUSH1 0xF8 DUP5 PUSH1 0x3 SHL AND SHR NOT AND SWAP1 SSTORE DUP13 DUP1 DUP1 PUSH2 0x6FF JUMP JUMPDEST SWAP3 SWAP4 PUSH1 0x20 PUSH1 0x1 DUP2 SWAP3 DUP8 DUP7 ADD MLOAD DUP2 SSTORE ADD SWAP6 ADD SWAP4 ADD PUSH2 0x6E9 JUMP JUMPDEST PUSH4 0x4E487B71 PUSH1 0xE0 SHL PUSH1 0x0 MSTORE PUSH1 0x41 PUSH1 0x4 MSTORE PUSH1 0x24 PUSH1 0x0 REVERT JUMPDEST ADD MLOAD SWAP1 POP DUP15 DUP1 PUSH2 0x45C JUMP JUMPDEST SWAP1 PUSH1 0x1F NOT DUP4 AND SWAP2 DUP5 PUSH1 0x0 MSTORE DUP2 PUSH1 0x0 KECCAK256 SWAP3 PUSH1 0x0 JUMPDEST DUP2 DUP2 LT PUSH2 0x7AD JUMPI POP SWAP1 DUP5 PUSH1 0x1 SWAP6 SWAP5 SWAP4 SWAP3 LT PUSH2 0x794 JUMPI JUMPDEST POP POP POP DUP2 SHL ADD SWAP1 SSTORE PUSH2 0x579 JUMP JUMPDEST ADD MLOAD PUSH1 0x0 NOT PUSH1 0xF8 DUP5 PUSH1 0x3 SHL AND SHR NOT AND SWAP1 SSTORE DUP14 DUP1 DUP1 PUSH2 0x787 JUMP JUMPDEST SWAP3 SWAP4 PUSH1 0x20 PUSH1 0x1 DUP2 SWAP3 DUP8 DUP7 ADD MLOAD DUP2 SSTORE ADD SWAP6 ADD SWAP4 ADD PUSH2 0x771 JUMP JUMPDEST ADD MLOAD SWAP1 POP DUP16 DUP1 PUSH2 0x45C JUMP JUMPDEST SWAP1 PUSH1 0x1F NOT DUP4 AND SWAP2 DUP5 PUSH1 0x0 MSTORE DUP2 PUSH1 0x0 KECCAK256 SWAP3 PUSH1 0x0 JUMPDEST DUP2 DUP2 LT PUSH2 0x81F JUMPI POP SWAP1 DUP5 PUSH1 0x1 SWAP6 SWAP5 SWAP4 SWAP3 LT PUSH2 0x806 JUMPI JUMPDEST POP POP POP DUP2 SHL ADD SWAP1 SSTORE PUSH2 0x522 JUMP JUMPDEST ADD MLOAD PUSH1 0x0 NOT PUSH1 0xF8 DUP5 PUSH1 0x3 SHL AND SHR NOT AND SWAP1 SSTORE DUP15 DUP1 DUP1 PUSH2 0x7F9 JUMP JUMPDEST SWAP3 SWAP4 PUSH1 0x20 PUSH1 0x1 DUP2 SWAP3 DUP8 DUP7 ADD MLOAD DUP2 SSTORE ADD SWAP6 ADD SWAP4 ADD PUSH2 0x7E3 JUMP JUMPDEST ADD MLOAD SWAP1 POP CODESIZE DUP1 PUSH2 0x45C JUMP JUMPDEST SWAP1 PUSH1 0x1F NOT DUP4 AND SWAP2 DUP5 PUSH1 0x0 MSTORE DUP2 PUSH1 0x0 KECCAK256 SWAP3 PUSH1 0x0 JUMPDEST DUP2 DUP2 LT PUSH2 0x891 JUMPI POP SWAP1 DUP5 PUSH1 0x1 SWAP6 SWAP5 SWAP4 SWAP3 LT PUSH2 0x878 JUMPI JUMPDEST POP POP POP DUP2 SHL ADD SWAP1 SSTORE PUSH2 0x4CB JUMP JUMPDEST ADD MLOAD PUSH1 0x0 NOT PUSH1 0xF8 DUP5 PUSH1 0x3 SHL AND SHR NOT AND SWAP1 SSTORE DUP16 DUP1 DUP1 PUSH2 0x86B JUMP JUMPDEST SWAP3 SWAP4 PUSH1 0x20 PUSH1 0x1 DUP2 SWAP3 DUP8 DUP7 ADD MLOAD DUP2 SSTORE ADD SWAP6 ADD SWAP4 ADD PUSH2 0x855 JUMP JUMPDEST SWAP1 PUSH1 0x1F NOT DUP4 AND SWAP2 DUP5 PUSH1 0x0 MSTORE DUP2 PUSH1 0x0 KECCAK256 SWAP3 PUSH1 0x0 JUMPDEST DUP2 DUP2 LT PUSH2 0x8F8 JUMPI POP SWAP1 DUP5 PUSH1 0x1 SWAP6 SWAP5 SWAP4 SWAP3 LT PUSH2 0x8DF JUMPI JUMPDEST POP POP POP DUP2 SHL ADD SWAP1 SSTORE PUSH2 0x474 JUMP JUMPDEST ADD MLOAD PUSH1 0x0 NOT PUSH1 0xF8 DUP5 PUSH1 0x3 SHL AND SHR NOT AND SWAP1 SSTORE CODESIZE DUP1 DUP1 PUSH2 0x8D2 JUMP JUMPDEST SWAP3 SWAP4 PUSH1 0x20 PUSH1 0x1 DUP2 SWAP3 DUP8 DUP7 ADD MLOAD DUP2 SSTORE ADD SWAP6 ADD SWAP4 ADD PUSH2 0x8BC JUMP JUMPDEST CALLVALUE PUSH2 0x175 JUMPI PUSH2 0x91E CALLDATASIZE PUSH2 0x1882 JUMP JUMPDEST CALLER PUSH1 0x0 SWAP1 DUP2 MSTORE PUSH32 0x7D7FFB7A348E1C6A02869081A26547B49160DD3DF72D1D75A570EB9B698292EC PUSH1 0x20 MSTORE PUSH1 0x40 SWAP1 KECCAK256 SLOAD SWAP1 SWAP3 SWAP1 PUSH1 0xFF AND DUP1 ISZERO PUSH2 0xB52 JUMPI JUMPDEST ISZERO PUSH2 0xB0D JUMPI PUSH1 0x1 PUSH1 0x1 PUSH1 0xA0 SHL SUB DUP2 AND PUSH1 0x0 SWAP1 DUP2 MSTORE PUSH1 0x0 DUP1 MLOAD PUSH1 0x20 PUSH2 0x1FC5 DUP4 CODECOPY DUP2 MLOAD SWAP2 MSTORE PUSH1 0x20 MSTORE PUSH1 0x40 SWAP1 KECCAK256 SLOAD PUSH1 0xFF AND ISZERO PUSH2 0xAC8 JUMPI PUSH1 0x1 PUSH1 0x1 PUSH1 0xA0 SHL SUB AND PUSH1 0x0 DUP2 DUP2 MSTORE PUSH1 0x6 PUSH1 0x20 MSTORE PUSH1 0x40 SWAP1 KECCAK256 SWAP3 SWAP1 SWAP2 SWAP1 PUSH1 0x1 PUSH1 0x1 PUSH1 0x40 SHL SUB DUP2 GT PUSH2 0x73D JUMPI PUSH2 0x9CA DUP2 PUSH2 0x9C4 DUP7 SLOAD PUSH2 0x1946 JUMP JUMPDEST DUP7 PUSH2 0x1A78 JUMP JUMPDEST PUSH1 0x0 SWAP4 PUSH1 0x1F DUP3 GT PUSH1 0x1 EQ PUSH2 0xA46 JUMPI PUSH2 0xA1C DUP3 DUP1 PUSH32 0xC27F3BAE021AB8E78D67F94F2CD8248055D6AE911C4CF44C62BD025CD3574EE1 SWAP7 SWAP8 PUSH1 0x0 SWAP2 PUSH2 0xA3B JUMPI JUMPDEST POP DUP2 PUSH1 0x1 SHL SWAP2 PUSH1 0x0 NOT SWAP1 PUSH1 0x3 SHL SHR NOT AND OR SWAP1 JUMP JUMPDEST SWAP1 SSTORE JUMPDEST PUSH2 0xA36 PUSH1 0x40 MLOAD SWAP3 DUP4 SWAP3 PUSH1 0x20 DUP5 MSTORE PUSH1 0x20 DUP5 ADD SWAP2 PUSH2 0x1ABD JUMP JUMPDEST SUB SWAP1 LOG2 STOP JUMPDEST SWAP1 POP DUP6 ADD CALLDATALOAD DUP9 PUSH2 0xA08 JUMP JUMPDEST DUP1 DUP6 MSTORE PUSH1 0x20 DUP6 KECCAK256 PUSH1 0x1F NOT DUP4 AND SWAP6 DUP1 JUMPDEST DUP8 DUP2 LT PUSH2 0xAB0 JUMPI POP DUP4 PUSH32 0xC27F3BAE021AB8E78D67F94F2CD8248055D6AE911C4CF44C62BD025CD3574EE1 SWAP7 SWAP8 LT PUSH2 0xA96 JUMPI JUMPDEST POP POP PUSH1 0x1 DUP3 DUP2 SHL ADD SWAP1 SSTORE PUSH2 0xA1F JUMP JUMPDEST DUP5 ADD CALLDATALOAD PUSH1 0x0 NOT PUSH1 0x3 DUP6 SWAP1 SHL PUSH1 0xF8 AND SHR NOT AND SWAP1 SSTORE DUP6 DUP1 PUSH2 0xA87 JUMP JUMPDEST SWAP1 SWAP2 PUSH1 0x20 PUSH1 0x1 DUP2 SWAP3 DUP6 DUP10 ADD CALLDATALOAD DUP2 SSTORE ADD SWAP4 ADD SWAP2 ADD PUSH2 0xA55 JUMP JUMPDEST PUSH1 0x40 MLOAD PUSH3 0x461BCD PUSH1 0xE5 SHL DUP2 MSTORE PUSH1 0x20 PUSH1 0x4 DUP3 ADD MSTORE PUSH1 0x1B PUSH1 0x24 DUP3 ADD MSTORE PUSH32 0x41646472657373206973206E6F74206120756E69766572736974790000000000 PUSH1 0x44 DUP3 ADD MSTORE PUSH1 0x64 SWAP1 REVERT JUMPDEST PUSH1 0x40 MLOAD PUSH3 0x461BCD PUSH1 0xE5 SHL DUP2 MSTORE PUSH1 0x20 PUSH1 0x4 DUP3 ADD MSTORE PUSH1 0x1A PUSH1 0x24 DUP3 ADD MSTORE PUSH32 0x4E6F7420617574686F72697A656420746F20736574206E616D65000000000000 PUSH1 0x44 DUP3 ADD MSTORE PUSH1 0x64 SWAP1 REVERT JUMPDEST POP CALLER PUSH1 0x1 PUSH1 0x1 PUSH1 0xA0 SHL SUB DUP3 AND EQ PUSH2 0x95A JUMP JUMPDEST CALLVALUE PUSH2 0x175 JUMPI PUSH2 0xB72 CALLDATASIZE PUSH2 0x1882 JUMP JUMPDEST SWAP2 SWAP1 PUSH2 0xB7C PUSH2 0x1B6F JUMP JUMPDEST PUSH1 0x1 PUSH1 0x1 PUSH1 0xA0 SHL SUB DUP3 AND PUSH1 0x0 SWAP1 DUP2 MSTORE PUSH1 0x0 DUP1 MLOAD PUSH1 0x20 PUSH2 0x1FC5 DUP4 CODECOPY DUP2 MLOAD SWAP2 MSTORE PUSH1 0x20 MSTORE PUSH1 0x40 SWAP1 KECCAK256 SLOAD PUSH1 0xFF AND PUSH2 0xDBF JUMPI PUSH1 0x0 DUP1 MLOAD PUSH1 0x20 PUSH2 0x1FE5 DUP4 CODECOPY DUP2 MLOAD SWAP2 MSTORE PUSH1 0x0 SWAP1 DUP2 MSTORE PUSH1 0x20 MSTORE PUSH32 0x1A7760066BD1F06DF3A1A816A948CB99A3A2E8FFA5089500E84706868BFE072E SLOAD PUSH2 0xBEB SWAP1 PUSH2 0x1CD7 JUMP JUMPDEST PUSH1 0x1 PUSH1 0x1 PUSH1 0xA0 SHL SUB DUP3 AND PUSH1 0x0 SWAP1 DUP2 MSTORE PUSH1 0x0 DUP1 MLOAD PUSH1 0x20 PUSH2 0x1FC5 DUP4 CODECOPY DUP2 MLOAD SWAP2 MSTORE PUSH1 0x20 MSTORE PUSH1 0x40 SWAP1 KECCAK256 SLOAD PUSH1 0xFF AND ISZERO PUSH2 0xD53 JUMPI JUMPDEST PUSH1 0x1 PUSH1 0x1 PUSH1 0xA0 SHL SUB DUP3 AND PUSH1 0x0 DUP2 DUP2 MSTORE PUSH1 0x6 PUSH1 0x20 MSTORE PUSH1 0x40 SWAP1 KECCAK256 SWAP1 SWAP4 SWAP1 PUSH1 0x1 PUSH1 0x1 PUSH1 0x40 SHL SUB DUP3 GT PUSH2 0x73D JUMPI PUSH2 0xC57 DUP3 PUSH2 0xC51 DUP4 SLOAD PUSH2 0x1946 JUMP JUMPDEST DUP4 PUSH2 0x1A78 JUMP JUMPDEST PUSH1 0x0 DUP3 PUSH1 0x1F DUP2 GT PUSH1 0x1 EQ PUSH2 0xCF0 JUMPI DUP1 PUSH2 0xC85 SWAP3 PUSH1 0x0 SWAP2 PUSH2 0xA3B JUMPI POP DUP2 PUSH1 0x1 SHL SWAP2 PUSH1 0x0 NOT SWAP1 PUSH1 0x3 SHL SHR NOT AND OR SWAP1 JUMP JUMPDEST SWAP1 SSTORE JUMPDEST PUSH1 0x7 SLOAD PUSH1 0x1 PUSH1 0x40 SHL DUP2 LT ISZERO PUSH2 0x73D JUMPI PUSH32 0xC27F3BAE021AB8E78D67F94F2CD8248055D6AE911C4CF44C62BD025CD3574EE1 SWAP4 PUSH2 0xCCC DUP3 PUSH1 0x1 PUSH2 0xA1F SWAP5 ADD PUSH1 0x7 SSTORE PUSH2 0x1A47 JUMP JUMPDEST DUP2 SLOAD PUSH1 0x1 PUSH1 0x1 PUSH1 0xA0 SHL SUB SWAP4 DUP5 AND PUSH1 0x3 SWAP3 SWAP1 SWAP3 SHL SWAP2 DUP3 SHL SWAP4 SWAP1 SWAP2 SHL NOT AND SWAP2 SWAP1 SWAP2 OR SWAP1 SSTORE JUMP JUMPDEST POP DUP2 DUP2 MSTORE PUSH1 0x20 DUP2 KECCAK256 SWAP1 DUP4 PUSH1 0x1F NOT DUP2 AND DUP3 JUMPDEST DUP2 DUP2 LT PUSH2 0xD38 JUMPI POP LT PUSH2 0xD1E JUMPI JUMPDEST POP POP PUSH1 0x1 DUP3 DUP2 SHL ADD SWAP1 SSTORE PUSH2 0xC88 JUMP JUMPDEST DUP5 ADD CALLDATALOAD PUSH1 0x0 NOT PUSH1 0x3 DUP6 SWAP1 SHL PUSH1 0xF8 AND SHR NOT AND SWAP1 SSTORE DUP6 DUP1 PUSH2 0xD0F JUMP JUMPDEST DUP8 DUP5 ADD CALLDATALOAD DUP6 SSTORE PUSH1 0x1 SWAP1 SWAP5 ADD SWAP4 PUSH1 0x20 SWAP4 DUP5 ADD SWAP4 DUP8 SWAP4 POP ADD PUSH2 0xD01 JUMP JUMPDEST PUSH1 0x1 PUSH1 0x1 PUSH1 0xA0 SHL SUB DUP3 AND PUSH1 0x0 DUP2 DUP2 MSTORE PUSH1 0x0 DUP1 MLOAD PUSH1 0x20 PUSH2 0x1FC5 DUP4 CODECOPY DUP2 MLOAD SWAP2 MSTORE PUSH1 0x20 MSTORE PUSH1 0x40 DUP2 KECCAK256 DUP1 SLOAD PUSH1 0xFF NOT AND PUSH1 0x1 OR SWAP1 SSTORE CALLER SWAP2 SWAP1 PUSH1 0x0 DUP1 MLOAD PUSH1 0x20 PUSH2 0x1FE5 DUP4 CODECOPY DUP2 MLOAD SWAP2 MSTORE SWAP1 PUSH32 0x2F8788117E7EFF1D82E926EC794901D17C78024A50270940304540A733656F0D SWAP1 DUP1 LOG4 PUSH2 0xC1A JUMP JUMPDEST PUSH1 0x40 MLOAD PUSH3 0x461BCD PUSH1 0xE5 SHL DUP2 MSTORE PUSH1 0x20 PUSH1 0x4 DUP3 ADD MSTORE PUSH1 0x14 PUSH1 0x24 DUP3 ADD MSTORE PUSH20 0x416C7265616479206120756E6976657273697479 PUSH1 0x60 SHL PUSH1 0x44 DUP3 ADD MSTORE PUSH1 0x64 SWAP1 REVERT JUMPDEST CALLVALUE PUSH2 0x175 JUMPI PUSH1 0x0 CALLDATASIZE PUSH1 0x3 NOT ADD SLT PUSH2 0x175 JUMPI PUSH1 0x20 PUSH1 0x40 MLOAD PUSH1 0x0 DUP2 MSTORE RETURN JUMPDEST CALLVALUE PUSH2 0x175 JUMPI PUSH1 0x0 CALLDATASIZE PUSH1 0x3 NOT ADD SLT PUSH2 0x175 JUMPI PUSH2 0xE30 PUSH2 0x1C88 JUMP JUMPDEST CALLER PUSH1 0x0 MSTORE PUSH1 0x5 PUSH1 0x20 MSTORE PUSH1 0x40 PUSH1 0x0 KECCAK256 PUSH1 0x40 MLOAD SWAP1 DUP2 PUSH1 0x20 DUP3 SLOAD SWAP2 DUP3 DUP2 MSTORE ADD SWAP2 PUSH1 0x0 MSTORE PUSH1 0x20 PUSH1 0x0 KECCAK256 SWAP1 PUSH1 0x0 JUMPDEST DUP2 DUP2 LT PUSH2 0xE80 JUMPI PUSH2 0xE7C DUP6 PUSH2 0xE70 DUP2 DUP8 SUB DUP3 PUSH2 0x18E1 JUMP JUMPDEST PUSH1 0x40 MLOAD SWAP2 DUP3 SWAP2 DUP3 PUSH2 0x1848 JUMP JUMPDEST SUB SWAP1 RETURN JUMPDEST DUP3 SLOAD DUP5 MSTORE PUSH1 0x20 SWAP1 SWAP4 ADD SWAP3 PUSH1 0x1 SWAP3 DUP4 ADD SWAP3 ADD PUSH2 0xE59 JUMP JUMPDEST CALLVALUE PUSH2 0x175 JUMPI PUSH1 0x40 CALLDATASIZE PUSH1 0x3 NOT ADD SLT PUSH2 0x175 JUMPI PUSH2 0xEAF PUSH2 0x1805 JUMP JUMPDEST PUSH1 0x4 CALLDATALOAD PUSH1 0x0 MSTORE PUSH1 0x0 PUSH1 0x20 MSTORE PUSH1 0x40 PUSH1 0x0 KECCAK256 SWAP1 PUSH1 0x1 DUP1 PUSH1 0xA0 SHL SUB AND PUSH1 0x0 MSTORE PUSH1 0x20 MSTORE PUSH1 0x20 PUSH1 0xFF PUSH1 0x40 PUSH1 0x0 KECCAK256 SLOAD AND PUSH1 0x40 MLOAD SWAP1 ISZERO ISZERO DUP2 MSTORE RETURN JUMPDEST CALLVALUE PUSH2 0x175 JUMPI PUSH1 0x20 CALLDATASIZE PUSH1 0x3 NOT ADD SLT PUSH2 0x175 JUMPI PUSH1 0x1 PUSH1 0x1 PUSH1 0xA0 SHL SUB PUSH2 0xF04 PUSH2 0x17EF JUMP JUMPDEST AND PUSH1 0x0 MSTORE PUSH1 0x6 PUSH1 0x20 MSTORE PUSH2 0xE7C PUSH2 0xF1D PUSH1 0x40 PUSH1 0x0 KECCAK256 PUSH2 0x1980 JUMP JUMPDEST PUSH1 0x40 MLOAD SWAP2 DUP3 SWAP2 PUSH1 0x20 DUP4 MSTORE PUSH1 0x20 DUP4 ADD SWAP1 PUSH2 0x17BD JUMP JUMPDEST CALLVALUE PUSH2 0x175 JUMPI PUSH1 0x0 CALLDATASIZE PUSH1 0x3 NOT ADD SLT PUSH2 0x175 JUMPI PUSH2 0xF4A PUSH2 0x1B6F JUMP JUMPDEST PUSH2 0xF52 PUSH2 0x1D97 JUMP JUMPDEST PUSH1 0x1 PUSH1 0xFF NOT DUP2 SLOAD AND OR PUSH1 0x1 SSTORE PUSH32 0x62E78CEA01BEE320CD4E420270B5EA74000D11B0C9F74754EBDBFC544B05A258 PUSH1 0x20 PUSH1 0x40 MLOAD CALLER DUP2 MSTORE LOG1 STOP JUMPDEST CALLVALUE PUSH2 0x175 JUMPI PUSH1 0x0 CALLDATASIZE PUSH1 0x3 NOT ADD SLT PUSH2 0x175 JUMPI PUSH1 0x20 PUSH1 0x40 MLOAD PUSH32 0xA49807205CE4D355092EF5A8A18F56E8913CF4A201FBE287825B095693C21775 DUP2 MSTORE RETURN JUMPDEST CALLVALUE PUSH2 0x175 JUMPI PUSH1 0x0 CALLDATASIZE PUSH1 0x3 NOT ADD SLT PUSH2 0x175 JUMPI PUSH1 0x20 PUSH1 0xFF PUSH1 0x1 SLOAD AND PUSH1 0x40 MLOAD SWAP1 ISZERO ISZERO DUP2 MSTORE RETURN JUMPDEST CALLVALUE PUSH2 0x175 JUMPI PUSH1 0x0 CALLDATASIZE PUSH1 0x3 NOT ADD SLT PUSH2 0x175 JUMPI PUSH2 0x1001 PUSH2 0x1B6F JUMP JUMPDEST PUSH1 0x1 SLOAD PUSH1 0xFF DUP2 AND ISZERO PUSH2 0x1040 JUMPI PUSH1 0xFF NOT AND PUSH1 0x1 SSTORE PUSH32 0x5DB9EE0A495BF2E6FF9C91A7834C1BA4FDD244A5E8AA4E537BD38AEAE4B073AA PUSH1 0x20 PUSH1 0x40 MLOAD CALLER DUP2 MSTORE LOG1 STOP JUMPDEST PUSH1 0x40 MLOAD PUSH3 0x461BCD PUSH1 0xE5 SHL DUP2 MSTORE PUSH1 0x20 PUSH1 0x4 DUP3 ADD MSTORE PUSH1 0x14 PUSH1 0x24 DUP3 ADD MSTORE PUSH20 0x14185D5CD8589B194E881B9BDD081C185D5CD959 PUSH1 0x62 SHL PUSH1 0x44 DUP3 ADD MSTORE PUSH1 0x64 SWAP1 REVERT JUMPDEST CALLVALUE PUSH2 0x175 JUMPI PUSH1 0x0 CALLDATASIZE PUSH1 0x3 NOT ADD SLT PUSH2 0x175 JUMPI PUSH1 0x20 PUSH1 0x40 MLOAD PUSH1 0x0 DUP1 MLOAD PUSH1 0x20 PUSH2 0x1FE5 DUP4 CODECOPY DUP2 MLOAD SWAP2 MSTORE DUP2 MSTORE RETURN JUMPDEST CALLVALUE PUSH2 0x175 JUMPI PUSH1 0x20 CALLDATASIZE PUSH1 0x3 NOT ADD SLT PUSH2 0x175 JUMPI PUSH1 0x4 CALLDATALOAD DUP1 PUSH1 0x0 MSTORE PUSH1 0x3 PUSH1 0x20 MSTORE PUSH2 0x10D2 DUP2 PUSH1 0x40 PUSH1 0x0 KECCAK256 SLOAD EQ PUSH2 0x1902 JUMP JUMPDEST PUSH1 0x0 MSTORE PUSH1 0x3 PUSH1 0x20 MSTORE PUSH1 0x20 PUSH1 0xFF PUSH1 0x8 PUSH1 0x40 PUSH1 0x0 KECCAK256 ADD SLOAD AND PUSH1 0x40 MLOAD SWAP1 ISZERO ISZERO DUP2 MSTORE RETURN JUMPDEST CALLVALUE PUSH2 0x175 JUMPI PUSH1 0x40 CALLDATASIZE PUSH1 0x3 NOT ADD SLT PUSH2 0x175 JUMPI PUSH2 0x110B PUSH2 0x1805 JUMP JUMPDEST CALLER PUSH1 0x1 PUSH1 0x1 PUSH1 0xA0 SHL SUB DUP3 AND SUB PUSH2 0x1127 JUMPI PUSH2 0x28B SWAP1 PUSH1 0x4 CALLDATALOAD PUSH2 0x1D15 JUMP JUMPDEST PUSH1 0x40 MLOAD PUSH3 0x461BCD PUSH1 0xE5 SHL DUP2 MSTORE PUSH1 0x20 PUSH1 0x4 DUP3 ADD MSTORE PUSH1 0x2F PUSH1 0x24 DUP3 ADD MSTORE PUSH32 0x416363657373436F6E74726F6C3A2063616E206F6E6C792072656E6F756E6365 PUSH1 0x44 DUP3 ADD MSTORE PUSH15 0x103937B632B9903337B91039B2B633 PUSH1 0x89 SHL PUSH1 0x64 DUP3 ADD MSTORE PUSH1 0x84 SWAP1 REVERT JUMPDEST CALLVALUE PUSH2 0x175 JUMPI PUSH1 0x40 CALLDATASIZE PUSH1 0x3 NOT ADD SLT PUSH2 0x175 JUMPI PUSH1 0x4 CALLDATALOAD PUSH2 0x11A0 PUSH2 0x1805 JUMP JUMPDEST SWAP1 PUSH2 0x11BC PUSH2 0x281 DUP3 PUSH1 0x0 MSTORE PUSH1 0x0 PUSH1 0x20 MSTORE PUSH1 0x1 PUSH1 0x40 PUSH1 0x0 KECCAK256 ADD SLOAD SWAP1 JUMP JUMPDEST PUSH1 0x0 DUP2 DUP2 MSTORE PUSH1 0x20 DUP2 DUP2 MSTORE PUSH1 0x40 DUP1 DUP4 KECCAK256 PUSH1 0x1 PUSH1 0x1 PUSH1 0xA0 SHL SUB DUP7 AND DUP5 MSTORE SWAP1 SWAP2 MSTORE SWAP1 KECCAK256 SLOAD PUSH1 0xFF AND ISZERO PUSH2 0x11E7 JUMPI STOP JUMPDEST PUSH1 0x0 DUP2 DUP2 MSTORE PUSH1 0x20 DUP2 DUP2 MSTORE PUSH1 0x40 DUP1 DUP4 KECCAK256 PUSH1 0x1 PUSH1 0x1 PUSH1 0xA0 SHL SUB SWAP6 SWAP1 SWAP6 AND DUP1 DUP5 MSTORE SWAP5 SWAP1 SWAP2 MSTORE DUP2 KECCAK256 DUP1 SLOAD PUSH1 0xFF NOT AND PUSH1 0x1 OR SWAP1 SSTORE CALLER SWAP3 SWAP2 SWAP1 PUSH32 0x2F8788117E7EFF1D82E926EC794901D17C78024A50270940304540A733656F0D SWAP1 DUP1 LOG4 STOP JUMPDEST CALLVALUE PUSH2 0x175 JUMPI PUSH1 0x20 CALLDATASIZE PUSH1 0x3 NOT ADD SLT PUSH2 0x175 JUMPI PUSH1 0x4 CALLDATALOAD PUSH1 0x1 PUSH1 0x1 PUSH1 0x40 SHL SUB DUP2 GT PUSH2 0x175 JUMPI PUSH2 0x1272 PUSH1 0x20 SWAP2 CALLDATASIZE SWAP1 PUSH1 0x4 ADD PUSH2 0x181B JUMP JUMPDEST SWAP2 SWAP1 DUP3 PUSH1 0x40 MLOAD SWAP4 DUP5 SWAP3 DUP4 CALLDATACOPY DUP2 ADD PUSH1 0x4 DUP2 MSTORE SUB ADD SWAP1 KECCAK256 PUSH1 0x40 MLOAD SWAP1 DUP2 PUSH1 0x20 DUP3 SLOAD SWAP2 DUP3 DUP2 MSTORE ADD SWAP2 PUSH1 0x0 MSTORE PUSH1 0x20 PUSH1 0x0 KECCAK256 SWAP1 PUSH1 0x0 JUMPDEST DUP2 DUP2 LT PUSH2 0x12B9 JUMPI PUSH2 0xE7C DUP6 PUSH2 0xE70 DUP2 DUP8 SUB DUP3 PUSH2 0x18E1 JUMP JUMPDEST DUP3 SLOAD DUP5 MSTORE PUSH1 0x20 SWAP1 SWAP4 ADD SWAP3 PUSH1 0x1 SWAP3 DUP4 ADD SWAP3 ADD PUSH2 0x12A2 JUMP JUMPDEST CALLVALUE PUSH2 0x175 JUMPI PUSH1 0x20 CALLDATASIZE PUSH1 0x3 NOT ADD SLT PUSH2 0x175 JUMPI PUSH2 0x12E8 PUSH2 0x17EF JUMP JUMPDEST PUSH2 0x12F0 PUSH2 0x1B6F JUMP JUMPDEST PUSH1 0x0 DUP1 MLOAD PUSH1 0x20 PUSH2 0x1FE5 DUP4 CODECOPY DUP2 MLOAD SWAP2 MSTORE PUSH1 0x0 SWAP1 DUP2 MSTORE PUSH1 0x20 MSTORE PUSH32 0x1A7760066BD1F06DF3A1A816A948CB99A3A2E8FFA5089500E84706868BFE072E SLOAD PUSH2 0x1332 SWAP1 PUSH2 0x1CD7 JUMP JUMPDEST PUSH1 0x1 PUSH1 0x1 PUSH1 0xA0 SHL SUB DUP2 AND PUSH1 0x0 SWAP1 DUP2 MSTORE PUSH1 0x0 DUP1 MLOAD PUSH1 0x20 PUSH2 0x1FC5 DUP4 CODECOPY DUP2 MLOAD SWAP2 MSTORE PUSH1 0x20 MSTORE PUSH1 0x40 SWAP1 KECCAK256 SLOAD PUSH1 0xFF AND PUSH2 0x149A JUMPI JUMPDEST PUSH1 0x1 PUSH1 0x1 PUSH1 0xA0 SHL SUB AND PUSH1 0x0 DUP2 DUP2 MSTORE PUSH1 0x6 PUSH1 0x20 MSTORE PUSH1 0x40 SWAP1 KECCAK256 DUP1 SLOAD PUSH2 0x1382 SWAP1 PUSH2 0x1946 JUMP JUMPDEST SWAP1 DUP2 PUSH2 0x1456 JUMPI JUMPDEST POP POP PUSH1 0x0 JUMPDEST PUSH1 0x7 SLOAD DUP1 DUP3 LT ISZERO PUSH2 0x28B JUMPI DUP3 PUSH2 0x13A3 DUP4 PUSH2 0x1A47 JUMP JUMPDEST SWAP1 SLOAD PUSH1 0x3 SWAP2 SWAP1 SWAP2 SHL SHR PUSH1 0x1 PUSH1 0x1 PUSH1 0xA0 SHL SUB AND EQ PUSH2 0x13C3 JUMPI POP PUSH1 0x1 ADD PUSH2 0x138E JUMP JUMPDEST PUSH1 0x0 NOT DUP2 ADD SWAP3 POP DUP3 GT PUSH2 0x1440 JUMPI PUSH2 0xCCC PUSH2 0x13DF PUSH2 0x13F7 SWAP4 PUSH2 0x1A47 JUMP JUMPDEST SWAP1 SLOAD PUSH1 0x3 SWAP2 SWAP1 SWAP2 SHL SHR PUSH1 0x1 PUSH1 0x1 PUSH1 0xA0 SHL SUB AND SWAP2 PUSH2 0x1A47 JUMP JUMPDEST PUSH1 0x7 SLOAD DUP1 ISZERO PUSH2 0x142A JUMPI PUSH1 0x0 NOT ADD PUSH2 0x140D DUP2 PUSH2 0x1A47 JUMP JUMPDEST DUP2 SLOAD PUSH1 0x1 PUSH1 0x1 PUSH1 0xA0 SHL SUB PUSH1 0x3 SWAP3 SWAP1 SWAP3 SHL SWAP2 SWAP1 SWAP2 SHL NOT AND SWAP1 SSTORE PUSH1 0x7 SSTORE STOP JUMPDEST PUSH4 0x4E487B71 PUSH1 0xE0 SHL PUSH1 0x0 MSTORE PUSH1 0x31 PUSH1 0x4 MSTORE PUSH1 0x24 PUSH1 0x0 REVERT JUMPDEST PUSH4 0x4E487B71 PUSH1 0xE0 SHL PUSH1 0x0 MSTORE PUSH1 0x11 PUSH1 0x4 MSTORE PUSH1 0x24 PUSH1 0x0 REVERT JUMPDEST DUP2 PUSH1 0x1F PUSH1 0x0 SWAP4 GT PUSH1 0x1 EQ PUSH2 0x146E JUMPI POP SSTORE JUMPDEST DUP2 DUP1 PUSH2 0x1389 JUMP JUMPDEST DUP2 DUP4 MSTORE PUSH1 0x20 DUP4 KECCAK256 PUSH2 0x148A SWAP2 PUSH1 0x1F ADD PUSH1 0x5 SHR DUP2 ADD SWAP1 PUSH1 0x1 ADD PUSH2 0x1A30 JUMP JUMPDEST DUP1 DUP3 MSTORE DUP2 PUSH1 0x20 DUP2 KECCAK256 SWAP2 SSTORE SSTORE PUSH2 0x1467 JUMP JUMPDEST PUSH1 0x1 PUSH1 0x1 PUSH1 0xA0 SHL SUB DUP2 AND PUSH1 0x0 DUP2 DUP2 MSTORE PUSH1 0x0 DUP1 MLOAD PUSH1 0x20 PUSH2 0x1FC5 DUP4 CODECOPY DUP2 MLOAD SWAP2 MSTORE PUSH1 0x20 MSTORE PUSH1 0x40 DUP2 KECCAK256 DUP1 SLOAD PUSH1 0xFF NOT AND SWAP1 SSTORE CALLER SWAP2 SWAP1 PUSH1 0x0 DUP1 MLOAD PUSH1 0x20 PUSH2 0x1FE5 DUP4 CODECOPY DUP2 MLOAD SWAP2 MSTORE SWAP1 PUSH32 0xF6391F5C32D9C69D2A47EA670B442974B53935D1EDC7FD64EB21E047A839171B SWAP1 DUP1 LOG4 PUSH2 0x1360 JUMP JUMPDEST CALLVALUE PUSH2 0x175 JUMPI PUSH1 0x20 CALLDATASIZE PUSH1 0x3 NOT ADD SLT PUSH2 0x175 JUMPI PUSH1 0x20 PUSH2 0x1530 PUSH1 0x4 CALLDATALOAD PUSH1 0x0 MSTORE PUSH1 0x0 PUSH1 0x20 MSTORE PUSH1 0x1 PUSH1 0x40 PUSH1 0x0 KECCAK256 ADD SLOAD SWAP1 JUMP JUMPDEST PUSH1 0x40 MLOAD SWAP1 DUP2 MSTORE RETURN JUMPDEST CALLVALUE PUSH2 0x175 JUMPI PUSH1 0x20 CALLDATASIZE PUSH1 0x3 NOT ADD SLT PUSH2 0x175 JUMPI PUSH1 0x4 CALLDATALOAD PUSH1 0x40 MLOAD PUSH2 0x1558 DUP2 PUSH2 0x18C5 JUMP JUMPDEST PUSH1 0x0 DUP2 MSTORE PUSH1 0x20 DUP2 ADD PUSH1 0x60 SWAP1 MSTORE PUSH1 0x40 DUP2 ADD PUSH1 0x60 SWAP1 MSTORE PUSH1 0x60 DUP2 ADD PUSH1 0x60 SWAP1 MSTORE PUSH1 0x80 DUP2 ADD PUSH1 0x60 SWAP1 MSTORE PUSH1 0xA0 DUP2 ADD PUSH1 0x60 SWAP1 MSTORE PUSH1 0xC0 DUP2 ADD PUSH1 0x0 SWAP1 MSTORE PUSH1 0xE0 DUP2 ADD PUSH1 0x0 SWAP1 MSTORE PUSH2 0x100 DUP2 ADD PUSH1 0x0 SWAP1 MSTORE PUSH2 0x120 ADD PUSH1 0x0 SWAP1 MSTORE DUP1 PUSH1 0x0 MSTORE PUSH1 0x3 PUSH1 0x20 MSTORE DUP1 PUSH1 0x40 PUSH1 0x0 KECCAK256 SLOAD EQ PUSH2 0x15BF SWAP1 PUSH2 0x1902 JUMP JUMPDEST PUSH1 0x0 MSTORE PUSH1 0x3 PUSH1 0x20 MSTORE PUSH1 0x40 PUSH1 0x0 KECCAK256 PUSH1 0x40 MLOAD PUSH2 0x15D8 DUP2 PUSH2 0x18C5 JUMP JUMPDEST DUP2 SLOAD DUP2 MSTORE PUSH2 0x15E8 PUSH1 0x1 DUP4 ADD PUSH2 0x1980 JUMP JUMPDEST PUSH1 0x20 DUP3 ADD SWAP1 DUP2 MSTORE SWAP2 PUSH2 0x15FC PUSH1 0x2 DUP3 ADD PUSH2 0x1980 JUMP JUMPDEST PUSH1 0x40 DUP4 ADD SWAP1 DUP2 MSTORE PUSH2 0x160F PUSH1 0x3 DUP4 ADD PUSH2 0x1980 JUMP JUMPDEST PUSH1 0x60 DUP5 ADD SWAP1 DUP2 MSTORE SWAP1 PUSH2 0x1623 PUSH1 0x4 DUP5 ADD PUSH2 0x1980 JUMP JUMPDEST PUSH1 0x80 DUP6 ADD SWAP1 DUP2 MSTORE SWAP3 PUSH2 0x1637 PUSH1 0x5 DUP3 ADD PUSH2 0x1980 JUMP JUMPDEST PUSH1 0xA0 DUP7 ADD SWAP1 DUP2 MSTORE PUSH1 0x6 DUP3 ADD SLOAD PUSH1 0xFF AND SWAP5 PUSH1 0xC0 DUP8 ADD SWAP6 PUSH2 0x1656 SWAP1 DUP8 PUSH2 0x1A24 JUMP JUMPDEST PUSH1 0x7 DUP4 ADD SLOAD SWAP3 PUSH1 0xE0 DUP9 ADD SWAP4 DUP5 MSTORE PUSH1 0x8 ADD SLOAD SWAP5 PUSH2 0x100 DUP9 ADD SWAP5 PUSH1 0xFF DUP8 AND ISZERO ISZERO DUP7 MSTORE PUSH2 0x120 DUP10 ADD SWAP7 PUSH1 0x1 PUSH1 0xA0 SHL PUSH1 0x1 SWAP1 SUB SWAP1 PUSH1 0x8 SHR AND DUP8 MSTORE PUSH1 0x40 MLOAD SWAP10 DUP11 SWAP10 PUSH1 0x20 DUP12 MSTORE MLOAD PUSH1 0x20 DUP12 ADD MSTORE MLOAD PUSH1 0x40 DUP11 ADD PUSH2 0x140 SWAP1 MSTORE PUSH2 0x160 DUP11 ADD PUSH2 0x16B4 SWAP2 PUSH2 0x17BD JUMP JUMPDEST SWAP1 MLOAD DUP10 DUP3 SUB PUSH1 0x1F NOT ADD PUSH1 0x60 DUP12 ADD MSTORE PUSH2 0x16CC SWAP2 SWAP1 PUSH2 0x17BD JUMP JUMPDEST SWAP1 MLOAD DUP9 DUP3 SUB PUSH1 0x1F NOT ADD PUSH1 0x80 DUP11 ADD MSTORE PUSH2 0x16E4 SWAP2 SWAP1 PUSH2 0x17BD JUMP JUMPDEST SWAP1 MLOAD DUP8 DUP3 SUB PUSH1 0x1F NOT ADD PUSH1 0xA0 DUP10 ADD MSTORE PUSH2 0x16FC SWAP2 SWAP1 PUSH2 0x17BD JUMP JUMPDEST SWAP1 MLOAD DUP7 DUP3 SUB PUSH1 0x1F NOT ADD PUSH1 0xC0 DUP9 ADD MSTORE PUSH2 0x1714 SWAP2 SWAP1 PUSH2 0x17BD JUMP JUMPDEST SWAP4 MLOAD PUSH1 0xE0 DUP7 ADD PUSH2 0x1723 SWAP2 PUSH2 0x17E2 JUMP JUMPDEST MLOAD PUSH2 0x100 DUP6 ADD MSTORE MLOAD ISZERO ISZERO PUSH2 0x120 DUP5 ADD MSTORE MLOAD PUSH1 0x1 PUSH1 0x1 PUSH1 0xA0 SHL SUB AND PUSH2 0x140 DUP4 ADD MSTORE SUB SWAP1 RETURN JUMPDEST CALLVALUE PUSH2 0x175 JUMPI PUSH1 0x20 CALLDATASIZE PUSH1 0x3 NOT ADD SLT PUSH2 0x175 JUMPI PUSH1 0x4 CALLDATALOAD SWAP1 PUSH4 0xFFFFFFFF PUSH1 0xE0 SHL DUP3 AND DUP1 SWAP3 SUB PUSH2 0x175 JUMPI PUSH1 0x20 SWAP2 PUSH4 0x7965DB0B PUSH1 0xE0 SHL DUP2 EQ SWAP1 DUP2 ISZERO PUSH2 0x1789 JUMPI JUMPDEST POP ISZERO ISZERO DUP2 MSTORE RETURN JUMPDEST PUSH4 0x1FFC9A7 PUSH1 0xE0 SHL EQ SWAP1 POP DUP4 PUSH2 0x1782 JUMP JUMPDEST PUSH1 0x0 JUMPDEST DUP4 DUP2 LT PUSH2 0x17AD JUMPI POP POP PUSH1 0x0 SWAP2 ADD MSTORE JUMP JUMPDEST DUP2 DUP2 ADD MLOAD DUP4 DUP3 ADD MSTORE PUSH1 0x20 ADD PUSH2 0x179D JUMP JUMPDEST SWAP1 PUSH1 0x20 SWAP2 PUSH2 0x17D6 DUP2 MLOAD DUP1 SWAP3 DUP2 DUP6 MSTORE DUP6 DUP1 DUP7 ADD SWAP2 ADD PUSH2 0x179A JUMP JUMPDEST PUSH1 0x1F ADD PUSH1 0x1F NOT AND ADD ADD SWAP1 JUMP JUMPDEST SWAP1 PUSH1 0x4 DUP3 LT ISZERO PUSH2 0x6B5 JUMPI MSTORE JUMP JUMPDEST PUSH1 0x4 CALLDATALOAD SWAP1 PUSH1 0x1 PUSH1 0x1 PUSH1 0xA0 SHL SUB DUP3 AND DUP3 SUB PUSH2 0x175 JUMPI JUMP JUMPDEST PUSH1 0x24 CALLDATALOAD SWAP1 PUSH1 0x1 PUSH1 0x1 PUSH1 0xA0 SHL SUB DUP3 AND DUP3 SUB PUSH2 0x175 JUMPI JUMP JUMPDEST SWAP2 DUP2 PUSH1 0x1F DUP5 ADD SLT ISZERO PUSH2 0x175 JUMPI DUP3 CALLDATALOAD SWAP2 PUSH1 0x1 PUSH1 0x1 PUSH1 0x40 SHL SUB DUP4 GT PUSH2 0x175 JUMPI PUSH1 0x20 DUP4 DUP2 DUP7 ADD SWAP6 ADD ADD GT PUSH2 0x175 JUMPI JUMP JUMPDEST PUSH1 0x20 PUSH1 0x40 DUP2 DUP4 ADD SWAP3 DUP3 DUP2 MSTORE DUP5 MLOAD DUP1 SWAP5 MSTORE ADD SWAP3 ADD SWAP1 PUSH1 0x0 JUMPDEST DUP2 DUP2 LT PUSH2 0x186C JUMPI POP POP POP SWAP1 JUMP JUMPDEST DUP3 MLOAD DUP5 MSTORE PUSH1 0x20 SWAP4 DUP5 ADD SWAP4 SWAP1 SWAP3 ADD SWAP2 PUSH1 0x1 ADD PUSH2 0x185F JUMP JUMPDEST SWAP1 PUSH1 0x40 PUSH1 0x3 NOT DUP4 ADD SLT PUSH2 0x175 JUMPI PUSH1 0x4 CALLDATALOAD PUSH1 0x1 PUSH1 0x1 PUSH1 0xA0 SHL SUB DUP2 AND DUP2 SUB PUSH2 0x175 JUMPI SWAP2 PUSH1 0x24 CALLDATALOAD SWAP1 PUSH1 0x1 PUSH1 0x1 PUSH1 0x40 SHL SUB DUP3 GT PUSH2 0x175 JUMPI PUSH2 0x18C1 SWAP2 PUSH1 0x4 ADD PUSH2 0x181B JUMP JUMPDEST SWAP1 SWAP2 JUMP JUMPDEST PUSH2 0x140 DUP2 ADD SWAP1 DUP2 LT PUSH1 0x1 PUSH1 0x1 PUSH1 0x40 SHL SUB DUP3 GT OR PUSH2 0x73D JUMPI PUSH1 0x40 MSTORE JUMP JUMPDEST SWAP1 PUSH1 0x1F DUP1 NOT SWAP2 ADD AND DUP2 ADD SWAP1 DUP2 LT PUSH1 0x1 PUSH1 0x1 PUSH1 0x40 SHL SUB DUP3 GT OR PUSH2 0x73D JUMPI PUSH1 0x40 MSTORE JUMP JUMPDEST ISZERO PUSH2 0x1909 JUMPI JUMP JUMPDEST PUSH1 0x40 MLOAD PUSH3 0x461BCD PUSH1 0xE5 SHL DUP2 MSTORE PUSH1 0x20 PUSH1 0x4 DUP3 ADD MSTORE PUSH1 0x15 PUSH1 0x24 DUP3 ADD MSTORE PUSH21 0x149958DBDC9908191BD95CC81B9BDD08195E1A5CDD PUSH1 0x5A SHL PUSH1 0x44 DUP3 ADD MSTORE PUSH1 0x64 SWAP1 REVERT JUMPDEST SWAP1 PUSH1 0x1 DUP3 DUP2 SHR SWAP3 AND DUP1 ISZERO PUSH2 0x1976 JUMPI JUMPDEST PUSH1 0x20 DUP4 LT EQ PUSH2 0x1960 JUMPI JUMP JUMPDEST PUSH4 0x4E487B71 PUSH1 0xE0 SHL PUSH1 0x0 MSTORE PUSH1 0x22 PUSH1 0x4 MSTORE PUSH1 0x24 PUSH1 0x0 REVERT JUMPDEST SWAP2 PUSH1 0x7F AND SWAP2 PUSH2 0x1955 JUMP JUMPDEST SWAP1 PUSH1 0x40 MLOAD SWAP2 DUP3 PUSH1 0x0 DUP3 SLOAD SWAP3 PUSH2 0x1994 DUP5 PUSH2 0x1946 JUMP JUMPDEST DUP1 DUP5 MSTORE SWAP4 PUSH1 0x1 DUP2 AND SWAP1 DUP2 ISZERO PUSH2 0x1A02 JUMPI POP PUSH1 0x1 EQ PUSH2 0x19BB JUMPI JUMPDEST POP PUSH2 0x19B9 SWAP3 POP SUB DUP4 PUSH2 0x18E1 JUMP JUMPDEST JUMP JUMPDEST SWAP1 POP PUSH1 0x0 SWAP3 SWAP2 SWAP3 MSTORE PUSH1 0x20 PUSH1 0x0 KECCAK256 SWAP1 PUSH1 0x0 SWAP2 JUMPDEST DUP2 DUP4 LT PUSH2 0x19E6 JUMPI POP POP SWAP1 PUSH1 0x20 PUSH2 0x19B9 SWAP3 DUP3 ADD ADD CODESIZE PUSH2 0x19AC JUMP JUMPDEST PUSH1 0x20 SWAP2 SWAP4 POP DUP1 PUSH1 0x1 SWAP2 SLOAD DUP4 DUP6 DUP10 ADD ADD MSTORE ADD SWAP2 ADD SWAP1 SWAP2 DUP5 SWAP3 PUSH2 0x19CD JUMP JUMPDEST SWAP1 POP PUSH1 0x20 SWAP3 POP PUSH2 0x19B9 SWAP5 SWAP2 POP PUSH1 0xFF NOT AND DUP3 DUP5 ADD MSTORE ISZERO ISZERO PUSH1 0x5 SHL DUP3 ADD ADD CODESIZE PUSH2 0x19AC JUMP JUMPDEST PUSH1 0x4 DUP3 LT ISZERO PUSH2 0x6B5 JUMPI MSTORE JUMP JUMPDEST DUP2 DUP2 LT PUSH2 0x1A3B JUMPI POP POP JUMP JUMPDEST PUSH1 0x0 DUP2 SSTORE PUSH1 0x1 ADD PUSH2 0x1A30 JUMP JUMPDEST PUSH1 0x7 SLOAD DUP2 LT ISZERO PUSH2 0x1A62 JUMPI PUSH1 0x7 PUSH1 0x0 MSTORE PUSH1 0x20 PUSH1 0x0 KECCAK256 ADD SWAP1 PUSH1 0x0 SWAP1 JUMP JUMPDEST PUSH4 0x4E487B71 PUSH1 0xE0 SHL PUSH1 0x0 MSTORE PUSH1 0x32 PUSH1 0x4 MSTORE PUSH1 0x24 PUSH1 0x0 REVERT JUMPDEST SWAP2 SWAP1 PUSH1 0x1F DUP2 GT PUSH2 0x1A87 JUMPI POP POP POP JUMP JUMPDEST PUSH2 0x19B9 SWAP3 PUSH1 0x0 MSTORE PUSH1 0x20 PUSH1 0x0 KECCAK256 SWAP1 PUSH1 0x20 PUSH1 0x1F DUP5 ADD PUSH1 0x5 SHR DUP4 ADD SWAP4 LT PUSH2 0x1AB3 JUMPI JUMPDEST PUSH1 0x1F ADD PUSH1 0x5 SHR ADD SWAP1 PUSH2 0x1A30 JUMP JUMPDEST SWAP1 SWAP2 POP DUP2 SWAP1 PUSH2 0x1AA6 JUMP JUMPDEST SWAP1 DUP1 PUSH1 0x20 SWAP4 SWAP3 DUP2 DUP5 MSTORE DUP5 DUP5 ADD CALLDATACOPY PUSH1 0x0 DUP3 DUP3 ADD DUP5 ADD MSTORE PUSH1 0x1F ADD PUSH1 0x1F NOT AND ADD ADD SWAP1 JUMP JUMPDEST PUSH1 0x1 PUSH1 0x1 PUSH1 0x40 SHL SUB DUP2 GT PUSH2 0x73D JUMPI PUSH1 0x1F ADD PUSH1 0x1F NOT AND PUSH1 0x20 ADD SWAP1 JUMP JUMPDEST SWAP3 SWAP2 SWAP3 PUSH2 0x1B05 DUP3 PUSH2 0x1ADE JUMP JUMPDEST SWAP2 PUSH2 0x1B13 PUSH1 0x40 MLOAD SWAP4 DUP5 PUSH2 0x18E1 JUMP JUMPDEST DUP3 SWAP5 DUP2 DUP5 MSTORE DUP2 DUP4 ADD GT PUSH2 0x175 JUMPI DUP3 DUP2 PUSH1 0x20 SWAP4 DUP5 PUSH1 0x0 SWAP7 ADD CALLDATACOPY ADD ADD MSTORE JUMP JUMPDEST DUP1 SLOAD SWAP1 PUSH1 0x1 PUSH1 0x40 SHL DUP3 LT ISZERO PUSH2 0x73D JUMPI PUSH1 0x1 DUP3 ADD DUP2 SSTORE PUSH1 0x0 SWAP1 DUP1 SLOAD DUP4 LT ISZERO PUSH2 0x1B5B JUMPI DUP2 MSTORE PUSH1 0x20 SWAP1 KECCAK256 ADD SSTORE JUMP JUMPDEST PUSH4 0x4E487B71 PUSH1 0xE0 SHL DUP3 MSTORE PUSH1 0x32 PUSH1 0x4 MSTORE PUSH1 0x24 DUP3 REVERT JUMPDEST CALLER PUSH1 0x0 SWAP1 DUP2 MSTORE PUSH32 0x7D7FFB7A348E1C6A02869081A26547B49160DD3DF72D1D75A570EB9B698292EC PUSH1 0x20 MSTORE PUSH1 0x40 SWAP1 KECCAK256 SLOAD PUSH1 0xFF AND ISZERO PUSH2 0x1BA8 JUMPI JUMP JUMPDEST PUSH2 0x1C84 PUSH2 0x1BB4 CALLER PUSH2 0x1DEC JUMP JUMPDEST PUSH2 0x1C64 PUSH1 0x11 PUSH2 0x1BE2 PUSH32 0xA49807205CE4D355092EF5A8A18F56E8913CF4A201FBE287825B095693C21775 PUSH2 0x1F18 JUMP JUMPDEST SWAP3 PUSH1 0x37 PUSH1 0x40 MLOAD SWAP5 DUP6 SWAP3 PUSH32 0x416363657373436F6E74726F6C3A206163636F756E7420000000000000000000 PUSH1 0x20 DUP6 ADD MSTORE PUSH2 0x1C24 DUP2 MLOAD DUP1 SWAP3 PUSH1 0x20 DUP7 DUP9 ADD SWAP2 ADD PUSH2 0x179A JUMP JUMPDEST DUP4 ADD PUSH17 0x1034B99036B4B9B9B4B733903937B6329 PUSH1 0x7D SHL DUP4 DUP3 ADD MSTORE PUSH2 0x1C53 DUP3 MLOAD DUP1 SWAP4 PUSH1 0x20 PUSH1 0x48 DUP6 ADD SWAP2 ADD PUSH2 0x179A JUMP JUMPDEST ADD ADD SUB ADD PUSH1 0x1F NOT DUP2 ADD DUP4 MSTORE DUP3 PUSH2 0x18E1 JUMP JUMPDEST PUSH1 0x40 MLOAD PUSH3 0x461BCD PUSH1 0xE5 SHL DUP2 MSTORE PUSH1 0x20 PUSH1 0x4 DUP3 ADD MSTORE SWAP2 DUP3 SWAP2 PUSH1 0x24 DUP4 ADD SWAP1 PUSH2 0x17BD JUMP JUMPDEST SUB SWAP1 REVERT JUMPDEST CALLER PUSH1 0x0 SWAP1 DUP2 MSTORE PUSH1 0x0 DUP1 MLOAD PUSH1 0x20 PUSH2 0x1FC5 DUP4 CODECOPY DUP2 MLOAD SWAP2 MSTORE PUSH1 0x20 MSTORE PUSH1 0x40 SWAP1 KECCAK256 SLOAD PUSH1 0xFF AND ISZERO PUSH2 0x1CAF JUMPI JUMP JUMPDEST PUSH2 0x1C84 PUSH2 0x1CBB CALLER PUSH2 0x1DEC JUMP JUMPDEST PUSH2 0x1C64 PUSH1 0x11 PUSH2 0x1BE2 PUSH1 0x0 DUP1 MLOAD PUSH1 0x20 PUSH2 0x1FE5 DUP4 CODECOPY DUP2 MLOAD SWAP2 MSTORE PUSH2 0x1F18 JUMP JUMPDEST PUSH1 0x0 DUP2 DUP2 MSTORE PUSH1 0x20 DUP2 DUP2 MSTORE PUSH1 0x40 DUP1 DUP4 KECCAK256 CALLER DUP5 MSTORE SWAP1 SWAP2 MSTORE SWAP1 KECCAK256 SLOAD PUSH1 0xFF AND ISZERO PUSH2 0x1CFA JUMPI POP JUMP JUMPDEST PUSH2 0x1C84 SWAP1 PUSH2 0x1C64 PUSH1 0x11 PUSH2 0x1BE2 PUSH2 0x1D0F CALLER PUSH2 0x1DEC JUMP JUMPDEST SWAP4 PUSH2 0x1F18 JUMP JUMPDEST PUSH1 0x0 DUP2 DUP2 MSTORE PUSH1 0x20 DUP2 DUP2 MSTORE PUSH1 0x40 DUP1 DUP4 KECCAK256 PUSH1 0x1 PUSH1 0x1 PUSH1 0xA0 SHL SUB DUP7 AND DUP5 MSTORE SWAP1 SWAP2 MSTORE SWAP1 KECCAK256 SLOAD PUSH1 0xFF AND PUSH2 0x1D41 JUMPI POP POP JUMP JUMPDEST PUSH1 0x0 DUP2 DUP2 MSTORE PUSH1 0x20 DUP2 DUP2 MSTORE PUSH1 0x40 DUP1 DUP4 KECCAK256 PUSH1 0x1 PUSH1 0x1 PUSH1 0xA0 SHL SUB SWAP6 SWAP1 SWAP6 AND DUP1 DUP5 MSTORE SWAP5 SWAP1 SWAP2 MSTORE DUP2 KECCAK256 DUP1 SLOAD PUSH1 0xFF NOT AND SWAP1 SSTORE CALLER SWAP3 SWAP2 SWAP1 PUSH32 0xF6391F5C32D9C69D2A47EA670B442974B53935D1EDC7FD64EB21E047A839171B SWAP1 DUP1 LOG4 JUMP JUMPDEST PUSH1 0xFF PUSH1 0x1 SLOAD AND PUSH2 0x1DA3 JUMPI JUMP JUMPDEST PUSH1 0x40 MLOAD PUSH3 0x461BCD PUSH1 0xE5 SHL DUP2 MSTORE PUSH1 0x20 PUSH1 0x4 DUP3 ADD MSTORE PUSH1 0x10 PUSH1 0x24 DUP3 ADD MSTORE PUSH16 0x14185D5CD8589B194E881C185D5CD959 PUSH1 0x82 SHL PUSH1 0x44 DUP3 ADD MSTORE PUSH1 0x64 SWAP1 REVERT JUMPDEST SWAP1 DUP2 MLOAD DUP2 LT ISZERO PUSH2 0x1A62 JUMPI ADD PUSH1 0x20 ADD SWAP1 JUMP JUMPDEST PUSH1 0x0 SWAP1 PUSH2 0x1DF9 PUSH1 0x2A PUSH2 0x1ADE JUMP JUMPDEST SWAP2 PUSH2 0x1E07 PUSH1 0x40 MLOAD SWAP4 DUP5 PUSH2 0x18E1 JUMP JUMPDEST PUSH1 0x2A DUP4 MSTORE PUSH2 0x1E15 PUSH1 0x2A PUSH2 0x1ADE JUMP JUMPDEST PUSH1 0x20 DUP5 ADD SWAP1 PUSH1 0x1F NOT ADD CALLDATASIZE DUP3 CALLDATACOPY DUP4 MLOAD ISZERO PUSH2 0x1B5B JUMPI PUSH1 0x30 SWAP1 MSTORE8 DUP3 MLOAD PUSH1 0x1 LT ISZERO PUSH2 0x1F04 JUMPI PUSH1 0x78 PUSH1 0x21 DUP5 ADD MSTORE8 POP PUSH1 0x29 PUSH1 0x0 JUMPDEST PUSH1 0x1 DUP3 GT PUSH2 0x1E98 JUMPI POP POP PUSH2 0x1E54 JUMPI SWAP1 JUMP JUMPDEST PUSH1 0x64 PUSH1 0x40 MLOAD PUSH3 0x461BCD PUSH1 0xE5 SHL DUP2 MSTORE PUSH1 0x20 PUSH1 0x4 DUP3 ADD MSTORE PUSH1 0x20 PUSH1 0x24 DUP3 ADD MSTORE PUSH32 0x537472696E67733A20686578206C656E67746820696E73756666696369656E74 PUSH1 0x44 DUP3 ADD MSTORE REVERT JUMPDEST SWAP1 SWAP2 PUSH1 0xF DUP2 AND PUSH1 0x10 DUP2 LT ISZERO PUSH2 0x1EF0 JUMPI PUSH16 0x181899199A1A9B1B9C1CB0B131B232B3 PUSH1 0x81 SHL SWAP1 BYTE PUSH2 0x1EC7 DUP5 DUP7 PUSH2 0x1DDB JUMP JUMPDEST MSTORE8 PUSH1 0x4 SHR SWAP2 DUP1 ISZERO PUSH2 0x1EDC JUMPI PUSH1 0x0 NOT ADD SWAP1 PUSH2 0x1E43 JUMP JUMPDEST PUSH4 0x4E487B71 PUSH1 0xE0 SHL DUP3 MSTORE PUSH1 0x11 PUSH1 0x4 MSTORE PUSH1 0x24 DUP3 REVERT JUMPDEST PUSH4 0x4E487B71 PUSH1 0xE0 SHL DUP4 MSTORE PUSH1 0x32 PUSH1 0x4 MSTORE PUSH1 0x24 DUP4 REVERT JUMPDEST PUSH4 0x4E487B71 PUSH1 0xE0 SHL DUP2 MSTORE PUSH1 0x32 PUSH1 0x4 MSTORE PUSH1 0x24 SWAP1 REVERT JUMPDEST PUSH1 0x0 SWAP1 PUSH2 0x1F25 PUSH1 0x42 PUSH2 0x1ADE JUMP JUMPDEST SWAP2 PUSH2 0x1F33 PUSH1 0x40 MLOAD SWAP4 DUP5 PUSH2 0x18E1 JUMP JUMPDEST PUSH1 0x42 DUP4 MSTORE PUSH2 0x1F41 PUSH1 0x42 PUSH2 0x1ADE JUMP JUMPDEST PUSH1 0x20 DUP5 ADD SWAP1 PUSH1 0x1F NOT ADD CALLDATASIZE DUP3 CALLDATACOPY DUP4 MLOAD ISZERO PUSH2 0x1B5B JUMPI PUSH1 0x30 SWAP1 MSTORE8 DUP3 MLOAD PUSH1 0x1 LT ISZERO PUSH2 0x1F04 JUMPI PUSH1 0x78 PUSH1 0x21 DUP5 ADD MSTORE8 POP PUSH1 0x41 PUSH1 0x0 JUMPDEST PUSH1 0x1 DUP3 GT PUSH2 0x1F80 JUMPI POP POP PUSH2 0x1E54 JUMPI SWAP1 JUMP JUMPDEST SWAP1 SWAP2 PUSH1 0xF DUP2 AND PUSH1 0x10 DUP2 LT ISZERO PUSH2 0x1EF0 JUMPI PUSH16 0x181899199A1A9B1B9C1CB0B131B232B3 PUSH1 0x81 SHL SWAP1 BYTE PUSH2 0x1FAF DUP5 DUP7 PUSH2 0x1DDB JUMP JUMPDEST MSTORE8 PUSH1 0x4 SHR SWAP2 DUP1 ISZERO PUSH2 0x1EDC JUMPI PUSH1 0x0 NOT ADD SWAP1 PUSH2 0x1F6F JUMP INVALID BYTE PUSH24 0x60066BD1F06DF3A1A816A948CB99A3A2E8FFA5089500E847 MOD DUP7 DUP12 INVALID SMOD 0x2D JUMPDEST 0xB0 0xBF 0x1F 0xAB 0xD5 0xE9 PUSH22 0xFC7A4520766D9E86E0EB281F8C7C44FCD3DFE60A11E7 DUP7 0xCA LOG2 PUSH5 0x6970667358 0x22 SLT KECCAK256 DUP7 0xAF PUSH11 0xABDED6E3168B3D0000738B TSTORE SWAP7 DUP4 POP SGT 0x2E MSTORE PUSH5 0x3644EF961A 0xEF LT CREATE2 0xAA 0xBB PUSH5 0x736F6C6343 STOP ADDMOD SHR STOP CALLER 0x2F DUP8 DUP9 GT PUSH31 0x7EFF1D82E926EC794901D17C78024A50270940304540A733656F0D7D7FFB7A CALLVALUE DUP15 SHR PUSH11 0x2869081A26547B49160DD RETURNDATASIZE 0xF7 0x2D SAR PUSH22 0xA570EB9B698292ECAD3228B676F7D3CD4284A5443F17 CALL SWAP7 0x2B CALLDATASIZE 0xE4 SWAP2 0xB3 EXP BLOCKHASH 0xB2 BLOCKHASH PC BLOBHASH 0xE5 SWAP8 0xBA PUSH0 0xB5 "},"methodIdentifiers":{"ADMIN_ROLE()":"75b238fc","DEFAULT_ADMIN_ROLE()":"a217fddf","UNIVERSITY_ROLE()":"3d178414","addRecord(string,string,string,string,string,uint8)":"c4dd1e37","addUniversity(address,string)":"a908dc62","getAllUniversities()":"f597d994","getRecord(uint256)":"03e9e609","getRoleAdmin(bytes32)":"248a9ca3","getStudentRecords(string)":"2d175a18","getUniversityName(address)":"882f0403","getUniversityRecords()":"92fd707d","grantRole(bytes32,address)":"2f2ff15d","hasRole(bytes32,address)":"91d14854","pause()":"8456cb59","paused()":"5c975abb","recordAccess(uint256)":"f795a646","removeUniversity(address)":"28f54b2f","renounceRole(bytes32,address)":"36568abe","revokeRole(bytes32,address)":"d547741f","setUniversityName(address,string)":"baf9077b","supportsInterface(bytes4)":"01ffc9a7","unpause()":"3f4ba83a","verifyRecord(uint256)":"3af4d950"}}}}}