{
  "_format": "hh-sol-artifact-1",
  "contractName": "AcademicRecords",
  "sourceName": "contracts/AcademicRecords.sol",
  "abi": [
    {
      "inputs": [],
      "stateMutability": "nonpayable",
      "type": "constructor"
    },
    {
      "anonymous": false,
      "inputs": [
        {
          "indexed": true,
          "internalType": "address",
          "name": "admin",
          "type": "address"
        },
        {
          "indexed": true,
          "internalType": "address",
          "name": "addedBy",
          "type": "address"
        }
      ],
      "name": "AdminAdded",
      "type": "event"
    },
    {
      "anonymous": false,
      "inputs": [
        {
          "indexed": true,
          "internalType": "address",
          "name": "admin",
          "type": "address"
        },
        {
          "indexed": true,
          "internalType": "address",
          "name": "removedBy",
          "type": "address"
        }
      ],
      "name": "AdminRemoved",
      "type": "event"
    },
    {
      "anonymous": false,
      "inputs": [
        {
          "indexed": true,
          "internalType": "uint256",
          "name": "typeId",
          "type": "uint256"
        },
        {
          "indexed": false,
          "internalType": "string",
          "name": "name",
          "type": "string"
        },
        {
          "indexed": true,
          "internalType": "address",
          "name": "creator",
          "type": "address"
        }
      ],
      "name": "CustomRecordTypeCreated",
      "type": "event"
    },
    {
      "anonymous": false,
      "inputs": [
        {
          "indexed": true,
          "internalType": "uint256",
          "name": "typeId",
          "type": "uint256"
        },
        {
          "indexed": false,
          "internalType": "bool",
          "name": "isActive",
          "type": "bool"
        }
      ],
      "name": "CustomRecordTypeUpdated",
      "type": "event"
    },
    {
      "anonymous": false,
      "inputs": [
        {
          "indexed": false,
          "internalType": "address",
          "name": "account",
          "type": "address"
        }
      ],
      "name": "Paused",
      "type": "event"
    },
    {
      "anonymous": false,
      "inputs": [
        {
          "indexed": true,
          "internalType": "uint256",
          "name": "recordId",
          "type": "uint256"
        },
        {
          "indexed": false,
          "internalType": "address",
          "name": "accessor",
          "type": "address"
        }
      ],
      "name": "RecordAccessed",
      "type": "event"
    },
    {
      "anonymous": false,
      "inputs": [
        {
          "indexed": true,
          "internalType": "uint256",
          "name": "recordId",
          "type": "uint256"
        },
        {
          "indexed": false,
          "internalType": "string",
          "name": "studentId",
          "type": "string"
        },
        {
          "indexed": false,
          "internalType": "enum IAcademicRecords.RecordType",
          "name": "recordType",
          "type": "uint8"
        },
        {
          "indexed": false,
          "internalType": "address",
          "name": "issuer",
          "type": "address"
        }
      ],
      "name": "RecordAdded",
      "type": "event"
    },
    {
      "anonymous": false,
      "inputs": [
        {
          "indexed": true,
          "internalType": "uint256",
          "name": "recordId",
          "type": "uint256"
        },
        {
          "indexed": true,
          "internalType": "string",
          "name": "studentId",
          "type": "string"
        },
        {
          "indexed": true,
          "internalType": "address",
          "name": "sharedWith",
          "type": "address"
        }
      ],
      "name": "RecordShared",
      "type": "event"
    },
    {
      "anonymous": false,
      "inputs": [
        {
          "indexed": true,
          "internalType": "uint256",
          "name": "recordId",
          "type": "uint256"
        },
        {
          "indexed": true,
          "internalType": "string",
          "name": "studentId",
          "type": "string"
        },
        {
          "indexed": true,
          "internalType": "address",
          "name": "unsharedWith",
          "type": "address"
        }
      ],
      "name": "RecordUnshared",
      "type": "event"
    },
    {
      "anonymous": false,
      "inputs": [
        {
          "indexed": true,
          "internalType": "uint256",
          "name": "recordId",
          "type": "uint256"
        },
        {
          "indexed": false,
          "internalType": "address",
          "name": "verifier",
          "type": "address"
        }
      ],
      "name": "RecordVerified",
      "type": "event"
    },
    {
      "anonymous": false,
      "inputs": [
        {
          "indexed": true,
          "internalType": "bytes32",
          "name": "role",
          "type": "bytes32"
        },
        {
          "indexed": true,
          "internalType": "bytes32",
          "name": "previousAdminRole",
          "type": "bytes32"
        },
        {
          "indexed": true,
          "internalType": "bytes32",
          "name": "newAdminRole",
          "type": "bytes32"
        }
      ],
      "name": "RoleAdminChanged",
      "type": "event"
    },
    {
      "anonymous": false,
      "inputs": [
        {
          "indexed": true,
          "internalType": "bytes32",
          "name": "role",
          "type": "bytes32"
        },
        {
          "indexed": true,
          "internalType": "address",
          "name": "account",
          "type": "address"
        },
        {
          "indexed": true,
          "internalType": "address",
          "name": "sender",
          "type": "address"
        }
      ],
      "name": "RoleGranted",
      "type": "event"
    },
    {
      "anonymous": false,
      "inputs": [
        {
          "indexed": true,
          "internalType": "bytes32",
          "name": "role",
          "type": "bytes32"
        },
        {
          "indexed": true,
          "internalType": "address",
          "name": "account",
          "type": "address"
        },
        {
          "indexed": true,
          "internalType": "address",
          "name": "sender",
          "type": "address"
        }
      ],
      "name": "RoleRevoked",
      "type": "event"
    },
    {
      "anonymous": false,
      "inputs": [
        {
          "indexed": true,
          "internalType": "string",
          "name": "studentId",
          "type": "string"
        },
        {
          "indexed": true,
          "internalType": "address",
          "name": "university",
          "type": "address"
        }
      ],
      "name": "StudentDeleted",
      "type": "event"
    },
    {
      "anonymous": false,
      "inputs": [
        {
          "indexed": true,
          "internalType": "address",
          "name": "university",
          "type": "address"
        },
        {
          "indexed": false,
          "internalType": "string",
          "name": "name",
          "type": "string"
        }
      ],
      "name": "UniversityNameUpdated",
      "type": "event"
    },
    {
      "anonymous": false,
      "inputs": [
        {
          "indexed": false,
          "internalType": "address",
          "name": "account",
          "type": "address"
        }
      ],
      "name": "Unpaused",
      "type": "event"
    },
    {
      "inputs": [],
      "name": "ADMIN_ROLE",
      "outputs": [
        {
          "internalType": "bytes32",
          "name": "",
          "type": "bytes32"
        }
      ],
      "stateMutability": "view",
      "type": "function"
    },
    {
      "inputs": [],
      "name": "DEFAULT_ADMIN_ROLE",
      "outputs": [
        {
          "internalType": "bytes32",
          "name": "",
          "type": "bytes32"
        }
      ],
      "stateMutability": "view",
      "type": "function"
    },
    {
      "inputs": [],
      "name": "SUPER_ADMIN",
      "outputs": [
        {
          "internalType": "address",
          "name": "",
          "type": "address"
        }
      ],
      "stateMutability": "view",
      "type": "function"
    },
    {
      "inputs": [],
      "name": "SUPER_ADMIN_ROLE",
      "outputs": [
        {
          "internalType": "bytes32",
          "name": "",
          "type": "bytes32"
        }
      ],
      "stateMutability": "view",
      "type": "function"
    },
    {
      "inputs": [],
      "name": "UNIVERSITY_ROLE",
      "outputs": [
        {
          "internalType": "bytes32",
          "name": "",
          "type": "bytes32"
        }
      ],
      "stateMutability": "view",
      "type": "function"
    },
    {
      "inputs": [
        {
          "internalType": "address",
          "name": "adminAddress",
          "type": "address"
        }
      ],
      "name": "addAdmin",
      "outputs": [],
      "stateMutability": "nonpayable",
      "type": "function"
    },
    {
      "inputs": [
        {
          "internalType": "string",
          "name": "name",
          "type": "string"
        },
        {
          "internalType": "string",
          "name": "description",
          "type": "string"
        }
      ],
      "name": "addCustomRecordType",
      "outputs": [
        {
          "internalType": "uint256",
          "name": "",
          "type": "uint256"
        }
      ],
      "stateMutability": "nonpayable",
      "type": "function"
    },
    {
      "inputs": [
        {
          "internalType": "string",
          "name": "studentId",
          "type": "string"
        },
        {
          "internalType": "string",
          "name": "studentName",
          "type": "string"
        },
        {
          "internalType": "address",
          "name": "studentAddress",
          "type": "address"
        },
        {
          "internalType": "string",
          "name": "universityName",
          "type": "string"
        },
        {
          "internalType": "string",
          "name": "ipfsHash",
          "type": "string"
        },
        {
          "internalType": "string",
          "name": "metadataHash",
          "type": "string"
        },
        {
          "internalType": "enum IAcademicRecords.RecordType",
          "name": "recordType",
          "type": "uint8"
        }
      ],
      "name": "addRecord",
      "outputs": [
        {
          "internalType": "uint256",
          "name": "",
          "type": "uint256"
        }
      ],
      "stateMutability": "nonpayable",
      "type": "function"
    },
    {
      "inputs": [
        {
          "internalType": "address",
          "name": "universityAddress",
          "type": "address"
        },
        {
          "internalType": "string",
          "name": "name",
          "type": "string"
        }
      ],
      "name": "addUniversity",
      "outputs": [],
      "stateMutability": "nonpayable",
      "type": "function"
    },
    {
      "inputs": [
        {
          "internalType": "string",
          "name": "studentId",
          "type": "string"
        }
      ],
      "name": "deleteStudent",
      "outputs": [],
      "stateMutability": "nonpayable",
      "type": "function"
    },
    {
      "inputs": [],
      "name": "getAllAdmins",
      "outputs": [
        {
          "internalType": "address[]",
          "name": "",
          "type": "address[]"
        }
      ],
      "stateMutability": "view",
      "type": "function"
    },
    {
      "inputs": [],
      "name": "getAllUniversities",
      "outputs": [
        {
          "internalType": "address[]",
          "name": "",
          "type": "address[]"
        }
      ],
      "stateMutability": "view",
      "type": "function"
    },
    {
      "inputs": [
        {
          "internalType": "uint256",
          "name": "typeId",
          "type": "uint256"
        }
      ],
      "name": "getCustomRecordType",
      "outputs": [
        {
          "components": [
            {
              "internalType": "uint256",
              "name": "id",
              "type": "uint256"
            },
            {
              "internalType": "string",
              "name": "name",
              "type": "string"
            },
            {
              "internalType": "string",
              "name": "description",
              "type": "string"
            },
            {
              "internalType": "address",
              "name": "creator",
              "type": "address"
            },
            {
              "internalType": "uint256",
              "name": "timestamp",
              "type": "uint256"
            },
            {
              "internalType": "bool",
              "name": "isActive",
              "type": "bool"
            }
          ],
          "internalType": "struct IAcademicRecords.CustomRecordType",
          "name": "",
          "type": "tuple"
        }
      ],
      "stateMutability": "view",
      "type": "function"
    },
    {
      "inputs": [
        {
          "internalType": "uint256",
          "name": "recordId",
          "type": "uint256"
        }
      ],
      "name": "getRecord",
      "outputs": [
        {
          "components": [
            {
              "internalType": "uint256",
              "name": "id",
              "type": "uint256"
            },
            {
              "internalType": "string",
              "name": "studentId",
              "type": "string"
            },
            {
              "internalType": "string",
              "name": "studentName",
              "type": "string"
            },
            {
              "internalType": "address",
              "name": "studentAddress",
              "type": "address"
            },
            {
              "internalType": "string",
              "name": "universityName",
              "type": "string"
            },
            {
              "internalType": "string",
              "name": "ipfsHash",
              "type": "string"
            },
            {
              "internalType": "string",
              "name": "metadataHash",
              "type": "string"
            },
            {
              "internalType": "enum IAcademicRecords.RecordType",
              "name": "recordType",
              "type": "uint8"
            },
            {
              "internalType": "uint256",
              "name": "timestamp",
              "type": "uint256"
            },
            {
              "internalType": "bool",
              "name": "isVerified",
              "type": "bool"
            },
            {
              "internalType": "address",
              "name": "issuer",
              "type": "address"
            }
          ],
          "internalType": "struct IAcademicRecords.Record",
          "name": "",
          "type": "tuple"
        }
      ],
      "stateMutability": "view",
      "type": "function"
    },
    {
      "inputs": [
        {
          "internalType": "uint256",
          "name": "recordId",
          "type": "uint256"
        }
      ],
      "name": "getRecordWithPermission",
      "outputs": [
        {
          "components": [
            {
              "internalType": "uint256",
              "name": "id",
              "type": "uint256"
            },
            {
              "internalType": "string",
              "name": "studentId",
              "type": "string"
            },
            {
              "internalType": "string",
              "name": "studentName",
              "type": "string"
            },
            {
              "internalType": "address",
              "name": "studentAddress",
              "type": "address"
            },
            {
              "internalType": "string",
              "name": "universityName",
              "type": "string"
            },
            {
              "internalType": "string",
              "name": "ipfsHash",
              "type": "string"
            },
            {
              "internalType": "string",
              "name": "metadataHash",
              "type": "string"
            },
            {
              "internalType": "enum IAcademicRecords.RecordType",
              "name": "recordType",
              "type": "uint8"
            },
            {
              "internalType": "uint256",
              "name": "timestamp",
              "type": "uint256"
            },
            {
              "internalType": "bool",
              "name": "isVerified",
              "type": "bool"
            },
            {
              "internalType": "address",
              "name": "issuer",
              "type": "address"
            }
          ],
          "internalType": "struct IAcademicRecords.Record",
          "name": "",
          "type": "tuple"
        }
      ],
      "stateMutability": "view",
      "type": "function"
    },
    {
      "inputs": [
        {
          "internalType": "bytes32",
          "name": "role",
          "type": "bytes32"
        }
      ],
      "name": "getRoleAdmin",
      "outputs": [
        {
          "internalType": "bytes32",
          "name": "",
          "type": "bytes32"
        }
      ],
      "stateMutability": "view",
      "type": "function"
    },
    {
      "inputs": [
        {
          "internalType": "address",
          "name": "sharedWith",
          "type": "address"
        }
      ],
      "name": "getSharedRecords",
      "outputs": [
        {
          "internalType": "uint256[]",
          "name": "",
          "type": "uint256[]"
        }
      ],
      "stateMutability": "view",
      "type": "function"
    },
    {
      "inputs": [
        {
          "internalType": "string",
          "name": "studentId",
          "type": "string"
        }
      ],
      "name": "getStudentRecords",
      "outputs": [
        {
          "internalType": "uint256[]",
          "name": "",
          "type": "uint256[]"
        }
      ],
      "stateMutability": "view",
      "type": "function"
    },
    {
      "inputs": [
        {
          "internalType": "address",
          "name": "studentAddress",
          "type": "address"
        }
      ],
      "name": "getStudentRecordsByAddress",
      "outputs": [
        {
          "internalType": "uint256[]",
          "name": "",
          "type": "uint256[]"
        }
      ],
      "stateMutability": "view",
      "type": "function"
    },
    {
      "inputs": [],
      "name": "getTotalCustomTypes",
      "outputs": [
        {
          "internalType": "uint256",
          "name": "",
          "type": "uint256"
        }
      ],
      "stateMutability": "view",
      "type": "function"
    },
    {
      "inputs": [],
      "name": "getTotalRecords",
      "outputs": [
        {
          "internalType": "uint256",
          "name": "",
          "type": "uint256"
        }
      ],
      "stateMutability": "view",
      "type": "function"
    },
    {
      "inputs": [],
      "name": "getUniversityCustomTypes",
      "outputs": [
        {
          "internalType": "uint256[]",
          "name": "",
          "type": "uint256[]"
        }
      ],
      "stateMutability": "view",
      "type": "function"
    },
    {
      "inputs": [
        {
          "internalType": "address",
          "name": "universityAddress",
          "type": "address"
        }
      ],
      "name": "getUniversityName",
      "outputs": [
        {
          "internalType": "string",
          "name": "",
          "type": "string"
        }
      ],
      "stateMutability": "view",
      "type": "function"
    },
    {
      "inputs": [],
      "name": "getUniversityRecords",
      "outputs": [
        {
          "internalType": "uint256[]",
          "name": "",
          "type": "uint256[]"
        }
      ],
      "stateMutability": "view",
      "type": "function"
    },
    {
      "inputs": [
        {
          "internalType": "bytes32",
          "name": "role",
          "type": "bytes32"
        },
        {
          "internalType": "address",
          "name": "account",
          "type": "address"
        }
      ],
      "name": "grantRole",
      "outputs": [],
      "stateMutability": "nonpayable",
      "type": "function"
    },
    {
      "inputs": [
        {
          "internalType": "bytes32",
          "name": "role",
          "type": "bytes32"
        },
        {
          "internalType": "address",
          "name": "account",
          "type": "address"
        }
      ],
      "name": "hasRole",
      "outputs": [
        {
          "internalType": "bool",
          "name": "",
          "type": "bool"
        }
      ],
      "stateMutability": "view",
      "type": "function"
    },
    {
      "inputs": [
        {
          "internalType": "uint256",
          "name": "recordId",
          "type": "uint256"
        },
        {
          "internalType": "address",
          "name": "user",
          "type": "address"
        }
      ],
      "name": "isRecordSharedWith",
      "outputs": [
        {
          "internalType": "bool",
          "name": "",
          "type": "bool"
        }
      ],
      "stateMutability": "view",
      "type": "function"
    },
    {
      "inputs": [],
      "name": "pause",
      "outputs": [],
      "stateMutability": "nonpayable",
      "type": "function"
    },
    {
      "inputs": [],
      "name": "paused",
      "outputs": [
        {
          "internalType": "bool",
          "name": "",
          "type": "bool"
        }
      ],
      "stateMutability": "view",
      "type": "function"
    },
    {
      "inputs": [
        {
          "internalType": "uint256",
          "name": "recordId",
          "type": "uint256"
        }
      ],
      "name": "recordAccess",
      "outputs": [],
      "stateMutability": "nonpayable",
      "type": "function"
    },
    {
      "inputs": [
        {
          "internalType": "string",
          "name": "studentId",
          "type": "string"
        }
      ],
      "name": "registerStudent",
      "outputs": [],
      "stateMutability": "nonpayable",
      "type": "function"
    },
    {
      "inputs": [
        {
          "internalType": "address",
          "name": "adminAddress",
          "type": "address"
        }
      ],
      "name": "removeAdmin",
      "outputs": [],
      "stateMutability": "nonpayable",
      "type": "function"
    },
    {
      "inputs": [
        {
          "internalType": "address",
          "name": "universityAddress",
          "type": "address"
        }
      ],
      "name": "removeUniversity",
      "outputs": [],
      "stateMutability": "nonpayable",
      "type": "function"
    },
    {
      "inputs": [
        {
          "internalType": "bytes32",
          "name": "role",
          "type": "bytes32"
        },
        {
          "internalType": "address",
          "name": "account",
          "type": "address"
        }
      ],
      "name": "renounceRole",
      "outputs": [],
      "stateMutability": "nonpayable",
      "type": "function"
    },
    {
      "inputs": [
        {
          "internalType": "bytes32",
          "name": "role",
          "type": "bytes32"
        },
        {
          "internalType": "address",
          "name": "account",
          "type": "address"
        }
      ],
      "name": "revokeRole",
      "outputs": [],
      "stateMutability": "nonpayable",
      "type": "function"
    },
    {
      "inputs": [
        {
          "internalType": "address",
          "name": "universityAddress",
          "type": "address"
        },
        {
          "internalType": "string",
          "name": "name",
          "type": "string"
        }
      ],
      "name": "setUniversityName",
      "outputs": [],
      "stateMutability": "nonpayable",
      "type": "function"
    },
    {
      "inputs": [
        {
          "internalType": "uint256",
          "name": "recordId",
          "type": "uint256"
        },
        {
          "internalType": "address",
          "name": "sharedWith",
          "type": "address"
        }
      ],
      "name": "shareRecord",
      "outputs": [],
      "stateMutability": "nonpayable",
      "type": "function"
    },
    {
      "inputs": [],
      "name": "studentManagement",
      "outputs": [
        {
          "internalType": "contract StudentManagement",
          "name": "",
          "type": "address"
        }
      ],
      "stateMutability": "view",
      "type": "function"
    },
    {
      "inputs": [
        {
          "internalType": "bytes4",
          "name": "interfaceId",
          "type": "bytes4"
        }
      ],
      "name": "supportsInterface",
      "outputs": [
        {
          "internalType": "bool",
          "name": "",
          "type": "bool"
        }
      ],
      "stateMutability": "view",
      "type": "function"
    },
    {
      "inputs": [],
      "name": "unpause",
      "outputs": [],
      "stateMutability": "nonpayable",
      "type": "function"
    },
    {
      "inputs": [
        {
          "internalType": "uint256",
          "name": "recordId",
          "type": "uint256"
        },
        {
          "internalType": "address",
          "name": "sharedWith",
          "type": "address"
        }
      ],
      "name": "unshareRecord",
      "outputs": [],
      "stateMutability": "nonpayable",
      "type": "function"
    },
    {
      "inputs": [
        {
          "internalType": "uint256",
          "name": "typeId",
          "type": "uint256"
        },
        {
          "internalType": "bool",
          "name": "isActive",
          "type": "bool"
        }
      ],
      "name": "updateCustomRecordType",
      "outputs": [],
      "stateMutability": "nonpayable",
      "type": "function"
    },
    {
      "inputs": [
        {
          "internalType": "uint256",
          "name": "recordId",
          "type": "uint256"
        }
      ],
      "name": "verifyRecord",
      "outputs": [
        {
          "internalType": "bool",
          "name": "",
          "type": "bool"
        }
      ],
      "stateMutability": "view",
      "type": "function"
    }
  ],
  "bytecode": "0x60a0604052346102dd5733608081905260009081526000805160206145a0833981519152602052604090205460ff161561029d575b336000908152600080516020614580833981519152602052604090205460ff161561023b575b336000908152600080516020614560833981519152602052604090205460ff16156101d9575b600354680100000000000000008110156101ad5760018101806003558110156101c3577fc2575a0e9e593c00f959f8c92f12db2869c3395a3b0502d05e2516446f71f85b0180546001600160a01b0319163390811790915560009081526004602052604090819020805460ff19908116600117909155600580549091169055516108ee8082016001600160401b038111838210176101ad578291613c52833903906000f080156101a157600f80546001600160a01b0319166001600160a01b039290921691909117905560405161396f90816102e3823960805181818161076c01528181610c1d015281816114c20152818161156f015281816116850152818161199b01528181611fba015281816121a3015281816129740152612a8b0152f35b6040513d6000823e3d90fd5b634e487b7160e01b600052604160045260246000fd5b634e487b7160e01b600052603260045260246000fd5b33600081815260008051602061456083398151915260205260408120805460ff1916600117905581907fa49807205ce4d355092ef5a8a18f56e8913cf4a201fbe287825b095693c21775906000805160206145408339815191529080a4610080565b33600081815260008051602061458083398151915260205260408120805460ff1916600117905581907f7613a25ecc738585a232ad50a301178f12b3ba8887d13e138b523c4269c47689906000805160206145408339815191529080a461005a565b3360008181526000805160206145a083398151915260205260408120805460ff1916600117905581906000805160206145408339815191528180a4610034565b600080fdfe6080604052600436101561001257600080fd5b6000803560e01c806301d534871461270157806301ffc9a7146126aa57806303e9e6091461255a5780630a2573de146124915780630aeacb5e146124735780630aefc3cf1461244a5780631164fcbf1461242c5780631785f53c146121875780631caebd5a1461201e578063248a9ca314611fe857806328f54b2f14611d8b5780632c4b038b14611c1b5780632d175a1814611b8f5780632f2ff15d14611acc57806336568abe14611a395780633af4d950146119f25780633d178414146119c95780633f4ba83a146118d15780634460bdd6146118965780635c114fcc146118715780635c975abb1461184e578063704802751461166557806371e17445146115c757806375b238fc1461159e5780637c7c7c3c146115595780638052bc56146114f05780638456cb5914611432578063882f0403146113d8578063892c43ab1461124c5780638955895f146110f257806391d14854146110a757806392fd707d1461103e578063967a1c2d14610ff25780639b22b62914610c67578063a217fddf14610c4b578063a908dc6214610939578063ba6093ba1461079a578063baf9077b146104bb578063bcbf7181146103a6578063d547741f1461035d578063e9523c97146102df578063f597d994146102515763f795a646146101f657600080fd5b3461024e57602036600319011261024e57600435808252600660205261022181604084205414612e0a565b7f980d15b088d1127894ac6300da68467873935cb71f64d1ff99f85614bf474c6c6020604051338152a280f35b80fd5b503461024e578060031936011261024e5760405180916020600254928381520191600282527f405787fa12a823e0f2b7631cc41b3ba8828b3321ca811111fa75cd3aa3bb5ace915b8181106102c0576102bc856102b081870382612d92565b60405191829182612d02565b0390f35b82546001600160a01b0316845260209093019260019283019201610299565b503461024e578060031936011261024e5760405180916020600354928381520191600382527fc2575a0e9e593c00f959f8c92f12db2869c3395a3b0502d05e2516446f71f85b915b81811061033e576102bc856102b081870382612d92565b82546001600160a01b0316845260209093019260019283019201610327565b503461024e57604036600319011261024e576103a360043561037d612c42565b9061039e61039982600052600060205260016040600020015490565b6135f8565b613636565b80f35b503461024e57602036600319011261024e576103c0612c2c565b600f546040516386c3441560e01b8152336004820152908390829060249082906001600160a01b03165afa9081156104b05761042091602091859161048e575b5061040d81511515613029565b8160405193828580945193849201612adf565b8101600a8152030190209060018060a01b03166000526020526040600020604051918260208354918281520192825260208220915b818110610478576102bc8561046c81870382612d92565b60405191829182612c85565b8254845260209093019260019283019201610455565b6104aa91503d8087833e6104a28183612d92565b810190612f26565b38610400565b6040513d85823e3d90fd5b503461024e576104ca36612cbf565b60008051602061391a83398151915284526020848152604080862033600090815292529020549093929060ff168015610768575b8015610756575b15610711576000805160206138fa8339815191528352602083815260408085206001600160a01b0384166000908152925290205460ff16156106cc576001600160a01b0316808352600160205260408320939091906001600160401b0381116106b8576105728554612e4e565b601f811161067d575b508394601f82116001146105f8576105cd828087987fc27f3bae021ab8e78d67f94f2cd8248055d6ae911c4cf44c62bd025cd3574ee19798916105ed575b508160011b916000199060031b1c19161790565b90555b6105e76040519283926020845260208401916134a7565b0390a280f35b9050850135386105b9565b8085526020852095601f198316865b818110610665575090837fc27f3bae021ab8e78d67f94f2cd8248055d6ae911c4cf44c62bd025cd3574ee1969798921061064b575b5050600182811b0190556105d0565b840135600019600385901b60f8161c19169055388061063c565b85830135895560019098019760209283019201610607565b6106a89086865260208620601f840160051c810191602085106106ae575b601f0160051c019061314a565b3861057b565b909150819061069b565b634e487b7160e01b84526041600452602484fd5b60405162461bcd60e51b815260206004820152601b60248201527f41646472657373206973206e6f74206120756e697665727369747900000000006044820152606490fd5b60405162461bcd60e51b815260206004820152601a60248201527f4e6f7420617574686f72697a656420746f20736574206e616d650000000000006044820152606490fd5b50336001600160a01b03821614610505565b50337f00000000000000000000000000000000000000000000000000000000000000006001600160a01b0316146104fe565b503461024e57604036600319011261024e576004356001600160401b038111610935576107cb903690600401612c58565b6024929192356001600160401b038111610931576107ed903690600401612c58565b6107f56134f1565b82156108fd57604051634a0ab76b60e11b8152600c6004820152608060248201529160209183918291610843919061083160848501898c6134a7565b848103600319016044860152916134a7565b336064830152038173__$418a42c2ace6135936f69e0acb768a6277$__5af49283156108f157926108b7575b50817fd86d539582c7bd4f6009dae64cfee262a9ad9897d422fafeb23e9362f287e1e06108ac6020956040519182918883523396898401916134a7565b0390a3604051908152f35b91506020823d6020116108e9575b816108d260209383612d92565b810103126108e457905190602061086f565b600080fd5b3d91506108c5565b604051903d90823e3d90fd5b60405162461bcd60e51b815260206004820152600c60248201526b496e76616c6964206e616d6560a01b6044820152606490fd5b8280fd5b5080fd5b503461024e5761094836612cbf565b60008051602061391a833981519152845260208481526040808620336000908152925290205460ff168015610c19575b610981906130fe565b6000805160206138fa8339815191528452602084815260408086206001600160a01b0386166000908152925290205460ff16610bdd576000805160206138fa8339815191528452602084815260408086206001600160a01b0386166000908152925290205460ff1615610b77575b6001600160a01b0383168085526001602052604085209093906001600160401b038311610ac557610a208154612e4e565b601f8111610b47575b508583601f8111600114610ae45780610a56928991610ad957508160011b916000199060031b1c19161790565b90555b600254600160401b811015610ac5577fc27f3bae021ab8e78d67f94f2cd8248055d6ae911c4cf44c62bd025cd3574ee1939291610aa18260016105d094016002556002613011565b81546001600160a01b0393841660039290921b91821b9390911b1916919091179055565b634e487b7160e01b86526041600452602486fd5b9050860135386105b9565b50818752602087209084601f198116895b818110610b2c575010610b12575b5050600183811b019055610a59565b850135600019600386901b60f8161c191690553880610b03565b88840135855560019094019360209384019388935001610af5565b610b719082885260208820601f860160051c810191602087106106ae57601f0160051c019061314a565b38610a29565b6000805160206138fa833981519152808552602085815260408087206001600160a01b03871660008181529190935220805460ff1916600117905533917f2f8788117e7eff1d82e926ec794901d17c78024a50270940304540a733656f0d8780a46109ef565b60405162461bcd60e51b8152602060048201526014602482015273416c7265616479206120756e697665727369747960601b6044820152606490fd5b50337f00000000000000000000000000000000000000000000000000000000000000006001600160a01b031614610978565b503461024e578060031936011261024e57602090604051908152f35b503461024e5760e036600319011261024e576004356001600160401b03811161093557610c98903690600401612c58565b916024356001600160401b03811161093557610cb8903690600401612c58565b909390604435906001600160a01b038216808303610fee576064356001600160401b038111610fea57610cef903690600401612c58565b91906084356001600160401b038111610fe657610d10903690600401612c58565b909160a4356001600160401b038111610fe257610d31903690600401612c58565b94909560c4359860208a1015610fde57610d496134f1565b610d516136b8565b8215610f9957600f546040516386c3441560e01b8152600481018590526001600160a01b03909116908d81602481855afa908115610f8c578e8092610f71575b50505115610f06575b50508b9c60409c98999a9b9c51998a9963fbdf492360e01b8b5260048b016006905260248b0161012090528d6101248c0190610dd5926134a7565b906003198b83030160448c0152610deb926134a7565b916064890152600319888303016084890152610e06926134a7565b906003198683030160a4870152610e1c926134a7565b906003198483030160c4850152610e32926134a7565b610e3f60e4830185612b27565b33610104830152038173__$418a42c2ace6135936f69e0acb768a6277$__91815a93602094f49384156108f15793610ecf575b5060209383927f8a9f62701df42f18a82cdd37c50a7bce4cd48487ff236cabc609440251f87c3e92610ebe610eb46040519485946060865260608601916134a7565b9188840190612b27565b3360408301520390a2604051908152f35b909192506020813d602011610efe575b81610eec60209383612d92565b810103126108e4575191906020610e72565b3d9150610edf565b803b15610f6d57610f34918d918f838f91604051968795869485936314a2f2eb60e21b8552600485016134c8565b03925af18015610f6257610f49575b80610d9a565b610f548c8092612d92565b610f5e5738610f43565b8a80fd5b6040513d8e823e3d90fd5b8c80fd5b610f8592503d8091833e6104a28183612d92565b388e610d91565b8e604051903d90823e3d90fd5b60405162461bcd60e51b815260206004820152601760248201527f496e76616c69642073747564656e7420616464726573730000000000000000006044820152606490fd5b8b80fd5b8980fd5b8780fd5b8580fd5b8480fd5b503461024e57604036600319011261024e57604061100e612c42565b9160043581526009602052209060018060a01b0316600052602052602060ff604060002054166040519015158152f35b503461024e578060031936011261024e576110576134f1565b338152600860205260408120604051918260208354918281520192825260208220915b818110611091576102bc8561046c81870382612d92565b825484526020909301926001928301920161107a565b503461024e57604036600319011261024e5760406110c3612c42565b91600435815280602052209060018060a01b0316600052602052602060ff604060002054166040519015158152f35b503461024e57602036600319011261024e576004356001600160401b03811161093557611123903690600401612c58565b9061112c6134f1565b6111346136b8565b811561121257604051633811a9ef60e21b81526006600482015260606024820152918383806111676064820185876134a7565b336044830152038173__$418a42c2ace6135936f69e0acb768a6277$__5af49283156112075784936111e3575b50806040519283378101908382528033920390207f1949bcb8762ad61ab8a8f3175c5787a3204c83583381bb42cdcdbf62141b11c48480a3815b81518110156111df576001016111ce565b8280f35b6112009193503d8086833e6111f88183612d92565b810190613178565b9138611194565b6040513d86823e3d90fd5b60405162461bcd60e51b8152602060048201526012602482015271125b9d985b1a59081cdd1d59195b9d08125160721b6044820152606490fd5b503461024e57602036600319011261024e57600435908060a060405161127181612d77565b82815260606020820152606060408201528260608201528260808201520152818152600c60205281604082205403611393576040918152600c602052206040516112ba81612d77565b81548152604051916112da836112d38160018501612e88565b0384612d92565b602082019283526040516112fc816112f58160028601612e88565b0382612d92565b6040830190815260018060a01b03600383015416916060840192835261137160ff6005600484015493608088019485520154169260a08601931515845261135e604051978897602089525160208901525160c0604089015260e0880190612b02565b9051868203601f19016060880152612b02565b92516001600160a01b031660808501525160a084015251151560c08301520390f35b60405162461bcd60e51b815260206004820152601a60248201527f437573746f6d207479706520646f6573206e6f742065786973740000000000006044820152606490fd5b503461024e57602036600319011261024e576102bc906112f59061141e906040906001600160a01b03611409612c2c565b16815260016020522060405192838092612e88565b604051918291602083526020830190612b02565b503461024e578060031936011261024e5760008051602061391a833981519152815260208181526040808320336000908152925290205460ff1680156114be575b61147c906130fe565b6114846136b8565b600160ff1960055416176005557f62e78cea01bee320cd4e420270b5ea74000d11b0c9f74754ebdbfc544b05a2586020604051338152a180f35b50337f00000000000000000000000000000000000000000000000000000000000000006001600160a01b031614611473565b503461024e578060031936011261024e576115096134f1565b338152600d60205260408120604051918260208354918281520192825260208220915b818110611543576102bc8561046c81870382612d92565b825484526020909301926001928301920161152c565b503461024e578060031936011261024e576040517f00000000000000000000000000000000000000000000000000000000000000006001600160a01b03168152602090f35b503461024e578060031936011261024e57602060405160008051602061391a8339815191528152f35b503461024e57602036600319011261024e57806004356001600160401b038111611662576115f9903690600401612c58565b600f546001600160a01b031691823b1561165f57611632928492836040518096819582946314a2f2eb60e21b84523391600485016134c8565b03925af18015611654576116435750f35b8161164d91612d92565b61024e5780f35b6040513d84823e3d90fd5b50505b50fd5b503461024e57602036600319011261024e5761167f612c2c565b6116b3337f00000000000000000000000000000000000000000000000000000000000000006001600160a01b031614612f87565b60008051602061391a8339815191528252602082815260408084206001600160a01b0384166000908152925290205460ff166118165760008051602061391a8339815191528252602082815260408084206001600160a01b0384166000908152925290205460ff16156117b0575b6001600160a01b0381168083526004602052604083205490919060ff161561176e575b5033907fbf3f493c772c8c283fd124432c2d0f539ab343faa04258fe88e52912d36b102b8380a380f35b600354600160401b8110156106b85790610aa182600161179394016003556003613011565b808252600460205260408220805460ff1916600117905538611744565b60008051602061391a833981519152808352602083815260408085206001600160a01b03851660008181529190935220805460ff1916600117905533917f2f8788117e7eff1d82e926ec794901d17c78024a50270940304540a733656f0d8580a4611721565b60405162461bcd60e51b815260206004820152601060248201526f20b63932b0b23c9030b71030b236b4b760811b6044820152606490fd5b503461024e578060031936011261024e57602060ff600554166040519015158152f35b503461024e57602036600319011261024e576102bc61046c611891612c2c565b61325c565b503461024e578060031936011261024e5760206040517f7613a25ecc738585a232ad50a301178f12b3ba8887d13e138b523c4269c476898152f35b503461024e578060031936011261024e5760008051602061391a833981519152815260208181526040808320336000908152925290205460ff168015611997575b61191b906130fe565b60055460ff81161561195b5760ff19166005557f5db9ee0a495bf2e6ff9c91a7834c1ba4fdd244a5e8aa4e537bd38aeae4b073aa6020604051338152a180f35b60405162461bcd60e51b815260206004820152601460248201527314185d5cd8589b194e881b9bdd081c185d5cd95960621b6044820152606490fd5b50337f00000000000000000000000000000000000000000000000000000000000000006001600160a01b031614611912565b503461024e578060031936011261024e5760206040516000805160206138fa8339815191528152f35b503461024e57602036600319011261024e5760ff6009604060209360043580825260068652611a25818484205414612e0a565b815260068552200154166040519015158152f35b503461024e57604036600319011261024e57611a53612c42565b336001600160a01b03821603611a6f576103a390600435613636565b60405162461bcd60e51b815260206004820152602f60248201527f416363657373436f6e74726f6c3a2063616e206f6e6c792072656e6f756e636560448201526e103937b632b9903337b91039b2b63360891b6064820152608490fd5b503461024e57604036600319011261024e57600435611ae9612c42565b90611b0561039982600052600060205260016040600020015490565b808352602083815260408085206001600160a01b0385166000908152925290205460ff1615611b32578280f35b808352602083815260408085206001600160a01b0394909416600081815294909252909220805460ff191660011790553391907f2f8788117e7eff1d82e926ec794901d17c78024a50270940304540a733656f0d8480a438808280f35b503461024e57602036600319011261024e576004356001600160401b03811161093557611bc26020913690600401612c58565b919082604051938492833781016007815203019020604051918260208354918281520192825260208220915b818110611c05576102bc8561046c81870382612d92565b8254845260209093019260019283019201611bee565b503461024e57604036600319011261024e57600435611c38612c42565b8183526006602052611c4f82604085205414612e0a565b600f546040516386c3441560e01b8152336004820152908490829060249082906001600160a01b03165afa908115611207578491611d71575b50611c9581511515613029565b611ccd8151602083012084865260066020526112f5611cc06001604089200160405192838092612e88565b6020815191012014613075565b8373__$418a42c2ace6135936f69e0acb768a6277$__803b156109355781604051809263da18ebaf60e01b82528180611d0b888a8c600485016130b3565b03915af4801561165457611d58575b5050611d25906130de565b6001600160a01b03909116917faff6e534ab1a03be3cfb349ea9a41ee6cdc768addd7f0e2c3dab67571d8ac3048480a480f35b81611d6291612d92565b611d6d578338611d1a565b8380fd5b611d8591503d8086833e6104a28183612d92565b38611c88565b503461024e57602036600319011261024e57611da5612c2c565b60008051602061391a833981519152825260208281526040808420336000908152925290205460ff168015611fb6575b611dde906130fe565b6000805160206138fa8339815191528252602082815260408084206001600160a01b0384166000908152925290205460ff16611f53575b6001600160a01b03168082526001602052604082208054839190611e3890612e4e565b80611f11575b50505b60025480821015611f0b5782611e5683612ff6565b905460039190911b1c6001600160a01b031614611e765750600101611e41565b9091506000198101908111611ef75790610aa1611e95611ead93612ff6565b905460039190911b1c6001600160a01b031691612ff6565b6002548015611ee35760001901611edd611ec8826002613011565b81549060018060a01b039060031b1b19169055565b60025580f35b634e487b7160e01b82526031600452602482fd5b634e487b7160e01b83526011600452602483fd5b50505080f35b601f8111600114611f275750555b813880611e3e565b81835260208320611f4391601f0160051c81019060010161314a565b8082528160208120915555611f1f565b6000805160206138fa833981519152808352602083815260408085206001600160a01b03851660008181529190935220805460ff1916905533917ff6391f5c32d9c69d2a47ea670b442974b53935d1edc7fd64eb21e047a839171b8580a4611e15565b50337f00000000000000000000000000000000000000000000000000000000000000006001600160a01b031614611dd5565b503461024e57602036600319011261024e576020612016600435600052600060205260016040600020015490565b604051908152f35b503461024e57604036600319011261024e5760043561203b612c42565b818352600660205261205282604085205414612e0a565b600f546040516386c3441560e01b8152336004820152908490829060249082906001600160a01b03165afa90811561120757849161216d575b5061209881511515613029565b6120c38151602083012084865260066020526112f5611cc06001604089200160405192838092612e88565b73__$418a42c2ace6135936f69e0acb768a6277$__803b15610fee5784604051809263db810d4760e01b8252818061210087898b600485016130b3565b03915af480156121625761214c575b50612119906130de565b6001600160a01b03909116917fc2423a58507863fe4ba6405dd105f958afc6ee0eff57522e1971a36e8fafd73c8480a480f35b9361215b816121199396612d92565b939061210f565b6040513d87823e3d90fd5b61218191503d8086833e6104a28183612d92565b3861208b565b503461024e57602036600319011261024e576121a1612c2c565b7f00000000000000000000000000000000000000000000000000000000000000006001600160a01b0316906121d7338314612f87565b6001600160a01b03169081146123e75760008051602061391a8339815191528252816020526040822081835260205260ff604083205416156123b35760008051602061391a8339815191528252816020526040822081835260205260ff60408320541661234e575b808252600460205260ff60408320541661227d575b33907fdb9d5d31320daf5bc7181d565b6da4d12e30f0f4d5aa324a992426c14a1d19ce8380a380f35b815b60035480821015612347578261229483612fc5565b905460039190911b1c6001600160a01b0316146122b4575060010161227f565b60001981019081116123335790610aa16122d06122e893612fc5565b905460039190911b1c6001600160a01b031691612fc5565b600354801561231f5760001901612303611ec8826003613011565b600355808252600460205260408220805460ff19169055612254565b634e487b7160e01b83526031600452602483fd5b634e487b7160e01b84526011600452602484fd5b5050612254565b60008051602061391a833981519152825281602052604082208183526020526040822060ff198154169055338160008051602061391a8339815191527ff6391f5c32d9c69d2a47ea670b442974b53935d1edc7fd64eb21e047a839171b8580a461223f565b60405162461bcd60e51b815260206004820152600c60248201526b2737ba1030b71030b236b4b760a11b6044820152606490fd5b60405162461bcd60e51b815260206004820152601960248201527f43616e6e6f742072656d6f76652073757065722061646d696e000000000000006044820152606490fd5b503461024e578060031936011261024e576020600e54604051908152f35b503461024e578060031936011261024e57600f546040516001600160a01b039091168152602090f35b503461024e578060031936011261024e576020600b54604051908152f35b503461024e57604036600319011261024e57600435602435801515809103610931576124bb6134f1565b818352600c60205260408320600301546001600160a01b031633036125235760207fc49db19e98f37a91c758a4b59695c5a8babbdb9ee2ff7215a577c3b6c2f8575491838552600c82526005604086200160ff1981541660ff8316179055604051908152a280f35b60405162461bcd60e51b815260206004820152600f60248201526e2737ba103a34329031b932b0ba37b960891b6044820152606490fd5b503461024e57602036600319011261024e57600435612577612db3565b50808252600660205261258f81604084205414612e0a565b815260066020526040812090604051906125a882612d45565b825482526040516125c0816112f58160018801612e88565b60208301526040516125d9816112f58160028801612e88565b60408381019190915260038401546001600160a01b0316606084015251612607816112f58160048801612e88565b6080830152604051612620816112f58160058801612e88565b60a0830152604051612639816112f58160068801612e88565b60c083015260ff600784015416906020821015612696575060e082015260088083015461010083015260099092015460ff8116151561012083015290911c6001600160a01b03166101408201526040519081906102bc9082612b4a565b634e487b7160e01b81526021600452602490fd5b503461024e57602036600319011261024e5760043563ffffffff60e01b811680910361093557602090637965db0b60e01b81149081156126f0575b506040519015158152f35b6301ffc9a760e01b149050826126e5565b503461024e57602036600319011261024e576004359061271f612db3565b50818152600660205261273782604083205414612e0a565b818152600660205260408120906040519161275183612d45565b80548352604051612769816112f58160018601612e88565b60208401908152604051612784816112f58160028701612e88565b60408581019190915260038301546001600160a01b03166060860152516127b2816112f58160048701612e88565b6080850152604051906127d3826127cc8160058701612e88565b0383612d92565b60a08501918252604051926127f6846127ef8160068501612e88565b0385612d92565b60c0860193845260ff6007820154166020811015612acb5760e087015260088082015461010088015260099091015460ff81161515610120880152901c6001600160a01b031661014086018181529185913314612ac2575b87865260096020908152604080882033895290915286205460ff16612ab9575b60008051602061391a83398151915286526020868152604080882033895290915286205460ff168015612a87575b612a7e575b600f546040516386c3441560e01b815233600482015291908790839060249082906001600160a01b03165afa918215612a73578792612a57575b5081518015159283612a3d575b505050612a35575b156129e6576102bc95845260096020526040842060018060a01b033316855260205260ff6040852054161590816129d1575b50806129a3575b80612970575b612943575b50505060405191829182612b4a565b60405190612952602083612d92565b8382525260405191612965602084612d92565b825252388080612934565b50337f00000000000000000000000000000000000000000000000000000000000000006001600160a01b0316141561292f565b5060008051602061391a83398151915283526020838152604080852033865290915283205460ff1615612929565b516001600160a01b0316331415905038612922565b60405162461bcd60e51b815260206004820152602160248201527f4e6f207065726d697373696f6e20746f20766965772074686973207265636f726044820152601960fa1b6064820152608490fd5b5060016128f0565b6020919293500120905160208151910120143880806128e8565b612a6c9192503d8089833e6104a28183612d92565b90386128db565b6040513d89823e3d90fd5b600191506128a1565b50337f00000000000000000000000000000000000000000000000000000000000000006001600160a01b03161461289c565b6001915061286e565b6001915061284e565b634e487b7160e01b86526021600452602486fd5b60005b838110612af25750506000910152565b8181015183820152602001612ae2565b90602091612b1b81518092818552858086019101612adf565b601f01601f1916010190565b906020821015612b345752565b634e487b7160e01b600052602160045260246000fd5b6020815281516020820152610160612bea612bd4612bbe612b93612b7d6020880151866040890152610180880190612b02565b6040880151878203601f19016060890152612b02565b60608701516001600160a01b0316608087810191909152870151868203601f190160a0880152612b02565b60a0860151858203601f190160c0870152612b02565b60c0850151848203601f190160e0860152612b02565b92612bfe60e0820151610100850190612b27565b610100810151610120840152610120810151151561014084015261014060018060a01b039101511691015290565b600435906001600160a01b03821682036108e457565b602435906001600160a01b03821682036108e457565b9181601f840112156108e4578235916001600160401b0383116108e457602083818601950101116108e457565b602060408183019282815284518094520192019060005b818110612ca95750505090565b8251845260209384019390920191600101612c9c565b9060406003198301126108e4576004356001600160a01b03811681036108e45791602435906001600160401b0382116108e457612cfe91600401612c58565b9091565b602060408183019282815284518094520192019060005b818110612d265750505090565b82516001600160a01b0316845260209384019390920191600101612d19565b61016081019081106001600160401b03821117612d6157604052565b634e487b7160e01b600052604160045260246000fd5b60c081019081106001600160401b03821117612d6157604052565b90601f801991011681019081106001600160401b03821117612d6157604052565b60405190612dc082612d45565b600061014083828152606060208201526060604082015282606082015260606080820152606060a0820152606060c08201528260e082015282610100820152826101208201520152565b15612e1157565b60405162461bcd60e51b8152602060048201526015602482015274149958dbdc9908191bd95cc81b9bdd08195e1a5cdd605a1b6044820152606490fd5b90600182811c92168015612e7e575b6020831014612e6857565b634e487b7160e01b600052602260045260246000fd5b91607f1691612e5d565b60009291815491612e9883612e4e565b8083529260018116908115612eee5750600114612eb457505050565b60009081526020812093945091925b838310612ed4575060209250010190565b600181602092949394548385870101520191019190612ec3565b915050602093945060ff929192191683830152151560051b010190565b6001600160401b038111612d6157601f01601f191660200190565b6020818303126108e4578051906001600160401b0382116108e4570181601f820112156108e4578051612f5881612f0b565b92612f666040519485612d92565b818452602082840101116108e457612f849160208085019101612adf565b90565b15612f8e57565b60405162461bcd60e51b815260206004820152600f60248201526e2737ba1039bab832b91030b236b4b760891b6044820152606490fd5b600354811015612fe057600360005260206000200190600090565b634e487b7160e01b600052603260045260246000fd5b600254811015612fe057600260005260206000200190600090565b8054821015612fe05760005260206000200190600090565b1561303057565b60405162461bcd60e51b815260206004820152601860248201527f4e6f74206120726567697374657265642073747564656e7400000000000000006044820152606490fd5b1561307c57565b60405162461bcd60e51b815260206004820152600f60248201526e139bdd081e5bdd5c881c9958dbdc99608a1b6044820152606490fd5b612f84939260809260068352602083015260018060a01b031660408201528160608201520190612b02565b6130f690602060405192828480945193849201612adf565b810103902090565b1561310557565b60405162461bcd60e51b815260206004820152601860248201527f4e6f742061646d696e206f722073757065722061646d696e00000000000000006044820152606490fd5b818110613155575050565b6000815560010161314a565b6001600160401b038111612d615760051b60200190565b6020818303126108e4578051906001600160401b0382116108e457019080601f830112156108e45781516131ab81613161565b926131b96040519485612d92565b81845260208085019260051b8201019283116108e457602001905b8282106131e15750505090565b81518152602091820191016131d4565b906131fb82613161565b6132086040519182612d92565b8281528092613219601f1991613161565b0190602036910137565b8051821015612fe05760209160051b010190565b60001981146132465760010190565b634e487b7160e01b600052601160045260246000fd5b600f54604051632d056f1360e11b81526001600160a01b03928316600482018190529392909160009183916024918391165afa9081156134805760009161348c575b5060405192631b13abfd60e11b845260066004850152602484015260008360448173__$418a42c2ace6135936f69e0acb768a6277$__5af492831561348057600093613465575b5080518015613461576020918161330484936040518096819501612adf565b810160078152030190206040518082602082945493848152019060005260206000209260005b81811061344857505061333f92500382612d92565b82518151810180911161324657613355906131f1565b92600091825b825184101561338d576133856001916133748686613223565b5161337f828a613223565b52613237565b93019261335b565b915092915060005b835181101561340a576000805b8381106133dd575b50156133b9575b600101613395565b906133d56001916133ca8487613223565b5161337f8289613223565b9190506133b1565b6133e78387613223565b516133f28289613223565b5114613400576001016133a2565b50506001386133aa565b50909150613417816131f1565b9060005b818110613429575090925050565b8061343660019287613223565b516134418286613223565b520161341b565b845483526001948501948694506020909301920161332a565b5050565b61347991933d8091833e6111f88183612d92565b91386132e5565b6040513d6000823e3d90fd5b6134a191503d806000833e6104a28183612d92565b3861329e565b908060209392818452848401376000828201840152601f01601f1916010190565b916020916134e1919594956040855260408501916134a7565b6001600160a01b03909416910152565b3360009081527f1a7760066bd1f06df3a1a816a948cb99a3a2e8ffa5089500e84706868bfe072d602052604090205460ff161561352a57565b6135f46135363361370d565b6135d460116135526000805160206138fa83398151915261384d565b9260376040519485927f416363657373436f6e74726f6c3a206163636f756e742000000000000000000060208501526135948151809260208688019101612adf565b83017001034b99036b4b9b9b4b733903937b6329607d1b838201526135c3825180936020604885019101612adf565b01010301601f198101835282612d92565b60405162461bcd60e51b8152602060048201529182916024830190612b02565b0390fd5b60008181526020818152604080832033845290915290205460ff161561361b5750565b6135f4906135d460116135526136303361370d565b9361384d565b6000818152602081815260408083206001600160a01b038616845290915290205460ff16613662575050565b6000818152602081815260408083206001600160a01b0395909516808452949091528120805460ff19169055339291907ff6391f5c32d9c69d2a47ea670b442974b53935d1edc7fd64eb21e047a839171b9080a4565b60ff600554166136c457565b60405162461bcd60e51b815260206004820152601060248201526f14185d5cd8589b194e881c185d5cd95960821b6044820152606490fd5b908151811015612fe0570160200190565b60009061371a602a612f0b565b916137286040519384612d92565b602a8352613736602a612f0b565b6020840190601f19013682378351156138395760309053825160011015613825576078602184015350602960005b600182116137b95750506137755790565b606460405162461bcd60e51b815260206004820152602060248201527f537472696e67733a20686578206c656e67746820696e73756666696369656e746044820152fd5b9091600f81166010811015613811576f181899199a1a9b1b9c1cb0b131b232b360811b901a6137e884866136fc565b5360041c9180156137fd576000190190613764565b634e487b7160e01b82526011600452602482fd5b634e487b7160e01b83526032600452602483fd5b634e487b7160e01b81526032600452602490fd5b634e487b7160e01b82526032600452602482fd5b60009061385a6042612f0b565b916138686040519384612d92565b604283526138766042612f0b565b6020840190601f19013682378351156138395760309053825160011015613825576078602184015350604160005b600182116138b55750506137755790565b9091600f81166010811015613811576f181899199a1a9b1b9c1cb0b131b232b360811b901a6138e484866136fc565b5360041c9180156137fd5760001901906138a456fe5bb0bf1fabd5e975fc7a4520766d9e86e0eb281f8c7c44fcd3dfe60a11e786caa49807205ce4d355092ef5a8a18f56e8913cf4a201fbe287825b095693c21775a2646970667358221220b6798057b40b04f97d7011bd245f500dd6197140a4bba2e03411efe65fa97b8264736f6c634300081c0033608080604052346015576108d3908161001b8239f35b600080fdfe608080604052600436101561001357600080fd5b60003560e01c908163528bcbac146101f5575080635a0ade26146101ab57806386c34415146101ab578063a82e3b001461014d578063bd5ba462146100f6578063c6ddfefb146100b75763ce09213b1461006c57600080fd5b346100b257602061007c3661080d565b8161009060405192838151938492016106be565b600190820190815281900382019020546040516001600160a01b039091168152f35b600080fd5b346100b257602060ff6100e0826100cd3661080d565b81604051938285809451938492016106be565b8101600081520301902054166040519015158152f35b346100b25760203660031901126100b25760043567ffffffffffffffff81116100b25760ff602061012c8193369060040161067a565b91908260405193849283378101600081520301902054166040519015158152f35b346100b25760203660031901126100b25760043567ffffffffffffffff81116100b25760206101818192369060040161067a565b9190826040519384928337600190820190815203019020546040516001600160a01b039091168152f35b346100b25760203660031901126100b2576001600160a01b036101cc6106a8565b1660005260026020526101f16101e56040600020610769565b604051918291826106e1565b0390f35b346100b25760403660031901126100b25760043567ffffffffffffffff81116100b25761022690369060040161067a565b6024356001600160a01b03811693908490036100b25781156106435750821561060c5760ff6040518284823760208184810160008152030190205416600014610484576040518183823760018183019081528190036020019020546001600160a01b0316918261041a575b604051828282376020818481016001815203019020846bffffffffffffffffffffffff60a01b825416179055836000526002602052604060002067ffffffffffffffff8311610404576102e4815461070d565b601f81116103c7575b50600083601f8111600114610364578061031d92600091610359575b508160011b916000199060031b1c19161790565b90555b8160405192839283378101600081520390207f55066e0ef5d53e826887694254397ccd8c9936f6bab5e8d7592b001695658874600080a4005b905084013588610309565b50818152602081209084601f198116825b8181106103ac575010610392575b5050600183811b019055610320565b830135600019600386901b60f8161c191690558580610383565b86840135855560019094019360209384019388935001610375565b6103f490826000526020600020601f860160051c810191602087106103fa575b601f0160051c0190610886565b856102ed565b90915081906103e7565b634e487b7160e01b600052604160045260246000fd5b8260005260026020526040600020610432815461070d565b9081610440575b5050610291565b81601f600093116001146104585750555b8480610439565b8183526020832061047491601f0160051c810190600101610886565b8082528160208120915555610451565b90604051828282376020818481016000815203019020600160ff19825416179055604051828282376020818481016001815203019020836bffffffffffffffffffffffff60a01b825416179055826000526002602052604060002067ffffffffffffffff8311610404576104f8815461070d565b601f81116105da575b50600083601f811160011461057757806105309260009161056c57508160011b916000199060031b1c19161790565b90555b8160405192839283378101600081520390207faa541cc9975b48a66ff0fcced1b6a07701b89f4bf70332c0e06f406f61b8e979600080a3005b905084013587610309565b50818152602081209084601f198116825b8181106105bf5750106105a5575b5050600183811b019055610533565b830135600019600386901b60f8161c191690558480610596565b86840135855560019094019360209384019388935001610588565b61060690826000526020600020601f860160051c810191602087106103fa57601f0160051c0190610886565b84610501565b60405162461bcd60e51b815260206004820152600f60248201526e496e76616c6964206164647265737360881b6044820152606490fd5b62461bcd60e51b8152602060048201526012602482015271125b9d985b1a59081cdd1d59195b9d08125160721b6044820152606490fd5b9181601f840112156100b25782359167ffffffffffffffff83116100b257602083818601950101116100b257565b600435906001600160a01b03821682036100b257565b60005b8381106106d15750506000910152565b81810151838201526020016106c1565b6040916020825261070181518092816020860152602086860191016106be565b601f01601f1916010190565b90600182811c9216801561073d575b602083101461072757565b634e487b7160e01b600052602260045260246000fd5b91607f169161071c565b90601f8019910116810190811067ffffffffffffffff82111761040457604052565b906040519182600082549261077d8461070d565b80845293600181169081156107eb57506001146107a4575b506107a292500383610747565b565b90506000929192526020600020906000915b8183106107cf5750509060206107a29282010138610795565b60209193508060019154838589010152019101909184926107b6565b9050602092506107a294915060ff191682840152151560051b82010138610795565b60206003198201126100b25760043567ffffffffffffffff81116100b257816023820112156100b25780600401359067ffffffffffffffff82116104045760405192610863601f8401601f191660200185610747565b828452602483830101116100b25781600092602460209301838601378301015290565b818110610891575050565b6000815560010161088656fea264697066735822122033237b18dc1faeefcf2acb1e18572c827f0e9f064f28e470e2afe042dec4361264736f6c634300081c00332f8788117e7eff1d82e926ec794901d17c78024a50270940304540a733656f0d7d7ffb7a348e1c6a02869081a26547b49160dd3df72d1d75a570eb9b698292ec2155616cb3971b66bf28f1af4ff3722784e6d7a4b2b25bc9fe623232dcd690c8ad3228b676f7d3cd4284a5443f17f1962b36e491b30a40b2405849e597ba5fb5",
  "linkReferences": {
    "contracts/libraries/RecordStorage.sol": {
      "RecordStorage": [
        {
          "length": 20,
          "start": 2864
        },
        {
          "length": 20,
          "start": 4397
        },
        {
          "length": 20,
          "start": 5204
        },
        {
          "length": 20,
          "start": 8115
        },
        {
          "length": 20,
          "start": 9128
        },
        {
          "length": 20,
          "start": 13732
        }
      ]
    }
  },
  "deployedLinkReferences": {
    "contracts/libraries/RecordStorage.sol": {
      "RecordStorage": [
        {
          "length": 20,
          "start": 2125
        },
        {
          "length": 20,
          "start": 3658
        },
        {
          "length": 20,
          "start": 4465
        },
        {
          "length": 20,
          "start": 7376
        },
        {
          "length": 20,
          "start": 8389
        },
        {
          "length": 20,
          "start": 12993
        }
      ]
    }
  }
}