{
  "_format": "hh-sol-artifact-1",
  "contractName": "AcademicRecords",
  "sourceName": "contracts/AcademicRecords.sol",
  "abi": [
    {
      "inputs": [],
      "stateMutability": "nonpayable",
      "type": "constructor"
    },
    {
      "anonymous": false,
      "inputs": [
        {
          "indexed": true,
          "internalType": "address",
          "name": "admin",
          "type": "address"
        },
        {
          "indexed": true,
          "internalType": "address",
          "name": "addedBy",
          "type": "address"
        }
      ],
      "name": "AdminAdded",
      "type": "event"
    },
    {
      "anonymous": false,
      "inputs": [
        {
          "indexed": true,
          "internalType": "address",
          "name": "admin",
          "type": "address"
        },
        {
          "indexed": true,
          "internalType": "address",
          "name": "removedBy",
          "type": "address"
        }
      ],
      "name": "AdminRemoved",
      "type": "event"
    },
    {
      "anonymous": false,
      "inputs": [
        {
          "indexed": true,
          "internalType": "uint256",
          "name": "typeId",
          "type": "uint256"
        },
        {
          "indexed": false,
          "internalType": "string",
          "name": "name",
          "type": "string"
        },
        {
          "indexed": true,
          "internalType": "address",
          "name": "creator",
          "type": "address"
        }
      ],
      "name": "CustomRecordTypeCreated",
      "type": "event"
    },
    {
      "anonymous": false,
      "inputs": [
        {
          "indexed": true,
          "internalType": "uint256",
          "name": "typeId",
          "type": "uint256"
        },
        {
          "indexed": false,
          "internalType": "bool",
          "name": "isActive",
          "type": "bool"
        }
      ],
      "name": "CustomRecordTypeUpdated",
      "type": "event"
    },
    {
      "anonymous": false,
      "inputs": [
        {
          "indexed": false,
          "internalType": "address",
          "name": "account",
          "type": "address"
        }
      ],
      "name": "Paused",
      "type": "event"
    },
    {
      "anonymous": false,
      "inputs": [
        {
          "indexed": true,
          "internalType": "uint256",
          "name": "recordId",
          "type": "uint256"
        },
        {
          "indexed": false,
          "internalType": "address",
          "name": "accessor",
          "type": "address"
        }
      ],
      "name": "RecordAccessed",
      "type": "event"
    },
    {
      "anonymous": false,
      "inputs": [
        {
          "indexed": true,
          "internalType": "uint256",
          "name": "recordId",
          "type": "uint256"
        },
        {
          "indexed": false,
          "internalType": "string",
          "name": "studentId",
          "type": "string"
        },
        {
          "indexed": false,
          "internalType": "enum IAcademicRecords.RecordType",
          "name": "recordType",
          "type": "uint8"
        },
        {
          "indexed": false,
          "internalType": "address",
          "name": "issuer",
          "type": "address"
        }
      ],
      "name": "RecordAdded",
      "type": "event"
    },
    {
      "anonymous": false,
      "inputs": [
        {
          "indexed": true,
          "internalType": "uint256",
          "name": "recordId",
          "type": "uint256"
        },
        {
          "indexed": true,
          "internalType": "string",
          "name": "studentId",
          "type": "string"
        },
        {
          "indexed": true,
          "internalType": "address",
          "name": "sharedWith",
          "type": "address"
        }
      ],
      "name": "RecordShared",
      "type": "event"
    },
    {
      "anonymous": false,
      "inputs": [
        {
          "indexed": true,
          "internalType": "uint256",
          "name": "recordId",
          "type": "uint256"
        },
        {
          "indexed": true,
          "internalType": "string",
          "name": "studentId",
          "type": "string"
        },
        {
          "indexed": true,
          "internalType": "address",
          "name": "unsharedWith",
          "type": "address"
        }
      ],
      "name": "RecordUnshared",
      "type": "event"
    },
    {
      "anonymous": false,
      "inputs": [
        {
          "indexed": true,
          "internalType": "uint256",
          "name": "recordId",
          "type": "uint256"
        },
        {
          "indexed": false,
          "internalType": "address",
          "name": "verifier",
          "type": "address"
        }
      ],
      "name": "RecordVerified",
      "type": "event"
    },
    {
      "anonymous": false,
      "inputs": [
        {
          "indexed": true,
          "internalType": "bytes32",
          "name": "role",
          "type": "bytes32"
        },
        {
          "indexed": true,
          "internalType": "bytes32",
          "name": "previousAdminRole",
          "type": "bytes32"
        },
        {
          "indexed": true,
          "internalType": "bytes32",
          "name": "newAdminRole",
          "type": "bytes32"
        }
      ],
      "name": "RoleAdminChanged",
      "type": "event"
    },
    {
      "anonymous": false,
      "inputs": [
        {
          "indexed": true,
          "internalType": "bytes32",
          "name": "role",
          "type": "bytes32"
        },
        {
          "indexed": true,
          "internalType": "address",
          "name": "account",
          "type": "address"
        },
        {
          "indexed": true,
          "internalType": "address",
          "name": "sender",
          "type": "address"
        }
      ],
      "name": "RoleGranted",
      "type": "event"
    },
    {
      "anonymous": false,
      "inputs": [
        {
          "indexed": true,
          "internalType": "bytes32",
          "name": "role",
          "type": "bytes32"
        },
        {
          "indexed": true,
          "internalType": "address",
          "name": "account",
          "type": "address"
        },
        {
          "indexed": true,
          "internalType": "address",
          "name": "sender",
          "type": "address"
        }
      ],
      "name": "RoleRevoked",
      "type": "event"
    },
    {
      "anonymous": false,
      "inputs": [
        {
          "indexed": true,
          "internalType": "string",
          "name": "studentId",
          "type": "string"
        },
        {
          "indexed": true,
          "internalType": "address",
          "name": "university",
          "type": "address"
        }
      ],
      "name": "StudentDeleted",
      "type": "event"
    },
    {
      "anonymous": false,
      "inputs": [
        {
          "indexed": true,
          "internalType": "address",
          "name": "university",
          "type": "address"
        },
        {
          "indexed": false,
          "internalType": "string",
          "name": "name",
          "type": "string"
        }
      ],
      "name": "UniversityNameUpdated",
      "type": "event"
    },
    {
      "anonymous": false,
      "inputs": [
        {
          "indexed": false,
          "internalType": "address",
          "name": "account",
          "type": "address"
        }
      ],
      "name": "Unpaused",
      "type": "event"
    },
    {
      "inputs": [],
      "name": "ADMIN_ROLE",
      "outputs": [
        {
          "internalType": "bytes32",
          "name": "",
          "type": "bytes32"
        }
      ],
      "stateMutability": "view",
      "type": "function"
    },
    {
      "inputs": [],
      "name": "DEFAULT_ADMIN_ROLE",
      "outputs": [
        {
          "internalType": "bytes32",
          "name": "",
          "type": "bytes32"
        }
      ],
      "stateMutability": "view",
      "type": "function"
    },
    {
      "inputs": [],
      "name": "SUPER_ADMIN",
      "outputs": [
        {
          "internalType": "address",
          "name": "",
          "type": "address"
        }
      ],
      "stateMutability": "view",
      "type": "function"
    },
    {
      "inputs": [],
      "name": "SUPER_ADMIN_ROLE",
      "outputs": [
        {
          "internalType": "bytes32",
          "name": "",
          "type": "bytes32"
        }
      ],
      "stateMutability": "view",
      "type": "function"
    },
    {
      "inputs": [],
      "name": "UNIVERSITY_ROLE",
      "outputs": [
        {
          "internalType": "bytes32",
          "name": "",
          "type": "bytes32"
        }
      ],
      "stateMutability": "view",
      "type": "function"
    },
    {
      "inputs": [
        {
          "internalType": "address",
          "name": "adminAddress",
          "type": "address"
        }
      ],
      "name": "addAdmin",
      "outputs": [],
      "stateMutability": "nonpayable",
      "type": "function"
    },
    {
      "inputs": [
        {
          "internalType": "string",
          "name": "name",
          "type": "string"
        },
        {
          "internalType": "string",
          "name": "description",
          "type": "string"
        }
      ],
      "name": "addCustomRecordType",
      "outputs": [
        {
          "internalType": "uint256",
          "name": "",
          "type": "uint256"
        }
      ],
      "stateMutability": "nonpayable",
      "type": "function"
    },
    {
      "inputs": [
        {
          "internalType": "string",
          "name": "studentId",
          "type": "string"
        },
        {
          "internalType": "string",
          "name": "studentName",
          "type": "string"
        },
        {
          "internalType": "address",
          "name": "studentAddress",
          "type": "address"
        },
        {
          "internalType": "string",
          "name": "universityName",
          "type": "string"
        },
        {
          "internalType": "string",
          "name": "ipfsHash",
          "type": "string"
        },
        {
          "internalType": "string",
          "name": "metadataHash",
          "type": "string"
        },
        {
          "internalType": "enum IAcademicRecords.RecordType",
          "name": "recordType",
          "type": "uint8"
        }
      ],
      "name": "addRecord",
      "outputs": [
        {
          "internalType": "uint256",
          "name": "",
          "type": "uint256"
        }
      ],
      "stateMutability": "nonpayable",
      "type": "function"
    },
    {
      "inputs": [
        {
          "internalType": "address",
          "name": "universityAddress",
          "type": "address"
        },
        {
          "internalType": "string",
          "name": "name",
          "type": "string"
        }
      ],
      "name": "addUniversity",
      "outputs": [],
      "stateMutability": "nonpayable",
      "type": "function"
    },
    {
      "inputs": [
        {
          "internalType": "string",
          "name": "studentId",
          "type": "string"
        }
      ],
      "name": "deleteStudent",
      "outputs": [],
      "stateMutability": "nonpayable",
      "type": "function"
    },
    {
      "inputs": [],
      "name": "getAllAdmins",
      "outputs": [
        {
          "internalType": "address[]",
          "name": "",
          "type": "address[]"
        }
      ],
      "stateMutability": "view",
      "type": "function"
    },
    {
      "inputs": [],
      "name": "getAllUniversities",
      "outputs": [
        {
          "internalType": "address[]",
          "name": "",
          "type": "address[]"
        }
      ],
      "stateMutability": "view",
      "type": "function"
    },
    {
      "inputs": [
        {
          "internalType": "uint256",
          "name": "typeId",
          "type": "uint256"
        }
      ],
      "name": "getCustomRecordType",
      "outputs": [
        {
          "components": [
            {
              "internalType": "uint256",
              "name": "id",
              "type": "uint256"
            },
            {
              "internalType": "string",
              "name": "name",
              "type": "string"
            },
            {
              "internalType": "string",
              "name": "description",
              "type": "string"
            },
            {
              "internalType": "address",
              "name": "creator",
              "type": "address"
            },
            {
              "internalType": "uint256",
              "name": "timestamp",
              "type": "uint256"
            },
            {
              "internalType": "bool",
              "name": "isActive",
              "type": "bool"
            }
          ],
          "internalType": "struct IAcademicRecords.CustomRecordType",
          "name": "",
          "type": "tuple"
        }
      ],
      "stateMutability": "view",
      "type": "function"
    },
    {
      "inputs": [
        {
          "internalType": "uint256",
          "name": "recordId",
          "type": "uint256"
        }
      ],
      "name": "getRecord",
      "outputs": [
        {
          "components": [
            {
              "internalType": "uint256",
              "name": "id",
              "type": "uint256"
            },
            {
              "internalType": "string",
              "name": "studentId",
              "type": "string"
            },
            {
              "internalType": "string",
              "name": "studentName",
              "type": "string"
            },
            {
              "internalType": "address",
              "name": "studentAddress",
              "type": "address"
            },
            {
              "internalType": "string",
              "name": "universityName",
              "type": "string"
            },
            {
              "internalType": "string",
              "name": "ipfsHash",
              "type": "string"
            },
            {
              "internalType": "string",
              "name": "metadataHash",
              "type": "string"
            },
            {
              "internalType": "enum IAcademicRecords.RecordType",
              "name": "recordType",
              "type": "uint8"
            },
            {
              "internalType": "uint256",
              "name": "timestamp",
              "type": "uint256"
            },
            {
              "internalType": "bool",
              "name": "isVerified",
              "type": "bool"
            },
            {
              "internalType": "address",
              "name": "issuer",
              "type": "address"
            }
          ],
          "internalType": "struct IAcademicRecords.Record",
          "name": "",
          "type": "tuple"
        }
      ],
      "stateMutability": "view",
      "type": "function"
    },
    {
      "inputs": [
        {
          "internalType": "uint256",
          "name": "recordId",
          "type": "uint256"
        }
      ],
      "name": "getRecordWithPermission",
      "outputs": [
        {
          "components": [
            {
              "internalType": "uint256",
              "name": "id",
              "type": "uint256"
            },
            {
              "internalType": "string",
              "name": "studentId",
              "type": "string"
            },
            {
              "internalType": "string",
              "name": "studentName",
              "type": "string"
            },
            {
              "internalType": "address",
              "name": "studentAddress",
              "type": "address"
            },
            {
              "internalType": "string",
              "name": "universityName",
              "type": "string"
            },
            {
              "internalType": "string",
              "name": "ipfsHash",
              "type": "string"
            },
            {
              "internalType": "string",
              "name": "metadataHash",
              "type": "string"
            },
            {
              "internalType": "enum IAcademicRecords.RecordType",
              "name": "recordType",
              "type": "uint8"
            },
            {
              "internalType": "uint256",
              "name": "timestamp",
              "type": "uint256"
            },
            {
              "internalType": "bool",
              "name": "isVerified",
              "type": "bool"
            },
            {
              "internalType": "address",
              "name": "issuer",
              "type": "address"
            }
          ],
          "internalType": "struct IAcademicRecords.Record",
          "name": "",
          "type": "tuple"
        }
      ],
      "stateMutability": "view",
      "type": "function"
    },
    {
      "inputs": [
        {
          "internalType": "bytes32",
          "name": "role",
          "type": "bytes32"
        }
      ],
      "name": "getRoleAdmin",
      "outputs": [
        {
          "internalType": "bytes32",
          "name": "",
          "type": "bytes32"
        }
      ],
      "stateMutability": "view",
      "type": "function"
    },
    {
      "inputs": [
        {
          "internalType": "address",
          "name": "sharedWith",
          "type": "address"
        }
      ],
      "name": "getSharedRecords",
      "outputs": [
        {
          "internalType": "uint256[]",
          "name": "",
          "type": "uint256[]"
        }
      ],
      "stateMutability": "view",
      "type": "function"
    },
    {
      "inputs": [
        {
          "internalType": "string",
          "name": "studentId",
          "type": "string"
        }
      ],
      "name": "getStudentRecords",
      "outputs": [
        {
          "internalType": "uint256[]",
          "name": "",
          "type": "uint256[]"
        }
      ],
      "stateMutability": "view",
      "type": "function"
    },
    {
      "inputs": [],
      "name": "getTotalCustomTypes",
      "outputs": [
        {
          "internalType": "uint256",
          "name": "",
          "type": "uint256"
        }
      ],
      "stateMutability": "view",
      "type": "function"
    },
    {
      "inputs": [],
      "name": "getTotalRecords",
      "outputs": [
        {
          "internalType": "uint256",
          "name": "",
          "type": "uint256"
        }
      ],
      "stateMutability": "view",
      "type": "function"
    },
    {
      "inputs": [],
      "name": "getUniversityCustomTypes",
      "outputs": [
        {
          "internalType": "uint256[]",
          "name": "",
          "type": "uint256[]"
        }
      ],
      "stateMutability": "view",
      "type": "function"
    },
    {
      "inputs": [
        {
          "internalType": "address",
          "name": "universityAddress",
          "type": "address"
        }
      ],
      "name": "getUniversityName",
      "outputs": [
        {
          "internalType": "string",
          "name": "",
          "type": "string"
        }
      ],
      "stateMutability": "view",
      "type": "function"
    },
    {
      "inputs": [],
      "name": "getUniversityRecords",
      "outputs": [
        {
          "internalType": "uint256[]",
          "name": "",
          "type": "uint256[]"
        }
      ],
      "stateMutability": "view",
      "type": "function"
    },
    {
      "inputs": [
        {
          "internalType": "bytes32",
          "name": "role",
          "type": "bytes32"
        },
        {
          "internalType": "address",
          "name": "account",
          "type": "address"
        }
      ],
      "name": "grantRole",
      "outputs": [],
      "stateMutability": "nonpayable",
      "type": "function"
    },
    {
      "inputs": [
        {
          "internalType": "bytes32",
          "name": "role",
          "type": "bytes32"
        },
        {
          "internalType": "address",
          "name": "account",
          "type": "address"
        }
      ],
      "name": "hasRole",
      "outputs": [
        {
          "internalType": "bool",
          "name": "",
          "type": "bool"
        }
      ],
      "stateMutability": "view",
      "type": "function"
    },
    {
      "inputs": [
        {
          "internalType": "uint256",
          "name": "recordId",
          "type": "uint256"
        },
        {
          "internalType": "address",
          "name": "user",
          "type": "address"
        }
      ],
      "name": "isRecordSharedWith",
      "outputs": [
        {
          "internalType": "bool",
          "name": "",
          "type": "bool"
        }
      ],
      "stateMutability": "view",
      "type": "function"
    },
    {
      "inputs": [],
      "name": "pause",
      "outputs": [],
      "stateMutability": "nonpayable",
      "type": "function"
    },
    {
      "inputs": [],
      "name": "paused",
      "outputs": [
        {
          "internalType": "bool",
          "name": "",
          "type": "bool"
        }
      ],
      "stateMutability": "view",
      "type": "function"
    },
    {
      "inputs": [
        {
          "internalType": "uint256",
          "name": "recordId",
          "type": "uint256"
        }
      ],
      "name": "recordAccess",
      "outputs": [],
      "stateMutability": "nonpayable",
      "type": "function"
    },
    {
      "inputs": [
        {
          "internalType": "string",
          "name": "studentId",
          "type": "string"
        }
      ],
      "name": "registerStudent",
      "outputs": [],
      "stateMutability": "nonpayable",
      "type": "function"
    },
    {
      "inputs": [
        {
          "internalType": "address",
          "name": "adminAddress",
          "type": "address"
        }
      ],
      "name": "removeAdmin",
      "outputs": [],
      "stateMutability": "nonpayable",
      "type": "function"
    },
    {
      "inputs": [
        {
          "internalType": "address",
          "name": "universityAddress",
          "type": "address"
        }
      ],
      "name": "removeUniversity",
      "outputs": [],
      "stateMutability": "nonpayable",
      "type": "function"
    },
    {
      "inputs": [
        {
          "internalType": "bytes32",
          "name": "role",
          "type": "bytes32"
        },
        {
          "internalType": "address",
          "name": "account",
          "type": "address"
        }
      ],
      "name": "renounceRole",
      "outputs": [],
      "stateMutability": "nonpayable",
      "type": "function"
    },
    {
      "inputs": [
        {
          "internalType": "bytes32",
          "name": "role",
          "type": "bytes32"
        },
        {
          "internalType": "address",
          "name": "account",
          "type": "address"
        }
      ],
      "name": "revokeRole",
      "outputs": [],
      "stateMutability": "nonpayable",
      "type": "function"
    },
    {
      "inputs": [
        {
          "internalType": "address",
          "name": "universityAddress",
          "type": "address"
        },
        {
          "internalType": "string",
          "name": "name",
          "type": "string"
        }
      ],
      "name": "setUniversityName",
      "outputs": [],
      "stateMutability": "nonpayable",
      "type": "function"
    },
    {
      "inputs": [
        {
          "internalType": "uint256",
          "name": "recordId",
          "type": "uint256"
        },
        {
          "internalType": "address",
          "name": "sharedWith",
          "type": "address"
        }
      ],
      "name": "shareRecord",
      "outputs": [],
      "stateMutability": "nonpayable",
      "type": "function"
    },
    {
      "inputs": [],
      "name": "studentManagement",
      "outputs": [
        {
          "internalType": "contract StudentManagement",
          "name": "",
          "type": "address"
        }
      ],
      "stateMutability": "view",
      "type": "function"
    },
    {
      "inputs": [
        {
          "internalType": "bytes4",
          "name": "interfaceId",
          "type": "bytes4"
        }
      ],
      "name": "supportsInterface",
      "outputs": [
        {
          "internalType": "bool",
          "name": "",
          "type": "bool"
        }
      ],
      "stateMutability": "view",
      "type": "function"
    },
    {
      "inputs": [],
      "name": "unpause",
      "outputs": [],
      "stateMutability": "nonpayable",
      "type": "function"
    },
    {
      "inputs": [
        {
          "internalType": "uint256",
          "name": "recordId",
          "type": "uint256"
        },
        {
          "internalType": "address",
          "name": "sharedWith",
          "type": "address"
        }
      ],
      "name": "unshareRecord",
      "outputs": [],
      "stateMutability": "nonpayable",
      "type": "function"
    },
    {
      "inputs": [
        {
          "internalType": "uint256",
          "name": "typeId",
          "type": "uint256"
        },
        {
          "internalType": "bool",
          "name": "isActive",
          "type": "bool"
        }
      ],
      "name": "updateCustomRecordType",
      "outputs": [],
      "stateMutability": "nonpayable",
      "type": "function"
    },
    {
      "inputs": [
        {
          "internalType": "uint256",
          "name": "recordId",
          "type": "uint256"
        }
      ],
      "name": "verifyRecord",
      "outputs": [
        {
          "internalType": "bool",
          "name": "",
          "type": "bool"
        }
      ],
      "stateMutability": "view",
      "type": "function"
    }
  ],
  "bytecode": "0x60a0604052346102dd573360808190526000908152600080516020614160833981519152602052604090205460ff161561029d575b336000908152600080516020614140833981519152602052604090205460ff161561023b575b336000908152600080516020614120833981519152602052604090205460ff16156101d9575b600354680100000000000000008110156101ad5760018101806003558110156101c3577fc2575a0e9e593c00f959f8c92f12db2869c3395a3b0502d05e2516446f71f85b0180546001600160a01b0319163390811790915560009081526004602052604090819020805460ff19908116600117909155600580549091169055516108ee8082016001600160401b038111838210176101ad578291613812833903906000f080156101a157600f80546001600160a01b0319166001600160a01b039290921691909117905560405161352f90816102e3823960805181818161076101528181610c120152818161140e015281816114bb015281816115dd015281816118ce01528181611ee9015281816120d2015281816128a301526129ba0152f35b6040513d6000823e3d90fd5b634e487b7160e01b600052604160045260246000fd5b634e487b7160e01b600052603260045260246000fd5b33600081815260008051602061412083398151915260205260408120805460ff1916600117905581907fa49807205ce4d355092ef5a8a18f56e8913cf4a201fbe287825b095693c21775906000805160206141008339815191529080a4610080565b33600081815260008051602061414083398151915260205260408120805460ff1916600117905581907f7613a25ecc738585a232ad50a301178f12b3ba8887d13e138b523c4269c47689906000805160206141008339815191529080a461005a565b33600081815260008051602061416083398151915260205260408120805460ff1916600117905581906000805160206141008339815191528180a4610034565b600080fdfe6080604052600436101561001257600080fd5b6000803560e01c806301d534871461263057806301ffc9a7146125d957806303e9e609146124895780630a2573de146123c05780630aeacb5e146123a25780630aefc3cf146123795780631164fcbf1461235b5780631785f53c146120b65780631caebd5a14611f4d578063248a9ca314611f1757806328f54b2f14611cba5780632c4b038b14611b4e5780632d175a1814611ac25780632f2ff15d146119ff57806336568abe1461196c5780633af4d950146119255780633d178414146118fc5780633f4ba83a146118045780634460bdd6146117c95780635c975abb146117a657806370480275146115bd57806371e174451461151357806375b238fc146114ea5780637c7c7c3c146114a55780638052bc561461143c5780638456cb591461137e578063882f040314611324578063892c43ab146111985780638955895f14610fc257806391d1485414610f7757806392fd707d14610f0e578063967a1c2d14610ec25780639b22b62914610c5c578063a217fddf14610c40578063a908dc621461092e578063ba6093ba1461078f578063baf9077b146104b0578063bcbf71811461039b578063d547741f14610352578063e9523c97146102d4578063f597d994146102465763f795a646146101eb57600080fd5b3461024357602036600319011261024357600435808252600660205261021681604084205414612d39565b7f980d15b088d1127894ac6300da68467873935cb71f64d1ff99f85614bf474c6c6020604051338152a280f35b80fd5b503461024357806003193601126102435760405180916020600254928381520191600282527f405787fa12a823e0f2b7631cc41b3ba8828b3321ca811111fa75cd3aa3bb5ace915b8181106102b5576102b1856102a581870382612cc1565b60405191829182612c31565b0390f35b82546001600160a01b031684526020909301926001928301920161028e565b503461024357806003193601126102435760405180916020600354928381520191600382527fc2575a0e9e593c00f959f8c92f12db2869c3395a3b0502d05e2516446f71f85b915b818110610333576102b1856102a581870382612cc1565b82546001600160a01b031684526020909301926001928301920161031c565b503461024357604036600319011261024357610398600435610372612b71565b9061039361038e82600052600060205260016040600020015490565b6131b8565b6131f6565b80f35b5034610243576020366003190112610243576103b5612b5b565b600f546040516386c3441560e01b8152336004820152908390829060249082906001600160a01b03165afa9081156104a557610415916020918591610483575b5061040281511515612f58565b8160405193828580945193849201612a0e565b8101600a8152030190209060018060a01b03166000526020526040600020604051918260208354918281520192825260208220915b81811061046d576102b18561046181870382612cc1565b60405191829182612bb4565b825484526020909301926001928301920161044a565b61049f91503d8087833e6104978183612cc1565b810190612e55565b386103f5565b6040513d85823e3d90fd5b5034610243576104bf36612bee565b6000805160206134da83398151915284526020848152604080862033600090815292529020549093929060ff16801561075d575b801561074b575b15610706576000805160206134ba8339815191528352602083815260408085206001600160a01b0384166000908152925290205460ff16156106c1576001600160a01b0316808352600160205260408320939091906001600160401b0381116106ad576105678554612d7d565b601f8111610672575b508394601f82116001146105ed576105c2828087987fc27f3bae021ab8e78d67f94f2cd8248055d6ae911c4cf44c62bd025cd3574ee19798916105e2575b508160011b916000199060031b1c19161790565b90555b6105dc604051928392602084526020840191613090565b0390a280f35b9050850135386105ae565b8085526020852095601f198316865b81811061065a575090837fc27f3bae021ab8e78d67f94f2cd8248055d6ae911c4cf44c62bd025cd3574ee19697989210610640575b5050600182811b0190556105c5565b840135600019600385901b60f8161c191690553880610631565b858301358955600190980197602092830192016105fc565b61069d9086865260208620601f840160051c810191602085106106a3575b601f0160051c0190613079565b38610570565b9091508190610690565b634e487b7160e01b84526041600452602484fd5b60405162461bcd60e51b815260206004820152601b60248201527f41646472657373206973206e6f74206120756e697665727369747900000000006044820152606490fd5b60405162461bcd60e51b815260206004820152601a60248201527f4e6f7420617574686f72697a656420746f20736574206e616d650000000000006044820152606490fd5b50336001600160a01b038216146104fa565b50337f00000000000000000000000000000000000000000000000000000000000000006001600160a01b0316146104f3565b5034610243576040366003190112610243576004356001600160401b03811161092a576107c0903690600401612b87565b6024929192356001600160401b038111610926576107e2903690600401612b87565b6107ea6130b1565b82156108f257604051634a0ab76b60e11b8152600c6004820152608060248201529160209183918291610838919061082660848501898c613090565b84810360031901604486015291613090565b336064830152038173__$418a42c2ace6135936f69e0acb768a6277$__5af49283156108e657926108ac575b50817fd86d539582c7bd4f6009dae64cfee262a9ad9897d422fafeb23e9362f287e1e06108a1602095604051918291888352339689840191613090565b0390a3604051908152f35b91506020823d6020116108de575b816108c760209383612cc1565b810103126108d9579051906020610864565b600080fd5b3d91506108ba565b604051903d90823e3d90fd5b60405162461bcd60e51b815260206004820152600c60248201526b496e76616c6964206e616d6560a01b6044820152606490fd5b8280fd5b5080fd5b50346102435761093d36612bee565b6000805160206134da833981519152845260208481526040808620336000908152925290205460ff168015610c0e575b6109769061302d565b6000805160206134ba8339815191528452602084815260408086206001600160a01b0386166000908152925290205460ff16610bd2576000805160206134ba8339815191528452602084815260408086206001600160a01b0386166000908152925290205460ff1615610b6c575b6001600160a01b0383168085526001602052604085209093906001600160401b038311610aba57610a158154612d7d565b601f8111610b3c575b508583601f8111600114610ad95780610a4b928991610ace57508160011b916000199060031b1c19161790565b90555b600254600160401b811015610aba577fc27f3bae021ab8e78d67f94f2cd8248055d6ae911c4cf44c62bd025cd3574ee1939291610a968260016105c594016002556002612f40565b81546001600160a01b0393841660039290921b91821b9390911b1916919091179055565b634e487b7160e01b86526041600452602486fd5b9050860135386105ae565b50818752602087209084601f198116895b818110610b21575010610b07575b5050600183811b019055610a4e565b850135600019600386901b60f8161c191690553880610af8565b88840135855560019094019360209384019388935001610aea565b610b669082885260208820601f860160051c810191602087106106a357601f0160051c0190613079565b38610a1e565b6000805160206134ba833981519152808552602085815260408087206001600160a01b03871660008181529190935220805460ff1916600117905533917f2f8788117e7eff1d82e926ec794901d17c78024a50270940304540a733656f0d8780a46109e4565b60405162461bcd60e51b8152602060048201526014602482015273416c7265616479206120756e697665727369747960601b6044820152606490fd5b50337f00000000000000000000000000000000000000000000000000000000000000006001600160a01b03161461096d565b5034610243578060031936011261024357602090604051908152f35b50346102435760e0366003190112610243576004356001600160401b03811161092a57610c8d903690600401612b87565b916024356001600160401b03811161092a57610cad903690600401612b87565b9093906044356001600160a01b0381169190829003610ebe576064356001600160401b038111610eba57610ce5903690600401612b87565b92906084356001600160401b038111610eb657610d06903690600401612b87565b60a4356001600160401b038111610eb257610d25903690600401612b87565b93909460c435976020891015610eae578b9c610d459c98999a9b9c6130b1565b610d4d613278565b60405163fbdf492360e01b8152600660048201526101206024820152998a99610d7d906101248c01908f90613090565b906003198b83030160448c0152610d9392613090565b916064890152600319888303016084890152610dae92613090565b906003198683030160a4870152610dc492613090565b906003198483030160c4850152610dda92613090565b610de760e4830185612a56565b33610104830152038173__$418a42c2ace6135936f69e0acb768a6277$__91815a93602094f49384156108e65793610e77575b5060209383927f8a9f62701df42f18a82cdd37c50a7bce4cd48487ff236cabc609440251f87c3e92610e66610e5c604051948594606086526060860191613090565b9188840190612a56565b3360408301520390a2604051908152f35b909192506020813d602011610ea6575b81610e9460209383612cc1565b810103126108d9575191906020610e1a565b3d9150610e87565b8a80fd5b8880fd5b8680fd5b8480fd5b8380fd5b5034610243576040366003190112610243576040610ede612b71565b9160043581526009602052209060018060a01b0316600052602052602060ff604060002054166040519015158152f35b5034610243578060031936011261024357610f276130b1565b338152600860205260408120604051918260208354918281520192825260208220915b818110610f61576102b18561046181870382612cc1565b8254845260209093019260019283019201610f4a565b5034610243576040366003190112610243576040610f93612b71565b91600435815280602052209060018060a01b0316600052602052602060ff604060002054166040519015158152f35b5034610243576020366003190112610243576004356001600160401b03811161092a57610ff3903690600401612b87565b90610ffc6130b1565b611004613278565b811561115e57604051633811a9ef60e21b8152600660048201526060602482015291838380611037606482018587613090565b336044830152038173__$418a42c2ace6135936f69e0acb768a6277$__5af49283156111535784936110b3575b50806040519283378101908382528033920390207f1949bcb8762ad61ab8a8f3175c5787a3204c83583381bb42cdcdbf62141b11c48480a3815b81518110156110af5760010161109e565b8280f35b9092503d8085833e6110c58183612cc1565b810190602081830312610eba578051906001600160401b03821161114f57019080601f83011215610eba578151916001600160401b038311610aba578260051b90604051936111176020840186612cc1565b8452602080850192820101928311610eb657602001905b82821061113f575050509138611064565b815181526020918201910161112e565b8580fd5b6040513d86823e3d90fd5b60405162461bcd60e51b8152602060048201526012602482015271125b9d985b1a59081cdd1d59195b9d08125160721b6044820152606490fd5b503461024357602036600319011261024357600435908060a06040516111bd81612ca6565b82815260606020820152606060408201528260608201528260808201520152818152600c602052816040822054036112df576040918152600c6020522060405161120681612ca6565b81548152604051916112268361121f8160018501612db7565b0384612cc1565b60208201928352604051611248816112418160028601612db7565b0382612cc1565b6040830190815260018060a01b0360038301541691606084019283526112bd60ff6005600484015493608088019485520154169260a0860193151584526112aa604051978897602089525160208901525160c0604089015260e0880190612a31565b9051868203601f19016060880152612a31565b92516001600160a01b031660808501525160a084015251151560c08301520390f35b60405162461bcd60e51b815260206004820152601a60248201527f437573746f6d207479706520646f6573206e6f742065786973740000000000006044820152606490fd5b5034610243576020366003190112610243576102b1906112419061136a906040906001600160a01b03611355612b5b565b16815260016020522060405192838092612db7565b604051918291602083526020830190612a31565b50346102435780600319360112610243576000805160206134da833981519152815260208181526040808320336000908152925290205460ff16801561140a575b6113c89061302d565b6113d0613278565b600160ff1960055416176005557f62e78cea01bee320cd4e420270b5ea74000d11b0c9f74754ebdbfc544b05a2586020604051338152a180f35b50337f00000000000000000000000000000000000000000000000000000000000000006001600160a01b0316146113bf565b50346102435780600319360112610243576114556130b1565b338152600d60205260408120604051918260208354918281520192825260208220915b81811061148f576102b18561046181870382612cc1565b8254845260209093019260019283019201611478565b50346102435780600319360112610243576040517f00000000000000000000000000000000000000000000000000000000000000006001600160a01b03168152602090f35b503461024357806003193601126102435760206040516000805160206134da8339815191528152f35b503461024357602036600319011261024357806004356001600160401b0381116115ba57611545903690600401612b87565b600f546001600160a01b031691823b156115b757611584928492836040518096819582946314a2f2eb60e21b8452604060048501526044840191613090565b33602483015203925af180156115ac5761159b5750f35b816115a591612cc1565b6102435780f35b6040513d84823e3d90fd5b50505b50fd5b5034610243576020366003190112610243576115d7612b5b565b61160b337f00000000000000000000000000000000000000000000000000000000000000006001600160a01b031614612eb6565b6000805160206134da8339815191528252602082815260408084206001600160a01b0384166000908152925290205460ff1661176e576000805160206134da8339815191528252602082815260408084206001600160a01b0384166000908152925290205460ff1615611708575b6001600160a01b0381168083526004602052604083205490919060ff16156116c6575b5033907fbf3f493c772c8c283fd124432c2d0f539ab343faa04258fe88e52912d36b102b8380a380f35b600354600160401b8110156106ad5790610a968260016116eb94016003556003612f40565b808252600460205260408220805460ff191660011790553861169c565b6000805160206134da833981519152808352602083815260408085206001600160a01b03851660008181529190935220805460ff1916600117905533917f2f8788117e7eff1d82e926ec794901d17c78024a50270940304540a733656f0d8580a4611679565b60405162461bcd60e51b815260206004820152601060248201526f20b63932b0b23c9030b71030b236b4b760811b6044820152606490fd5b5034610243578060031936011261024357602060ff600554166040519015158152f35b503461024357806003193601126102435760206040517f7613a25ecc738585a232ad50a301178f12b3ba8887d13e138b523c4269c476898152f35b50346102435780600319360112610243576000805160206134da833981519152815260208181526040808320336000908152925290205460ff1680156118ca575b61184e9061302d565b60055460ff81161561188e5760ff19166005557f5db9ee0a495bf2e6ff9c91a7834c1ba4fdd244a5e8aa4e537bd38aeae4b073aa6020604051338152a180f35b60405162461bcd60e51b815260206004820152601460248201527314185d5cd8589b194e881b9bdd081c185d5cd95960621b6044820152606490fd5b50337f00000000000000000000000000000000000000000000000000000000000000006001600160a01b031614611845565b503461024357806003193601126102435760206040516000805160206134ba8339815191528152f35b50346102435760203660031901126102435760ff6009604060209360043580825260068652611958818484205414612d39565b815260068552200154166040519015158152f35b503461024357604036600319011261024357611986612b71565b336001600160a01b038216036119a257610398906004356131f6565b60405162461bcd60e51b815260206004820152602f60248201527f416363657373436f6e74726f6c3a2063616e206f6e6c792072656e6f756e636560448201526e103937b632b9903337b91039b2b63360891b6064820152608490fd5b503461024357604036600319011261024357600435611a1c612b71565b90611a3861038e82600052600060205260016040600020015490565b808352602083815260408085206001600160a01b0385166000908152925290205460ff1615611a65578280f35b808352602083815260408085206001600160a01b0394909416600081815294909252909220805460ff191660011790553391907f2f8788117e7eff1d82e926ec794901d17c78024a50270940304540a733656f0d8480a438808280f35b5034610243576020366003190112610243576004356001600160401b03811161092a57611af56020913690600401612b87565b919082604051938492833781016007815203019020604051918260208354918281520192825260208220915b818110611b38576102b18561046181870382612cc1565b8254845260209093019260019283019201611b21565b503461024357604036600319011261024357600435611b6b612b71565b8183526006602052611b8282604085205414612d39565b600f546040516386c3441560e01b8152336004820152908490829060249082906001600160a01b03165afa908115611153578491611ca0575b50611bc881511515612f58565b611c00815160208301208486526006602052611241611bf36001604089200160405192838092612db7565b6020815191012014612fa4565b8373__$418a42c2ace6135936f69e0acb768a6277$__803b1561092a5781604051809263da18ebaf60e01b82528180611c3e888a8c60048501612fe2565b03915af480156115ac57611c8b575b5050611c589061300d565b6001600160a01b03909116917faff6e534ab1a03be3cfb349ea9a41ee6cdc768addd7f0e2c3dab67571d8ac3048480a480f35b81611c9591612cc1565b610ebe578338611c4d565b611cb491503d8086833e6104978183612cc1565b38611bbb565b503461024357602036600319011261024357611cd4612b5b565b6000805160206134da833981519152825260208281526040808420336000908152925290205460ff168015611ee5575b611d0d9061302d565b6000805160206134ba8339815191528252602082815260408084206001600160a01b0384166000908152925290205460ff16611e82575b6001600160a01b03168082526001602052604082208054839190611d6790612d7d565b80611e40575b50505b60025480821015611e3a5782611d8583612f25565b905460039190911b1c6001600160a01b031614611da55750600101611d70565b9091506000198101908111611e265790610a96611dc4611ddc93612f25565b905460039190911b1c6001600160a01b031691612f25565b6002548015611e125760001901611e0c611df7826002612f40565b81549060018060a01b039060031b1b19169055565b60025580f35b634e487b7160e01b82526031600452602482fd5b634e487b7160e01b83526011600452602483fd5b50505080f35b601f8111600114611e565750555b813880611d6d565b81835260208320611e7291601f0160051c810190600101613079565b8082528160208120915555611e4e565b6000805160206134ba833981519152808352602083815260408085206001600160a01b03851660008181529190935220805460ff1916905533917ff6391f5c32d9c69d2a47ea670b442974b53935d1edc7fd64eb21e047a839171b8580a4611d44565b50337f00000000000000000000000000000000000000000000000000000000000000006001600160a01b031614611d04565b5034610243576020366003190112610243576020611f45600435600052600060205260016040600020015490565b604051908152f35b503461024357604036600319011261024357600435611f6a612b71565b8183526006602052611f8182604085205414612d39565b600f546040516386c3441560e01b8152336004820152908490829060249082906001600160a01b03165afa90811561115357849161209c575b50611fc781511515612f58565b611ff2815160208301208486526006602052611241611bf36001604089200160405192838092612db7565b73__$418a42c2ace6135936f69e0acb768a6277$__803b15610eba5784604051809263db810d4760e01b8252818061202f87898b60048501612fe2565b03915af480156120915761207b575b506120489061300d565b6001600160a01b03909116917fc2423a58507863fe4ba6405dd105f958afc6ee0eff57522e1971a36e8fafd73c8480a480f35b9361208a816120489396612cc1565b939061203e565b6040513d87823e3d90fd5b6120b091503d8086833e6104978183612cc1565b38611fba565b5034610243576020366003190112610243576120d0612b5b565b7f00000000000000000000000000000000000000000000000000000000000000006001600160a01b031690612106338314612eb6565b6001600160a01b0316908114612316576000805160206134da8339815191528252816020526040822081835260205260ff604083205416156122e2576000805160206134da8339815191528252816020526040822081835260205260ff60408320541661227d575b808252600460205260ff6040832054166121ac575b33907fdb9d5d31320daf5bc7181d565b6da4d12e30f0f4d5aa324a992426c14a1d19ce8380a380f35b815b6003548082101561227657826121c383612ef4565b905460039190911b1c6001600160a01b0316146121e357506001016121ae565b60001981019081116122625790610a966121ff61221793612ef4565b905460039190911b1c6001600160a01b031691612ef4565b600354801561224e5760001901612232611df7826003612f40565b600355808252600460205260408220805460ff19169055612183565b634e487b7160e01b83526031600452602483fd5b634e487b7160e01b84526011600452602484fd5b5050612183565b6000805160206134da833981519152825281602052604082208183526020526040822060ff19815416905533816000805160206134da8339815191527ff6391f5c32d9c69d2a47ea670b442974b53935d1edc7fd64eb21e047a839171b8580a461216e565b60405162461bcd60e51b815260206004820152600c60248201526b2737ba1030b71030b236b4b760a11b6044820152606490fd5b60405162461bcd60e51b815260206004820152601960248201527f43616e6e6f742072656d6f76652073757065722061646d696e000000000000006044820152606490fd5b50346102435780600319360112610243576020600e54604051908152f35b5034610243578060031936011261024357600f546040516001600160a01b039091168152602090f35b50346102435780600319360112610243576020600b54604051908152f35b503461024357604036600319011261024357600435602435801515809103610926576123ea6130b1565b818352600c60205260408320600301546001600160a01b031633036124525760207fc49db19e98f37a91c758a4b59695c5a8babbdb9ee2ff7215a577c3b6c2f8575491838552600c82526005604086200160ff1981541660ff8316179055604051908152a280f35b60405162461bcd60e51b815260206004820152600f60248201526e2737ba103a34329031b932b0ba37b960891b6044820152606490fd5b5034610243576020366003190112610243576004356124a6612ce2565b5080825260066020526124be81604084205414612d39565b815260066020526040812090604051906124d782612c74565b825482526040516124ef816112418160018801612db7565b6020830152604051612508816112418160028801612db7565b60408381019190915260038401546001600160a01b0316606084015251612536816112418160048801612db7565b608083015260405161254f816112418160058801612db7565b60a0830152604051612568816112418160068801612db7565b60c083015260ff6007840154169060208210156125c5575060e082015260088083015461010083015260099092015460ff8116151561012083015290911c6001600160a01b03166101408201526040519081906102b19082612a79565b634e487b7160e01b81526021600452602490fd5b50346102435760203660031901126102435760043563ffffffff60e01b811680910361092a57602090637965db0b60e01b811490811561261f575b506040519015158152f35b6301ffc9a760e01b14905082612614565b5034610243576020366003190112610243576004359061264e612ce2565b50818152600660205261266682604083205414612d39565b818152600660205260408120906040519161268083612c74565b80548352604051612698816112418160018601612db7565b602084019081526040516126b3816112418160028701612db7565b60408581019190915260038301546001600160a01b03166060860152516126e1816112418160048701612db7565b608085015260405190612702826126fb8160058701612db7565b0383612cc1565b60a08501918252604051926127258461271e8160068501612db7565b0385612cc1565b60c0860193845260ff60078201541660208110156129fa5760e087015260088082015461010088015260099091015460ff81161515610120880152901c6001600160a01b0316610140860181815291859133146129f1575b87865260096020908152604080882033895290915286205460ff166129e8575b6000805160206134da83398151915286526020868152604080882033895290915286205460ff1680156129b6575b6129ad575b600f546040516386c3441560e01b815233600482015291908790839060249082906001600160a01b03165afa9182156129a2578792612986575b508151801515928361296c575b505050612964575b15612915576102b195845260096020526040842060018060a01b033316855260205260ff604085205416159081612900575b50806128d2575b8061289f575b612872575b50505060405191829182612a79565b60405190612881602083612cc1565b8382525260405191612894602084612cc1565b825252388080612863565b50337f00000000000000000000000000000000000000000000000000000000000000006001600160a01b0316141561285e565b506000805160206134da83398151915283526020838152604080852033865290915283205460ff1615612858565b516001600160a01b0316331415905038612851565b60405162461bcd60e51b815260206004820152602160248201527f4e6f207065726d697373696f6e20746f20766965772074686973207265636f726044820152601960fa1b6064820152608490fd5b50600161281f565b602091929350012090516020815191012014388080612817565b61299b9192503d8089833e6104978183612cc1565b903861280a565b6040513d89823e3d90fd5b600191506127d0565b50337f00000000000000000000000000000000000000000000000000000000000000006001600160a01b0316146127cb565b6001915061279d565b6001915061277d565b634e487b7160e01b86526021600452602486fd5b60005b838110612a215750506000910152565b8181015183820152602001612a11565b90602091612a4a81518092818552858086019101612a0e565b601f01601f1916010190565b906020821015612a635752565b634e487b7160e01b600052602160045260246000fd5b6020815281516020820152610160612b19612b03612aed612ac2612aac6020880151866040890152610180880190612a31565b6040880151878203601f19016060890152612a31565b60608701516001600160a01b0316608087810191909152870151868203601f190160a0880152612a31565b60a0860151858203601f190160c0870152612a31565b60c0850151848203601f190160e0860152612a31565b92612b2d60e0820151610100850190612a56565b610100810151610120840152610120810151151561014084015261014060018060a01b039101511691015290565b600435906001600160a01b03821682036108d957565b602435906001600160a01b03821682036108d957565b9181601f840112156108d9578235916001600160401b0383116108d957602083818601950101116108d957565b602060408183019282815284518094520192019060005b818110612bd85750505090565b8251845260209384019390920191600101612bcb565b9060406003198301126108d9576004356001600160a01b03811681036108d95791602435906001600160401b0382116108d957612c2d91600401612b87565b9091565b602060408183019282815284518094520192019060005b818110612c555750505090565b82516001600160a01b0316845260209384019390920191600101612c48565b61016081019081106001600160401b03821117612c9057604052565b634e487b7160e01b600052604160045260246000fd5b60c081019081106001600160401b03821117612c9057604052565b90601f801991011681019081106001600160401b03821117612c9057604052565b60405190612cef82612c74565b600061014083828152606060208201526060604082015282606082015260606080820152606060a0820152606060c08201528260e082015282610100820152826101208201520152565b15612d4057565b60405162461bcd60e51b8152602060048201526015602482015274149958dbdc9908191bd95cc81b9bdd08195e1a5cdd605a1b6044820152606490fd5b90600182811c92168015612dad575b6020831014612d9757565b634e487b7160e01b600052602260045260246000fd5b91607f1691612d8c565b60009291815491612dc783612d7d565b8083529260018116908115612e1d5750600114612de357505050565b60009081526020812093945091925b838310612e03575060209250010190565b600181602092949394548385870101520191019190612df2565b915050602093945060ff929192191683830152151560051b010190565b6001600160401b038111612c9057601f01601f191660200190565b6020818303126108d9578051906001600160401b0382116108d9570181601f820112156108d9578051612e8781612e3a565b92612e956040519485612cc1565b818452602082840101116108d957612eb39160208085019101612a0e565b90565b15612ebd57565b60405162461bcd60e51b815260206004820152600f60248201526e2737ba1039bab832b91030b236b4b760891b6044820152606490fd5b600354811015612f0f57600360005260206000200190600090565b634e487b7160e01b600052603260045260246000fd5b600254811015612f0f57600260005260206000200190600090565b8054821015612f0f5760005260206000200190600090565b15612f5f57565b60405162461bcd60e51b815260206004820152601860248201527f4e6f74206120726567697374657265642073747564656e7400000000000000006044820152606490fd5b15612fab57565b60405162461bcd60e51b815260206004820152600f60248201526e139bdd081e5bdd5c881c9958dbdc99608a1b6044820152606490fd5b612eb3939260809260068352602083015260018060a01b031660408201528160608201520190612a31565b61302590602060405192828480945193849201612a0e565b810103902090565b1561303457565b60405162461bcd60e51b815260206004820152601860248201527f4e6f742061646d696e206f722073757065722061646d696e00000000000000006044820152606490fd5b818110613084575050565b60008155600101613079565b908060209392818452848401376000828201840152601f01601f1916010190565b3360009081527f1a7760066bd1f06df3a1a816a948cb99a3a2e8ffa5089500e84706868bfe072d602052604090205460ff16156130ea57565b6131b46130f6336132cd565b61319460116131126000805160206134ba83398151915261340d565b9260376040519485927f416363657373436f6e74726f6c3a206163636f756e742000000000000000000060208501526131548151809260208688019101612a0e565b83017001034b99036b4b9b9b4b733903937b6329607d1b83820152613183825180936020604885019101612a0e565b01010301601f198101835282612cc1565b60405162461bcd60e51b8152602060048201529182916024830190612a31565b0390fd5b60008181526020818152604080832033845290915290205460ff16156131db5750565b6131b49061319460116131126131f0336132cd565b9361340d565b6000818152602081815260408083206001600160a01b038616845290915290205460ff16613222575050565b6000818152602081815260408083206001600160a01b0395909516808452949091528120805460ff19169055339291907ff6391f5c32d9c69d2a47ea670b442974b53935d1edc7fd64eb21e047a839171b9080a4565b60ff6005541661328457565b60405162461bcd60e51b815260206004820152601060248201526f14185d5cd8589b194e881c185d5cd95960821b6044820152606490fd5b908151811015612f0f570160200190565b6000906132da602a612e3a565b916132e86040519384612cc1565b602a83526132f6602a612e3a565b6020840190601f19013682378351156133f957603090538251600110156133e5576078602184015350602960005b600182116133795750506133355790565b606460405162461bcd60e51b815260206004820152602060248201527f537472696e67733a20686578206c656e67746820696e73756666696369656e746044820152fd5b9091600f811660108110156133d1576f181899199a1a9b1b9c1cb0b131b232b360811b901a6133a884866132bc565b5360041c9180156133bd576000190190613324565b634e487b7160e01b82526011600452602482fd5b634e487b7160e01b83526032600452602483fd5b634e487b7160e01b81526032600452602490fd5b634e487b7160e01b82526032600452602482fd5b60009061341a6042612e3a565b916134286040519384612cc1565b604283526134366042612e3a565b6020840190601f19013682378351156133f957603090538251600110156133e5576078602184015350604160005b600182116134755750506133355790565b9091600f811660108110156133d1576f181899199a1a9b1b9c1cb0b131b232b360811b901a6134a484866132bc565b5360041c9180156133bd57600019019061346456fe5bb0bf1fabd5e975fc7a4520766d9e86e0eb281f8c7c44fcd3dfe60a11e786caa49807205ce4d355092ef5a8a18f56e8913cf4a201fbe287825b095693c21775a26469706673582212204751ceb64e5cbe1e0ffb7894920671c8034c1b79b6f38d726d8239e6bfe30db064736f6c634300081c0033608080604052346015576108d3908161001b8239f35b600080fdfe608080604052600436101561001357600080fd5b60003560e01c908163528bcbac146101f5575080635a0ade26146101ab57806386c34415146101ab578063a82e3b001461014d578063bd5ba462146100f6578063c6ddfefb146100b75763ce09213b1461006c57600080fd5b346100b257602061007c3661080d565b8161009060405192838151938492016106be565b600190820190815281900382019020546040516001600160a01b039091168152f35b600080fd5b346100b257602060ff6100e0826100cd3661080d565b81604051938285809451938492016106be565b8101600081520301902054166040519015158152f35b346100b25760203660031901126100b25760043567ffffffffffffffff81116100b25760ff602061012c8193369060040161067a565b91908260405193849283378101600081520301902054166040519015158152f35b346100b25760203660031901126100b25760043567ffffffffffffffff81116100b25760206101818192369060040161067a565b9190826040519384928337600190820190815203019020546040516001600160a01b039091168152f35b346100b25760203660031901126100b2576001600160a01b036101cc6106a8565b1660005260026020526101f16101e56040600020610769565b604051918291826106e1565b0390f35b346100b25760403660031901126100b25760043567ffffffffffffffff81116100b25761022690369060040161067a565b6024356001600160a01b03811693908490036100b25781156106435750821561060c5760ff6040518284823760208184810160008152030190205416600014610484576040518183823760018183019081528190036020019020546001600160a01b0316918261041a575b604051828282376020818481016001815203019020846bffffffffffffffffffffffff60a01b825416179055836000526002602052604060002067ffffffffffffffff8311610404576102e4815461070d565b601f81116103c7575b50600083601f8111600114610364578061031d92600091610359575b508160011b916000199060031b1c19161790565b90555b8160405192839283378101600081520390207f55066e0ef5d53e826887694254397ccd8c9936f6bab5e8d7592b001695658874600080a4005b905084013588610309565b50818152602081209084601f198116825b8181106103ac575010610392575b5050600183811b019055610320565b830135600019600386901b60f8161c191690558580610383565b86840135855560019094019360209384019388935001610375565b6103f490826000526020600020601f860160051c810191602087106103fa575b601f0160051c0190610886565b856102ed565b90915081906103e7565b634e487b7160e01b600052604160045260246000fd5b8260005260026020526040600020610432815461070d565b9081610440575b5050610291565b81601f600093116001146104585750555b8480610439565b8183526020832061047491601f0160051c810190600101610886565b8082528160208120915555610451565b90604051828282376020818481016000815203019020600160ff19825416179055604051828282376020818481016001815203019020836bffffffffffffffffffffffff60a01b825416179055826000526002602052604060002067ffffffffffffffff8311610404576104f8815461070d565b601f81116105da575b50600083601f811160011461057757806105309260009161056c57508160011b916000199060031b1c19161790565b90555b8160405192839283378101600081520390207faa541cc9975b48a66ff0fcced1b6a07701b89f4bf70332c0e06f406f61b8e979600080a3005b905084013587610309565b50818152602081209084601f198116825b8181106105bf5750106105a5575b5050600183811b019055610533565b830135600019600386901b60f8161c191690558480610596565b86840135855560019094019360209384019388935001610588565b61060690826000526020600020601f860160051c810191602087106103fa57601f0160051c0190610886565b84610501565b60405162461bcd60e51b815260206004820152600f60248201526e496e76616c6964206164647265737360881b6044820152606490fd5b62461bcd60e51b8152602060048201526012602482015271125b9d985b1a59081cdd1d59195b9d08125160721b6044820152606490fd5b9181601f840112156100b25782359167ffffffffffffffff83116100b257602083818601950101116100b257565b600435906001600160a01b03821682036100b257565b60005b8381106106d15750506000910152565b81810151838201526020016106c1565b6040916020825261070181518092816020860152602086860191016106be565b601f01601f1916010190565b90600182811c9216801561073d575b602083101461072757565b634e487b7160e01b600052602260045260246000fd5b91607f169161071c565b90601f8019910116810190811067ffffffffffffffff82111761040457604052565b906040519182600082549261077d8461070d565b80845293600181169081156107eb57506001146107a4575b506107a292500383610747565b565b90506000929192526020600020906000915b8183106107cf5750509060206107a29282010138610795565b60209193508060019154838589010152019101909184926107b6565b9050602092506107a294915060ff191682840152151560051b82010138610795565b60206003198201126100b25760043567ffffffffffffffff81116100b257816023820112156100b25780600401359067ffffffffffffffff82116104045760405192610863601f8401601f191660200185610747565b828452602483830101116100b25781600092602460209301838601378301015290565b818110610891575050565b6000815560010161088656fea26469706673582212204b1a13be4cbd2d3359f89d29d2fd5f012d1d7d48cf3fca980c9c53cb38b30ff264736f6c634300081c00332f8788117e7eff1d82e926ec794901d17c78024a50270940304540a733656f0d7d7ffb7a348e1c6a02869081a26547b49160dd3df72d1d75a570eb9b698292ec2155616cb3971b66bf28f1af4ff3722784e6d7a4b2b25bc9fe623232dcd690c8ad3228b676f7d3cd4284a5443f17f1962b36e491b30a40b2405849e597ba5fb5",
  "linkReferences": {
    "contracts/libraries/RecordStorage.sol": {
      "RecordStorage": [
        {
          "length": 20,
          "start": 2853
        },
        {
          "length": 20,
          "start": 4309
        },
        {
          "length": 20,
          "start": 4900
        },
        {
          "length": 20,
          "start": 7910
        },
        {
          "length": 20,
          "start": 8919
        }
      ]
    }
  },
  "deployedLinkReferences": {
    "contracts/libraries/RecordStorage.sol": {
      "RecordStorage": [
        {
          "length": 20,
          "start": 2114
        },
        {
          "length": 20,
          "start": 3570
        },
        {
          "length": 20,
          "start": 4161
        },
        {
          "length": 20,
          "start": 7171
        },
        {
          "length": 20,
          "start": 8180
        }
      ]
    }
  }
}