{
  "_format": "hh-sol-artifact-1",
  "contractName": "AcademicRecordsOptimized",
  "sourceName": "contracts/AcademicRecords.sol",
  "abi": [
    {
      "inputs": [],
      "stateMutability": "nonpayable",
      "type": "constructor"
    },
    {
      "anonymous": false,
      "inputs": [
        {
          "indexed": true,
          "internalType": "uint256",
          "name": "recordId",
          "type": "uint256"
        },
        {
          "indexed": true,
          "internalType": "address",
          "name": "accessor",
          "type": "address"
        },
        {
          "indexed": false,
          "internalType": "string",
          "name": "action",
          "type": "string"
        },
        {
          "indexed": false,
          "internalType": "bytes32",
          "name": "proofHash",
          "type": "bytes32"
        },
        {
          "indexed": false,
          "internalType": "uint256",
          "name": "timestamp",
          "type": "uint256"
        }
      ],
      "name": "AccessLogged",
      "type": "event"
    },
    {
      "anonymous": false,
      "inputs": [
        {
          "indexed": true,
          "internalType": "uint256",
          "name": "recordId",
          "type": "uint256"
        },
        {
          "indexed": true,
          "internalType": "address",
          "name": "accessor",
          "type": "address"
        },
        {
          "indexed": false,
          "internalType": "enum IAcademicRecords.AccessType",
          "name": "accessType",
          "type": "uint8"
        },
        {
          "indexed": false,
          "internalType": "uint256",
          "name": "expiresAt",
          "type": "uint256"
        }
      ],
      "name": "AccessPermissionGranted",
      "type": "event"
    },
    {
      "anonymous": false,
      "inputs": [
        {
          "indexed": true,
          "internalType": "uint256",
          "name": "recordId",
          "type": "uint256"
        },
        {
          "indexed": true,
          "internalType": "address",
          "name": "accessor",
          "type": "address"
        },
        {
          "indexed": false,
          "internalType": "enum IAcademicRecords.AccessType",
          "name": "accessType",
          "type": "uint8"
        }
      ],
      "name": "AccessPermissionRevoked",
      "type": "event"
    },
    {
      "anonymous": false,
      "inputs": [
        {
          "indexed": true,
          "internalType": "address",
          "name": "admin",
          "type": "address"
        },
        {
          "indexed": true,
          "internalType": "address",
          "name": "addedBy",
          "type": "address"
        }
      ],
      "name": "AdminAdded",
      "type": "event"
    },
    {
      "anonymous": false,
      "inputs": [
        {
          "indexed": true,
          "internalType": "address",
          "name": "admin",
          "type": "address"
        },
        {
          "indexed": true,
          "internalType": "address",
          "name": "removedBy",
          "type": "address"
        }
      ],
      "name": "AdminRemoved",
      "type": "event"
    },
    {
      "anonymous": false,
      "inputs": [
        {
          "indexed": true,
          "internalType": "uint256",
          "name": "typeId",
          "type": "uint256"
        },
        {
          "indexed": false,
          "internalType": "string",
          "name": "name",
          "type": "string"
        },
        {
          "indexed": true,
          "internalType": "address",
          "name": "creator",
          "type": "address"
        }
      ],
      "name": "CustomRecordTypeCreated",
      "type": "event"
    },
    {
      "anonymous": false,
      "inputs": [
        {
          "indexed": true,
          "internalType": "uint256",
          "name": "typeId",
          "type": "uint256"
        },
        {
          "indexed": false,
          "internalType": "bool",
          "name": "isActive",
          "type": "bool"
        }
      ],
      "name": "CustomRecordTypeUpdated",
      "type": "event"
    },
    {
      "anonymous": false,
      "inputs": [
        {
          "indexed": true,
          "internalType": "uint256",
          "name": "recordId",
          "type": "uint256"
        },
        {
          "indexed": true,
          "internalType": "address",
          "name": "admin",
          "type": "address"
        },
        {
          "indexed": false,
          "internalType": "string",
          "name": "reason",
          "type": "string"
        },
        {
          "indexed": false,
          "internalType": "uint256",
          "name": "timestamp",
          "type": "uint256"
        }
      ],
      "name": "EmergencyAccess",
      "type": "event"
    },
    {
      "anonymous": false,
      "inputs": [
        {
          "indexed": true,
          "internalType": "uint256",
          "name": "recordId",
          "type": "uint256"
        },
        {
          "indexed": true,
          "internalType": "address",
          "name": "rotatedBy",
          "type": "address"
        },
        {
          "indexed": false,
          "internalType": "uint256",
          "name": "timestamp",
          "type": "uint256"
        }
      ],
      "name": "EncryptionKeyRotated",
      "type": "event"
    },
    {
      "anonymous": false,
      "inputs": [
        {
          "indexed": false,
          "internalType": "address",
          "name": "account",
          "type": "address"
        }
      ],
      "name": "Paused",
      "type": "event"
    },
    {
      "anonymous": false,
      "inputs": [
        {
          "indexed": true,
          "internalType": "uint256",
          "name": "recordId",
          "type": "uint256"
        },
        {
          "indexed": false,
          "internalType": "address",
          "name": "accessor",
          "type": "address"
        }
      ],
      "name": "RecordAccessed",
      "type": "event"
    },
    {
      "anonymous": false,
      "inputs": [
        {
          "indexed": true,
          "internalType": "uint256",
          "name": "recordId",
          "type": "uint256"
        },
        {
          "indexed": false,
          "internalType": "string",
          "name": "studentId",
          "type": "string"
        },
        {
          "indexed": false,
          "internalType": "enum IAcademicRecords.RecordType",
          "name": "recordType",
          "type": "uint8"
        },
        {
          "indexed": false,
          "internalType": "address",
          "name": "issuer",
          "type": "address"
        }
      ],
      "name": "RecordAdded",
      "type": "event"
    },
    {
      "anonymous": false,
      "inputs": [
        {
          "indexed": true,
          "internalType": "uint256",
          "name": "recordId",
          "type": "uint256"
        },
        {
          "indexed": true,
          "internalType": "string",
          "name": "studentId",
          "type": "string"
        },
        {
          "indexed": true,
          "internalType": "address",
          "name": "sharedWith",
          "type": "address"
        }
      ],
      "name": "RecordShared",
      "type": "event"
    },
    {
      "anonymous": false,
      "inputs": [
        {
          "indexed": true,
          "internalType": "uint256",
          "name": "recordId",
          "type": "uint256"
        },
        {
          "indexed": true,
          "internalType": "string",
          "name": "studentId",
          "type": "string"
        },
        {
          "indexed": true,
          "internalType": "address",
          "name": "unsharedWith",
          "type": "address"
        }
      ],
      "name": "RecordUnshared",
      "type": "event"
    },
    {
      "anonymous": false,
      "inputs": [
        {
          "indexed": true,
          "internalType": "uint256",
          "name": "recordId",
          "type": "uint256"
        },
        {
          "indexed": false,
          "internalType": "address",
          "name": "verifier",
          "type": "address"
        }
      ],
      "name": "RecordVerified",
      "type": "event"
    },
    {
      "anonymous": false,
      "inputs": [
        {
          "indexed": true,
          "internalType": "bytes32",
          "name": "role",
          "type": "bytes32"
        },
        {
          "indexed": true,
          "internalType": "bytes32",
          "name": "previousAdminRole",
          "type": "bytes32"
        },
        {
          "indexed": true,
          "internalType": "bytes32",
          "name": "newAdminRole",
          "type": "bytes32"
        }
      ],
      "name": "RoleAdminChanged",
      "type": "event"
    },
    {
      "anonymous": false,
      "inputs": [
        {
          "indexed": true,
          "internalType": "bytes32",
          "name": "role",
          "type": "bytes32"
        },
        {
          "indexed": true,
          "internalType": "address",
          "name": "account",
          "type": "address"
        },
        {
          "indexed": true,
          "internalType": "address",
          "name": "sender",
          "type": "address"
        }
      ],
      "name": "RoleGranted",
      "type": "event"
    },
    {
      "anonymous": false,
      "inputs": [
        {
          "indexed": true,
          "internalType": "bytes32",
          "name": "role",
          "type": "bytes32"
        },
        {
          "indexed": true,
          "internalType": "address",
          "name": "account",
          "type": "address"
        },
        {
          "indexed": true,
          "internalType": "address",
          "name": "sender",
          "type": "address"
        }
      ],
      "name": "RoleRevoked",
      "type": "event"
    },
    {
      "anonymous": false,
      "inputs": [
        {
          "indexed": true,
          "internalType": "uint256",
          "name": "recordId",
          "type": "uint256"
        },
        {
          "indexed": false,
          "internalType": "string",
          "name": "studentId",
          "type": "string"
        },
        {
          "indexed": false,
          "internalType": "enum IAcademicRecords.RecordType",
          "name": "recordType",
          "type": "uint8"
        },
        {
          "indexed": false,
          "internalType": "address",
          "name": "issuer",
          "type": "address"
        },
        {
          "indexed": false,
          "internalType": "bytes32",
          "name": "zkProofHash",
          "type": "bytes32"
        }
      ],
      "name": "SecureRecordAdded",
      "type": "event"
    },
    {
      "anonymous": false,
      "inputs": [
        {
          "indexed": true,
          "internalType": "uint256",
          "name": "recordId",
          "type": "uint256"
        },
        {
          "indexed": true,
          "internalType": "address",
          "name": "sharedBy",
          "type": "address"
        },
        {
          "indexed": true,
          "internalType": "address",
          "name": "sharedWith",
          "type": "address"
        },
        {
          "indexed": false,
          "internalType": "bytes32",
          "name": "tokenHash",
          "type": "bytes32"
        },
        {
          "indexed": false,
          "internalType": "uint256",
          "name": "expiresAt",
          "type": "uint256"
        }
      ],
      "name": "SharingTokenCreated",
      "type": "event"
    },
    {
      "anonymous": false,
      "inputs": [
        {
          "indexed": true,
          "internalType": "uint256",
          "name": "recordId",
          "type": "uint256"
        },
        {
          "indexed": false,
          "internalType": "bytes32",
          "name": "tokenHash",
          "type": "bytes32"
        },
        {
          "indexed": true,
          "internalType": "address",
          "name": "revokedBy",
          "type": "address"
        }
      ],
      "name": "SharingTokenRevoked",
      "type": "event"
    },
    {
      "anonymous": false,
      "inputs": [
        {
          "indexed": true,
          "internalType": "uint256",
          "name": "recordId",
          "type": "uint256"
        },
        {
          "indexed": true,
          "internalType": "address",
          "name": "accessor",
          "type": "address"
        },
        {
          "indexed": false,
          "internalType": "bytes32",
          "name": "tokenHash",
          "type": "bytes32"
        },
        {
          "indexed": false,
          "internalType": "uint256",
          "name": "timestamp",
          "type": "uint256"
        }
      ],
      "name": "SharingTokenUsed",
      "type": "event"
    },
    {
      "anonymous": false,
      "inputs": [
        {
          "indexed": true,
          "internalType": "string",
          "name": "studentId",
          "type": "string"
        },
        {
          "indexed": true,
          "internalType": "address",
          "name": "university",
          "type": "address"
        }
      ],
      "name": "StudentDeleted",
      "type": "event"
    },
    {
      "anonymous": false,
      "inputs": [
        {
          "indexed": true,
          "internalType": "address",
          "name": "university",
          "type": "address"
        },
        {
          "indexed": false,
          "internalType": "string",
          "name": "name",
          "type": "string"
        }
      ],
      "name": "UniversityNameUpdated",
      "type": "event"
    },
    {
      "anonymous": false,
      "inputs": [
        {
          "indexed": false,
          "internalType": "address",
          "name": "account",
          "type": "address"
        }
      ],
      "name": "Unpaused",
      "type": "event"
    },
    {
      "anonymous": false,
      "inputs": [
        {
          "indexed": false,
          "internalType": "address",
          "name": "zkpManager",
          "type": "address"
        },
        {
          "indexed": false,
          "internalType": "address",
          "name": "accessManager",
          "type": "address"
        },
        {
          "indexed": false,
          "internalType": "address",
          "name": "keyStorage",
          "type": "address"
        }
      ],
      "name": "ZKPContractsUpdated",
      "type": "event"
    },
    {
      "anonymous": false,
      "inputs": [
        {
          "indexed": true,
          "internalType": "uint256",
          "name": "recordId",
          "type": "uint256"
        },
        {
          "indexed": true,
          "internalType": "address",
          "name": "accessor",
          "type": "address"
        },
        {
          "indexed": false,
          "internalType": "bytes32",
          "name": "proofHash",
          "type": "bytes32"
        },
        {
          "indexed": false,
          "internalType": "uint256",
          "name": "timestamp",
          "type": "uint256"
        }
      ],
      "name": "ZKProofGenerated",
      "type": "event"
    },
    {
      "anonymous": false,
      "inputs": [
        {
          "indexed": true,
          "internalType": "uint256",
          "name": "recordId",
          "type": "uint256"
        },
        {
          "indexed": true,
          "internalType": "address",
          "name": "accessor",
          "type": "address"
        },
        {
          "indexed": false,
          "internalType": "bytes32",
          "name": "proofHash",
          "type": "bytes32"
        },
        {
          "indexed": false,
          "internalType": "bool",
          "name": "isValid",
          "type": "bool"
        }
      ],
      "name": "ZKProofVerified",
      "type": "event"
    },
    {
      "inputs": [],
      "name": "ADMIN_ROLE",
      "outputs": [
        {
          "internalType": "bytes32",
          "name": "",
          "type": "bytes32"
        }
      ],
      "stateMutability": "view",
      "type": "function"
    },
    {
      "inputs": [],
      "name": "DEFAULT_ADMIN_ROLE",
      "outputs": [
        {
          "internalType": "bytes32",
          "name": "",
          "type": "bytes32"
        }
      ],
      "stateMutability": "view",
      "type": "function"
    },
    {
      "inputs": [],
      "name": "SUPER_ADMIN",
      "outputs": [
        {
          "internalType": "address",
          "name": "",
          "type": "address"
        }
      ],
      "stateMutability": "view",
      "type": "function"
    },
    {
      "inputs": [],
      "name": "SUPER_ADMIN_ROLE",
      "outputs": [
        {
          "internalType": "bytes32",
          "name": "",
          "type": "bytes32"
        }
      ],
      "stateMutability": "view",
      "type": "function"
    },
    {
      "inputs": [],
      "name": "UNIVERSITY_ROLE",
      "outputs": [
        {
          "internalType": "bytes32",
          "name": "",
          "type": "bytes32"
        }
      ],
      "stateMutability": "view",
      "type": "function"
    },
    {
      "inputs": [],
      "name": "accessManager",
      "outputs": [
        {
          "internalType": "contract IAccessManager",
          "name": "",
          "type": "address"
        }
      ],
      "stateMutability": "view",
      "type": "function"
    },
    {
      "inputs": [
        {
          "internalType": "address",
          "name": "adminAddress",
          "type": "address"
        }
      ],
      "name": "addAdmin",
      "outputs": [],
      "stateMutability": "nonpayable",
      "type": "function"
    },
    {
      "inputs": [
        {
          "internalType": "string",
          "name": "name",
          "type": "string"
        },
        {
          "internalType": "string",
          "name": "description",
          "type": "string"
        }
      ],
      "name": "addCustomRecordType",
      "outputs": [
        {
          "internalType": "uint256",
          "name": "",
          "type": "uint256"
        }
      ],
      "stateMutability": "nonpayable",
      "type": "function"
    },
    {
      "inputs": [
        {
          "internalType": "string",
          "name": "studentId",
          "type": "string"
        },
        {
          "internalType": "string",
          "name": "studentName",
          "type": "string"
        },
        {
          "internalType": "address",
          "name": "studentAddress",
          "type": "address"
        },
        {
          "internalType": "string",
          "name": "universityName",
          "type": "string"
        },
        {
          "internalType": "string",
          "name": "ipfsHash",
          "type": "string"
        },
        {
          "internalType": "string",
          "name": "metadataHash",
          "type": "string"
        },
        {
          "internalType": "enum IAcademicRecords.RecordType",
          "name": "recordType",
          "type": "uint8"
        }
      ],
      "name": "addRecord",
      "outputs": [
        {
          "internalType": "uint256",
          "name": "",
          "type": "uint256"
        }
      ],
      "stateMutability": "nonpayable",
      "type": "function"
    },
    {
      "inputs": [
        {
          "internalType": "string",
          "name": "studentId",
          "type": "string"
        },
        {
          "internalType": "string",
          "name": "studentName",
          "type": "string"
        },
        {
          "internalType": "address",
          "name": "studentAddress",
          "type": "address"
        },
        {
          "internalType": "string",
          "name": "universityName",
          "type": "string"
        },
        {
          "internalType": "bytes",
          "name": "encryptedIPFSHash",
          "type": "bytes"
        },
        {
          "internalType": "bytes",
          "name": "encryptedMetadataHash",
          "type": "bytes"
        },
        {
          "internalType": "bytes",
          "name": "encryptedKey",
          "type": "bytes"
        },
        {
          "internalType": "enum IAcademicRecords.RecordType",
          "name": "recordType",
          "type": "uint8"
        }
      ],
      "name": "addSecureRecord",
      "outputs": [
        {
          "internalType": "uint256",
          "name": "",
          "type": "uint256"
        }
      ],
      "stateMutability": "nonpayable",
      "type": "function"
    },
    {
      "inputs": [
        {
          "internalType": "address",
          "name": "universityAddress",
          "type": "address"
        },
        {
          "internalType": "string",
          "name": "name",
          "type": "string"
        }
      ],
      "name": "addUniversity",
      "outputs": [],
      "stateMutability": "nonpayable",
      "type": "function"
    },
    {
      "inputs": [
        {
          "internalType": "string",
          "name": "studentId",
          "type": "string"
        }
      ],
      "name": "deleteStudent",
      "outputs": [],
      "stateMutability": "nonpayable",
      "type": "function"
    },
    {
      "inputs": [
        {
          "internalType": "uint256",
          "name": "recordId",
          "type": "uint256"
        },
        {
          "internalType": "string",
          "name": "reason",
          "type": "string"
        }
      ],
      "name": "emergencyAccess",
      "outputs": [
        {
          "components": [
            {
              "internalType": "uint256",
              "name": "id",
              "type": "uint256"
            },
            {
              "internalType": "string",
              "name": "studentId",
              "type": "string"
            },
            {
              "internalType": "string",
              "name": "studentName",
              "type": "string"
            },
            {
              "internalType": "address",
              "name": "studentAddress",
              "type": "address"
            },
            {
              "internalType": "string",
              "name": "universityName",
              "type": "string"
            },
            {
              "internalType": "bytes",
              "name": "encryptedIPFSHash",
              "type": "bytes"
            },
            {
              "internalType": "bytes",
              "name": "encryptedMetadataHash",
              "type": "bytes"
            },
            {
              "internalType": "bytes32",
              "name": "zkProofHash",
              "type": "bytes32"
            },
            {
              "internalType": "enum IAcademicRecords.RecordType",
              "name": "recordType",
              "type": "uint8"
            },
            {
              "internalType": "uint256",
              "name": "timestamp",
              "type": "uint256"
            },
            {
              "internalType": "bool",
              "name": "isVerified",
              "type": "bool"
            },
            {
              "internalType": "address",
              "name": "issuer",
              "type": "address"
            },
            {
              "internalType": "bytes32",
              "name": "accessControlHash",
              "type": "bytes32"
            }
          ],
          "internalType": "struct IAcademicRecords.SecureRecord",
          "name": "",
          "type": "tuple"
        }
      ],
      "stateMutability": "nonpayable",
      "type": "function"
    },
    {
      "inputs": [],
      "name": "getAllAdmins",
      "outputs": [
        {
          "internalType": "address[]",
          "name": "",
          "type": "address[]"
        }
      ],
      "stateMutability": "view",
      "type": "function"
    },
    {
      "inputs": [],
      "name": "getAllUniversities",
      "outputs": [
        {
          "internalType": "address[]",
          "name": "",
          "type": "address[]"
        }
      ],
      "stateMutability": "view",
      "type": "function"
    },
    {
      "inputs": [
        {
          "internalType": "uint256",
          "name": "recordId",
          "type": "uint256"
        },
        {
          "internalType": "bytes32",
          "name": "proofHash",
          "type": "bytes32"
        }
      ],
      "name": "getDecryptedRecord",
      "outputs": [
        {
          "internalType": "bytes",
          "name": "encryptedIPFSHash",
          "type": "bytes"
        },
        {
          "internalType": "bytes",
          "name": "encryptedMetadataHash",
          "type": "bytes"
        }
      ],
      "stateMutability": "nonpayable",
      "type": "function"
    },
    {
      "inputs": [
        {
          "internalType": "uint256",
          "name": "recordId",
          "type": "uint256"
        }
      ],
      "name": "getRecord",
      "outputs": [
        {
          "components": [
            {
              "internalType": "uint256",
              "name": "id",
              "type": "uint256"
            },
            {
              "internalType": "string",
              "name": "studentId",
              "type": "string"
            },
            {
              "internalType": "string",
              "name": "studentName",
              "type": "string"
            },
            {
              "internalType": "address",
              "name": "studentAddress",
              "type": "address"
            },
            {
              "internalType": "string",
              "name": "universityName",
              "type": "string"
            },
            {
              "internalType": "string",
              "name": "ipfsHash",
              "type": "string"
            },
            {
              "internalType": "string",
              "name": "metadataHash",
              "type": "string"
            },
            {
              "internalType": "enum IAcademicRecords.RecordType",
              "name": "recordType",
              "type": "uint8"
            },
            {
              "internalType": "uint256",
              "name": "timestamp",
              "type": "uint256"
            },
            {
              "internalType": "bool",
              "name": "isVerified",
              "type": "bool"
            },
            {
              "internalType": "address",
              "name": "issuer",
              "type": "address"
            }
          ],
          "internalType": "struct IAcademicRecords.Record",
          "name": "",
          "type": "tuple"
        }
      ],
      "stateMutability": "view",
      "type": "function"
    },
    {
      "inputs": [
        {
          "internalType": "bytes32",
          "name": "role",
          "type": "bytes32"
        }
      ],
      "name": "getRoleAdmin",
      "outputs": [
        {
          "internalType": "bytes32",
          "name": "",
          "type": "bytes32"
        }
      ],
      "stateMutability": "view",
      "type": "function"
    },
    {
      "inputs": [
        {
          "internalType": "uint256",
          "name": "recordId",
          "type": "uint256"
        }
      ],
      "name": "getSecureRecord",
      "outputs": [
        {
          "components": [
            {
              "internalType": "uint256",
              "name": "id",
              "type": "uint256"
            },
            {
              "internalType": "string",
              "name": "studentId",
              "type": "string"
            },
            {
              "internalType": "string",
              "name": "studentName",
              "type": "string"
            },
            {
              "internalType": "address",
              "name": "studentAddress",
              "type": "address"
            },
            {
              "internalType": "string",
              "name": "universityName",
              "type": "string"
            },
            {
              "internalType": "bytes",
              "name": "encryptedIPFSHash",
              "type": "bytes"
            },
            {
              "internalType": "bytes",
              "name": "encryptedMetadataHash",
              "type": "bytes"
            },
            {
              "internalType": "bytes32",
              "name": "zkProofHash",
              "type": "bytes32"
            },
            {
              "internalType": "enum IAcademicRecords.RecordType",
              "name": "recordType",
              "type": "uint8"
            },
            {
              "internalType": "uint256",
              "name": "timestamp",
              "type": "uint256"
            },
            {
              "internalType": "bool",
              "name": "isVerified",
              "type": "bool"
            },
            {
              "internalType": "address",
              "name": "issuer",
              "type": "address"
            },
            {
              "internalType": "bytes32",
              "name": "accessControlHash",
              "type": "bytes32"
            }
          ],
          "internalType": "struct IAcademicRecords.SecureRecord",
          "name": "",
          "type": "tuple"
        }
      ],
      "stateMutability": "view",
      "type": "function"
    },
    {
      "inputs": [
        {
          "internalType": "uint256",
          "name": "recordId",
          "type": "uint256"
        },
        {
          "internalType": "bytes32",
          "name": "proofHash",
          "type": "bytes32"
        }
      ],
      "name": "getSecureRecordWithAccess",
      "outputs": [
        {
          "components": [
            {
              "internalType": "uint256",
              "name": "id",
              "type": "uint256"
            },
            {
              "internalType": "string",
              "name": "studentId",
              "type": "string"
            },
            {
              "internalType": "string",
              "name": "studentName",
              "type": "string"
            },
            {
              "internalType": "address",
              "name": "studentAddress",
              "type": "address"
            },
            {
              "internalType": "string",
              "name": "universityName",
              "type": "string"
            },
            {
              "internalType": "bytes",
              "name": "encryptedIPFSHash",
              "type": "bytes"
            },
            {
              "internalType": "bytes",
              "name": "encryptedMetadataHash",
              "type": "bytes"
            },
            {
              "internalType": "bytes32",
              "name": "zkProofHash",
              "type": "bytes32"
            },
            {
              "internalType": "enum IAcademicRecords.RecordType",
              "name": "recordType",
              "type": "uint8"
            },
            {
              "internalType": "uint256",
              "name": "timestamp",
              "type": "uint256"
            },
            {
              "internalType": "bool",
              "name": "isVerified",
              "type": "bool"
            },
            {
              "internalType": "address",
              "name": "issuer",
              "type": "address"
            },
            {
              "internalType": "bytes32",
              "name": "accessControlHash",
              "type": "bytes32"
            }
          ],
          "internalType": "struct IAcademicRecords.SecureRecord",
          "name": "",
          "type": "tuple"
        }
      ],
      "stateMutability": "nonpayable",
      "type": "function"
    },
    {
      "inputs": [
        {
          "internalType": "string",
          "name": "studentId",
          "type": "string"
        }
      ],
      "name": "getStudentRecords",
      "outputs": [
        {
          "internalType": "uint256[]",
          "name": "",
          "type": "uint256[]"
        }
      ],
      "stateMutability": "view",
      "type": "function"
    },
    {
      "inputs": [],
      "name": "getTotalRecords",
      "outputs": [
        {
          "internalType": "uint256",
          "name": "",
          "type": "uint256"
        }
      ],
      "stateMutability": "view",
      "type": "function"
    },
    {
      "inputs": [],
      "name": "getTotalSecureRecords",
      "outputs": [
        {
          "internalType": "uint256",
          "name": "",
          "type": "uint256"
        }
      ],
      "stateMutability": "view",
      "type": "function"
    },
    {
      "inputs": [
        {
          "internalType": "address",
          "name": "universityAddress",
          "type": "address"
        }
      ],
      "name": "getUniversityName",
      "outputs": [
        {
          "internalType": "string",
          "name": "",
          "type": "string"
        }
      ],
      "stateMutability": "view",
      "type": "function"
    },
    {
      "inputs": [
        {
          "internalType": "bytes32",
          "name": "role",
          "type": "bytes32"
        },
        {
          "internalType": "address",
          "name": "account",
          "type": "address"
        }
      ],
      "name": "grantRole",
      "outputs": [],
      "stateMutability": "nonpayable",
      "type": "function"
    },
    {
      "inputs": [
        {
          "internalType": "bytes32",
          "name": "role",
          "type": "bytes32"
        },
        {
          "internalType": "address",
          "name": "account",
          "type": "address"
        }
      ],
      "name": "hasRole",
      "outputs": [
        {
          "internalType": "bool",
          "name": "",
          "type": "bool"
        }
      ],
      "stateMutability": "view",
      "type": "function"
    },
    {
      "inputs": [
        {
          "internalType": "uint256",
          "name": "recordId",
          "type": "uint256"
        },
        {
          "internalType": "address",
          "name": "accessor",
          "type": "address"
        }
      ],
      "name": "hasSecureRecordAccess",
      "outputs": [
        {
          "internalType": "bool",
          "name": "",
          "type": "bool"
        }
      ],
      "stateMutability": "view",
      "type": "function"
    },
    {
      "inputs": [],
      "name": "keyStorage",
      "outputs": [
        {
          "internalType": "contract IKeyStorage",
          "name": "",
          "type": "address"
        }
      ],
      "stateMutability": "view",
      "type": "function"
    },
    {
      "inputs": [],
      "name": "pause",
      "outputs": [],
      "stateMutability": "nonpayable",
      "type": "function"
    },
    {
      "inputs": [],
      "name": "paused",
      "outputs": [
        {
          "internalType": "bool",
          "name": "",
          "type": "bool"
        }
      ],
      "stateMutability": "view",
      "type": "function"
    },
    {
      "inputs": [
        {
          "internalType": "address",
          "name": "adminAddress",
          "type": "address"
        }
      ],
      "name": "removeAdmin",
      "outputs": [],
      "stateMutability": "nonpayable",
      "type": "function"
    },
    {
      "inputs": [
        {
          "internalType": "address",
          "name": "universityAddress",
          "type": "address"
        }
      ],
      "name": "removeUniversity",
      "outputs": [],
      "stateMutability": "nonpayable",
      "type": "function"
    },
    {
      "inputs": [
        {
          "internalType": "bytes32",
          "name": "role",
          "type": "bytes32"
        },
        {
          "internalType": "address",
          "name": "account",
          "type": "address"
        }
      ],
      "name": "renounceRole",
      "outputs": [],
      "stateMutability": "nonpayable",
      "type": "function"
    },
    {
      "inputs": [
        {
          "internalType": "bytes32",
          "name": "role",
          "type": "bytes32"
        },
        {
          "internalType": "address",
          "name": "account",
          "type": "address"
        }
      ],
      "name": "revokeRole",
      "outputs": [],
      "stateMutability": "nonpayable",
      "type": "function"
    },
    {
      "inputs": [
        {
          "internalType": "uint256",
          "name": "recordId",
          "type": "uint256"
        },
        {
          "internalType": "address",
          "name": "user",
          "type": "address"
        }
      ],
      "name": "revokeSecureRecordAccess",
      "outputs": [],
      "stateMutability": "nonpayable",
      "type": "function"
    },
    {
      "inputs": [
        {
          "internalType": "uint256",
          "name": "recordId",
          "type": "uint256"
        },
        {
          "internalType": "bytes",
          "name": "newEncryptedKey",
          "type": "bytes"
        }
      ],
      "name": "rotateRecordKey",
      "outputs": [],
      "stateMutability": "nonpayable",
      "type": "function"
    },
    {
      "inputs": [
        {
          "internalType": "address",
          "name": "universityAddress",
          "type": "address"
        },
        {
          "internalType": "string",
          "name": "name",
          "type": "string"
        }
      ],
      "name": "setUniversityName",
      "outputs": [],
      "stateMutability": "nonpayable",
      "type": "function"
    },
    {
      "inputs": [
        {
          "internalType": "address",
          "name": "_zkpManager",
          "type": "address"
        },
        {
          "internalType": "address",
          "name": "_accessManager",
          "type": "address"
        },
        {
          "internalType": "address",
          "name": "_keyStorage",
          "type": "address"
        }
      ],
      "name": "setZKPContracts",
      "outputs": [],
      "stateMutability": "nonpayable",
      "type": "function"
    },
    {
      "inputs": [
        {
          "internalType": "uint256",
          "name": "recordId",
          "type": "uint256"
        },
        {
          "internalType": "address",
          "name": "sharedWith",
          "type": "address"
        }
      ],
      "name": "shareRecord",
      "outputs": [],
      "stateMutability": "nonpayable",
      "type": "function"
    },
    {
      "inputs": [
        {
          "internalType": "uint256",
          "name": "recordId",
          "type": "uint256"
        },
        {
          "internalType": "address",
          "name": "sharedWith",
          "type": "address"
        },
        {
          "internalType": "uint256",
          "name": "duration",
          "type": "uint256"
        },
        {
          "internalType": "uint256",
          "name": "maxUsage",
          "type": "uint256"
        }
      ],
      "name": "shareSecureRecord",
      "outputs": [
        {
          "internalType": "bytes32",
          "name": "",
          "type": "bytes32"
        }
      ],
      "stateMutability": "nonpayable",
      "type": "function"
    },
    {
      "inputs": [],
      "name": "studentManagement",
      "outputs": [
        {
          "internalType": "contract StudentManagement",
          "name": "",
          "type": "address"
        }
      ],
      "stateMutability": "view",
      "type": "function"
    },
    {
      "inputs": [
        {
          "internalType": "bytes4",
          "name": "interfaceId",
          "type": "bytes4"
        }
      ],
      "name": "supportsInterface",
      "outputs": [
        {
          "internalType": "bool",
          "name": "",
          "type": "bool"
        }
      ],
      "stateMutability": "view",
      "type": "function"
    },
    {
      "inputs": [],
      "name": "unpause",
      "outputs": [],
      "stateMutability": "nonpayable",
      "type": "function"
    },
    {
      "inputs": [],
      "name": "zkpManager",
      "outputs": [
        {
          "internalType": "contract IZKPManager",
          "name": "",
          "type": "address"
        }
      ],
      "stateMutability": "view",
      "type": "function"
    }
  ],
  "bytecode": "0x60a0604052346102f2573360808190526000908152600080516020614808833981519152602052604090205460ff16156102b2575b3360009081526000805160206147e8833981519152602052604090205460ff1615610250575b3360009081526000805160206147c8833981519152602052604090205460ff16156101ee575b600354680100000000000000008110156101c25760018101806003558110156101d8577fc2575a0e9e593c00f959f8c92f12db2869c3395a3b0502d05e2516446f71f85b0180546001600160a01b0319163390811790915560009081526004602052604090819020805460ff19908116600117909155600580549091169055516108e38082016001600160401b038111838210176101c2578291613ec5833903906000f080156101b657601380546001600160a01b0319166001600160a01b0392909216919091179055604051613bcd90816102f882396080518181816107d201528181610c1601528181611170015281816111b40152818161125d015281816112ec015281816116cd0152818161188401528181611acb01528181611f99015281816121e40152818161245a01526126fc0152f35b6040513d6000823e3d90fd5b634e487b7160e01b600052604160045260246000fd5b634e487b7160e01b600052603260045260246000fd5b3360008181526000805160206147c883398151915260205260408120805460ff1916600117905581907fa49807205ce4d355092ef5a8a18f56e8913cf4a201fbe287825b095693c21775906000805160206147a88339815191529080a4610080565b3360008181526000805160206147e883398151915260205260408120805460ff1916600117905581907f7613a25ecc738585a232ad50a301178f12b3ba8887d13e138b523c4269c47689906000805160206147a88339815191529080a461005a565b33600081815260008051602061480883398151915260205260408120805460ff1916600117905581906000805160206147a88339815191528180a4610034565b600080fdfe60a080604052600436101561001357600080fd5b600090813560e01c90816301ffc9a714612f395750806302a62d0414612b9557806303e9e6091461291157806304eec3571461283e5780630aeacb5e146128205780630aefc3cf146127f75780630eb0cb86146126cd5780631785f53c1461243e5780631caebd5a14612239578063248a9ca31461221257806328f54b2f14611fc757806329869c0614611dd25780632d175a1814611d035780632f2ff15d14611c6157806336568abe14611bce57806337c7a5c814611b3f5780633825d4c514611a925780633c2bc6a1146118db5780633d178414146118b25780633f4ba83a146117ba5780634460bdd6146117915780634b375016146114c65780635c975abb146114a357806370480275146112cc57806375b238fc146112a357806379eec54d146111e35780637c7c7c3c1461119e5780638456cb59146110e0578063882f04031461107f5780638955895f14610ec357806391d1485414610e785780639b22b62914610c60578063a217fddf14610c44578063a908dc6214610956578063ba6093ba14610800578063baf9077b1461054a578063d547741f14610510578063d933512414610440578063e04bb1151461038e578063e0d698ac14610365578063e9523c97146102e7578063f597d99414610259578063f79f7954146102305763fdcb60681461020557600080fd5b3461022d578060031936011261022d576015546040516001600160a01b039091168152602090f35b80fd5b503461022d578060031936011261022d576016546040516001600160a01b039091168152602090f35b503461022d578060031936011261022d5760405160028054808352908352909160208301917f405787fa12a823e0f2b7631cc41b3ba8828b3321ca811111fa75cd3aa3bb5ace915b8181106102c8576102c4856102b881870382613278565b604051918291826131e7565b0390f35b82546001600160a01b03168452602090930192600192830192016102a1565b503461022d578060031936011261022d5760405160038054808352908352909160208301917fc2575a0e9e593c00f959f8c92f12db2869c3395a3b0502d05e2516446f71f85b915b818110610346576102c4856102b881870382613278565b82546001600160a01b031684526020909301926001928301920161032f565b503461022d578060031936011261022d576014546040516001600160a01b039091168152602090f35b503461022d57604036600319011261022d57806103a961311c565b60155473__$e9f0e9f94b070702b0a4350f476d925565$__91906001600160a01b0316823b1561043b5760a4849260405194859384926306b3063d60e41b845260066004850152600435602485015260018060a01b0316604484015233606484015260848301525af480156104305761041f5750f35b8161042991613278565b61022d5780f35b6040513d84823e3d90fd5b505050fd5b503461022d57604036600319011261022d5761045a61311c565b6015546001600160a01b031691821515918261047e575b6020836040519015158152f35b60209192506044604051809581936319da283360e31b8352600435600484015260018060a01b031660248301525afa9081156105045780916104c7575b50602091503880610471565b90506020823d6020116104fc575b816104e260209383613278565b8101031261022d57506104f6602091613300565b386104bb565b3d91506104d5565b604051903d90823e3d90fd5b503461022d57604036600319011261022d5761054760043561053061311c565b9061054261053d82613596565b613858565b613787565b80f35b503461022d57610559366131a8565b600080516020613b5883398151915284526020848152604080862033600090815292529020549093929060ff1680156107ce575b80156107bc575b1561077a57600080516020613af88339815191528352602083815260408085206001600160a01b0384166000908152925290205460ff1615610737576001600160a01b0316808352600160205260408320939091906001600160401b0381116107235761060185546133d1565b601f81116106e8575b508394601f82116001146106755761064a82808798600080516020613b7883398151915297989161066a575b508160011b916000199060031b1c19161790565b90555b610664604051928392602084526020840191613766565b0390a280f35b905085013538610636565b8085526020852095601f198316865b8181106106d057509083600080516020613b7883398151915296979892106106b6575b5050600182811b01905561064d565b840135600019600385901b60f8161c1916905538806106a7565b85830135895560019098019760209283019201610684565b6107139086865260208620601f840160051c81019160208510610719575b601f0160051c01906135f1565b3861060a565b9091508190610706565b634e487b7160e01b84526041600452602484fd5b60405162461bcd60e51b815260206004820152601b60248201527a41646472657373206973206e6f74206120756e697665727369747960281b6044820152606490fd5b60405162461bcd60e51b815260206004820152601a6024820152794e6f7420617574686f72697a656420746f20736574206e616d6560301b6044820152606490fd5b50336001600160a01b03821614610594565b50337f00000000000000000000000000000000000000000000000000000000000000006001600160a01b03161461058d565b503461022d57604036600319011261022d576004356001600160401b03811161095257610831903690600401613148565b9091906024356001600160401b03811161094e5760206108586108a0923690600401613148565b6108606137f7565b604051634a0ab76b60e11b81526010600482015260806024820152938492839261088e60848501898c613766565b84810360031901604486015291613766565b336064830152038173__$418a42c2ace6135936f69e0acb768a6277$__5af49283156105045792610914575b50817fd86d539582c7bd4f6009dae64cfee262a9ad9897d422fafeb23e9362f287e1e0610909602095604051918291888352339689840191613766565b0390a3604051908152f35b91506020823d602011610946575b8161092f60209383613278565b810103126109415790519060206108cc565b600080fd5b3d9150610922565b8280fd5b5080fd5b503461022d57610965366131a8565b600080516020613b58833981519152845260208481526040808620336000908152925290205460ff168015610c12575b61099e906135aa565b600080516020613af88339815191528452602084815260408086206001600160a01b0386166000908152925290205460ff16610bd657600080516020613af88339815191528452602084815260408086206001600160a01b0386166000908152925290205460ff1615610b82575b6001600160a01b0383168085526001602052604085209093906001600160401b038311610ad057610a3d81546133d1565b601f8111610b52575b508583601f8111600114610aef5780610a73928991610ae457508160011b916000199060031b1c19161790565b90555b600254600160401b811015610ad057600080516020613b78833981519152939291610aac82600161064d9401600255600261357e565b9080546001600160a01b0360039390931b83811b199091169290931690921b179055565b634e487b7160e01b86526041600452602486fd5b905086013538610636565b50818752602087209084601f198116895b818110610b37575010610b1d575b5050600183811b019055610a76565b850135600019600386901b60f8161c191690553880610b0e565b88840135855560019094019360209384019388935001610b00565b610b7c9082885260208820601f860160051c8101916020871061071957601f0160051c01906135f1565b38610a46565b600080516020613af8833981519152808552602085815260408087206001600160a01b03871660008181529190935220805460ff191660011790553391600080516020613ad88339815191528780a4610a0c565b60405162461bcd60e51b8152602060048201526014602482015273416c7265616479206120756e697665727369747960601b6044820152606490fd5b50337f00000000000000000000000000000000000000000000000000000000000000006001600160a01b031614610995565b503461022d578060031936011261022d57602090604051908152f35b503461022d5760e036600319011261022d576004356001600160401b03811161095257610c91903690600401613148565b9091906024356001600160401b03811161094e57610cb3903690600401613148565b610cbb613132565b6064356001600160401b038111610e7457610cda903690600401613148565b91906084356001600160401b038111610e7057610cfb903690600401613148565b909160a4356001600160401b038111610e6c57610d1c903690600401613148565b94909560c4359860208a1015610e6857610d346137f7565b610d3c613896565b60135460405163bd89968760e01b81526006600482015261014060248201529d8e9c6001600160a01b039092169a91610d7b916101448f019190613766565b908c600319818403019060440152610d9292613766565b6001600160a01b0390921660648b01528982036003190160848b0152610db792613766565b906003198883030160a4890152610dcd92613766565b906003198683030160c4870152610de392613766565b9160e48401610df191612fd6565b33610104840152610124830152038273__$8fd1b09fef9f7984f520452ca4c70f6eb2$__91815a93602094f49081156105045790610e35575b602090604051908152f35b506020813d602011610e60575b81610e4f60209383613278565b810103126109415760209051610e2a565b3d9150610e42565b8b80fd5b8980fd5b8780fd5b8580fd5b503461022d57604036600319011261022d576040610e9461311c565b91600435815280602052209060018060a01b0316600052602052602060ff604060002054166040519015158152f35b503461022d57602036600319011261022d576004356001600160401b03811161095257610ef4903690600401613148565b610efc6137f7565b610f04613896565b801561104557604051633811a9ef60e21b81526006600482015260606024820152838180610f36606482018688613766565b336044830152038173__$418a42c2ace6135936f69e0acb768a6277$__5af4801561103a57610f9b575b50806040519283378101908282528033920390207f1949bcb8762ad61ab8a8f3175c5787a3204c83583381bb42cdcdbf62141b11c48380a380f35b3d8085833e610faa8183613278565b810190602081830312611036578051906001600160401b038211610e7457019080601f83011215611036578151916001600160401b038311610ad0578260051b9060405193610ffc6020840186613278565b845260208085019282010192831161103257602001905b82821061102257505050610f60565b8151815260209182019101611013565b8680fd5b8480fd5b6040513d86823e3d90fd5b60405162461bcd60e51b8152602060048201526012602482015271125b9d985b1a59081cdd1d59195b9d08125160721b6044820152606490fd5b503461022d57602036600319011261022d576102c4906110c5906110cc906040906001600160a01b036110b0613106565b1681526001602052206040519283809261340b565b0382613278565b604051918291602083526020830190612fb1565b503461022d578060031936011261022d57600080516020613b58833981519152815260208181526040808320336000908152925290205460ff16801561116c575b61112a906135aa565b611132613896565b600160ff1960055416176005557f62e78cea01bee320cd4e420270b5ea74000d11b0c9f74754ebdbfc544b05a2586020604051338152a180f35b50337f00000000000000000000000000000000000000000000000000000000000000006001600160a01b031614611121565b503461022d578060031936011261022d576040517f00000000000000000000000000000000000000000000000000000000000000006001600160a01b03168152602090f35b503461022d57806111f336613175565b6016546001600160a01b0316919073__$e9f0e9f94b070702b0a4350f476d925565$__90813b15610e7457611255948694604051968795869485946311089f7760e21b865260066004870152602486015260c0604486015260c4850191613766565b3360648401527f00000000000000000000000000000000000000000000000000000000000000006001600160a01b0316608484015260a483019190915203915af480156104305761041f5750f35b503461022d578060031936011261022d576020604051600080516020613b588339815191528152f35b503461022d57602036600319011261022d576112e6613106565b61131a337f00000000000000000000000000000000000000000000000000000000000000006001600160a01b0316146134f4565b600080516020613b588339815191528252602082815260408084206001600160a01b0384166000908152925290205460ff1661146b57600080516020613b588339815191528252602082815260408084206001600160a01b0384166000908152925290205460ff1615611417575b6001600160a01b0381168083526004602052604083205490919060ff16156113d5575b5033907fbf3f493c772c8c283fd124432c2d0f539ab343faa04258fe88e52912d36b102b8380a380f35b600354600160401b8110156107235790610aac8260016113fa9401600355600361357e565b808252600460205260408220805460ff19166001179055386113ab565b600080516020613b58833981519152808352602083815260408085206001600160a01b03851660008181529190935220805460ff191660011790553391600080516020613ad88339815191528580a4611388565b60405162461bcd60e51b815260206004820152601060248201526f20b63932b0b23c9030b71030b236b4b760811b6044820152606490fd5b503461022d578060031936011261022d57602060ff600554166040519015158152f35b503461022d5761010036600319011261022d576004356001600160401b038111610952576114f8903690600401613148565b6024356001600160401b03811161178d57611517903690600401613148565b90611520613132565b6064356001600160401b0381116110325761153f903690600401613148565b91906084356001600160401b03811161178957611560903690600401613148565b909160a4356001600160401b03811161178557611581903690600401613148565b909590949060c4356001600160401b038111611781576115a5903690600401613148565b989099602060e435101561177d576115bb6137f7565b6115c3613896565b60135460145460405160808181526375cb917960e01b9091528051600660049091015280516101a0602490910152516001600160a01b039283169f919092169d611611926101a40191613766565b906003196080518303016080516044015261162b92613766565b91600160a01b6001900316608051606401526003196080518303016080516084015261165692613766565b9060031960805183030160805160a4015261167092613766565b9060031960805183030160805160c4015261168a92613766565b9060031960805183030160805160e401526116a492613766565b916080516101040160e435906116b991612fd6565b336080516101240152600160a01b600190037f000000000000000000000000000000000000000000000000000000000000000016608051610144015260805161016401526080516101840152608051906080519003906080519173__$8fd1b09fef9f7984f520452ca4c70f6eb2$__925a93602094f4908115610504579061174657602090604051908152f35b5060203d602011611776575b80611761602092608051613278565b60805190810103126109415760805151610e2a565b503d611752565b8d80fd5b8c80fd5b8a80fd5b8880fd5b8380fd5b503461022d578060031936011261022d576020604051600080516020613b188339815191528152f35b503461022d578060031936011261022d57600080516020613b58833981519152815260208181526040808320336000908152925290205460ff168015611880575b611804906135aa565b60055460ff8116156118445760ff19166005557f5db9ee0a495bf2e6ff9c91a7834c1ba4fdd244a5e8aa4e537bd38aeae4b073aa6020604051338152a180f35b60405162461bcd60e51b815260206004820152601460248201527314185d5cd8589b194e881b9bdd081c185d5cd95960621b6044820152606490fd5b50337f00000000000000000000000000000000000000000000000000000000000000006001600160a01b0316146117fb565b503461022d578060031936011261022d576020604051600080516020613af88339815191528152f35b503461022d576118ea36613175565b6118f592919261329b565b50600080516020613b18833981519152845260208481526040808620336000908152925290205460ff16156119ca57839160018060a01b036015541661196260405195869485946291c27b60e31b865260066004870152602486015260a0604486015260a4850191613766565b903360648401526084830152038173__$e9f0e9f94b070702b0a4350f476d925565$__5af490811561043057826102c493926119a7575b505060405191829182612ff9565b6119c392503d8091833e6119bb8183613278565b810190613608565b3880611999565b611a8e6119d6336138eb565b611a6e60116119f2600080516020613b18833981519152613a2b565b92603760405194859276020b1b1b2b9b9a1b7b73a3937b61d1030b1b1b7bab73a1604d1b6020850152611a2e8151809260208688019101612f8e565b83017001034b99036b4b9b9b4b733903937b6329607d1b83820152611a5d825180936020604885019101612f8e565b01010301601f198101835282613278565b60405162461bcd60e51b8152602060048201529182916024830190612fb1565b0390fd5b503461022d5780611aa2366130f0565b9190611aac61329b565b5060145460155460405163bcdab82360e01b81529485938493611b07937f0000000000000000000000000000000000000000000000000000000000000000936001600160a01b039182169391909216913391600488016134b3565b038173__$e9f0e9f94b070702b0a4350f476d925565$__5af490811561043057826102c493926119a757505060405191829182612ff9565b503461022d57608036600319011261022d57611b5961311c565b9060405191630d88133760e41b835260066004840152600435602484015260018060a01b03166044830152604435606483015260643560848301523360a483015260208260c48173__$e9f0e9f94b070702b0a4350f476d925565$__5af49081156105045790610e3557602090604051908152f35b503461022d57604036600319011261022d57611be861311c565b336001600160a01b03821603611c045761054790600435613787565b60405162461bcd60e51b815260206004820152602f60248201527f416363657373436f6e74726f6c3a2063616e206f6e6c792072656e6f756e636560448201526e103937b632b9903337b91039b2b63360891b6064820152608490fd5b503461022d57604036600319011261022d57600435611c7e61311c565b90611c8b61053d82613596565b808352602083815260408085206001600160a01b0385166000908152925290205460ff1615611cb8578280f35b808352602083815260408085206001600160a01b0394909416600081815294909252909220805460ff19166001179055339190600080516020613ad88339815191528480a438808280f35b503461022d57602036600319011261022d576004356001600160401b03811161095257611d366020913690600401613148565b919082604051938492833781016008815203019020604051908160208254918281520190819285526020852090855b818110611dbc5750505082611d7b910383613278565b604051928392602084019060208552518091526040840192915b818110611da3575050500390f35b8251845285945060209384019390920191600101611d95565b8254845260209093019260019283019201611d65565b503461022d57606036600319011261022d57611dec613106565b611df461311c565b611dfc613132565b600080516020613b58833981519152845260208481526040808620336000908152925290205490929060ff168015611f95575b611e38906135aa565b6001600160a01b03169081151580611f83575b80611f71575b15611f3857601480546001600160a01b031990811684179091556015805482166001600160a01b03938416908117909155601680549092169490921693841790558373__$418a42c2ace6135936f69e0acb768a6277$__803b1561095257816064916040519283809263f09df73360e01b8252600660048301528960248301528760448301525af4801561043057611f1f575b507f113cdadc0cb7d6b469b81efaaedfe5c62d8b7e8e256af162acdd268efc07bbb7606084868560405192835260208301526040820152a180f35b81611f2c91949394613278565b61178d57908338611ee4565b60405162461bcd60e51b8152602060048201526011602482015270496e76616c69642061646472657373657360781b6044820152606490fd5b506001600160a01b0383161515611e51565b506001600160a01b0381161515611e4b565b50337f00000000000000000000000000000000000000000000000000000000000000006001600160a01b031614611e2f565b503461022d57602036600319011261022d57611fe1613106565b600080516020613b58833981519152825260208281526040808420336000908152925290205460ff1680156121e0575b61201a906135aa565b600080516020613af88339815191528252602082815260408084206001600160a01b0384166000908152925290205460ff1661218f575b6001600160a01b03168082526001602052604082208054839190612074906133d1565b8061214d575b50505b60025480821015612147578261209283613563565b905460039190911b1c6001600160a01b0316146120b2575060010161207d565b90915060001981019081116121335790610aac6120d16120e993613563565b905460039190911b1c6001600160a01b031691613563565b600254801561211f576000190161211961210482600261357e565b81549060018060a01b039060031b1b19169055565b60025580f35b634e487b7160e01b82526031600452602482fd5b634e487b7160e01b83526011600452602483fd5b50505080f35b601f81116001146121635750555b81388061207a565b8183526020832061217f91601f0160051c8101906001016135f1565b808252816020812091555561215b565b600080516020613af8833981519152808352602083815260408085206001600160a01b03851660008181529190935220805460ff191690553391600080516020613b388339815191528580a4612051565b50337f00000000000000000000000000000000000000000000000000000000000000006001600160a01b031614612011565b503461022d57602036600319011261022d576020612231600435613596565b604051908152f35b503461022d57604036600319011261022d5760043561225661311c565b90808352600660205261226e8160408520541461338d565b6013546040516386c3441560e01b8152336004820152908490829060249082906001600160a01b03165afa90811561103a578491612401575b50805180151590816123cb575b50156123955773__$418a42c2ace6135936f69e0acb768a6277$__92833b156110365760405163db810d4760e01b815260066004820152602481018490526001600160a01b0390911660448201819052608060648301529385908290818061231f6084820188612fb1565b03915af4801561238a57612374575b5061234790602060405192828480945193849201612f8e565b8101039020907fc2423a58507863fe4ba6405dd105f958afc6ee0eff57522e1971a36e8fafd73c8480a480f35b93612383816123479396613278565b939061232e565b6040513d87823e3d90fd5b60405162461bcd60e51b815260206004820152600e60248201526d139bdd08185d5d1a1bdc9a5e995960921b6044820152606490fd5b9050602082012082855260066020526110c56123f3600160408820016040519283809261340b565b6020815191012014386122b4565b90503d8085833e6124128183613278565b81016020828203126110365781516001600160401b038111610e74576124389201613328565b386122a7565b503461022d57602036600319011261022d57612458613106565b7f00000000000000000000000000000000000000000000000000000000000000006001600160a01b03169061248e3383146134f4565b6001600160a01b031690811461268c57600080516020613b588339815191528252816020526040822081835260205260ff6040832054161561265857600080516020613b588339815191528252816020526040822081835260205260ff604083205416612605575b808252600460205260ff604083205416612534575b33907fdb9d5d31320daf5bc7181d565b6da4d12e30f0f4d5aa324a992426c14a1d19ce8380a380f35b815b600354808210156125fe578261254b83613532565b905460039190911b1c6001600160a01b03161461256b5750600101612536565b60001981019081116125ea5790610aac61258761259f93613532565b905460039190911b1c6001600160a01b031691613532565b60035480156125d657600019016125ba61210482600361357e565b600355808252600460205260408220805460ff1916905561250b565b634e487b7160e01b83526031600452602483fd5b634e487b7160e01b84526011600452602484fd5b505061250b565b600080516020613b58833981519152825281602052604082208183526020526040822060ff1981541690553381600080516020613b58833981519152600080516020613b388339815191528580a46124f6565b60405162461bcd60e51b815260206004820152600c60248201526b2737ba1030b71030b236b4b760a11b6044820152606490fd5b60405162461bcd60e51b815260206004820152601960248201527821b0b73737ba103932b6b7bb329039bab832b91030b236b4b760391b6044820152606490fd5b503461022d57806126dd366130f0565b601454601554604051631ef0903960e11b8152949385938493612738937f0000000000000000000000000000000000000000000000000000000000000000936001600160a01b039182169392909116913391600488016134b3565b038173__$e9f0e9f94b070702b0a4350f476d925565$__5af4918215610504578091819361278b575b61277d836102c486604051938493604085526040850190612fb1565b908382036020850152612fb1565b915091503d8083833e61279e8183613278565b81019160408284031261022d5781516001600160401b03811161095257836127c7918401613328565b6020830151909290916001600160401b03831161022d575061277d936102c4926127f19201613328565b92612761565b503461022d578060031936011261022d576013546040516001600160a01b039091168152602090f35b503461022d578060031936011261022d576020600d54604051908152f35b503461022d578060031936011261022d5773__$418a42c2ace6135936f69e0acb768a6277$__908060015b600d548111612906576040516316fc1ba760e11b81526006600482015260248101829052602081604481885af490811561103a5784916128cd575b506128b8575b6128b39061348e565b612869565b906128c56128b39161348e565b9190506128aa565b90506020813d82116128fe575b816128e760209383613278565b8101031261178d576128f890613300565b386128a4565b3d91506128da565b602082604051908152f35b503461022d57602036600319011261022d57600435816040516129338161325c565b81815260208101606090526040810160609052816060820152608081016060905260a081016060905260c08101606090528160e0820152816101008201528161012082015261014001528082526006602052806040832054146129959061338d565b81526006602052604090206040516129ac8161325c565b8154815260405191826129c2816001840161340b565b036129cd9084613278565b6020820192835260405190816129e6816002840161340b565b036129f19083613278565b604083810192835260038201546001600160a01b03166060850190815290519092909182612a22816004840161340b565b03612a2d9084613278565b6080850192835260405180612a45816005850161340b565b03612a509082613278565b60a086019081526040519081612a69816006860161340b565b03612a749083613278565b60c08701918252600783015460ff169560e0880196612a939088613381565b6008840154936101008901948552600901549561012089019560ff8816151587526101408a0197600160a01b600190039060081c1688526040519a8b9a60208c525160208c01525160408b0161016090526101808b01612af291612fb1565b90518a8203601f190160608c0152612b0a9190612fb1565b91516001600160a01b031660808a015251888203601f190160a08a0152612b319190612fb1565b9051878203601f190160c0890152612b499190612fb1565b9051868203601f190160e0880152612b619190612fb1565b93516101008601612b7191612fd6565b51610120850152511515610140840152516001600160a01b03166101608301520390f35b503461022d57602036600319011261022d57600435612bb261329b565b5073__$418a42c2ace6135936f69e0acb768a6277$__906040516316fc1ba760e11b815260066004820152816024820152602081604481865af490811561103a578491612eff575b5015612ebb5760405163355e181360e11b815260066004820152602481018290528381604481865af490811561103a5784858687889189938a958b978c99612dd7575b506044959697989960208c6040519889809263691d726d60e11b8252600660048301528560248301525af4968715612dcc578d8098612d95575b50506020906044604051809e819363b8370edd60e01b83526006600484015260248301525af49a8b15612d8a578c9b612d53575b50926102c49b92612ccb9b9a9998979592612d2497956040519d8e61322a565b8d5260208d015260408c015260018060a01b031660608b015260808a0152604051612cf7602082613278565b81815260a08a015260405190612d0e602083613278565b815260c089015260e08801526101008701613381565b61012085015215156101408401526001600160a01b031661016083015261018082015260405191829182612ff9565b909a508b8160203d602011612d83575b602092612d708284613278565b5081010312610e685751996102c4612cab565b503d612d63565b6040513d8e823e3d90fd5b819298509060209182903d8411612dc4575b612db18284613278565b508101031261178157519560208d612c77565b3d9150612da7565b6040513d8f823e3d90fd5b985050505050505050503d8085833e612df08183613278565b81016101408282031261103657815160208301519091906001600160401b0381116110325781612e21918501613328565b60408401519091906001600160401b038111610e705781612e43918601613328565b90612e506060860161336d565b608086015190916001600160401b038211610e6c57612e70918701613328565b60a0860151916020831015610e6c5760449360c088015195612e9460e08a01613300565b97612eaf610120612ea86101008d0161336d565b9b01613300565b50909192939495612c3d565b60405162461bcd60e51b815260206004820152601c60248201527b14d958dd5c99481c9958dbdc9908191bd95cc81b9bdd08195e1a5cdd60221b6044820152606490fd5b90506020813d602011612f31575b81612f1a60209383613278565b8101031261178d57612f2b90613300565b38612bfa565b3d9150612f0d565b9050346109525760203660031901126109525760043563ffffffff60e01b811680910361094e5760209250637965db0b60e01b8114908115612f7d575b5015158152f35b6301ffc9a760e01b14905038612f76565b60005b838110612fa15750506000910152565b8181015183820152602001612f91565b90602091612fca81518092818552858086019101612f8e565b601f01601f1916010190565b906020821015612fe35752565b634e487b7160e01b600052602160045260246000fd5b60208152815160208201526101a061018061309c61308661307061304561302f60208901518760408a01526101c0890190612fb1565b6040890151888203601f190160608a0152612fb1565b60608801516001600160a01b0316608088810191909152880151878203601f190160a0890152612fb1565b60a0870151868203601f190160c0880152612fb1565b60c0860151858203601f190160e0870152612fb1565b9360e08101516101008501526130bc610100820151610120860190612fd6565b610120810151610140850152610140810151151561016085015260018060a01b036101608201511682850152015191015290565b6040906003190112610941576004359060243590565b600435906001600160a01b038216820361094157565b602435906001600160a01b038216820361094157565b604435906001600160a01b038216820361094157565b9181601f84011215610941578235916001600160401b038311610941576020838186019501011161094157565b9060406003198301126109415760043591602435906001600160401b038211610941576131a491600401613148565b9091565b906040600319830112610941576004356001600160a01b03811681036109415791602435906001600160401b038211610941576131a491600401613148565b602060408183019282815284518094520192019060005b81811061320b5750505090565b82516001600160a01b03168452602093840193909201916001016131fe565b6101a081019081106001600160401b0382111761324657604052565b634e487b7160e01b600052604160045260246000fd5b61016081019081106001600160401b0382111761324657604052565b601f909101601f19168101906001600160401b0382119082101761324657604052565b604051906132a88261322a565b600061018083828152606060208201526060604082015282606082015260606080820152606060a0820152606060c08201528260e0820152826101008201528261012082015282610140820152826101608201520152565b5190811515820361094157565b6001600160401b03811161324657601f01601f191660200190565b81601f8201121561094157602081519101906133438161330d565b926133516040519485613278565b818452818301116109415761336a916020840190612f8e565b90565b51906001600160a01b038216820361094157565b6020821015612fe35752565b1561339457565b60405162461bcd60e51b8152602060048201526015602482015274149958dbdc9908191bd95cc81b9bdd08195e1a5cdd605a1b6044820152606490fd5b90600182811c92168015613401575b60208310146133eb57565b634e487b7160e01b600052602260045260246000fd5b91607f16916133e0565b6000929181549161341b836133d1565b8083529260018116908115613471575060011461343757505050565b60009081526020812093945091925b838310613457575060209250010190565b600181602092949394548385870101520191019190613446565b915050602093945060ff929192191683830152151560051b010190565b600019811461349d5760010190565b634e487b7160e01b600052601160045260246000fd5b60068152602081019190915260408101919091526001600160a01b039182166060820152918116608083015291821660a0820152911660c082015260e00190565b156134fb57565b60405162461bcd60e51b815260206004820152600f60248201526e2737ba1039bab832b91030b236b4b760891b6044820152606490fd5b60035481101561354d57600360005260206000200190600090565b634e487b7160e01b600052603260045260246000fd5b60025481101561354d57600260005260206000200190600090565b805482101561354d5760005260206000200190600090565b600052600060205260016040600020015490565b156135b157565b60405162461bcd60e51b81526020600482015260186024820152772737ba1030b236b4b71037b91039bab832b91030b236b4b760411b6044820152606490fd5b8181106135fc575050565b600081556001016135f1565b602081830312610941578051906001600160401b03821161094157016101a081830312610941576040519161363c8361322a565b8151835260208201516001600160401b038111610941578161365f918401613328565b602084015260408201516001600160401b0381116109415781613683918401613328565b60408401526136946060830161336d565b606084015260808201516001600160401b03811161094157816136b8918401613328565b608084015260a08201516001600160401b03811161094157816136dc918401613328565b60a084015260c0820151906001600160401b03821161094157613700918301613328565b60c083015260e081015160e083015261010081015190602082101561094157610180916101008401526101208101516101208401526137426101408201613300565b610140840152613755610160820161336d565b610160840152015161018082015290565b908060209392818452848401376000828201840152601f01601f1916010190565b6000818152602081815260408083206001600160a01b038616845290915290205460ff166137b3575050565b6000818152602081815260408083206001600160a01b0395909516808452949091528120805460ff1916905533929190600080516020613b388339815191529080a4565b3360009081527f1a7760066bd1f06df3a1a816a948cb99a3a2e8ffa5089500e84706868bfe072d602052604090205460ff161561383057565b611a8e61383c336138eb565b611a6e60116119f2600080516020613af8833981519152613a2b565b60008181526020818152604080832033845290915290205460ff161561387b5750565b611a8e90611a6e60116119f2613890336138eb565b93613a2b565b60ff600554166138a257565b60405162461bcd60e51b815260206004820152601060248201526f14185d5cd8589b194e881c185d5cd95960821b6044820152606490fd5b90815181101561354d570160200190565b6000906138f8602a61330d565b916139066040519384613278565b602a8352613914602a61330d565b6020840190601f1901368237835115613a175760309053825160011015613a03576078602184015350602960005b600182116139975750506139535790565b606460405162461bcd60e51b815260206004820152602060248201527f537472696e67733a20686578206c656e67746820696e73756666696369656e746044820152fd5b9091600f811660108110156139ef576f181899199a1a9b1b9c1cb0b131b232b360811b901a6139c684866138da565b5360041c9180156139db576000190190613942565b634e487b7160e01b82526011600452602482fd5b634e487b7160e01b83526032600452602483fd5b634e487b7160e01b81526032600452602490fd5b634e487b7160e01b82526032600452602482fd5b600090613a38604261330d565b91613a466040519384613278565b60428352613a54604261330d565b6020840190601f1901368237835115613a175760309053825160011015613a03576078602184015350604160005b60018211613a935750506139535790565b9091600f811660108110156139ef576f181899199a1a9b1b9c1cb0b131b232b360811b901a613ac284866138da565b5360041c9180156139db576000190190613a8256fe2f8788117e7eff1d82e926ec794901d17c78024a50270940304540a733656f0d5bb0bf1fabd5e975fc7a4520766d9e86e0eb281f8c7c44fcd3dfe60a11e786ca7613a25ecc738585a232ad50a301178f12b3ba8887d13e138b523c4269c47689f6391f5c32d9c69d2a47ea670b442974b53935d1edc7fd64eb21e047a839171ba49807205ce4d355092ef5a8a18f56e8913cf4a201fbe287825b095693c21775c27f3bae021ab8e78d67f94f2cd8248055d6ae911c4cf44c62bd025cd3574ee1a2646970667358221220e869fecc20ac0c81f9b1c4453c374d77554da51592a74bb5954e82bdc45d0deb64736f6c634300081c0033608080604052346015576108c8908161001b8239f35b600080fdfe608080604052600436101561001357600080fd5b60003560e01c908163528bcbac146101f3575080635a0ade26146101a957806386c34415146101a9578063a82e3b001461014c578063bd5ba462146100f6578063c6ddfefb146100b75763ce09213b1461006c57600080fd5b346100b257602061007c36610804565b8161009060405192838151938492016106b4565b600190820190815281900382019020546040516001600160a01b039091168152f35b600080fd5b346100b257602060ff6100e0826100cd36610804565b81604051938285809451938492016106b4565b8101600081520301902054166040519015158152f35b346100b25760203660031901126100b2576004356001600160401b0381116100b25760ff602061012b81933690600401610671565b91908260405193849283378101600081520301902054166040519015158152f35b346100b25760203660031901126100b2576004356001600160401b0381116100b257602061017f81923690600401610671565b9190826040519384928337600190820190815203019020546040516001600160a01b039091168152f35b346100b25760203660031901126100b2576001600160a01b036101ca61069e565b1660005260026020526101ef6101e36040600020610760565b604051918291826106d7565b0390f35b346100b25760403660031901126100b2576004356001600160401b0381116100b257610223903690600401610671565b6024356001600160a01b03811693908490036100b257811561063a575082156106035760ff604051828482376020818481016000815203019020541660001461047e576040518183823760018183019081528190036020019020546001600160a01b03169182610414575b604051828282376001838201908152819003602090810190912080546001600160a01b0319168617905560008581526002909152604090206001600160401b0383116103fe576102de8154610703565b601f81116103c1575b50600083601f811160011461035e578061031792600091610353575b508160011b916000199060031b1c19161790565b90555b8160405192839283378101600081520390207f55066e0ef5d53e826887694254397ccd8c9936f6bab5e8d7592b001695658874600080a4005b905084013588610303565b50818152602081209084601f198116825b8181106103a657501061038c575b5050600183811b01905561031a565b830135600019600386901b60f8161c19169055858061037d565b8684013585556001909401936020938401938893500161036f565b6103ee90826000526020600020601f860160051c810191602087106103f4575b601f0160051c019061087b565b856102e7565b90915081906103e1565b634e487b7160e01b600052604160045260246000fd5b826000526002602052604060002061042c8154610703565b908161043a575b505061028e565b81601f600093116001146104525750555b8480610433565b8183526020832061046e91601f0160051c81019060010161087b565b808252816020812091555561044b565b90604051828282376020818481016000815203019020600160ff19825416179055604051828282376001838201908152819003602090810190912080546001600160a01b0319168517905560008481526002909152604090206001600160401b0383116103fe576104ef8154610703565b601f81116105d1575b50600083601f811160011461056e57806105279260009161056357508160011b916000199060031b1c19161790565b90555b8160405192839283378101600081520390207faa541cc9975b48a66ff0fcced1b6a07701b89f4bf70332c0e06f406f61b8e979600080a3005b905084013587610303565b50818152602081209084601f198116825b8181106105b657501061059c575b5050600183811b01905561052a565b830135600019600386901b60f8161c19169055848061058d565b8684013585556001909401936020938401938893500161057f565b6105fd90826000526020600020601f860160051c810191602087106103f457601f0160051c019061087b565b846104f8565b60405162461bcd60e51b815260206004820152600f60248201526e496e76616c6964206164647265737360881b6044820152606490fd5b62461bcd60e51b8152602060048201526012602482015271125b9d985b1a59081cdd1d59195b9d08125160721b6044820152606490fd5b9181601f840112156100b2578235916001600160401b0383116100b257602083818601950101116100b257565b600435906001600160a01b03821682036100b257565b60005b8381106106c75750506000910152565b81810151838201526020016106b7565b604091602082526106f781518092816020860152602086860191016106b4565b601f01601f1916010190565b90600182811c92168015610733575b602083101461071d57565b634e487b7160e01b600052602260045260246000fd5b91607f1691610712565b601f909101601f19168101906001600160401b038211908210176103fe57604052565b906040519182600082549261077484610703565b80845293600181169081156107e2575060011461079b575b506107999250038361073d565b565b90506000929192526020600020906000915b8183106107c6575050906020610799928201013861078c565b60209193508060019154838589010152019101909184926107ad565b90506020925061079994915060ff191682840152151560051b8201013861078c565b60206003198201126100b2576004356001600160401b0381116100b257816023820112156100b2576004810135906001600160401b0382116103fe5760405192610858601f8401601f19166020018561073d565b828452602483830101116100b25781600092602460209301838601378301015290565b818110610886575050565b6000815560010161087b56fea264697066735822122098f729f892792996fa7501cb87cac0fb2ecac271f45da06916c9fe5288f5b43364736f6c634300081c00332f8788117e7eff1d82e926ec794901d17c78024a50270940304540a733656f0d7d7ffb7a348e1c6a02869081a26547b49160dd3df72d1d75a570eb9b698292ec2155616cb3971b66bf28f1af4ff3722784e6d7a4b2b25bc9fe623232dcd690c8ad3228b676f7d3cd4284a5443f17f1962b36e491b30a40b2405849e597ba5fb5",
  "linkReferences": {
    "contracts/libraries/RecordManagement.sol": {
      "RecordManagement": [
        {
          "length": 20,
          "start": 4346
        },
        {
          "length": 20,
          "start": 6669
        }
      ]
    },
    "contracts/libraries/RecordStorage.sol": {
      "RecordStorage": [
        {
          "length": 20,
          "start": 2978
        },
        {
          "length": 20,
          "start": 4664
        },
        {
          "length": 20,
          "start": 8589
        },
        {
          "length": 20,
          "start": 9652
        },
        {
          "length": 20,
          "start": 11081
        },
        {
          "length": 20,
          "start": 11949
        }
      ]
    },
    "contracts/libraries/SecureRecordOperations.sol": {
      "SecureRecordOperations": [
        {
          "length": 20,
          "start": 1702
        },
        {
          "length": 20,
          "start": 5371
        },
        {
          "length": 20,
          "start": 7274
        },
        {
          "length": 20,
          "start": 7683
        },
        {
          "length": 20,
          "start": 7834
        },
        {
          "length": 20,
          "start": 10804
        }
      ]
    }
  },
  "deployedLinkReferences": {
    "contracts/libraries/RecordManagement.sol": {
      "RecordManagement": [
        {
          "length": 20,
          "start": 3586
        },
        {
          "length": 20,
          "start": 5909
        }
      ]
    },
    "contracts/libraries/RecordStorage.sol": {
      "RecordStorage": [
        {
          "length": 20,
          "start": 2218
        },
        {
          "length": 20,
          "start": 3904
        },
        {
          "length": 20,
          "start": 7829
        },
        {
          "length": 20,
          "start": 8892
        },
        {
          "length": 20,
          "start": 10321
        },
        {
          "length": 20,
          "start": 11189
        }
      ]
    },
    "contracts/libraries/SecureRecordOperations.sol": {
      "SecureRecordOperations": [
        {
          "length": 20,
          "start": 942
        },
        {
          "length": 20,
          "start": 4611
        },
        {
          "length": 20,
          "start": 6514
        },
        {
          "length": 20,
          "start": 6923
        },
        {
          "length": 20,
          "start": 7074
        },
        {
          "length": 20,
          "start": 10044
        }
      ]
    }
  }
}