{
  "_format": "hh-sol-artifact-1",
  "contractName": "AcademicRecords",
  "sourceName": "contracts/AcademicRecords.sol",
  "abi": [
    {
      "inputs": [],
      "stateMutability": "nonpayable",
      "type": "constructor"
    },
    {
      "anonymous": false,
      "inputs": [
        {
          "indexed": true,
          "internalType": "address",
          "name": "admin",
          "type": "address"
        },
        {
          "indexed": true,
          "internalType": "address",
          "name": "addedBy",
          "type": "address"
        }
      ],
      "name": "AdminAdded",
      "type": "event"
    },
    {
      "anonymous": false,
      "inputs": [
        {
          "indexed": true,
          "internalType": "address",
          "name": "admin",
          "type": "address"
        },
        {
          "indexed": true,
          "internalType": "address",
          "name": "removedBy",
          "type": "address"
        }
      ],
      "name": "AdminRemoved",
      "type": "event"
    },
    {
      "anonymous": false,
      "inputs": [
        {
          "indexed": true,
          "internalType": "uint256",
          "name": "typeId",
          "type": "uint256"
        },
        {
          "indexed": false,
          "internalType": "string",
          "name": "name",
          "type": "string"
        },
        {
          "indexed": true,
          "internalType": "address",
          "name": "creator",
          "type": "address"
        }
      ],
      "name": "CustomRecordTypeCreated",
      "type": "event"
    },
    {
      "anonymous": false,
      "inputs": [
        {
          "indexed": true,
          "internalType": "uint256",
          "name": "typeId",
          "type": "uint256"
        },
        {
          "indexed": false,
          "internalType": "bool",
          "name": "isActive",
          "type": "bool"
        }
      ],
      "name": "CustomRecordTypeUpdated",
      "type": "event"
    },
    {
      "anonymous": false,
      "inputs": [
        {
          "indexed": false,
          "internalType": "address",
          "name": "account",
          "type": "address"
        }
      ],
      "name": "Paused",
      "type": "event"
    },
    {
      "anonymous": false,
      "inputs": [
        {
          "indexed": true,
          "internalType": "uint256",
          "name": "recordId",
          "type": "uint256"
        },
        {
          "indexed": false,
          "internalType": "address",
          "name": "accessor",
          "type": "address"
        }
      ],
      "name": "RecordAccessed",
      "type": "event"
    },
    {
      "anonymous": false,
      "inputs": [
        {
          "indexed": true,
          "internalType": "uint256",
          "name": "recordId",
          "type": "uint256"
        },
        {
          "indexed": false,
          "internalType": "string",
          "name": "studentId",
          "type": "string"
        },
        {
          "indexed": false,
          "internalType": "enum IAcademicRecords.RecordType",
          "name": "recordType",
          "type": "uint8"
        },
        {
          "indexed": false,
          "internalType": "address",
          "name": "issuer",
          "type": "address"
        }
      ],
      "name": "RecordAdded",
      "type": "event"
    },
    {
      "anonymous": false,
      "inputs": [
        {
          "indexed": true,
          "internalType": "uint256",
          "name": "recordId",
          "type": "uint256"
        },
        {
          "indexed": true,
          "internalType": "string",
          "name": "studentId",
          "type": "string"
        },
        {
          "indexed": true,
          "internalType": "address",
          "name": "sharedWith",
          "type": "address"
        }
      ],
      "name": "RecordShared",
      "type": "event"
    },
    {
      "anonymous": false,
      "inputs": [
        {
          "indexed": true,
          "internalType": "uint256",
          "name": "recordId",
          "type": "uint256"
        },
        {
          "indexed": true,
          "internalType": "string",
          "name": "studentId",
          "type": "string"
        },
        {
          "indexed": true,
          "internalType": "address",
          "name": "unsharedWith",
          "type": "address"
        }
      ],
      "name": "RecordUnshared",
      "type": "event"
    },
    {
      "anonymous": false,
      "inputs": [
        {
          "indexed": true,
          "internalType": "uint256",
          "name": "recordId",
          "type": "uint256"
        },
        {
          "indexed": false,
          "internalType": "address",
          "name": "verifier",
          "type": "address"
        }
      ],
      "name": "RecordVerified",
      "type": "event"
    },
    {
      "anonymous": false,
      "inputs": [
        {
          "indexed": true,
          "internalType": "bytes32",
          "name": "role",
          "type": "bytes32"
        },
        {
          "indexed": true,
          "internalType": "bytes32",
          "name": "previousAdminRole",
          "type": "bytes32"
        },
        {
          "indexed": true,
          "internalType": "bytes32",
          "name": "newAdminRole",
          "type": "bytes32"
        }
      ],
      "name": "RoleAdminChanged",
      "type": "event"
    },
    {
      "anonymous": false,
      "inputs": [
        {
          "indexed": true,
          "internalType": "bytes32",
          "name": "role",
          "type": "bytes32"
        },
        {
          "indexed": true,
          "internalType": "address",
          "name": "account",
          "type": "address"
        },
        {
          "indexed": true,
          "internalType": "address",
          "name": "sender",
          "type": "address"
        }
      ],
      "name": "RoleGranted",
      "type": "event"
    },
    {
      "anonymous": false,
      "inputs": [
        {
          "indexed": true,
          "internalType": "bytes32",
          "name": "role",
          "type": "bytes32"
        },
        {
          "indexed": true,
          "internalType": "address",
          "name": "account",
          "type": "address"
        },
        {
          "indexed": true,
          "internalType": "address",
          "name": "sender",
          "type": "address"
        }
      ],
      "name": "RoleRevoked",
      "type": "event"
    },
    {
      "anonymous": false,
      "inputs": [
        {
          "indexed": true,
          "internalType": "string",
          "name": "studentId",
          "type": "string"
        },
        {
          "indexed": true,
          "internalType": "address",
          "name": "university",
          "type": "address"
        }
      ],
      "name": "StudentDeleted",
      "type": "event"
    },
    {
      "anonymous": false,
      "inputs": [
        {
          "indexed": true,
          "internalType": "address",
          "name": "university",
          "type": "address"
        },
        {
          "indexed": false,
          "internalType": "string",
          "name": "name",
          "type": "string"
        }
      ],
      "name": "UniversityNameUpdated",
      "type": "event"
    },
    {
      "anonymous": false,
      "inputs": [
        {
          "indexed": false,
          "internalType": "address",
          "name": "account",
          "type": "address"
        }
      ],
      "name": "Unpaused",
      "type": "event"
    },
    {
      "inputs": [],
      "name": "ADMIN_ROLE",
      "outputs": [
        {
          "internalType": "bytes32",
          "name": "",
          "type": "bytes32"
        }
      ],
      "stateMutability": "view",
      "type": "function"
    },
    {
      "inputs": [],
      "name": "DEFAULT_ADMIN_ROLE",
      "outputs": [
        {
          "internalType": "bytes32",
          "name": "",
          "type": "bytes32"
        }
      ],
      "stateMutability": "view",
      "type": "function"
    },
    {
      "inputs": [],
      "name": "SUPER_ADMIN",
      "outputs": [
        {
          "internalType": "address",
          "name": "",
          "type": "address"
        }
      ],
      "stateMutability": "view",
      "type": "function"
    },
    {
      "inputs": [],
      "name": "SUPER_ADMIN_ROLE",
      "outputs": [
        {
          "internalType": "bytes32",
          "name": "",
          "type": "bytes32"
        }
      ],
      "stateMutability": "view",
      "type": "function"
    },
    {
      "inputs": [],
      "name": "UNIVERSITY_ROLE",
      "outputs": [
        {
          "internalType": "bytes32",
          "name": "",
          "type": "bytes32"
        }
      ],
      "stateMutability": "view",
      "type": "function"
    },
    {
      "inputs": [
        {
          "internalType": "address",
          "name": "adminAddress",
          "type": "address"
        }
      ],
      "name": "addAdmin",
      "outputs": [],
      "stateMutability": "nonpayable",
      "type": "function"
    },
    {
      "inputs": [
        {
          "internalType": "string",
          "name": "name",
          "type": "string"
        },
        {
          "internalType": "string",
          "name": "description",
          "type": "string"
        }
      ],
      "name": "addCustomRecordType",
      "outputs": [
        {
          "internalType": "uint256",
          "name": "",
          "type": "uint256"
        }
      ],
      "stateMutability": "nonpayable",
      "type": "function"
    },
    {
      "inputs": [
        {
          "internalType": "string",
          "name": "studentId",
          "type": "string"
        },
        {
          "internalType": "string",
          "name": "studentName",
          "type": "string"
        },
        {
          "internalType": "string",
          "name": "universityName",
          "type": "string"
        },
        {
          "internalType": "string",
          "name": "ipfsHash",
          "type": "string"
        },
        {
          "internalType": "string",
          "name": "metadataHash",
          "type": "string"
        },
        {
          "internalType": "enum IAcademicRecords.RecordType",
          "name": "recordType",
          "type": "uint8"
        }
      ],
      "name": "addRecord",
      "outputs": [
        {
          "internalType": "uint256",
          "name": "",
          "type": "uint256"
        }
      ],
      "stateMutability": "nonpayable",
      "type": "function"
    },
    {
      "inputs": [
        {
          "internalType": "address",
          "name": "universityAddress",
          "type": "address"
        },
        {
          "internalType": "string",
          "name": "name",
          "type": "string"
        }
      ],
      "name": "addUniversity",
      "outputs": [],
      "stateMutability": "nonpayable",
      "type": "function"
    },
    {
      "inputs": [
        {
          "internalType": "string",
          "name": "studentId",
          "type": "string"
        }
      ],
      "name": "deleteStudent",
      "outputs": [],
      "stateMutability": "nonpayable",
      "type": "function"
    },
    {
      "inputs": [],
      "name": "getAllAdmins",
      "outputs": [
        {
          "internalType": "address[]",
          "name": "",
          "type": "address[]"
        }
      ],
      "stateMutability": "view",
      "type": "function"
    },
    {
      "inputs": [],
      "name": "getAllUniversities",
      "outputs": [
        {
          "internalType": "address[]",
          "name": "",
          "type": "address[]"
        }
      ],
      "stateMutability": "view",
      "type": "function"
    },
    {
      "inputs": [
        {
          "internalType": "uint256",
          "name": "typeId",
          "type": "uint256"
        }
      ],
      "name": "getCustomRecordType",
      "outputs": [
        {
          "components": [
            {
              "internalType": "uint256",
              "name": "id",
              "type": "uint256"
            },
            {
              "internalType": "string",
              "name": "name",
              "type": "string"
            },
            {
              "internalType": "string",
              "name": "description",
              "type": "string"
            },
            {
              "internalType": "address",
              "name": "creator",
              "type": "address"
            },
            {
              "internalType": "uint256",
              "name": "timestamp",
              "type": "uint256"
            },
            {
              "internalType": "bool",
              "name": "isActive",
              "type": "bool"
            }
          ],
          "internalType": "struct IAcademicRecords.CustomRecordType",
          "name": "",
          "type": "tuple"
        }
      ],
      "stateMutability": "view",
      "type": "function"
    },
    {
      "inputs": [
        {
          "internalType": "uint256",
          "name": "recordId",
          "type": "uint256"
        }
      ],
      "name": "getRecord",
      "outputs": [
        {
          "components": [
            {
              "internalType": "uint256",
              "name": "id",
              "type": "uint256"
            },
            {
              "internalType": "string",
              "name": "studentId",
              "type": "string"
            },
            {
              "internalType": "string",
              "name": "studentName",
              "type": "string"
            },
            {
              "internalType": "string",
              "name": "universityName",
              "type": "string"
            },
            {
              "internalType": "string",
              "name": "ipfsHash",
              "type": "string"
            },
            {
              "internalType": "string",
              "name": "metadataHash",
              "type": "string"
            },
            {
              "internalType": "enum IAcademicRecords.RecordType",
              "name": "recordType",
              "type": "uint8"
            },
            {
              "internalType": "uint256",
              "name": "timestamp",
              "type": "uint256"
            },
            {
              "internalType": "bool",
              "name": "isVerified",
              "type": "bool"
            },
            {
              "internalType": "address",
              "name": "issuer",
              "type": "address"
            }
          ],
          "internalType": "struct IAcademicRecords.Record",
          "name": "",
          "type": "tuple"
        }
      ],
      "stateMutability": "view",
      "type": "function"
    },
    {
      "inputs": [
        {
          "internalType": "uint256",
          "name": "recordId",
          "type": "uint256"
        }
      ],
      "name": "getRecordWithPermission",
      "outputs": [
        {
          "components": [
            {
              "internalType": "uint256",
              "name": "id",
              "type": "uint256"
            },
            {
              "internalType": "string",
              "name": "studentId",
              "type": "string"
            },
            {
              "internalType": "string",
              "name": "studentName",
              "type": "string"
            },
            {
              "internalType": "string",
              "name": "universityName",
              "type": "string"
            },
            {
              "internalType": "string",
              "name": "ipfsHash",
              "type": "string"
            },
            {
              "internalType": "string",
              "name": "metadataHash",
              "type": "string"
            },
            {
              "internalType": "enum IAcademicRecords.RecordType",
              "name": "recordType",
              "type": "uint8"
            },
            {
              "internalType": "uint256",
              "name": "timestamp",
              "type": "uint256"
            },
            {
              "internalType": "bool",
              "name": "isVerified",
              "type": "bool"
            },
            {
              "internalType": "address",
              "name": "issuer",
              "type": "address"
            }
          ],
          "internalType": "struct IAcademicRecords.Record",
          "name": "",
          "type": "tuple"
        }
      ],
      "stateMutability": "view",
      "type": "function"
    },
    {
      "inputs": [
        {
          "internalType": "bytes32",
          "name": "role",
          "type": "bytes32"
        }
      ],
      "name": "getRoleAdmin",
      "outputs": [
        {
          "internalType": "bytes32",
          "name": "",
          "type": "bytes32"
        }
      ],
      "stateMutability": "view",
      "type": "function"
    },
    {
      "inputs": [
        {
          "internalType": "address",
          "name": "sharedWith",
          "type": "address"
        }
      ],
      "name": "getSharedRecords",
      "outputs": [
        {
          "internalType": "uint256[]",
          "name": "",
          "type": "uint256[]"
        }
      ],
      "stateMutability": "view",
      "type": "function"
    },
    {
      "inputs": [
        {
          "internalType": "string",
          "name": "studentId",
          "type": "string"
        }
      ],
      "name": "getStudentRecords",
      "outputs": [
        {
          "internalType": "uint256[]",
          "name": "",
          "type": "uint256[]"
        }
      ],
      "stateMutability": "view",
      "type": "function"
    },
    {
      "inputs": [],
      "name": "getTotalCustomTypes",
      "outputs": [
        {
          "internalType": "uint256",
          "name": "",
          "type": "uint256"
        }
      ],
      "stateMutability": "view",
      "type": "function"
    },
    {
      "inputs": [],
      "name": "getTotalRecords",
      "outputs": [
        {
          "internalType": "uint256",
          "name": "",
          "type": "uint256"
        }
      ],
      "stateMutability": "view",
      "type": "function"
    },
    {
      "inputs": [],
      "name": "getUniversityCustomTypes",
      "outputs": [
        {
          "internalType": "uint256[]",
          "name": "",
          "type": "uint256[]"
        }
      ],
      "stateMutability": "view",
      "type": "function"
    },
    {
      "inputs": [
        {
          "internalType": "address",
          "name": "universityAddress",
          "type": "address"
        }
      ],
      "name": "getUniversityName",
      "outputs": [
        {
          "internalType": "string",
          "name": "",
          "type": "string"
        }
      ],
      "stateMutability": "view",
      "type": "function"
    },
    {
      "inputs": [],
      "name": "getUniversityRecords",
      "outputs": [
        {
          "internalType": "uint256[]",
          "name": "",
          "type": "uint256[]"
        }
      ],
      "stateMutability": "view",
      "type": "function"
    },
    {
      "inputs": [
        {
          "internalType": "bytes32",
          "name": "role",
          "type": "bytes32"
        },
        {
          "internalType": "address",
          "name": "account",
          "type": "address"
        }
      ],
      "name": "grantRole",
      "outputs": [],
      "stateMutability": "nonpayable",
      "type": "function"
    },
    {
      "inputs": [
        {
          "internalType": "bytes32",
          "name": "role",
          "type": "bytes32"
        },
        {
          "internalType": "address",
          "name": "account",
          "type": "address"
        }
      ],
      "name": "hasRole",
      "outputs": [
        {
          "internalType": "bool",
          "name": "",
          "type": "bool"
        }
      ],
      "stateMutability": "view",
      "type": "function"
    },
    {
      "inputs": [
        {
          "internalType": "uint256",
          "name": "recordId",
          "type": "uint256"
        },
        {
          "internalType": "address",
          "name": "user",
          "type": "address"
        }
      ],
      "name": "isRecordSharedWith",
      "outputs": [
        {
          "internalType": "bool",
          "name": "",
          "type": "bool"
        }
      ],
      "stateMutability": "view",
      "type": "function"
    },
    {
      "inputs": [],
      "name": "pause",
      "outputs": [],
      "stateMutability": "nonpayable",
      "type": "function"
    },
    {
      "inputs": [],
      "name": "paused",
      "outputs": [
        {
          "internalType": "bool",
          "name": "",
          "type": "bool"
        }
      ],
      "stateMutability": "view",
      "type": "function"
    },
    {
      "inputs": [
        {
          "internalType": "uint256",
          "name": "recordId",
          "type": "uint256"
        }
      ],
      "name": "recordAccess",
      "outputs": [],
      "stateMutability": "nonpayable",
      "type": "function"
    },
    {
      "inputs": [
        {
          "internalType": "string",
          "name": "studentId",
          "type": "string"
        }
      ],
      "name": "registerStudent",
      "outputs": [],
      "stateMutability": "nonpayable",
      "type": "function"
    },
    {
      "inputs": [
        {
          "internalType": "address",
          "name": "adminAddress",
          "type": "address"
        }
      ],
      "name": "removeAdmin",
      "outputs": [],
      "stateMutability": "nonpayable",
      "type": "function"
    },
    {
      "inputs": [
        {
          "internalType": "address",
          "name": "universityAddress",
          "type": "address"
        }
      ],
      "name": "removeUniversity",
      "outputs": [],
      "stateMutability": "nonpayable",
      "type": "function"
    },
    {
      "inputs": [
        {
          "internalType": "bytes32",
          "name": "role",
          "type": "bytes32"
        },
        {
          "internalType": "address",
          "name": "account",
          "type": "address"
        }
      ],
      "name": "renounceRole",
      "outputs": [],
      "stateMutability": "nonpayable",
      "type": "function"
    },
    {
      "inputs": [
        {
          "internalType": "bytes32",
          "name": "role",
          "type": "bytes32"
        },
        {
          "internalType": "address",
          "name": "account",
          "type": "address"
        }
      ],
      "name": "revokeRole",
      "outputs": [],
      "stateMutability": "nonpayable",
      "type": "function"
    },
    {
      "inputs": [
        {
          "internalType": "address",
          "name": "universityAddress",
          "type": "address"
        },
        {
          "internalType": "string",
          "name": "name",
          "type": "string"
        }
      ],
      "name": "setUniversityName",
      "outputs": [],
      "stateMutability": "nonpayable",
      "type": "function"
    },
    {
      "inputs": [
        {
          "internalType": "uint256",
          "name": "recordId",
          "type": "uint256"
        },
        {
          "internalType": "address",
          "name": "sharedWith",
          "type": "address"
        }
      ],
      "name": "shareRecord",
      "outputs": [],
      "stateMutability": "nonpayable",
      "type": "function"
    },
    {
      "inputs": [],
      "name": "studentManagement",
      "outputs": [
        {
          "internalType": "contract StudentManagement",
          "name": "",
          "type": "address"
        }
      ],
      "stateMutability": "view",
      "type": "function"
    },
    {
      "inputs": [
        {
          "internalType": "bytes4",
          "name": "interfaceId",
          "type": "bytes4"
        }
      ],
      "name": "supportsInterface",
      "outputs": [
        {
          "internalType": "bool",
          "name": "",
          "type": "bool"
        }
      ],
      "stateMutability": "view",
      "type": "function"
    },
    {
      "inputs": [],
      "name": "unpause",
      "outputs": [],
      "stateMutability": "nonpayable",
      "type": "function"
    },
    {
      "inputs": [
        {
          "internalType": "uint256",
          "name": "recordId",
          "type": "uint256"
        },
        {
          "internalType": "address",
          "name": "sharedWith",
          "type": "address"
        }
      ],
      "name": "unshareRecord",
      "outputs": [],
      "stateMutability": "nonpayable",
      "type": "function"
    },
    {
      "inputs": [
        {
          "internalType": "uint256",
          "name": "typeId",
          "type": "uint256"
        },
        {
          "internalType": "bool",
          "name": "isActive",
          "type": "bool"
        }
      ],
      "name": "updateCustomRecordType",
      "outputs": [],
      "stateMutability": "nonpayable",
      "type": "function"
    },
    {
      "inputs": [
        {
          "internalType": "uint256",
          "name": "recordId",
          "type": "uint256"
        }
      ],
      "name": "verifyRecord",
      "outputs": [
        {
          "internalType": "bool",
          "name": "",
          "type": "bool"
        }
      ],
      "stateMutability": "view",
      "type": "function"
    }
  ],
  "bytecode": "0x60a060405234610254573360808190526000908152600080516020613ea7833981519152602052604090205460ff1615610214575b336000908152600080516020613e87833981519152602052604090205460ff16156101b2575b336000908152600080516020613e67833981519152602052604090205460ff1615610150575b6003805460ff191690556040516108ee8082016001600160401b0381118382101761013a578291613559833903906000f0801561012e57600d80546001600160a01b0319166001600160a01b03929092169190911790556040516132ff908161025a823960805181818161097301528181610e0e015281816113a401528181611451015281816115730152818161180701528181611e1f01528181612008015281816126c501526127dc0152f35b6040513d6000823e3d90fd5b634e487b7160e01b600052604160045260246000fd5b336000818152600080516020613e6783398151915260205260408120805460ff1916600117905581907fa49807205ce4d355092ef5a8a18f56e8913cf4a201fbe287825b095693c2177590600080516020613e478339815191529080a4610080565b336000818152600080516020613e8783398151915260205260408120805460ff1916600117905581907f7613a25ecc738585a232ad50a301178f12b3ba8887d13e138b523c4269c4768990600080516020613e478339815191529080a461005a565b336000818152600080516020613ea783398151915260205260408120805460ff191660011790558190600080516020613e478339815191528180a4610034565b600080fdfe6080604052600436101561001257600080fd5b6000803560e01c806301d534871461246957806301ffc9a71461241257806303e9e609146122d95780630a2573de146122105780630aeacb5e146121f25780630aefc3cf146121c95780631164fcbf146121ab5780631785f53c14611fec5780631caebd5a14611e83578063248a9ca314611e4d57806328f54b2f14611bf75780632c4b038b14611a875780632d175a18146119fb5780632f2ff15d1461193857806336568abe146118a55780633af4d9501461185e5780633d178414146118355780633f4ba83a1461173d5780634460bdd6146117025780635c975abb146116df578063704802751461155357806371e17445146114a957806375b238fc146114805780637c7c7c3c1461143b5780638052bc56146113d25780638456cb5914611314578063882f0403146112ba578063892c43ab1461112e5780638955895f14610f5857806391d1485414610f0d57806392fd707d14610ea4578063967a1c2d14610e58578063a217fddf14610e3c578063a908dc6214610b27578063ba6093ba146109a1578063baf9077b146106c2578063bcbf7181146105ad578063c4dd1e3714610353578063d547741f1461030a578063e9523c97146102d4578063f597d994146102465763f795a646146101eb57600080fd5b3461024357602036600319011261024357600435808252600460205261021681604084205414612b3c565b7f980d15b088d1127894ac6300da68467873935cb71f64d1ff99f85614bf474c6c6020604051338152a280f35b80fd5b503461024357806003193601126102435760405180916020600254928381520191600282527f405787fa12a823e0f2b7631cc41b3ba8828b3321ca811111fa75cd3aa3bb5ace915b8181106102b5576102b1856102a581870382612acc565b60405191829182612a3c565b0390f35b82546001600160a01b031684526020909301926001928301920161028e565b50346102435780600319360112610243576040516102b1916102f7602083612acc565b8152600036813760405191829182612a3c565b50346102435760403660031901126102435761035060043561032a61297c565b9061034b61034682600052600060205260016040600020015490565b612f88565b612fc6565b80f35b50346102435760c0366003190112610243576004356001600160401b0381116105a957610384903690600401612992565b6024929192356001600160401b0381116105a5576103a6903690600401612992565b906044356001600160401b0381116105a1576103c6903690600401612992565b92906064356001600160401b03811161059d576103e7903690600401612992565b906084356001600160401b03811161059957610407903690600401612992565b92909360a4359760048910156105955761041f612e81565b610427613048565b6040519788976317ae945d60e21b895260048901600490526024890161010090528d8c6101048b019061045992612e60565b906003198a83030160448b015261046f92612e60565b9060031988830301606489015261048592612e60565b9060031986830301608487015261049b92612e60565b906003198483030160a48501526104b192612e60565b6104be60c4830185612878565b3360e4830152038173__$418a42c2ace6135936f69e0acb768a6277$__91815a93602094f4938415610589579361054d575b5060209383927f8a9f62701df42f18a82cdd37c50a7bce4cd48487ff236cabc609440251f87c3e9261053c610532604051948594606086526060860191612e60565b9188840190612878565b3360408301520390a2604051908152f35b909192506020813d602011610581575b8161056a60209383612acc565b8101031261057c5751919060206104f0565b600080fd5b3d915061055d565b604051903d90823e3d90fd5b8a80fd5b8880fd5b8680fd5b8480fd5b8280fd5b5080fd5b5034610243576020366003190112610243576105c7612966565b600d546040516386c3441560e01b8152336004820152908390829060249082906001600160a01b03165afa9081156106b757610627916020918591610695575b5061061481511515612cf7565b8160405193828580945193849201612830565b810160088152030190209060018060a01b03166000526020526040600020604051918260208354918281520192825260208220915b81811061067f576102b18561067381870382612acc565b604051918291826129bf565b825484526020909301926001928301920161065c565b6106b191503d8087833e6106a98183612acc565b810190612c58565b38610607565b6040513d85823e3d90fd5b5034610243576106d1366129f9565b6000805160206132aa83398151915284526020848152604080862033600090815292529020549093929060ff16801561096f575b801561095d575b156109185760008051602061328a8339815191528352602083815260408085206001600160a01b0384166000908152925290205460ff16156108d3576001600160a01b0316808352600160205260408320939091906001600160401b0381116108bf576107798554612b80565b601f8111610884575b508394601f82116001146107ff576107d4828087987fc27f3bae021ab8e78d67f94f2cd8248055d6ae911c4cf44c62bd025cd3574ee19798916107f4575b508160011b916000199060031b1c19161790565b90555b6107ee604051928392602084526020840191612e60565b0390a280f35b9050850135386107c0565b8085526020852095601f198316865b81811061086c575090837fc27f3bae021ab8e78d67f94f2cd8248055d6ae911c4cf44c62bd025cd3574ee19697989210610852575b5050600182811b0190556107d7565b840135600019600385901b60f8161c191690553880610843565b8583013589556001909801976020928301920161080e565b6108af9086865260208620601f840160051c810191602085106108b5575b601f0160051c0190612e18565b38610782565b90915081906108a2565b634e487b7160e01b84526041600452602484fd5b60405162461bcd60e51b815260206004820152601b60248201527f41646472657373206973206e6f74206120756e697665727369747900000000006044820152606490fd5b60405162461bcd60e51b815260206004820152601a60248201527f4e6f7420617574686f72697a656420746f20736574206e616d650000000000006044820152606490fd5b50336001600160a01b0382161461070c565b50337f00000000000000000000000000000000000000000000000000000000000000006001600160a01b031614610705565b5034610243576040366003190112610243576004356001600160401b0381116105a9576109d2903690600401612992565b6024929192356001600160401b0381116105a5576109f4903690600401612992565b6109fc612e81565b8215610af357604051634a0ab76b60e11b8152600a6004820152608060248201529160209183918291610a4a9190610a3860848501898c612e60565b84810360031901604486015291612e60565b336064830152038173__$418a42c2ace6135936f69e0acb768a6277$__5af49283156105895792610abe575b50817fd86d539582c7bd4f6009dae64cfee262a9ad9897d422fafeb23e9362f287e1e0610ab3602095604051918291888352339689840191612e60565b0390a3604051908152f35b91506020823d602011610aeb575b81610ad960209383612acc565b8101031261057c579051906020610a76565b3d9150610acc565b60405162461bcd60e51b815260206004820152600c60248201526b496e76616c6964206e616d6560a01b6044820152606490fd5b503461024357610b36366129f9565b6000805160206132aa833981519152845260208481526040808620336000908152925290205460ff168015610e0a575b610b6f90612dcc565b60008051602061328a8339815191528452602084815260408086206001600160a01b0386166000908152925290205460ff16610dce5760008051602061328a8339815191528452602084815260408086206001600160a01b0386166000908152925290205460ff1615610d68575b6001600160a01b0383168085526001602052604085209093906001600160401b038311610cb657610c0e8154612b80565b601f8111610d38575b508583601f8111600114610cd55780610c44928991610cca57508160011b916000199060031b1c19161790565b90555b60025468010000000000000000811015610cb6577fc27f3bae021ab8e78d67f94f2cd8248055d6ae911c4cf44c62bd025cd3574ee1939291610c928260016107d79401600255612e2f565b81546001600160a01b0393841660039290921b91821b9390911b1916919091179055565b634e487b7160e01b86526041600452602486fd5b9050860135386107c0565b50818752602087209084601f198116895b818110610d1d575010610d03575b5050600183811b019055610c47565b850135600019600386901b60f8161c191690553880610cf4565b88840135855560019094019360209384019388935001610ce6565b610d629082885260208820601f860160051c810191602087106108b557601f0160051c0190612e18565b38610c17565b60008051602061328a833981519152808552602085815260408087206001600160a01b03871660008181529190935220805460ff1916600117905533917f2f8788117e7eff1d82e926ec794901d17c78024a50270940304540a733656f0d8780a4610bdd565b60405162461bcd60e51b8152602060048201526014602482015273416c7265616479206120756e697665727369747960601b6044820152606490fd5b50337f00000000000000000000000000000000000000000000000000000000000000006001600160a01b031614610b66565b5034610243578060031936011261024357602090604051908152f35b5034610243576040366003190112610243576040610e7461297c565b9160043581526007602052209060018060a01b0316600052602052602060ff604060002054166040519015158152f35b5034610243578060031936011261024357610ebd612e81565b338152600660205260408120604051918260208354918281520192825260208220915b818110610ef7576102b18561067381870382612acc565b8254845260209093019260019283019201610ee0565b5034610243576040366003190112610243576040610f2961297c565b91600435815280602052209060018060a01b0316600052602052602060ff604060002054166040519015158152f35b5034610243576020366003190112610243576004356001600160401b0381116105a957610f89903690600401612992565b90610f92612e81565b610f9a613048565b81156110f457604051633811a9ef60e21b81526004808201526060602482015291838380610fcc606482018587612e60565b336044830152038173__$418a42c2ace6135936f69e0acb768a6277$__5af49283156110e9578493611048575b50806040519283378101908382528033920390207f1949bcb8762ad61ab8a8f3175c5787a3204c83583381bb42cdcdbf62141b11c48480a3815b815181101561104457600101611033565b8280f35b9092503d8085833e61105a8183612acc565b8101906020818303126105a1578051906001600160401b0382116110e557019080601f830112156105a1578151916001600160401b038311610cb6578260051b9060208201936110ad6040519586612acc565b845260208085019282010192831161059d57602001905b8282106110d5575050509138610ff9565b81518152602091820191016110c4565b8580fd5b6040513d86823e3d90fd5b60405162461bcd60e51b8152602060048201526012602482015271125b9d985b1a59081cdd1d59195b9d08125160721b6044820152606490fd5b503461024357602036600319011261024357600435908060a060405161115381612ab1565b82815260606020820152606060408201528260608201528260808201520152818152600a60205281604082205403611275576040918152600a6020522060405161119c81612ab1565b81548152604051916111bc836111b58160018501612bba565b0384612acc565b602082019283526040516111de816111d78160028601612bba565b0382612acc565b6040830190815260018060a01b03600383015416916060840192835261125360ff6005600484015493608088019485520154169260a086019315158452611240604051978897602089525160208901525160c0604089015260e0880190612853565b9051868203601f19016060880152612853565b92516001600160a01b031660808501525160a084015251151560c08301520390f35b60405162461bcd60e51b815260206004820152601a60248201527f437573746f6d207479706520646f6573206e6f742065786973740000000000006044820152606490fd5b5034610243576020366003190112610243576102b1906111d790611300906040906001600160a01b036112eb612966565b16815260016020522060405192838092612bba565b604051918291602083526020830190612853565b50346102435780600319360112610243576000805160206132aa833981519152815260208181526040808320336000908152925290205460ff1680156113a0575b61135e90612dcc565b611366613048565b600160ff1960035416176003557f62e78cea01bee320cd4e420270b5ea74000d11b0c9f74754ebdbfc544b05a2586020604051338152a180f35b50337f00000000000000000000000000000000000000000000000000000000000000006001600160a01b031614611355565b50346102435780600319360112610243576113eb612e81565b338152600b60205260408120604051918260208354918281520192825260208220915b818110611425576102b18561067381870382612acc565b825484526020909301926001928301920161140e565b50346102435780600319360112610243576040517f00000000000000000000000000000000000000000000000000000000000000006001600160a01b03168152602090f35b503461024357806003193601126102435760206040516000805160206132aa8339815191528152f35b503461024357602036600319011261024357806004356001600160401b038111611550576114db903690600401612992565b600d546001600160a01b031691823b1561154d5761151a928492836040518096819582946314a2f2eb60e21b8452604060048501526044840191612e60565b33602483015203925af18015611542576115315750f35b8161153b91612acc565b6102435780f35b6040513d84823e3d90fd5b50505b50fd5b50346102435760203660031901126102435761156d612966565b6115a1337f00000000000000000000000000000000000000000000000000000000000000006001600160a01b031614612cb9565b6000805160206132aa8339815191528252602082815260408084206001600160a01b0384166000908152925290205460ff166116a7576000805160206132aa8339815191528252602082815260408084206001600160a01b0384166000908152925290205460ff1615611641575b33906001600160a01b03167fbf3f493c772c8c283fd124432c2d0f539ab343faa04258fe88e52912d36b102b8380a380f35b6000805160206132aa833981519152808352602083815260408085206001600160a01b03851660008181529190935220805460ff1916600117905533917f2f8788117e7eff1d82e926ec794901d17c78024a50270940304540a733656f0d8580a461160f565b60405162461bcd60e51b815260206004820152601060248201526f20b63932b0b23c9030b71030b236b4b760811b6044820152606490fd5b5034610243578060031936011261024357602060ff600354166040519015158152f35b503461024357806003193601126102435760206040517f7613a25ecc738585a232ad50a301178f12b3ba8887d13e138b523c4269c476898152f35b50346102435780600319360112610243576000805160206132aa833981519152815260208181526040808320336000908152925290205460ff168015611803575b61178790612dcc565b60035460ff8116156117c75760ff19166003557f5db9ee0a495bf2e6ff9c91a7834c1ba4fdd244a5e8aa4e537bd38aeae4b073aa6020604051338152a180f35b60405162461bcd60e51b815260206004820152601460248201527314185d5cd8589b194e881b9bdd081c185d5cd95960621b6044820152606490fd5b50337f00000000000000000000000000000000000000000000000000000000000000006001600160a01b03161461177e565b5034610243578060031936011261024357602060405160008051602061328a8339815191528152f35b50346102435760203660031901126102435760ff6008604060209360043580825260048652611891818484205414612b3c565b815260048552200154166040519015158152f35b5034610243576040366003190112610243576118bf61297c565b336001600160a01b038216036118db5761035090600435612fc6565b60405162461bcd60e51b815260206004820152602f60248201527f416363657373436f6e74726f6c3a2063616e206f6e6c792072656e6f756e636560448201526e103937b632b9903337b91039b2b63360891b6064820152608490fd5b50346102435760403660031901126102435760043561195561297c565b9061197161034682600052600060205260016040600020015490565b808352602083815260408085206001600160a01b0385166000908152925290205460ff161561199e578280f35b808352602083815260408085206001600160a01b0394909416600081815294909252909220805460ff191660011790553391907f2f8788117e7eff1d82e926ec794901d17c78024a50270940304540a733656f0d8480a438808280f35b5034610243576020366003190112610243576004356001600160401b0381116105a957611a2e6020913690600401612992565b919082604051938492833781016005815203019020604051918260208354918281520192825260208220915b818110611a71576102b18561067381870382612acc565b8254845260209093019260019283019201611a5a565b503461024357604036600319011261024357600435611aa461297c565b8183526004602052611abb82604085205414612b3c565b600d546040516386c3441560e01b8152336004820152908490829060249082906001600160a01b03165afa9081156110e9578491611bdd575b50611b0181511515612cf7565b611b398151602083012084865260046020526111d7611b2c6001604089200160405192838092612bba565b6020815191012014612d43565b8373__$418a42c2ace6135936f69e0acb768a6277$__803b156105a95781604051809263da18ebaf60e01b82528180611b77888a8c60048501612d81565b03915af4801561154257611bc4575b5050611b9190612dac565b6001600160a01b03909116917faff6e534ab1a03be3cfb349ea9a41ee6cdc768addd7f0e2c3dab67571d8ac3048480a480f35b81611bce91612acc565b611bd9578338611b86565b8380fd5b611bf191503d8086833e6106a98183612acc565b38611af4565b503461024357602036600319011261024357611c11612966565b6000805160206132aa833981519152825260208281526040808420336000908152925290205460ff168015611e1b575b611c4a90612dcc565b60008051602061328a8339815191528252602082815260408084206001600160a01b0384166000908152925290205460ff16611db8575b6001600160a01b03168082526001602052604082208054839190611ca490612b80565b80611d76575b50505b60025480821015611d705782611cc283612e2f565b905460039190911b1c6001600160a01b031614611ce25750600101611cad565b9091506000198101908111611d5c5790610c92611d01611d1993612e2f565b905460039190911b1c6001600160a01b031691612e2f565b6002548015611d485760001901611d2f81612e2f565b81549060018060a01b039060031b1b1916905560025580f35b634e487b7160e01b82526031600452602482fd5b634e487b7160e01b83526011600452602483fd5b50505080f35b601f8111600114611d8c5750555b813880611caa565b81835260208320611da891601f0160051c810190600101612e18565b8082528160208120915555611d84565b60008051602061328a833981519152808352602083815260408085206001600160a01b03851660008181529190935220805460ff1916905533917ff6391f5c32d9c69d2a47ea670b442974b53935d1edc7fd64eb21e047a839171b8580a4611c81565b50337f00000000000000000000000000000000000000000000000000000000000000006001600160a01b031614611c41565b5034610243576020366003190112610243576020611e7b600435600052600060205260016040600020015490565b604051908152f35b503461024357604036600319011261024357600435611ea061297c565b8183526004602052611eb782604085205414612b3c565b600d546040516386c3441560e01b8152336004820152908490829060249082906001600160a01b03165afa9081156110e9578491611fd2575b50611efd81511515612cf7565b611f288151602083012084865260046020526111d7611b2c6001604089200160405192838092612bba565b73__$418a42c2ace6135936f69e0acb768a6277$__803b156105a15784604051809263db810d4760e01b82528180611f6587898b60048501612d81565b03915af48015611fc757611fb1575b50611f7e90612dac565b6001600160a01b03909116917fc2423a58507863fe4ba6405dd105f958afc6ee0eff57522e1971a36e8fafd73c8480a480f35b93611fc081611f7e9396612acc565b9390611f74565b6040513d87823e3d90fd5b611fe691503d8086833e6106a98183612acc565b38611ef0565b503461024357602036600319011261024357612006612966565b7f00000000000000000000000000000000000000000000000000000000000000006001600160a01b03169061203c338314612cb9565b6001600160a01b0316908114612166576000805160206132aa8339815191528252816020526040822081835260205260ff60408320541615612132576000805160206132aa8339815191528252816020526040822081835260205260ff6040832054166120cd575b33907fdb9d5d31320daf5bc7181d565b6da4d12e30f0f4d5aa324a992426c14a1d19ce8380a380f35b6000805160206132aa833981519152825281602052604082208183526020526040822060ff19815416905533816000805160206132aa8339815191527ff6391f5c32d9c69d2a47ea670b442974b53935d1edc7fd64eb21e047a839171b8580a46120a4565b60405162461bcd60e51b815260206004820152600c60248201526b2737ba1030b71030b236b4b760a11b6044820152606490fd5b60405162461bcd60e51b815260206004820152601960248201527f43616e6e6f742072656d6f76652073757065722061646d696e000000000000006044820152606490fd5b50346102435780600319360112610243576020600c54604051908152f35b5034610243578060031936011261024357600d546040516001600160a01b039091168152602090f35b50346102435780600319360112610243576020600954604051908152f35b5034610243576040366003190112610243576004356024358015158091036105a55761223a612e81565b818352600a60205260408320600301546001600160a01b031633036122a25760207fc49db19e98f37a91c758a4b59695c5a8babbdb9ee2ff7215a577c3b6c2f8575491838552600a82526005604086200160ff1981541660ff8316179055604051908152a280f35b60405162461bcd60e51b815260206004820152600f60248201526e2737ba103a34329031b932b0ba37b960891b6044820152606490fd5b5034610243576020366003190112610243576004356122f6612aed565b50808252600460205261230e81604084205414612b3c565b8152600460205260408120906040519061232782612a7f565b8254825260405161233f816111d78160018801612bba565b6020830152604051612358816111d78160028801612bba565b6040830152604051612371816111d78160038801612bba565b606083015260405161238a816111d78160048801612bba565b60808301526040516123a3816111d78160058801612bba565b60a083015260ff6006840154169060048210156123fe575060c0820152600782015460e082015260089182015460ff8116151561010083015290911c6001600160a01b03166101208201526040519081906102b1908261289b565b634e487b7160e01b81526021600452602490fd5b50346102435760203660031901126102435760043563ffffffff60e01b81168091036105a957602090637965db0b60e01b8114908115612458575b506040519015158152f35b6301ffc9a760e01b1490508261244d565b50346102435760203660031901126102435760043590612487612aed565b50818152600460205261249f82604083205414612b3c565b81815260046020526040812090604051916124b983612a7f565b805483526040516124d1816111d78160018601612bba565b602084019081526040516124ec816111d78160028701612bba565b6040850152604051612505816111d78160038701612bba565b6060850152604051906125268261251f8160048701612bba565b0383612acc565b6080850191825260405192612549846125428160058501612bba565b0385612acc565b60a0860193845260ff600682015416600481101561281c5760c0870152600781015460e087015260089081015460ff81161515610100880152901c6001600160a01b031661012086018181529185913314612813575b87865260076020908152604080882033895290915286205460ff1661280a575b6000805160206132aa83398151915286526020868152604080882033895290915286205460ff1680156127d8575b6127cf575b600d546040516386c3441560e01b815233600482015291908790839060249082906001600160a01b03165afa9182156127c45787926127a8575b508151801515928361278e575b505050612786575b15612737576102b195845260076020526040842060018060a01b033316855260205260ff604085205416159081612722575b50806126f4575b806126c1575b612694575b5050506040519182918261289b565b604051906126a3602083612acc565b83825252604051916126b6602084612acc565b825252388080612685565b50337f00000000000000000000000000000000000000000000000000000000000000006001600160a01b03161415612680565b506000805160206132aa83398151915283526020838152604080852033865290915283205460ff161561267a565b516001600160a01b0316331415905038612673565b60405162461bcd60e51b815260206004820152602160248201527f4e6f207065726d697373696f6e20746f20766965772074686973207265636f726044820152601960fa1b6064820152608490fd5b506001612641565b602091929350012090516020815191012014388080612639565b6127bd9192503d8089833e6106a98183612acc565b903861262c565b6040513d89823e3d90fd5b600191506125f2565b50337f00000000000000000000000000000000000000000000000000000000000000006001600160a01b0316146125ed565b600191506125bf565b6001915061259f565b634e487b7160e01b86526021600452602486fd5b60005b8381106128435750506000910152565b8181015183820152602001612833565b9060209161286c81518092818552858086019101612830565b601f01601f1916010190565b9060048210156128855752565b634e487b7160e01b600052602160045260246000fd5b60208152815160208201526101406129266129106128fa6128e46128ce6020880151866040890152610160880190612853565b6040880151878203601f19016060890152612853565b6060870151868203601f19016080880152612853565b6080860151858203601f190160a0870152612853565b60a0850151848203601f190160c0860152612853565b9261293960c082015160e0850190612878565b60e0810151610100840152610100810151151561012084015261012060018060a01b039101511691015290565b600435906001600160a01b038216820361057c57565b602435906001600160a01b038216820361057c57565b9181601f8401121561057c578235916001600160401b03831161057c576020838186019501011161057c57565b602060408183019282815284518094520192019060005b8181106129e35750505090565b82518452602093840193909201916001016129d6565b90604060031983011261057c576004356001600160a01b038116810361057c5791602435906001600160401b03821161057c57612a3891600401612992565b9091565b602060408183019282815284518094520192019060005b818110612a605750505090565b82516001600160a01b0316845260209384019390920191600101612a53565b61014081019081106001600160401b03821117612a9b57604052565b634e487b7160e01b600052604160045260246000fd5b60c081019081106001600160401b03821117612a9b57604052565b90601f801991011681019081106001600160401b03821117612a9b57604052565b60405190612afa82612a7f565b600061012083828152606060208201526060604082015260608082015260606080820152606060a08201528260c08201528260e0820152826101008201520152565b15612b4357565b60405162461bcd60e51b8152602060048201526015602482015274149958dbdc9908191bd95cc81b9bdd08195e1a5cdd605a1b6044820152606490fd5b90600182811c92168015612bb0575b6020831014612b9a57565b634e487b7160e01b600052602260045260246000fd5b91607f1691612b8f565b60009291815491612bca83612b80565b8083529260018116908115612c205750600114612be657505050565b60009081526020812093945091925b838310612c06575060209250010190565b600181602092949394548385870101520191019190612bf5565b915050602093945060ff929192191683830152151560051b010190565b6001600160401b038111612a9b57601f01601f191660200190565b60208183031261057c578051906001600160401b03821161057c570181601f8201121561057c578051612c8a81612c3d565b92612c986040519485612acc565b8184526020828401011161057c57612cb69160208085019101612830565b90565b15612cc057565b60405162461bcd60e51b815260206004820152600f60248201526e2737ba1039bab832b91030b236b4b760891b6044820152606490fd5b15612cfe57565b60405162461bcd60e51b815260206004820152601860248201527f4e6f74206120726567697374657265642073747564656e7400000000000000006044820152606490fd5b15612d4a57565b60405162461bcd60e51b815260206004820152600f60248201526e139bdd081e5bdd5c881c9958dbdc99608a1b6044820152606490fd5b612cb6939260809260048352602083015260018060a01b031660408201528160608201520190612853565b612dc490602060405192828480945193849201612830565b810103902090565b15612dd357565b60405162461bcd60e51b815260206004820152601860248201527f4e6f742061646d696e206f722073757065722061646d696e00000000000000006044820152606490fd5b818110612e23575050565b60008155600101612e18565b600254811015612e4a57600260005260206000200190600090565b634e487b7160e01b600052603260045260246000fd5b908060209392818452848401376000828201840152601f01601f1916010190565b3360009081527f1a7760066bd1f06df3a1a816a948cb99a3a2e8ffa5089500e84706868bfe072d602052604090205460ff1615612eba57565b612f84612ec63361309d565b612f646011612ee260008051602061328a8339815191526131dd565b9260376040519485927f416363657373436f6e74726f6c3a206163636f756e74200000000000000000006020850152612f248151809260208688019101612830565b83017001034b99036b4b9b9b4b733903937b6329607d1b83820152612f53825180936020604885019101612830565b01010301601f198101835282612acc565b60405162461bcd60e51b8152602060048201529182916024830190612853565b0390fd5b60008181526020818152604080832033845290915290205460ff1615612fab5750565b612f8490612f646011612ee2612fc03361309d565b936131dd565b6000818152602081815260408083206001600160a01b038616845290915290205460ff16612ff2575050565b6000818152602081815260408083206001600160a01b0395909516808452949091528120805460ff19169055339291907ff6391f5c32d9c69d2a47ea670b442974b53935d1edc7fd64eb21e047a839171b9080a4565b60ff6003541661305457565b60405162461bcd60e51b815260206004820152601060248201526f14185d5cd8589b194e881c185d5cd95960821b6044820152606490fd5b908151811015612e4a570160200190565b6000906130aa602a612c3d565b916130b86040519384612acc565b602a83526130c6602a612c3d565b6020840190601f19013682378351156131c957603090538251600110156131b5576078602184015350602960005b600182116131495750506131055790565b606460405162461bcd60e51b815260206004820152602060248201527f537472696e67733a20686578206c656e67746820696e73756666696369656e746044820152fd5b9091600f811660108110156131a1576f181899199a1a9b1b9c1cb0b131b232b360811b901a613178848661308c565b5360041c91801561318d5760001901906130f4565b634e487b7160e01b82526011600452602482fd5b634e487b7160e01b83526032600452602483fd5b634e487b7160e01b81526032600452602490fd5b634e487b7160e01b82526032600452602482fd5b6000906131ea6042612c3d565b916131f86040519384612acc565b604283526132066042612c3d565b6020840190601f19013682378351156131c957603090538251600110156131b5576078602184015350604160005b600182116132455750506131055790565b9091600f811660108110156131a1576f181899199a1a9b1b9c1cb0b131b232b360811b901a613274848661308c565b5360041c91801561318d57600019019061323456fe5bb0bf1fabd5e975fc7a4520766d9e86e0eb281f8c7c44fcd3dfe60a11e786caa49807205ce4d355092ef5a8a18f56e8913cf4a201fbe287825b095693c21775a264697066735822122003e42e2d443da4d5cb318b2e62d3b442cdadf60518b6c9add40e33fb2c28fc9e64736f6c634300081c0033608080604052346015576108d3908161001b8239f35b600080fdfe608080604052600436101561001357600080fd5b60003560e01c908163528bcbac146101f5575080635a0ade26146101ab57806386c34415146101ab578063a82e3b001461014d578063bd5ba462146100f6578063c6ddfefb146100b75763ce09213b1461006c57600080fd5b346100b257602061007c3661080d565b8161009060405192838151938492016106be565b600190820190815281900382019020546040516001600160a01b039091168152f35b600080fd5b346100b257602060ff6100e0826100cd3661080d565b81604051938285809451938492016106be565b8101600081520301902054166040519015158152f35b346100b25760203660031901126100b25760043567ffffffffffffffff81116100b25760ff602061012c8193369060040161067a565b91908260405193849283378101600081520301902054166040519015158152f35b346100b25760203660031901126100b25760043567ffffffffffffffff81116100b25760206101818192369060040161067a565b9190826040519384928337600190820190815203019020546040516001600160a01b039091168152f35b346100b25760203660031901126100b2576001600160a01b036101cc6106a8565b1660005260026020526101f16101e56040600020610769565b604051918291826106e1565b0390f35b346100b25760403660031901126100b25760043567ffffffffffffffff81116100b25761022690369060040161067a565b6024356001600160a01b03811693908490036100b25781156106435750821561060c5760ff6040518284823760208184810160008152030190205416600014610484576040518183823760018183019081528190036020019020546001600160a01b0316918261041a575b604051828282376020818481016001815203019020846bffffffffffffffffffffffff60a01b825416179055836000526002602052604060002067ffffffffffffffff8311610404576102e4815461070d565b601f81116103c7575b50600083601f8111600114610364578061031d92600091610359575b508160011b916000199060031b1c19161790565b90555b8160405192839283378101600081520390207f55066e0ef5d53e826887694254397ccd8c9936f6bab5e8d7592b001695658874600080a4005b905084013588610309565b50818152602081209084601f198116825b8181106103ac575010610392575b5050600183811b019055610320565b830135600019600386901b60f8161c191690558580610383565b86840135855560019094019360209384019388935001610375565b6103f490826000526020600020601f860160051c810191602087106103fa575b601f0160051c0190610886565b856102ed565b90915081906103e7565b634e487b7160e01b600052604160045260246000fd5b8260005260026020526040600020610432815461070d565b9081610440575b5050610291565b81601f600093116001146104585750555b8480610439565b8183526020832061047491601f0160051c810190600101610886565b8082528160208120915555610451565b90604051828282376020818481016000815203019020600160ff19825416179055604051828282376020818481016001815203019020836bffffffffffffffffffffffff60a01b825416179055826000526002602052604060002067ffffffffffffffff8311610404576104f8815461070d565b601f81116105da575b50600083601f811160011461057757806105309260009161056c57508160011b916000199060031b1c19161790565b90555b8160405192839283378101600081520390207faa541cc9975b48a66ff0fcced1b6a07701b89f4bf70332c0e06f406f61b8e979600080a3005b905084013587610309565b50818152602081209084601f198116825b8181106105bf5750106105a5575b5050600183811b019055610533565b830135600019600386901b60f8161c191690558480610596565b86840135855560019094019360209384019388935001610588565b61060690826000526020600020601f860160051c810191602087106103fa57601f0160051c0190610886565b84610501565b60405162461bcd60e51b815260206004820152600f60248201526e496e76616c6964206164647265737360881b6044820152606490fd5b62461bcd60e51b8152602060048201526012602482015271125b9d985b1a59081cdd1d59195b9d08125160721b6044820152606490fd5b9181601f840112156100b25782359167ffffffffffffffff83116100b257602083818601950101116100b257565b600435906001600160a01b03821682036100b257565b60005b8381106106d15750506000910152565b81810151838201526020016106c1565b6040916020825261070181518092816020860152602086860191016106be565b601f01601f1916010190565b90600182811c9216801561073d575b602083101461072757565b634e487b7160e01b600052602260045260246000fd5b91607f169161071c565b90601f8019910116810190811067ffffffffffffffff82111761040457604052565b906040519182600082549261077d8461070d565b80845293600181169081156107eb57506001146107a4575b506107a292500383610747565b565b90506000929192526020600020906000915b8183106107cf5750509060206107a29282010138610795565b60209193508060019154838589010152019101909184926107b6565b9050602092506107a294915060ff191682840152151560051b82010138610795565b60206003198201126100b25760043567ffffffffffffffff81116100b257816023820112156100b25780600401359067ffffffffffffffff82116104045760405192610863601f8401601f191660200185610747565b828452602483830101116100b25781600092602460209301838601378301015290565b818110610891575050565b6000815560010161088656fea2646970667358221220d6704b8068629dd4dc6988b644a94e20dcbc9683e9a57c8497f02cced0d4e49b64736f6c634300081c00332f8788117e7eff1d82e926ec794901d17c78024a50270940304540a733656f0d7d7ffb7a348e1c6a02869081a26547b49160dd3df72d1d75a570eb9b698292ec2155616cb3971b66bf28f1af4ff3722784e6d7a4b2b25bc9fe623232dcd690c8ad3228b676f7d3cd4284a5443f17f1962b36e491b30a40b2405849e597ba5fb5",
  "linkReferences": {
    "contracts/libraries/RecordStorage.sol": {
      "RecordStorage": [
        {
          "length": 20,
          "start": 1826
        },
        {
          "length": 20,
          "start": 3246
        },
        {
          "length": 20,
          "start": 4656
        },
        {
          "length": 20,
          "start": 7574
        },
        {
          "length": 20,
          "start": 8580
        }
      ]
    }
  },
  "deployedLinkReferences": {
    "contracts/libraries/RecordStorage.sol": {
      "RecordStorage": [
        {
          "length": 20,
          "start": 1224
        },
        {
          "length": 20,
          "start": 2644
        },
        {
          "length": 20,
          "start": 4054
        },
        {
          "length": 20,
          "start": 6972
        },
        {
          "length": 20,
          "start": 7978
        }
      ]
    }
  }
}