{
  "_format": "hh-sol-artifact-1",
  "contractName": "AcademicRecords",
  "sourceName": "contracts/AcademicRecords.sol",
  "abi": [
    {
      "inputs": [],
      "stateMutability": "nonpayable",
      "type": "constructor"
    },
    {
      "anonymous": false,
      "inputs": [
        {
          "indexed": true,
          "internalType": "address",
          "name": "student",
          "type": "address"
        },
        {
          "indexed": true,
          "internalType": "address",
          "name": "viewer",
          "type": "address"
        },
        {
          "indexed": false,
          "internalType": "uint256",
          "name": "recordId",
          "type": "uint256"
        }
      ],
      "name": "AccessGranted",
      "type": "event"
    },
    {
      "anonymous": false,
      "inputs": [
        {
          "indexed": true,
          "internalType": "address",
          "name": "student",
          "type": "address"
        },
        {
          "indexed": true,
          "internalType": "address",
          "name": "viewer",
          "type": "address"
        },
        {
          "indexed": false,
          "internalType": "uint256",
          "name": "recordId",
          "type": "uint256"
        }
      ],
      "name": "AccessRevoked",
      "type": "event"
    },
    {
      "anonymous": false,
      "inputs": [
        {
          "indexed": false,
          "internalType": "address",
          "name": "university",
          "type": "address"
        },
        {
          "indexed": false,
          "internalType": "string",
          "name": "label",
          "type": "string"
        }
      ],
      "name": "CustomRecordTypeAdded",
      "type": "event"
    },
    {
      "anonymous": false,
      "inputs": [
        {
          "indexed": false,
          "internalType": "address",
          "name": "account",
          "type": "address"
        }
      ],
      "name": "Paused",
      "type": "event"
    },
    {
      "anonymous": false,
      "inputs": [
        {
          "indexed": true,
          "internalType": "uint256",
          "name": "recordId",
          "type": "uint256"
        },
        {
          "indexed": false,
          "internalType": "string",
          "name": "studentId",
          "type": "string"
        },
        {
          "indexed": false,
          "internalType": "enum Types.RecordType",
          "name": "recordType",
          "type": "uint8"
        },
        {
          "indexed": false,
          "internalType": "address",
          "name": "issuer",
          "type": "address"
        }
      ],
      "name": "RecordAdded",
      "type": "event"
    },
    {
      "anonymous": false,
      "inputs": [
        {
          "indexed": true,
          "internalType": "uint256",
          "name": "recordId",
          "type": "uint256"
        },
        {
          "indexed": false,
          "internalType": "string",
          "name": "studentId",
          "type": "string"
        }
      ],
      "name": "RecordDeleted",
      "type": "event"
    },
    {
      "anonymous": false,
      "inputs": [
        {
          "indexed": true,
          "internalType": "bytes32",
          "name": "role",
          "type": "bytes32"
        },
        {
          "indexed": true,
          "internalType": "bytes32",
          "name": "previousAdminRole",
          "type": "bytes32"
        },
        {
          "indexed": true,
          "internalType": "bytes32",
          "name": "newAdminRole",
          "type": "bytes32"
        }
      ],
      "name": "RoleAdminChanged",
      "type": "event"
    },
    {
      "anonymous": false,
      "inputs": [
        {
          "indexed": true,
          "internalType": "bytes32",
          "name": "role",
          "type": "bytes32"
        },
        {
          "indexed": true,
          "internalType": "address",
          "name": "account",
          "type": "address"
        },
        {
          "indexed": true,
          "internalType": "address",
          "name": "sender",
          "type": "address"
        }
      ],
      "name": "RoleGranted",
      "type": "event"
    },
    {
      "anonymous": false,
      "inputs": [
        {
          "indexed": true,
          "internalType": "bytes32",
          "name": "role",
          "type": "bytes32"
        },
        {
          "indexed": true,
          "internalType": "address",
          "name": "account",
          "type": "address"
        },
        {
          "indexed": true,
          "internalType": "address",
          "name": "sender",
          "type": "address"
        }
      ],
      "name": "RoleRevoked",
      "type": "event"
    },
    {
      "anonymous": false,
      "inputs": [
        {
          "indexed": true,
          "internalType": "address",
          "name": "university",
          "type": "address"
        },
        {
          "indexed": false,
          "internalType": "string",
          "name": "name",
          "type": "string"
        }
      ],
      "name": "UniversityNameUpdated",
      "type": "event"
    },
    {
      "anonymous": false,
      "inputs": [
        {
          "indexed": false,
          "internalType": "address",
          "name": "account",
          "type": "address"
        }
      ],
      "name": "Unpaused",
      "type": "event"
    },
    {
      "inputs": [],
      "name": "ADMIN_ROLE",
      "outputs": [
        {
          "internalType": "bytes32",
          "name": "",
          "type": "bytes32"
        }
      ],
      "stateMutability": "view",
      "type": "function"
    },
    {
      "inputs": [],
      "name": "DEFAULT_ADMIN_ROLE",
      "outputs": [
        {
          "internalType": "bytes32",
          "name": "",
          "type": "bytes32"
        }
      ],
      "stateMutability": "view",
      "type": "function"
    },
    {
      "inputs": [],
      "name": "UNIVERSITY_ROLE",
      "outputs": [
        {
          "internalType": "bytes32",
          "name": "",
          "type": "bytes32"
        }
      ],
      "stateMutability": "view",
      "type": "function"
    },
    {
      "inputs": [
        {
          "internalType": "address",
          "name": "newAdmin",
          "type": "address"
        }
      ],
      "name": "addAdmin",
      "outputs": [],
      "stateMutability": "nonpayable",
      "type": "function"
    },
    {
      "inputs": [
        {
          "internalType": "string",
          "name": "label",
          "type": "string"
        }
      ],
      "name": "addCustomRecordType",
      "outputs": [],
      "stateMutability": "nonpayable",
      "type": "function"
    },
    {
      "inputs": [
        {
          "internalType": "string",
          "name": "studentId",
          "type": "string"
        },
        {
          "internalType": "string",
          "name": "studentName",
          "type": "string"
        },
        {
          "internalType": "string",
          "name": "universityName",
          "type": "string"
        },
        {
          "internalType": "string",
          "name": "ipfsHash",
          "type": "string"
        },
        {
          "internalType": "string",
          "name": "metadataHash",
          "type": "string"
        },
        {
          "internalType": "enum Types.RecordType",
          "name": "recordType",
          "type": "uint8"
        }
      ],
      "name": "addRecord",
      "outputs": [
        {
          "internalType": "uint256",
          "name": "",
          "type": "uint256"
        }
      ],
      "stateMutability": "nonpayable",
      "type": "function"
    },
    {
      "inputs": [
        {
          "internalType": "address",
          "name": "universityAddress",
          "type": "address"
        },
        {
          "internalType": "string",
          "name": "name",
          "type": "string"
        }
      ],
      "name": "addUniversity",
      "outputs": [],
      "stateMutability": "nonpayable",
      "type": "function"
    },
    {
      "inputs": [
        {
          "internalType": "address",
          "name": "viewer",
          "type": "address"
        },
        {
          "internalType": "uint256",
          "name": "recordId",
          "type": "uint256"
        }
      ],
      "name": "canView",
      "outputs": [
        {
          "internalType": "bool",
          "name": "",
          "type": "bool"
        }
      ],
      "stateMutability": "view",
      "type": "function"
    },
    {
      "inputs": [
        {
          "internalType": "string",
          "name": "studentId",
          "type": "string"
        }
      ],
      "name": "deleteStudentRecords",
      "outputs": [],
      "stateMutability": "nonpayable",
      "type": "function"
    },
    {
      "inputs": [],
      "name": "getAllUniversities",
      "outputs": [
        {
          "internalType": "address[]",
          "name": "",
          "type": "address[]"
        }
      ],
      "stateMutability": "view",
      "type": "function"
    },
    {
      "inputs": [
        {
          "internalType": "uint256",
          "name": "recordId",
          "type": "uint256"
        }
      ],
      "name": "getRecord",
      "outputs": [
        {
          "components": [
            {
              "internalType": "uint256",
              "name": "id",
              "type": "uint256"
            },
            {
              "internalType": "string",
              "name": "studentId",
              "type": "string"
            },
            {
              "internalType": "string",
              "name": "studentName",
              "type": "string"
            },
            {
              "internalType": "string",
              "name": "universityName",
              "type": "string"
            },
            {
              "internalType": "string",
              "name": "ipfsHash",
              "type": "string"
            },
            {
              "internalType": "string",
              "name": "metadataHash",
              "type": "string"
            },
            {
              "internalType": "enum Types.RecordType",
              "name": "recordType",
              "type": "uint8"
            },
            {
              "internalType": "uint256",
              "name": "timestamp",
              "type": "uint256"
            },
            {
              "internalType": "bool",
              "name": "isVerified",
              "type": "bool"
            },
            {
              "internalType": "address",
              "name": "issuer",
              "type": "address"
            }
          ],
          "internalType": "struct Types.Record",
          "name": "",
          "type": "tuple"
        }
      ],
      "stateMutability": "view",
      "type": "function"
    },
    {
      "inputs": [
        {
          "internalType": "bytes32",
          "name": "role",
          "type": "bytes32"
        }
      ],
      "name": "getRoleAdmin",
      "outputs": [
        {
          "internalType": "bytes32",
          "name": "",
          "type": "bytes32"
        }
      ],
      "stateMutability": "view",
      "type": "function"
    },
    {
      "inputs": [
        {
          "internalType": "address",
          "name": "student",
          "type": "address"
        }
      ],
      "name": "getStudentOwnedRecords",
      "outputs": [
        {
          "internalType": "uint256[]",
          "name": "",
          "type": "uint256[]"
        }
      ],
      "stateMutability": "view",
      "type": "function"
    },
    {
      "inputs": [
        {
          "internalType": "string",
          "name": "studentId",
          "type": "string"
        }
      ],
      "name": "getStudentRecords",
      "outputs": [
        {
          "internalType": "uint256[]",
          "name": "",
          "type": "uint256[]"
        }
      ],
      "stateMutability": "view",
      "type": "function"
    },
    {
      "inputs": [],
      "name": "getSuperAdmin",
      "outputs": [
        {
          "internalType": "address",
          "name": "",
          "type": "address"
        }
      ],
      "stateMutability": "view",
      "type": "function"
    },
    {
      "inputs": [
        {
          "internalType": "address",
          "name": "universityAddress",
          "type": "address"
        }
      ],
      "name": "getUniversityName",
      "outputs": [
        {
          "internalType": "string",
          "name": "",
          "type": "string"
        }
      ],
      "stateMutability": "view",
      "type": "function"
    },
    {
      "inputs": [],
      "name": "getUniversityRecords",
      "outputs": [
        {
          "internalType": "uint256[]",
          "name": "",
          "type": "uint256[]"
        }
      ],
      "stateMutability": "view",
      "type": "function"
    },
    {
      "inputs": [
        {
          "internalType": "address",
          "name": "viewer",
          "type": "address"
        },
        {
          "internalType": "uint256",
          "name": "recordId",
          "type": "uint256"
        }
      ],
      "name": "grantAccess",
      "outputs": [],
      "stateMutability": "nonpayable",
      "type": "function"
    },
    {
      "inputs": [
        {
          "internalType": "bytes32",
          "name": "role",
          "type": "bytes32"
        },
        {
          "internalType": "address",
          "name": "account",
          "type": "address"
        }
      ],
      "name": "grantRole",
      "outputs": [],
      "stateMutability": "nonpayable",
      "type": "function"
    },
    {
      "inputs": [
        {
          "internalType": "bytes32",
          "name": "role",
          "type": "bytes32"
        },
        {
          "internalType": "address",
          "name": "account",
          "type": "address"
        }
      ],
      "name": "hasRole",
      "outputs": [
        {
          "internalType": "bool",
          "name": "",
          "type": "bool"
        }
      ],
      "stateMutability": "view",
      "type": "function"
    },
    {
      "inputs": [
        {
          "internalType": "address",
          "name": "university",
          "type": "address"
        },
        {
          "internalType": "string",
          "name": "label",
          "type": "string"
        }
      ],
      "name": "isCustomRecordType",
      "outputs": [
        {
          "internalType": "bool",
          "name": "",
          "type": "bool"
        }
      ],
      "stateMutability": "view",
      "type": "function"
    },
    {
      "inputs": [],
      "name": "pause",
      "outputs": [],
      "stateMutability": "nonpayable",
      "type": "function"
    },
    {
      "inputs": [],
      "name": "paused",
      "outputs": [
        {
          "internalType": "bool",
          "name": "",
          "type": "bool"
        }
      ],
      "stateMutability": "view",
      "type": "function"
    },
    {
      "inputs": [
        {
          "internalType": "address",
          "name": "admin",
          "type": "address"
        }
      ],
      "name": "removeAdmin",
      "outputs": [],
      "stateMutability": "nonpayable",
      "type": "function"
    },
    {
      "inputs": [
        {
          "internalType": "address",
          "name": "universityAddress",
          "type": "address"
        }
      ],
      "name": "removeUniversity",
      "outputs": [],
      "stateMutability": "nonpayable",
      "type": "function"
    },
    {
      "inputs": [
        {
          "internalType": "bytes32",
          "name": "role",
          "type": "bytes32"
        },
        {
          "internalType": "address",
          "name": "account",
          "type": "address"
        }
      ],
      "name": "renounceRole",
      "outputs": [],
      "stateMutability": "nonpayable",
      "type": "function"
    },
    {
      "inputs": [
        {
          "internalType": "address",
          "name": "viewer",
          "type": "address"
        },
        {
          "internalType": "uint256",
          "name": "recordId",
          "type": "uint256"
        }
      ],
      "name": "revokeAccess",
      "outputs": [],
      "stateMutability": "nonpayable",
      "type": "function"
    },
    {
      "inputs": [
        {
          "internalType": "bytes32",
          "name": "role",
          "type": "bytes32"
        },
        {
          "internalType": "address",
          "name": "account",
          "type": "address"
        }
      ],
      "name": "revokeRole",
      "outputs": [],
      "stateMutability": "nonpayable",
      "type": "function"
    },
    {
      "inputs": [
        {
          "internalType": "address",
          "name": "universityAddress",
          "type": "address"
        },
        {
          "internalType": "string",
          "name": "name",
          "type": "string"
        }
      ],
      "name": "setUniversityName",
      "outputs": [],
      "stateMutability": "nonpayable",
      "type": "function"
    },
    {
      "inputs": [
        {
          "internalType": "bytes4",
          "name": "interfaceId",
          "type": "bytes4"
        }
      ],
      "name": "supportsInterface",
      "outputs": [
        {
          "internalType": "bool",
          "name": "",
          "type": "bool"
        }
      ],
      "stateMutability": "view",
      "type": "function"
    },
    {
      "inputs": [],
      "name": "unpause",
      "outputs": [],
      "stateMutability": "nonpayable",
      "type": "function"
    },
    {
      "inputs": [
        {
          "internalType": "uint256",
          "name": "recordId",
          "type": "uint256"
        }
      ],
      "name": "verifyRecord",
      "outputs": [
        {
          "internalType": "bool",
          "name": "",
          "type": "bool"
        }
      ],
      "stateMutability": "view",
      "type": "function"
    }
  ],
  "bytecode": "0x60a06040523461012c576001805460ff1916905533608081905260009081526000805160206128b3833981519152602052604090205460ff16156100ec575b336000908152600080516020612893833981519152602052604090205460ff161561008a575b6040516127419081610132823960805181818161119a015281816114800152611a700152f35b33600081815260008051602061289383398151915260205260408120805460ff1916600117905581907fa49807205ce4d355092ef5a8a18f56e8913cf4a201fbe287825b095693c21775906000805160206128738339815191529080a4610064565b3360008181526000805160206128b383398151915260205260408120805460ff1916600117905581906000805160206128738339815191528180a461003e565b600080fdfe608080604052600436101561001357600080fd5b60003560e01c90816301ffc9a714611db35750806303e9e60914611b7f5780630b15c9dc14611b325780631785f53c14611a51578063248a9ca314611a1c57806328f54b2f146118375780632d175a18146117a85780632f2ff15d146116ec57806336568abe1461165a5780633af4d950146116265780633d178414146115fd5780633f4ba83a146115695780635c975abb14611546578063704802751461146157806375b238fc1461143857806378869cd7146113f8578063799853e31461135a57806379d13ab0146111c95780638204c326146111845780638456cb59146110f1578063882f0403146110a35780638e95cc181461102c57806391d1485414610fdf57806392fd707d14610f605780639df8925614610ebc578063a217fddf14610ea0578063a908dc6214610c09578063a99d837914610b68578063baf9077b14610926578063c4dd1e3714610297578063d547741f146102505763f597d9941461017f57600080fd5b3461024b57600036600319011261024b57604051806020600a5492838152018092600a6000527fc65a7bb8d6351c1cf70c95a316cc6a92839c986682d98bc35f958f4883f9d2a89060005b81811061022c57505050816101e0910382611f4d565b6040519182916020830190602084525180915260408301919060005b81811061020a575050500390f35b82516001600160a01b03168452859450602093840193909201916001016101fc565b82546001600160a01b03168452602090930192600192830192016101ca565b600080fd5b3461024b57604036600319011261024b5761029560043561026f611e71565b9061029061028b82600052600060205260016040600020015490565b612464565b61229e565b005b3461024b5760c036600319011261024b576004356001600160401b03811161024b576102c7903690600401611e87565b6024356001600160401b03811161024b576102e6903690600401611e87565b6044939193356001600160401b03811161024b57610308903690600401611e87565b9290936064356001600160401b03811161024b5761032a903690600401611e87565b966084356001600160401b03811161024b5761034a903690600401611e87565b91909260a43593600485101561024b576103c46103d3926103b56103a69c610370612415565b6001600454019d8e97886004556040519861038a8a611f31565b8952610397368d8f612228565b9d60208a019e8f523691612228565b9c604088019d8e523691612228565b9c606086019d8e523691612228565b93608084019485523691612228565b60a0820190815260c08201926103e9858561204c565b60e083019a428c5261010084019960018b52610120850199338b528c60005260056020526040600020955186556001860190518051906001600160401b038211610753576104418261043b8554611f6e565b856121c8565b602090601f83116001146108bf5761047292916000918361084d575b50508160011b916000199060031b1c19161790565b90555b51805160028601916001600160401b038211610753576104998261043b8554611f6e565b602090601f8311600114610858576104c992916000918361084d5750508160011b916000199060031b1c19161790565b90555b51805160038501916001600160401b038211610753576104f08261043b8554611f6e565b602090601f83116001146107e6576105209291600091836107db5750508160011b916000199060031b1c19161790565b90555b51805160048401916001600160401b038211610753576105478261043b8554611f6e565b602090601f8311600114610774576105779291600091836107695750508160011b916000199060031b1c19161790565b90555b51805160058301916001600160401b0382116107535761059e8261043b8554611f6e565b602090601f83116001146106ec576105ce9291600091836106e15750508160011b916000199060031b1c19161790565b90555b6006810191519860048a10156106cb5760209989987f8a9f62701df42f18a82cdd37c50a7bce4cd48487ff236cabc609440251f87c3e9860088b956040956106969860009660ff80198354169116179055516007820155019151151560ff8019845416911617825551815490610100600160a81b039060081b1690610100600160a81b031916179055610676838351888a82378d818a8101600681520301902061225f565b33815260078b526106898383832061225f565b33815260038b522061225f565b6106ba6106b0604051948594606086526060860191612154565b9188840190611e4e565b3360408301520390a2604051908152f35b634e487b7160e01b600052602160045260246000fd5b015190508d8061045d565b90601f1983169184600052816000209260005b81811061073b5750908460019594939210610722575b505050811b0190556105d1565b015160001960f88460031b161c191690558c8080610715565b929360206001819287860151815501950193016106ff565b634e487b7160e01b600052604160045260246000fd5b015190508e8061045d565b90601f1983169184600052816000209260005b8181106107c357509084600195949392106107aa575b505050811b01905561057a565b015160001960f88460031b161c191690558d808061079d565b92936020600181928786015181550195019301610787565b015190508f8061045d565b90601f1983169184600052816000209260005b818110610835575090846001959493921061081c575b505050811b019055610523565b015160001960f88460031b161c191690558e808061080f565b929360206001819287860151815501950193016107f9565b01519050388061045d565b90601f1983169184600052816000209260005b8181106108a7575090846001959493921061088e575b505050811b0190556104cc565b015160001960f88460031b161c191690558f8080610881565b9293602060018192878601518155019501930161086b565b90601f1983169184600052816000209260005b81811061090e57509084600195949392106108f5575b505050811b019055610475565b015160001960f88460031b161c191690553880806108e8565b929360206001819287860151815501950193016108d2565b3461024b5761093436611eee565b3360009081526000805160206126ac833981519152602052604090205490929060ff168015610b56575b15610b11576001600160a01b038116600090815260008051602061268c833981519152602052604090205460ff1615610acc576001600160a01b03166000818152600960205260409020929091906001600160401b038111610753576109ce816109c88654611f6e565b866121c8565b600093601f8211600114610a4a57610a2082807fc27f3bae021ab8e78d67f94f2cd8248055d6ae911c4cf44c62bd025cd3574ee19697600091610a3f575b508160011b916000199060031b1c19161790565b90555b610a3a604051928392602084526020840191612154565b0390a2005b905085013588610a0c565b80855260208520601f19831695805b878110610ab45750837fc27f3bae021ab8e78d67f94f2cd8248055d6ae911c4cf44c62bd025cd3574ee1969710610a9a575b5050600182811b019055610a23565b840135600019600385901b60f8161c191690558580610a8b565b90916020600181928589013581550193019101610a59565b60405162461bcd60e51b815260206004820152601b60248201527f41646472657373206973206e6f74206120756e697665727369747900000000006044820152606490fd5b60405162461bcd60e51b815260206004820152601a60248201527f4e6f7420617574686f72697a656420746f20736574206e616d650000000000006044820152606490fd5b50336001600160a01b0382161461095e565b3461024b57604036600319011261024b57610b81611e5b565b6024356000818152600560205260409020600890810154919291610bb0911c6001600160a01b03163314612189565b60018060a01b031690816000526002602052604060002081600052602052604060002060ff1981541690556040519081527f6f6a404ffd2cea4713256a4fd9ce99c8cf8cf32d85c2bb8061d1603ff57d50c360203392a3005b3461024b57610c1736611eee565b9190610c21612320565b6001600160a01b038216600090815260008051602061268c833981519152602052604090205460ff16610e64576000805160206126cc83398151915260009081526020527f1a7760066bd1f06df3a1a816a948cb99a3a2e8ffa5089500e84706868bfe072e54610c9090612464565b6001600160a01b038216600090815260008051602061268c833981519152602052604090205460ff1615610df8575b6001600160a01b03821660008181526009602052604090209093906001600160401b03821161075357610cfc82610cf68354611f6e565b836121c8565b600082601f8111600114610d955780610d2a92600091610a3f57508160011b916000199060031b1c19161790565b90555b600a54600160401b811015610753577fc27f3bae021ab8e78d67f94f2cd8248055d6ae911c4cf44c62bd025cd3574ee193610d71826001610a239401600a5561210a565b81546001600160a01b0393841660039290921b91821b9390911b1916919091179055565b50818152602081209083601f198116825b818110610ddd575010610dc3575b5050600182811b019055610d2d565b840135600019600385901b60f8161c191690558580610db4565b87840135855560019094019360209384019387935001610da6565b6001600160a01b038216600081815260008051602061268c83398151915260205260408120805460ff191660011790553391906000805160206126cc833981519152907f2f8788117e7eff1d82e926ec794901d17c78024a50270940304540a733656f0d9080a4610cbf565b60405162461bcd60e51b8152602060048201526014602482015273416c7265616479206120756e697665727369747960601b6044820152606490fd5b3461024b57600036600319011261024b57602060405160008152f35b3461024b57604036600319011261024b57610ed5611e5b565b6024356000818152600560205260409020600890810154919291610f04911c6001600160a01b03163314612189565b60018060a01b0316908160005260026020526040600020816000526020526040600020600160ff198254161790556040519081527f65d0cc1e52d49938ca4ad9f423c79c1b84d914b9a683fbc5d3f93ac3cc5635f560203392a3005b3461024b57600036600319011261024b57610f79612415565b336000526007602052604060002060405190816020825491828152019160005260206000209060005b818110610fc957610fc585610fb981870382611f4d565b60405191829182611eb4565b0390f35b8254845260209093019260019283019201610fa2565b3461024b57604036600319011261024b57610ff8611e71565b600435600052600060205260406000209060018060a01b0316600052602052602060ff604060002054166040519015158152f35b3461024b57602036600319011261024b576001600160a01b0361104d611e5b565b166000526003602052604060002060405190816020825491828152019160005260206000209060005b81811061108d57610fc585610fb981870382611f4d565b8254845260209093019260019283019201611076565b3461024b57602036600319011261024b576001600160a01b036110c4611e5b565b166000526009602052610fc56110dd6040600020611fa8565b604051918291602083526020830190611e29565b3461024b57600036600319011261024b5761110a612320565b60015460ff811661114c5760019060ff1916176001557f62e78cea01bee320cd4e420270b5ea74000d11b0c9f74754ebdbfc544b05a2586020604051338152a1005b60405162461bcd60e51b815260206004820152601060248201526f14185d5cd8589b194e881c185d5cd95960821b6044820152606490fd5b3461024b57600036600319011261024b576040517f00000000000000000000000000000000000000000000000000000000000000006001600160a01b03168152602090f35b3461024b57602036600319011261024b576004356001600160401b03811161024b576111f9903690600401611e87565b90611202612415565b604051828282376020818481016006815203019020906040518083602082955493848152019060005260206000209260005b81811061134157505061124992500383611f4d565b60005b825181101561130a578061126260019285612175565b51600052600560205260006008604082208281556112818582016120bb565b61128d600282016120bb565b611299600382016120bb565b6112a5600482016120bb565b6112b1600582016120bb565b82600682015582600782015501556112c98185612175565b517fe8763fda60b3af66a9b5e4f6229107201613e7a1ae7d03f8e01012e811aba0a16040516020815280611301602082018a89612154565b0390a20161124c565b6040516020818680868337810160068152030190208054600082558061132c57005b610295916000526020600020908101906120a4565b8454835260019485019487945060209093019201611234565b3461024b57602036600319011261024b576004356001600160401b03811161024b576113ab7f2a7fdefa7f8276d5aecc1d017f8c605cfc0ad18f833c1a99bfc4604adc9ddffe913690600401611e87565b6113b3612415565b3360005260086020526113cb6040600020828461213b565b600160ff198254161790556113f3604051928392338452604060208501526040840191612154565b0390a1005b3461024b57602060ff61142c61140d36611eee565b6001600160a01b0390921660009081526008865260409020919061213b565b54166040519015158152f35b3461024b57600036600319011261024b5760206040516000805160206126ec8339815191528152f35b3461024b57602036600319011261024b5761147a611e5b565b6114ae337f00000000000000000000000000000000000000000000000000000000000000006001600160a01b031614612058565b6001600160a01b03811660009081526000805160206126ac833981519152602052604090205460ff16156114de57005b6001600160a01b031660008181526000805160206126ac83398151915260205260408120805460ff191660011790553391906000805160206126ec833981519152907f2f8788117e7eff1d82e926ec794901d17c78024a50270940304540a733656f0d9080a4005b3461024b57600036600319011261024b57602060ff600154166040519015158152f35b3461024b57600036600319011261024b57611582612320565b60015460ff8116156115c15760ff19166001557f5db9ee0a495bf2e6ff9c91a7834c1ba4fdd244a5e8aa4e537bd38aeae4b073aa6020604051338152a1005b60405162461bcd60e51b815260206004820152601460248201527314185d5cd8589b194e881b9bdd081c185d5cd95960621b6044820152606490fd5b3461024b57600036600319011261024b5760206040516000805160206126cc8339815191528152f35b3461024b57602036600319011261024b576004356000526005602052602060ff600860406000200154166040519015158152f35b3461024b57604036600319011261024b57611673611e71565b336001600160a01b0382160361168f576102959060043561229e565b60405162461bcd60e51b815260206004820152602f60248201527f416363657373436f6e74726f6c3a2063616e206f6e6c792072656e6f756e636560448201526e103937b632b9903337b91039b2b63360891b6064820152608490fd5b3461024b57604036600319011261024b57600435611708611e71565b9061172461028b82600052600060205260016040600020015490565b6000818152602081815260408083206001600160a01b038616845290915290205460ff161561174f57005b6000818152602081815260408083206001600160a01b0395909516808452949091528120805460ff19166001179055339291907f2f8788117e7eff1d82e926ec794901d17c78024a50270940304540a733656f0d9080a4005b3461024b57602036600319011261024b576004356001600160401b03811161024b576117da6020913690600401611e87565b91908260405193849283378101600681520301902060405190816020825491828152019160005260206000209060005b81811061182157610fc585610fb981870382611f4d565b825484526020909301926001928301920161180a565b3461024b57602036600319011261024b57611850611e5b565b611858612320565b6000805160206126cc83398151915260009081526020527f1a7760066bd1f06df3a1a816a948cb99a3a2e8ffa5089500e84706868bfe072e5461189a90612464565b6001600160a01b038116600090815260008051602061268c833981519152602052604090205460ff166119b3575b6001600160a01b031660008181526009602052604090206118e8906120bb565b60005b600a548082101561029557826119008361210a565b905460039190911b1c6001600160a01b03161461192057506001016118eb565b60001981019250821161199d57610d7161193c6119549361210a565b905460039190911b1c6001600160a01b03169161210a565b600a548015611987576000190161196a8161210a565b81546001600160a01b0360039290921b9190911b19169055600a55005b634e487b7160e01b600052603160045260246000fd5b634e487b7160e01b600052601160045260246000fd5b6001600160a01b038116600081815260008051602061268c83398151915260205260408120805460ff191690553391906000805160206126cc833981519152907ff6391f5c32d9c69d2a47ea670b442974b53935d1edc7fd64eb21e047a839171b9080a46118c8565b3461024b57602036600319011261024b576020611a49600435600052600060205260016040600020015490565b604051908152f35b3461024b57602036600319011261024b57611a6a611e5b565b611a9e337f00000000000000000000000000000000000000000000000000000000000000006001600160a01b031614612058565b6001600160a01b03811660009081526000805160206126ac833981519152602052604090205460ff16611acd57005b6001600160a01b031660008181526000805160206126ac83398151915260205260408120805460ff191690553391906000805160206126ec833981519152907ff6391f5c32d9c69d2a47ea670b442974b53935d1edc7fd64eb21e047a839171b9080a4005b3461024b57604036600319011261024b576001600160a01b03611b53611e5b565b1660005260026020526040600020602435600052602052602060ff604060002054166040519015158152f35b3461024b57602036600319011261024b576004356000610120604051611ba481611f31565b828152606060208201526060604082015260608082015260606080820152606060a08201528260c08201528260e08201528261010082015201528060005260056020528060406000205403611d7b5760005260056020526040600020604051611c0c81611f31565b81548152611c1c60018301611fa8565b6020820190815291611c3060028201611fa8565b60408301908152611c4360038301611fa8565b6060840190815290611c5760048401611fa8565b6080850190815292611c6b60058201611fa8565b60a08601908152600682015460ff169460c0870195611c8a908761204c565b60078301549260e08801938452600801549461010088019460ff871615158652610120890196600160a01b600190039060081c168752604051998a9960208b525160208b01525160408a0161014090526101608a01611ce891611e29565b9051898203601f190160608b0152611d009190611e29565b9051888203601f190160808a0152611d189190611e29565b9051878203601f190160a0890152611d309190611e29565b9051868203601f190160c0880152611d489190611e29565b935160e08601611d5791611e4e565b51610100850152511515610120840152516001600160a01b03166101408301520390f35b60405162461bcd60e51b815260206004820152601060248201526f149958dbdc99081b9bdd08199bdd5b9960821b6044820152606490fd5b3461024b57602036600319011261024b576004359063ffffffff60e01b821680920361024b57602091637965db0b60e01b8114908115611df5575b5015158152f35b6301ffc9a760e01b14905083611dee565b60005b838110611e195750506000910152565b8181015183820152602001611e09565b90602091611e4281518092818552858086019101611e06565b601f01601f1916010190565b9060048210156106cb5752565b600435906001600160a01b038216820361024b57565b602435906001600160a01b038216820361024b57565b9181601f8401121561024b578235916001600160401b03831161024b576020838186019501011161024b57565b602060408183019282815284518094520192019060005b818110611ed85750505090565b8251845260209384019390920191600101611ecb565b90604060031983011261024b576004356001600160a01b038116810361024b5791602435906001600160401b03821161024b57611f2d91600401611e87565b9091565b61014081019081106001600160401b0382111761075357604052565b90601f801991011681019081106001600160401b0382111761075357604052565b90600182811c92168015611f9e575b6020831014611f8857565b634e487b7160e01b600052602260045260246000fd5b91607f1691611f7d565b9060405191826000825492611fbc84611f6e565b808452936001811690811561202a5750600114611fe3575b50611fe192500383611f4d565b565b90506000929192526020600020906000915b81831061200e575050906020611fe19282010138611fd4565b6020919350806001915483858901015201910190918492611ff5565b905060209250611fe194915060ff191682840152151560051b82010138611fd4565b60048210156106cb5752565b1561205f57565b60405162461bcd60e51b815260206004820152601860248201527f4f6e6c792073757065722061646d696e20616c6c6f77656400000000000000006044820152606490fd5b8181106120af575050565b600081556001016120a4565b6120c58154611f6e565b90816120cf575050565b81601f600093116001146120e1575055565b818352602083206120fd91601f0160051c8101906001016120a4565b8082528160208120915555565b600a5481101561212557600a60005260206000200190600090565b634e487b7160e01b600052603260045260246000fd5b6020919283604051948593843782019081520301902090565b908060209392818452848401376000828201840152601f01601f1916010190565b80518210156121255760209160051b010190565b1561219057565b60405162461bcd60e51b815260206004820152601060248201526f2737ba103932b1b7b9321037bbb732b960811b6044820152606490fd5b9190601f81116121d757505050565b611fe1926000526020600020906020601f840160051c83019310612203575b601f0160051c01906120a4565b90915081906121f6565b6001600160401b03811161075357601f01601f191660200190565b9291926122348261220d565b916122426040519384611f4d565b82948184528183011161024b578281602093846000960137010152565b805490600160401b82101561075357600182018155600090805483101561228a578152602090200155565b634e487b7160e01b82526032600452602482fd5b6000818152602081815260408083206001600160a01b038616845290915290205460ff166122ca575050565b6000818152602081815260408083206001600160a01b0395909516808452949091528120805460ff19169055339291907ff6391f5c32d9c69d2a47ea670b442974b53935d1edc7fd64eb21e047a839171b9080a4565b3360009081526000805160206126ac833981519152602052604090205460ff161561234757565b612411612353336124b3565b6123f1601161236f6000805160206126ec8339815191526125df565b9260376040519485927f416363657373436f6e74726f6c3a206163636f756e742000000000000000000060208501526123b18151809260208688019101611e06565b83017001034b99036b4b9b9b4b733903937b6329607d1b838201526123e0825180936020604885019101611e06565b01010301601f198101835282611f4d565b60405162461bcd60e51b8152602060048201529182916024830190611e29565b0390fd5b33600090815260008051602061268c833981519152602052604090205460ff161561243c57565b612411612448336124b3565b6123f1601161236f6000805160206126cc8339815191526125df565b60008181526020818152604080832033845290915290205460ff16156124875750565b612411906123f1601161236f61249c336124b3565b936125df565b908151811015612125570160200190565b6000906124c0602a61220d565b916124ce6040519384611f4d565b602a83526124dc602a61220d565b6020840190601f190136823783511561228a57603090538251600110156125cb576078602184015350602960005b6001821161255f57505061251b5790565b606460405162461bcd60e51b815260206004820152602060248201527f537472696e67733a20686578206c656e67746820696e73756666696369656e746044820152fd5b9091600f811660108110156125b7576f181899199a1a9b1b9c1cb0b131b232b360811b901a61258e84866124a2565b5360041c9180156125a357600019019061250a565b634e487b7160e01b82526011600452602482fd5b634e487b7160e01b83526032600452602483fd5b634e487b7160e01b81526032600452602490fd5b6000906125ec604261220d565b916125fa6040519384611f4d565b60428352612608604261220d565b6020840190601f190136823783511561228a57603090538251600110156125cb576078602184015350604160005b6001821161264757505061251b5790565b9091600f811660108110156125b7576f181899199a1a9b1b9c1cb0b131b232b360811b901a61267684866124a2565b5360041c9180156125a357600019019061263656fe1a7760066bd1f06df3a1a816a948cb99a3a2e8ffa5089500e84706868bfe072d7d7ffb7a348e1c6a02869081a26547b49160dd3df72d1d75a570eb9b698292ec5bb0bf1fabd5e975fc7a4520766d9e86e0eb281f8c7c44fcd3dfe60a11e786caa49807205ce4d355092ef5a8a18f56e8913cf4a201fbe287825b095693c21775a2646970667358221220cb87fabc5ef2d0a246f7c58ffc09bceb9c1af23ac44e388c0a457a43c981851264736f6c634300081c00332f8788117e7eff1d82e926ec794901d17c78024a50270940304540a733656f0d7d7ffb7a348e1c6a02869081a26547b49160dd3df72d1d75a570eb9b698292ecad3228b676f7d3cd4284a5443f17f1962b36e491b30a40b2405849e597ba5fb5",
  "linkReferences": {},
  "deployedLinkReferences": {}
}