{
  "_format": "hh-sol-artifact-1",
  "contractName": "AcademicRecords",
  "sourceName": "contracts/AcademicRecordsOriginal.sol",
  "abi": [
    {
      "inputs": [],
      "stateMutability": "nonpayable",
      "type": "constructor"
    },
    {
      "anonymous": false,
      "inputs": [
        {
          "indexed": true,
          "internalType": "uint256",
          "name": "recordId",
          "type": "uint256"
        },
        {
          "indexed": true,
          "internalType": "address",
          "name": "accessor",
          "type": "address"
        },
        {
          "indexed": false,
          "internalType": "string",
          "name": "action",
          "type": "string"
        },
        {
          "indexed": false,
          "internalType": "bytes32",
          "name": "proofHash",
          "type": "bytes32"
        },
        {
          "indexed": false,
          "internalType": "uint256",
          "name": "timestamp",
          "type": "uint256"
        }
      ],
      "name": "AccessLogged",
      "type": "event"
    },
    {
      "anonymous": false,
      "inputs": [
        {
          "indexed": true,
          "internalType": "uint256",
          "name": "recordId",
          "type": "uint256"
        },
        {
          "indexed": true,
          "internalType": "address",
          "name": "accessor",
          "type": "address"
        },
        {
          "indexed": false,
          "internalType": "enum IAcademicRecords.AccessType",
          "name": "accessType",
          "type": "uint8"
        },
        {
          "indexed": false,
          "internalType": "uint256",
          "name": "expiresAt",
          "type": "uint256"
        }
      ],
      "name": "AccessPermissionGranted",
      "type": "event"
    },
    {
      "anonymous": false,
      "inputs": [
        {
          "indexed": true,
          "internalType": "uint256",
          "name": "recordId",
          "type": "uint256"
        },
        {
          "indexed": true,
          "internalType": "address",
          "name": "accessor",
          "type": "address"
        },
        {
          "indexed": false,
          "internalType": "enum IAcademicRecords.AccessType",
          "name": "accessType",
          "type": "uint8"
        }
      ],
      "name": "AccessPermissionRevoked",
      "type": "event"
    },
    {
      "anonymous": false,
      "inputs": [
        {
          "indexed": true,
          "internalType": "address",
          "name": "admin",
          "type": "address"
        },
        {
          "indexed": true,
          "internalType": "address",
          "name": "addedBy",
          "type": "address"
        }
      ],
      "name": "AdminAdded",
      "type": "event"
    },
    {
      "anonymous": false,
      "inputs": [
        {
          "indexed": true,
          "internalType": "address",
          "name": "admin",
          "type": "address"
        },
        {
          "indexed": true,
          "internalType": "address",
          "name": "removedBy",
          "type": "address"
        }
      ],
      "name": "AdminRemoved",
      "type": "event"
    },
    {
      "anonymous": false,
      "inputs": [
        {
          "indexed": true,
          "internalType": "uint256",
          "name": "typeId",
          "type": "uint256"
        },
        {
          "indexed": false,
          "internalType": "string",
          "name": "name",
          "type": "string"
        },
        {
          "indexed": true,
          "internalType": "address",
          "name": "creator",
          "type": "address"
        }
      ],
      "name": "CustomRecordTypeCreated",
      "type": "event"
    },
    {
      "anonymous": false,
      "inputs": [
        {
          "indexed": true,
          "internalType": "uint256",
          "name": "typeId",
          "type": "uint256"
        },
        {
          "indexed": false,
          "internalType": "bool",
          "name": "isActive",
          "type": "bool"
        }
      ],
      "name": "CustomRecordTypeUpdated",
      "type": "event"
    },
    {
      "anonymous": false,
      "inputs": [
        {
          "indexed": true,
          "internalType": "uint256",
          "name": "recordId",
          "type": "uint256"
        },
        {
          "indexed": true,
          "internalType": "address",
          "name": "admin",
          "type": "address"
        },
        {
          "indexed": false,
          "internalType": "string",
          "name": "reason",
          "type": "string"
        },
        {
          "indexed": false,
          "internalType": "uint256",
          "name": "timestamp",
          "type": "uint256"
        }
      ],
      "name": "EmergencyAccess",
      "type": "event"
    },
    {
      "anonymous": false,
      "inputs": [
        {
          "indexed": true,
          "internalType": "uint256",
          "name": "recordId",
          "type": "uint256"
        },
        {
          "indexed": true,
          "internalType": "address",
          "name": "rotatedBy",
          "type": "address"
        },
        {
          "indexed": false,
          "internalType": "uint256",
          "name": "timestamp",
          "type": "uint256"
        }
      ],
      "name": "EncryptionKeyRotated",
      "type": "event"
    },
    {
      "anonymous": false,
      "inputs": [
        {
          "indexed": false,
          "internalType": "address",
          "name": "account",
          "type": "address"
        }
      ],
      "name": "Paused",
      "type": "event"
    },
    {
      "anonymous": false,
      "inputs": [
        {
          "indexed": true,
          "internalType": "uint256",
          "name": "recordId",
          "type": "uint256"
        },
        {
          "indexed": false,
          "internalType": "address",
          "name": "accessor",
          "type": "address"
        }
      ],
      "name": "RecordAccessed",
      "type": "event"
    },
    {
      "anonymous": false,
      "inputs": [
        {
          "indexed": true,
          "internalType": "uint256",
          "name": "recordId",
          "type": "uint256"
        },
        {
          "indexed": false,
          "internalType": "string",
          "name": "studentId",
          "type": "string"
        },
        {
          "indexed": false,
          "internalType": "enum IAcademicRecords.RecordType",
          "name": "recordType",
          "type": "uint8"
        },
        {
          "indexed": false,
          "internalType": "address",
          "name": "issuer",
          "type": "address"
        }
      ],
      "name": "RecordAdded",
      "type": "event"
    },
    {
      "anonymous": false,
      "inputs": [
        {
          "indexed": true,
          "internalType": "uint256",
          "name": "recordId",
          "type": "uint256"
        },
        {
          "indexed": true,
          "internalType": "string",
          "name": "studentId",
          "type": "string"
        },
        {
          "indexed": true,
          "internalType": "address",
          "name": "sharedWith",
          "type": "address"
        }
      ],
      "name": "RecordShared",
      "type": "event"
    },
    {
      "anonymous": false,
      "inputs": [
        {
          "indexed": true,
          "internalType": "uint256",
          "name": "recordId",
          "type": "uint256"
        },
        {
          "indexed": true,
          "internalType": "string",
          "name": "studentId",
          "type": "string"
        },
        {
          "indexed": true,
          "internalType": "address",
          "name": "unsharedWith",
          "type": "address"
        }
      ],
      "name": "RecordUnshared",
      "type": "event"
    },
    {
      "anonymous": false,
      "inputs": [
        {
          "indexed": true,
          "internalType": "uint256",
          "name": "recordId",
          "type": "uint256"
        },
        {
          "indexed": false,
          "internalType": "address",
          "name": "verifier",
          "type": "address"
        }
      ],
      "name": "RecordVerified",
      "type": "event"
    },
    {
      "anonymous": false,
      "inputs": [
        {
          "indexed": true,
          "internalType": "bytes32",
          "name": "role",
          "type": "bytes32"
        },
        {
          "indexed": true,
          "internalType": "bytes32",
          "name": "previousAdminRole",
          "type": "bytes32"
        },
        {
          "indexed": true,
          "internalType": "bytes32",
          "name": "newAdminRole",
          "type": "bytes32"
        }
      ],
      "name": "RoleAdminChanged",
      "type": "event"
    },
    {
      "anonymous": false,
      "inputs": [
        {
          "indexed": true,
          "internalType": "bytes32",
          "name": "role",
          "type": "bytes32"
        },
        {
          "indexed": true,
          "internalType": "address",
          "name": "account",
          "type": "address"
        },
        {
          "indexed": true,
          "internalType": "address",
          "name": "sender",
          "type": "address"
        }
      ],
      "name": "RoleGranted",
      "type": "event"
    },
    {
      "anonymous": false,
      "inputs": [
        {
          "indexed": true,
          "internalType": "bytes32",
          "name": "role",
          "type": "bytes32"
        },
        {
          "indexed": true,
          "internalType": "address",
          "name": "account",
          "type": "address"
        },
        {
          "indexed": true,
          "internalType": "address",
          "name": "sender",
          "type": "address"
        }
      ],
      "name": "RoleRevoked",
      "type": "event"
    },
    {
      "anonymous": false,
      "inputs": [
        {
          "indexed": true,
          "internalType": "uint256",
          "name": "recordId",
          "type": "uint256"
        },
        {
          "indexed": false,
          "internalType": "string",
          "name": "studentId",
          "type": "string"
        },
        {
          "indexed": false,
          "internalType": "enum IAcademicRecords.RecordType",
          "name": "recordType",
          "type": "uint8"
        },
        {
          "indexed": false,
          "internalType": "address",
          "name": "issuer",
          "type": "address"
        },
        {
          "indexed": false,
          "internalType": "bytes32",
          "name": "zkProofHash",
          "type": "bytes32"
        }
      ],
      "name": "SecureRecordAdded",
      "type": "event"
    },
    {
      "anonymous": false,
      "inputs": [
        {
          "indexed": true,
          "internalType": "uint256",
          "name": "recordId",
          "type": "uint256"
        },
        {
          "indexed": true,
          "internalType": "address",
          "name": "sharedBy",
          "type": "address"
        },
        {
          "indexed": true,
          "internalType": "address",
          "name": "sharedWith",
          "type": "address"
        },
        {
          "indexed": false,
          "internalType": "bytes32",
          "name": "tokenHash",
          "type": "bytes32"
        },
        {
          "indexed": false,
          "internalType": "uint256",
          "name": "expiresAt",
          "type": "uint256"
        }
      ],
      "name": "SharingTokenCreated",
      "type": "event"
    },
    {
      "anonymous": false,
      "inputs": [
        {
          "indexed": true,
          "internalType": "uint256",
          "name": "recordId",
          "type": "uint256"
        },
        {
          "indexed": false,
          "internalType": "bytes32",
          "name": "tokenHash",
          "type": "bytes32"
        },
        {
          "indexed": true,
          "internalType": "address",
          "name": "revokedBy",
          "type": "address"
        }
      ],
      "name": "SharingTokenRevoked",
      "type": "event"
    },
    {
      "anonymous": false,
      "inputs": [
        {
          "indexed": true,
          "internalType": "uint256",
          "name": "recordId",
          "type": "uint256"
        },
        {
          "indexed": true,
          "internalType": "address",
          "name": "accessor",
          "type": "address"
        },
        {
          "indexed": false,
          "internalType": "bytes32",
          "name": "tokenHash",
          "type": "bytes32"
        },
        {
          "indexed": false,
          "internalType": "uint256",
          "name": "timestamp",
          "type": "uint256"
        }
      ],
      "name": "SharingTokenUsed",
      "type": "event"
    },
    {
      "anonymous": false,
      "inputs": [
        {
          "indexed": true,
          "internalType": "string",
          "name": "studentId",
          "type": "string"
        },
        {
          "indexed": true,
          "internalType": "address",
          "name": "university",
          "type": "address"
        }
      ],
      "name": "StudentDeleted",
      "type": "event"
    },
    {
      "anonymous": false,
      "inputs": [
        {
          "indexed": true,
          "internalType": "address",
          "name": "university",
          "type": "address"
        },
        {
          "indexed": false,
          "internalType": "string",
          "name": "name",
          "type": "string"
        }
      ],
      "name": "UniversityNameUpdated",
      "type": "event"
    },
    {
      "anonymous": false,
      "inputs": [
        {
          "indexed": false,
          "internalType": "address",
          "name": "account",
          "type": "address"
        }
      ],
      "name": "Unpaused",
      "type": "event"
    },
    {
      "anonymous": false,
      "inputs": [
        {
          "indexed": false,
          "internalType": "address",
          "name": "zkpManager",
          "type": "address"
        },
        {
          "indexed": false,
          "internalType": "address",
          "name": "accessManager",
          "type": "address"
        },
        {
          "indexed": false,
          "internalType": "address",
          "name": "keyStorage",
          "type": "address"
        }
      ],
      "name": "ZKPContractsUpdated",
      "type": "event"
    },
    {
      "anonymous": false,
      "inputs": [
        {
          "indexed": true,
          "internalType": "uint256",
          "name": "recordId",
          "type": "uint256"
        },
        {
          "indexed": true,
          "internalType": "address",
          "name": "accessor",
          "type": "address"
        },
        {
          "indexed": false,
          "internalType": "bytes32",
          "name": "proofHash",
          "type": "bytes32"
        },
        {
          "indexed": false,
          "internalType": "uint256",
          "name": "timestamp",
          "type": "uint256"
        }
      ],
      "name": "ZKProofGenerated",
      "type": "event"
    },
    {
      "anonymous": false,
      "inputs": [
        {
          "indexed": true,
          "internalType": "uint256",
          "name": "recordId",
          "type": "uint256"
        },
        {
          "indexed": true,
          "internalType": "address",
          "name": "accessor",
          "type": "address"
        },
        {
          "indexed": false,
          "internalType": "bytes32",
          "name": "proofHash",
          "type": "bytes32"
        },
        {
          "indexed": false,
          "internalType": "bool",
          "name": "isValid",
          "type": "bool"
        }
      ],
      "name": "ZKProofVerified",
      "type": "event"
    },
    {
      "inputs": [],
      "name": "ADMIN_ROLE",
      "outputs": [
        {
          "internalType": "bytes32",
          "name": "",
          "type": "bytes32"
        }
      ],
      "stateMutability": "view",
      "type": "function"
    },
    {
      "inputs": [],
      "name": "DEFAULT_ADMIN_ROLE",
      "outputs": [
        {
          "internalType": "bytes32",
          "name": "",
          "type": "bytes32"
        }
      ],
      "stateMutability": "view",
      "type": "function"
    },
    {
      "inputs": [],
      "name": "SUPER_ADMIN",
      "outputs": [
        {
          "internalType": "address",
          "name": "",
          "type": "address"
        }
      ],
      "stateMutability": "view",
      "type": "function"
    },
    {
      "inputs": [],
      "name": "SUPER_ADMIN_ROLE",
      "outputs": [
        {
          "internalType": "bytes32",
          "name": "",
          "type": "bytes32"
        }
      ],
      "stateMutability": "view",
      "type": "function"
    },
    {
      "inputs": [],
      "name": "UNIVERSITY_ROLE",
      "outputs": [
        {
          "internalType": "bytes32",
          "name": "",
          "type": "bytes32"
        }
      ],
      "stateMutability": "view",
      "type": "function"
    },
    {
      "inputs": [],
      "name": "accessManager",
      "outputs": [
        {
          "internalType": "contract IAccessManager",
          "name": "",
          "type": "address"
        }
      ],
      "stateMutability": "view",
      "type": "function"
    },
    {
      "inputs": [
        {
          "internalType": "address",
          "name": "adminAddress",
          "type": "address"
        }
      ],
      "name": "addAdmin",
      "outputs": [],
      "stateMutability": "nonpayable",
      "type": "function"
    },
    {
      "inputs": [
        {
          "internalType": "string",
          "name": "name",
          "type": "string"
        },
        {
          "internalType": "string",
          "name": "description",
          "type": "string"
        }
      ],
      "name": "addCustomRecordType",
      "outputs": [
        {
          "internalType": "uint256",
          "name": "",
          "type": "uint256"
        }
      ],
      "stateMutability": "nonpayable",
      "type": "function"
    },
    {
      "inputs": [
        {
          "internalType": "string",
          "name": "studentId",
          "type": "string"
        },
        {
          "internalType": "string",
          "name": "studentName",
          "type": "string"
        },
        {
          "internalType": "address",
          "name": "studentAddress",
          "type": "address"
        },
        {
          "internalType": "string",
          "name": "universityName",
          "type": "string"
        },
        {
          "internalType": "string",
          "name": "ipfsHash",
          "type": "string"
        },
        {
          "internalType": "string",
          "name": "metadataHash",
          "type": "string"
        },
        {
          "internalType": "enum IAcademicRecords.RecordType",
          "name": "recordType",
          "type": "uint8"
        }
      ],
      "name": "addRecord",
      "outputs": [
        {
          "internalType": "uint256",
          "name": "",
          "type": "uint256"
        }
      ],
      "stateMutability": "nonpayable",
      "type": "function"
    },
    {
      "inputs": [
        {
          "internalType": "string",
          "name": "studentId",
          "type": "string"
        },
        {
          "internalType": "string",
          "name": "studentName",
          "type": "string"
        },
        {
          "internalType": "address",
          "name": "studentAddress",
          "type": "address"
        },
        {
          "internalType": "string",
          "name": "universityName",
          "type": "string"
        },
        {
          "internalType": "bytes",
          "name": "encryptedIPFSHash",
          "type": "bytes"
        },
        {
          "internalType": "bytes",
          "name": "encryptedMetadataHash",
          "type": "bytes"
        },
        {
          "internalType": "bytes",
          "name": "encryptedKey",
          "type": "bytes"
        },
        {
          "internalType": "enum IAcademicRecords.RecordType",
          "name": "recordType",
          "type": "uint8"
        }
      ],
      "name": "addSecureRecord",
      "outputs": [
        {
          "internalType": "uint256",
          "name": "",
          "type": "uint256"
        }
      ],
      "stateMutability": "nonpayable",
      "type": "function"
    },
    {
      "inputs": [
        {
          "internalType": "address",
          "name": "universityAddress",
          "type": "address"
        },
        {
          "internalType": "string",
          "name": "name",
          "type": "string"
        }
      ],
      "name": "addUniversity",
      "outputs": [],
      "stateMutability": "nonpayable",
      "type": "function"
    },
    {
      "inputs": [
        {
          "internalType": "string",
          "name": "studentId",
          "type": "string"
        }
      ],
      "name": "deleteStudent",
      "outputs": [],
      "stateMutability": "nonpayable",
      "type": "function"
    },
    {
      "inputs": [
        {
          "internalType": "uint256",
          "name": "recordId",
          "type": "uint256"
        },
        {
          "internalType": "string",
          "name": "reason",
          "type": "string"
        }
      ],
      "name": "emergencyAccess",
      "outputs": [
        {
          "components": [
            {
              "internalType": "uint256",
              "name": "id",
              "type": "uint256"
            },
            {
              "internalType": "string",
              "name": "studentId",
              "type": "string"
            },
            {
              "internalType": "string",
              "name": "studentName",
              "type": "string"
            },
            {
              "internalType": "address",
              "name": "studentAddress",
              "type": "address"
            },
            {
              "internalType": "string",
              "name": "universityName",
              "type": "string"
            },
            {
              "internalType": "bytes",
              "name": "encryptedIPFSHash",
              "type": "bytes"
            },
            {
              "internalType": "bytes",
              "name": "encryptedMetadataHash",
              "type": "bytes"
            },
            {
              "internalType": "bytes32",
              "name": "zkProofHash",
              "type": "bytes32"
            },
            {
              "internalType": "enum IAcademicRecords.RecordType",
              "name": "recordType",
              "type": "uint8"
            },
            {
              "internalType": "uint256",
              "name": "timestamp",
              "type": "uint256"
            },
            {
              "internalType": "bool",
              "name": "isVerified",
              "type": "bool"
            },
            {
              "internalType": "address",
              "name": "issuer",
              "type": "address"
            },
            {
              "internalType": "bytes32",
              "name": "accessControlHash",
              "type": "bytes32"
            }
          ],
          "internalType": "struct IAcademicRecords.SecureRecord",
          "name": "",
          "type": "tuple"
        }
      ],
      "stateMutability": "nonpayable",
      "type": "function"
    },
    {
      "inputs": [],
      "name": "getAllAdmins",
      "outputs": [
        {
          "internalType": "address[]",
          "name": "",
          "type": "address[]"
        }
      ],
      "stateMutability": "view",
      "type": "function"
    },
    {
      "inputs": [],
      "name": "getAllUniversities",
      "outputs": [
        {
          "internalType": "address[]",
          "name": "",
          "type": "address[]"
        }
      ],
      "stateMutability": "view",
      "type": "function"
    },
    {
      "inputs": [
        {
          "internalType": "uint256",
          "name": "typeId",
          "type": "uint256"
        }
      ],
      "name": "getCustomRecordType",
      "outputs": [
        {
          "components": [
            {
              "internalType": "uint256",
              "name": "id",
              "type": "uint256"
            },
            {
              "internalType": "string",
              "name": "name",
              "type": "string"
            },
            {
              "internalType": "string",
              "name": "description",
              "type": "string"
            },
            {
              "internalType": "address",
              "name": "creator",
              "type": "address"
            },
            {
              "internalType": "uint256",
              "name": "timestamp",
              "type": "uint256"
            },
            {
              "internalType": "bool",
              "name": "isActive",
              "type": "bool"
            }
          ],
          "internalType": "struct IAcademicRecords.CustomRecordType",
          "name": "",
          "type": "tuple"
        }
      ],
      "stateMutability": "view",
      "type": "function"
    },
    {
      "inputs": [
        {
          "internalType": "uint256",
          "name": "recordId",
          "type": "uint256"
        },
        {
          "internalType": "bytes32",
          "name": "proofHash",
          "type": "bytes32"
        }
      ],
      "name": "getDecryptedRecord",
      "outputs": [
        {
          "internalType": "bytes",
          "name": "encryptedIPFSHash",
          "type": "bytes"
        },
        {
          "internalType": "bytes",
          "name": "encryptedMetadataHash",
          "type": "bytes"
        }
      ],
      "stateMutability": "nonpayable",
      "type": "function"
    },
    {
      "inputs": [
        {
          "internalType": "uint256",
          "name": "recordId",
          "type": "uint256"
        }
      ],
      "name": "getRecord",
      "outputs": [
        {
          "components": [
            {
              "internalType": "uint256",
              "name": "id",
              "type": "uint256"
            },
            {
              "internalType": "string",
              "name": "studentId",
              "type": "string"
            },
            {
              "internalType": "string",
              "name": "studentName",
              "type": "string"
            },
            {
              "internalType": "address",
              "name": "studentAddress",
              "type": "address"
            },
            {
              "internalType": "string",
              "name": "universityName",
              "type": "string"
            },
            {
              "internalType": "string",
              "name": "ipfsHash",
              "type": "string"
            },
            {
              "internalType": "string",
              "name": "metadataHash",
              "type": "string"
            },
            {
              "internalType": "enum IAcademicRecords.RecordType",
              "name": "recordType",
              "type": "uint8"
            },
            {
              "internalType": "uint256",
              "name": "timestamp",
              "type": "uint256"
            },
            {
              "internalType": "bool",
              "name": "isVerified",
              "type": "bool"
            },
            {
              "internalType": "address",
              "name": "issuer",
              "type": "address"
            }
          ],
          "internalType": "struct IAcademicRecords.Record",
          "name": "",
          "type": "tuple"
        }
      ],
      "stateMutability": "view",
      "type": "function"
    },
    {
      "inputs": [
        {
          "internalType": "uint256",
          "name": "recordId",
          "type": "uint256"
        }
      ],
      "name": "getRecordWithPermission",
      "outputs": [
        {
          "components": [
            {
              "internalType": "uint256",
              "name": "id",
              "type": "uint256"
            },
            {
              "internalType": "string",
              "name": "studentId",
              "type": "string"
            },
            {
              "internalType": "string",
              "name": "studentName",
              "type": "string"
            },
            {
              "internalType": "address",
              "name": "studentAddress",
              "type": "address"
            },
            {
              "internalType": "string",
              "name": "universityName",
              "type": "string"
            },
            {
              "internalType": "string",
              "name": "ipfsHash",
              "type": "string"
            },
            {
              "internalType": "string",
              "name": "metadataHash",
              "type": "string"
            },
            {
              "internalType": "enum IAcademicRecords.RecordType",
              "name": "recordType",
              "type": "uint8"
            },
            {
              "internalType": "uint256",
              "name": "timestamp",
              "type": "uint256"
            },
            {
              "internalType": "bool",
              "name": "isVerified",
              "type": "bool"
            },
            {
              "internalType": "address",
              "name": "issuer",
              "type": "address"
            }
          ],
          "internalType": "struct IAcademicRecords.Record",
          "name": "",
          "type": "tuple"
        }
      ],
      "stateMutability": "view",
      "type": "function"
    },
    {
      "inputs": [
        {
          "internalType": "bytes32",
          "name": "role",
          "type": "bytes32"
        }
      ],
      "name": "getRoleAdmin",
      "outputs": [
        {
          "internalType": "bytes32",
          "name": "",
          "type": "bytes32"
        }
      ],
      "stateMutability": "view",
      "type": "function"
    },
    {
      "inputs": [
        {
          "internalType": "uint256",
          "name": "recordId",
          "type": "uint256"
        }
      ],
      "name": "getSecureRecord",
      "outputs": [
        {
          "components": [
            {
              "internalType": "uint256",
              "name": "id",
              "type": "uint256"
            },
            {
              "internalType": "string",
              "name": "studentId",
              "type": "string"
            },
            {
              "internalType": "string",
              "name": "studentName",
              "type": "string"
            },
            {
              "internalType": "address",
              "name": "studentAddress",
              "type": "address"
            },
            {
              "internalType": "string",
              "name": "universityName",
              "type": "string"
            },
            {
              "internalType": "bytes",
              "name": "encryptedIPFSHash",
              "type": "bytes"
            },
            {
              "internalType": "bytes",
              "name": "encryptedMetadataHash",
              "type": "bytes"
            },
            {
              "internalType": "bytes32",
              "name": "zkProofHash",
              "type": "bytes32"
            },
            {
              "internalType": "enum IAcademicRecords.RecordType",
              "name": "recordType",
              "type": "uint8"
            },
            {
              "internalType": "uint256",
              "name": "timestamp",
              "type": "uint256"
            },
            {
              "internalType": "bool",
              "name": "isVerified",
              "type": "bool"
            },
            {
              "internalType": "address",
              "name": "issuer",
              "type": "address"
            },
            {
              "internalType": "bytes32",
              "name": "accessControlHash",
              "type": "bytes32"
            }
          ],
          "internalType": "struct IAcademicRecords.SecureRecord",
          "name": "",
          "type": "tuple"
        }
      ],
      "stateMutability": "view",
      "type": "function"
    },
    {
      "inputs": [
        {
          "internalType": "uint256",
          "name": "recordId",
          "type": "uint256"
        }
      ],
      "name": "getSecureRecordAccessHistory",
      "outputs": [
        {
          "components": [
            {
              "internalType": "uint256",
              "name": "recordId",
              "type": "uint256"
            },
            {
              "internalType": "address",
              "name": "accessor",
              "type": "address"
            },
            {
              "internalType": "string",
              "name": "action",
              "type": "string"
            },
            {
              "internalType": "uint256",
              "name": "timestamp",
              "type": "uint256"
            },
            {
              "internalType": "bytes32",
              "name": "proofHash",
              "type": "bytes32"
            },
            {
              "internalType": "enum IAccessManager.AccessType",
              "name": "accessType",
              "type": "uint8"
            }
          ],
          "internalType": "struct IAccessManager.AccessLog[]",
          "name": "",
          "type": "tuple[]"
        }
      ],
      "stateMutability": "view",
      "type": "function"
    },
    {
      "inputs": [
        {
          "internalType": "uint256",
          "name": "recordId",
          "type": "uint256"
        },
        {
          "internalType": "bytes32",
          "name": "proofHash",
          "type": "bytes32"
        }
      ],
      "name": "getSecureRecordWithAccess",
      "outputs": [
        {
          "components": [
            {
              "internalType": "uint256",
              "name": "id",
              "type": "uint256"
            },
            {
              "internalType": "string",
              "name": "studentId",
              "type": "string"
            },
            {
              "internalType": "string",
              "name": "studentName",
              "type": "string"
            },
            {
              "internalType": "address",
              "name": "studentAddress",
              "type": "address"
            },
            {
              "internalType": "string",
              "name": "universityName",
              "type": "string"
            },
            {
              "internalType": "bytes",
              "name": "encryptedIPFSHash",
              "type": "bytes"
            },
            {
              "internalType": "bytes",
              "name": "encryptedMetadataHash",
              "type": "bytes"
            },
            {
              "internalType": "bytes32",
              "name": "zkProofHash",
              "type": "bytes32"
            },
            {
              "internalType": "enum IAcademicRecords.RecordType",
              "name": "recordType",
              "type": "uint8"
            },
            {
              "internalType": "uint256",
              "name": "timestamp",
              "type": "uint256"
            },
            {
              "internalType": "bool",
              "name": "isVerified",
              "type": "bool"
            },
            {
              "internalType": "address",
              "name": "issuer",
              "type": "address"
            },
            {
              "internalType": "bytes32",
              "name": "accessControlHash",
              "type": "bytes32"
            }
          ],
          "internalType": "struct IAcademicRecords.SecureRecord",
          "name": "",
          "type": "tuple"
        }
      ],
      "stateMutability": "nonpayable",
      "type": "function"
    },
    {
      "inputs": [
        {
          "internalType": "address",
          "name": "sharedWith",
          "type": "address"
        }
      ],
      "name": "getSharedRecords",
      "outputs": [
        {
          "internalType": "uint256[]",
          "name": "",
          "type": "uint256[]"
        }
      ],
      "stateMutability": "view",
      "type": "function"
    },
    {
      "inputs": [
        {
          "internalType": "string",
          "name": "studentId",
          "type": "string"
        }
      ],
      "name": "getStudentRecords",
      "outputs": [
        {
          "internalType": "uint256[]",
          "name": "",
          "type": "uint256[]"
        }
      ],
      "stateMutability": "view",
      "type": "function"
    },
    {
      "inputs": [
        {
          "internalType": "address",
          "name": "studentAddress",
          "type": "address"
        }
      ],
      "name": "getStudentRecordsByAddress",
      "outputs": [
        {
          "internalType": "uint256[]",
          "name": "",
          "type": "uint256[]"
        }
      ],
      "stateMutability": "view",
      "type": "function"
    },
    {
      "inputs": [],
      "name": "getTotalCustomTypes",
      "outputs": [
        {
          "internalType": "uint256",
          "name": "",
          "type": "uint256"
        }
      ],
      "stateMutability": "view",
      "type": "function"
    },
    {
      "inputs": [],
      "name": "getTotalRecords",
      "outputs": [
        {
          "internalType": "uint256",
          "name": "",
          "type": "uint256"
        }
      ],
      "stateMutability": "view",
      "type": "function"
    },
    {
      "inputs": [],
      "name": "getTotalSecureRecords",
      "outputs": [
        {
          "internalType": "uint256",
          "name": "",
          "type": "uint256"
        }
      ],
      "stateMutability": "view",
      "type": "function"
    },
    {
      "inputs": [],
      "name": "getUniversityCustomTypes",
      "outputs": [
        {
          "internalType": "uint256[]",
          "name": "",
          "type": "uint256[]"
        }
      ],
      "stateMutability": "view",
      "type": "function"
    },
    {
      "inputs": [
        {
          "internalType": "address",
          "name": "universityAddress",
          "type": "address"
        }
      ],
      "name": "getUniversityName",
      "outputs": [
        {
          "internalType": "string",
          "name": "",
          "type": "string"
        }
      ],
      "stateMutability": "view",
      "type": "function"
    },
    {
      "inputs": [],
      "name": "getUniversityRecords",
      "outputs": [
        {
          "internalType": "uint256[]",
          "name": "",
          "type": "uint256[]"
        }
      ],
      "stateMutability": "view",
      "type": "function"
    },
    {
      "inputs": [],
      "name": "getZKPContracts",
      "outputs": [
        {
          "internalType": "address",
          "name": "",
          "type": "address"
        },
        {
          "internalType": "address",
          "name": "",
          "type": "address"
        },
        {
          "internalType": "address",
          "name": "",
          "type": "address"
        }
      ],
      "stateMutability": "view",
      "type": "function"
    },
    {
      "inputs": [
        {
          "internalType": "bytes32",
          "name": "role",
          "type": "bytes32"
        },
        {
          "internalType": "address",
          "name": "account",
          "type": "address"
        }
      ],
      "name": "grantRole",
      "outputs": [],
      "stateMutability": "nonpayable",
      "type": "function"
    },
    {
      "inputs": [
        {
          "internalType": "bytes32",
          "name": "role",
          "type": "bytes32"
        },
        {
          "internalType": "address",
          "name": "account",
          "type": "address"
        }
      ],
      "name": "hasRole",
      "outputs": [
        {
          "internalType": "bool",
          "name": "",
          "type": "bool"
        }
      ],
      "stateMutability": "view",
      "type": "function"
    },
    {
      "inputs": [
        {
          "internalType": "uint256",
          "name": "recordId",
          "type": "uint256"
        },
        {
          "internalType": "address",
          "name": "accessor",
          "type": "address"
        }
      ],
      "name": "hasSecureRecordAccess",
      "outputs": [
        {
          "internalType": "bool",
          "name": "",
          "type": "bool"
        }
      ],
      "stateMutability": "view",
      "type": "function"
    },
    {
      "inputs": [
        {
          "internalType": "uint256",
          "name": "recordId",
          "type": "uint256"
        },
        {
          "internalType": "address",
          "name": "user",
          "type": "address"
        }
      ],
      "name": "isRecordSharedWith",
      "outputs": [
        {
          "internalType": "bool",
          "name": "",
          "type": "bool"
        }
      ],
      "stateMutability": "view",
      "type": "function"
    },
    {
      "inputs": [],
      "name": "keyStorage",
      "outputs": [
        {
          "internalType": "contract IKeyStorage",
          "name": "",
          "type": "address"
        }
      ],
      "stateMutability": "view",
      "type": "function"
    },
    {
      "inputs": [],
      "name": "pause",
      "outputs": [],
      "stateMutability": "nonpayable",
      "type": "function"
    },
    {
      "inputs": [],
      "name": "paused",
      "outputs": [
        {
          "internalType": "bool",
          "name": "",
          "type": "bool"
        }
      ],
      "stateMutability": "view",
      "type": "function"
    },
    {
      "inputs": [
        {
          "internalType": "uint256",
          "name": "recordId",
          "type": "uint256"
        }
      ],
      "name": "recordAccess",
      "outputs": [],
      "stateMutability": "nonpayable",
      "type": "function"
    },
    {
      "inputs": [
        {
          "internalType": "string",
          "name": "studentId",
          "type": "string"
        }
      ],
      "name": "registerStudent",
      "outputs": [],
      "stateMutability": "nonpayable",
      "type": "function"
    },
    {
      "inputs": [
        {
          "internalType": "address",
          "name": "adminAddress",
          "type": "address"
        }
      ],
      "name": "removeAdmin",
      "outputs": [],
      "stateMutability": "nonpayable",
      "type": "function"
    },
    {
      "inputs": [
        {
          "internalType": "address",
          "name": "universityAddress",
          "type": "address"
        }
      ],
      "name": "removeUniversity",
      "outputs": [],
      "stateMutability": "nonpayable",
      "type": "function"
    },
    {
      "inputs": [
        {
          "internalType": "bytes32",
          "name": "role",
          "type": "bytes32"
        },
        {
          "internalType": "address",
          "name": "account",
          "type": "address"
        }
      ],
      "name": "renounceRole",
      "outputs": [],
      "stateMutability": "nonpayable",
      "type": "function"
    },
    {
      "inputs": [
        {
          "internalType": "bytes32",
          "name": "role",
          "type": "bytes32"
        },
        {
          "internalType": "address",
          "name": "account",
          "type": "address"
        }
      ],
      "name": "revokeRole",
      "outputs": [],
      "stateMutability": "nonpayable",
      "type": "function"
    },
    {
      "inputs": [
        {
          "internalType": "uint256",
          "name": "recordId",
          "type": "uint256"
        },
        {
          "internalType": "address",
          "name": "user",
          "type": "address"
        }
      ],
      "name": "revokeSecureRecordAccess",
      "outputs": [],
      "stateMutability": "nonpayable",
      "type": "function"
    },
    {
      "inputs": [
        {
          "internalType": "uint256",
          "name": "recordId",
          "type": "uint256"
        },
        {
          "internalType": "bytes",
          "name": "newEncryptedKey",
          "type": "bytes"
        }
      ],
      "name": "rotateRecordKey",
      "outputs": [],
      "stateMutability": "nonpayable",
      "type": "function"
    },
    {
      "inputs": [
        {
          "internalType": "address",
          "name": "universityAddress",
          "type": "address"
        },
        {
          "internalType": "string",
          "name": "name",
          "type": "string"
        }
      ],
      "name": "setUniversityName",
      "outputs": [],
      "stateMutability": "nonpayable",
      "type": "function"
    },
    {
      "inputs": [
        {
          "internalType": "address",
          "name": "_zkpManager",
          "type": "address"
        },
        {
          "internalType": "address",
          "name": "_accessManager",
          "type": "address"
        },
        {
          "internalType": "address",
          "name": "_keyStorage",
          "type": "address"
        }
      ],
      "name": "setZKPContracts",
      "outputs": [],
      "stateMutability": "nonpayable",
      "type": "function"
    },
    {
      "inputs": [
        {
          "internalType": "uint256",
          "name": "recordId",
          "type": "uint256"
        },
        {
          "internalType": "address",
          "name": "sharedWith",
          "type": "address"
        }
      ],
      "name": "shareRecord",
      "outputs": [],
      "stateMutability": "nonpayable",
      "type": "function"
    },
    {
      "inputs": [
        {
          "internalType": "uint256",
          "name": "recordId",
          "type": "uint256"
        },
        {
          "internalType": "address",
          "name": "sharedWith",
          "type": "address"
        },
        {
          "internalType": "uint256",
          "name": "duration",
          "type": "uint256"
        },
        {
          "internalType": "uint256",
          "name": "maxUsage",
          "type": "uint256"
        }
      ],
      "name": "shareSecureRecord",
      "outputs": [
        {
          "internalType": "bytes32",
          "name": "",
          "type": "bytes32"
        }
      ],
      "stateMutability": "nonpayable",
      "type": "function"
    },
    {
      "inputs": [],
      "name": "studentManagement",
      "outputs": [
        {
          "internalType": "contract StudentManagement",
          "name": "",
          "type": "address"
        }
      ],
      "stateMutability": "view",
      "type": "function"
    },
    {
      "inputs": [
        {
          "internalType": "bytes4",
          "name": "interfaceId",
          "type": "bytes4"
        }
      ],
      "name": "supportsInterface",
      "outputs": [
        {
          "internalType": "bool",
          "name": "",
          "type": "bool"
        }
      ],
      "stateMutability": "view",
      "type": "function"
    },
    {
      "inputs": [],
      "name": "unpause",
      "outputs": [],
      "stateMutability": "nonpayable",
      "type": "function"
    },
    {
      "inputs": [
        {
          "internalType": "uint256",
          "name": "recordId",
          "type": "uint256"
        },
        {
          "internalType": "address",
          "name": "sharedWith",
          "type": "address"
        }
      ],
      "name": "unshareRecord",
      "outputs": [],
      "stateMutability": "nonpayable",
      "type": "function"
    },
    {
      "inputs": [
        {
          "internalType": "uint256",
          "name": "typeId",
          "type": "uint256"
        },
        {
          "internalType": "bool",
          "name": "isActive",
          "type": "bool"
        }
      ],
      "name": "updateCustomRecordType",
      "outputs": [],
      "stateMutability": "nonpayable",
      "type": "function"
    },
    {
      "inputs": [
        {
          "internalType": "uint256",
          "name": "recordId",
          "type": "uint256"
        },
        {
          "internalType": "bytes32",
          "name": "token",
          "type": "bytes32"
        },
        {
          "internalType": "address",
          "name": "accessor",
          "type": "address"
        }
      ],
      "name": "validateSharingToken",
      "outputs": [
        {
          "internalType": "bool",
          "name": "",
          "type": "bool"
        }
      ],
      "stateMutability": "nonpayable",
      "type": "function"
    },
    {
      "inputs": [
        {
          "internalType": "uint256",
          "name": "recordId",
          "type": "uint256"
        }
      ],
      "name": "verifyRecord",
      "outputs": [
        {
          "internalType": "bool",
          "name": "",
          "type": "bool"
        }
      ],
      "stateMutability": "view",
      "type": "function"
    },
    {
      "inputs": [],
      "name": "zkpManager",
      "outputs": [
        {
          "internalType": "contract IZKPManager",
          "name": "",
          "type": "address"
        }
      ],
      "stateMutability": "view",
      "type": "function"
    }
  ],
  "bytecode": "0x60a0604052346102f957336080819052600090815260008051602061723a833981519152602052604090205460ff16156102b9575b33600090815260008051602061721a833981519152602052604090205460ff1615610257575b3360009081526000805160206171fa833981519152602052604090205460ff16156101f5575b600354680100000000000000008110156101c95760018101806003558110156101df577fc2575a0e9e593c00f959f8c92f12db2869c3395a3b0502d05e2516446f71f85b0180546001600160a01b0319163390811790915560009081526004602052604090819020805460ff19908116600117909155600580549091169055516108e38082016001600160401b038111838210176101c95782916168f7833903906000f080156101bd57601380546001600160a01b0319166001600160a01b03929092169190911790556040516165f890816102ff8239608051818181610e6b0152818161130f01528181611b9501528181611c5601528181611e3d01528181611fb6015281816125e801528181612a480152818161394701528181613bb601528181613dce01528181614d4a01528181614e6201526161520152f35b6040513d6000823e3d90fd5b634e487b7160e01b600052604160045260246000fd5b634e487b7160e01b600052603260045260246000fd5b3360008181526000805160206171fa83398151915260205260408120805460ff1916600117905581907fa49807205ce4d355092ef5a8a18f56e8913cf4a201fbe287825b095693c21775906000805160206171da8339815191529080a4610080565b33600081815260008051602061721a83398151915260205260408120805460ff1916600117905581907f7613a25ecc738585a232ad50a301178f12b3ba8887d13e138b523c4269c47689906000805160206171da8339815191529080a461005a565b33600081815260008051602061723a83398151915260205260408120805460ff1916600117905581906000805160206171da8339815191528180a4610034565b600080fdfe610160604052600436101561001357600080fd5b600061014052610140513560e01c806301d5348714614aa257806301ffc9a714614a4c57806302a62d041461473f57806303e9e6091461460057806304eec357146145265780630a2573de1461444e5780630aeacb5e1461442e5780630aefc3cf146144035780630eb0cb86146140955780631164fcbf146140755780631785f53c14613db35780631caebd5a14613c335780632477e39a14613c0a578063248a9ca314613be457806328f54b2f1461397557806329869c06146136ff5780632c4b038b1461356c5780632d175a18146134d75780632f2ff15d1461342357806336568abe1461339157806337c7a5c81461310d5780633825d4c514612e3a5780633af4d95014612de55780633c2bc6a114612aa15780633d17841414612a765780633f4ba83a146129725780634460bdd6146129475780634b375016146122205780635c114fcc146121fc5780635c975abb146121d75780636765277a1461219a5780637048027514611f9757806371e1744514611ef857806375b238fc14611ecd57806379eec54d14611c855780637c7c7c3c14611c3e5780638052bc5614611bc35780638456cb5914611af9578063882f040314611a9d578063892c43ab146118fd5780638955895f1461179d57806391d148541461174a57806392fd707d146116cf578063967a1c2d1461167e5780639b22b6291461135d578063a217fddf1461133d578063a908dc6214611027578063ba6093ba14610e99578063baf9077b14610bb0578063bcbf718114610a94578063c99c5f8114610744578063d547741f14610707578063d9335124146106d7578063e04bb1151461048b578063e0d698ac14610460578063e9523c97146103f4578063f597d99414610378578063f795a64614610316578063f79f7954146102eb5763fdcb6068146102b957600080fd5b346102e457610140513660031901126102e4576015546040516001600160a01b039091168152602090f35b6101405180fd5b346102e457610140513660031901126102e4576016546040516001600160a01b039091168152602090f35b346102e45760203660031901126102e45760043580610140515260066020526103478160406101405120541461537b565b7f980d15b088d1127894ac6300da68467873935cb71f64d1ff99f85614bf474c6c6020604051338152a26101405180f35b346102e457610140513660031901126102e457604051806020600254918281520190600261014051526020610140512090610140515b8181106103d5576103d1856103c581870382615301565b6040519182918261523a565b0390f35b82546001600160a01b03168452602090930192600192830192016103ae565b346102e457610140513660031901126102e457604051806020600354918281520190600361014051526020610140512090610140515b818110610441576103d1856103c581870382615301565b82546001600160a01b031684526020909301926001928301920161042a565b346102e457610140513660031901126102e4576014546040516001600160a01b039091168152602090f35b346102e45760403660031901126102e4576004356104a7615112565b9073__$418a42c2ace6135936f69e0acb768a6277$__916040516316fc1ba760e11b815260066004820152826024820152602081604481875af4801561060557610140519061069c575b6104fb915061557f565b601554610512906001600160a01b03161515615702565b60405163355e181360e11b815260066004820152602481018390526101405181604481875af4908115610605576101405190610140519261066b575b506001600160a01b03163314908115610658575b501561061357823b156102e45760405190637deafb9360e11b82526006600483015282602483015260018060a01b0316928360448301523360648301528160848161014051935af48015610605576105ea575b50604051600181527fc38f6d718b2b09d813ebc9950160b2c7361236c3e9fa0205e3e9446ee759ebd890602090a36101405180f35b610140516105f791615301565b610140516102e457826105b5565b6040513d61014051823e3d90fd5b60405162461bcd60e51b815260206004820152601f60248201527f4e6f7420617574686f72697a656420746f207265766f6b6520616363657373006044820152606490fd5b6001600160a01b03163314905084610562565b905061068c91503d8061014051833e6106848183615301565b8101906155de565b509750505050509150508561054e565b506020813d6020116106cf575b816106b660209383615301565b810103126102e4576106ca6104fb91615572565b6104f1565b3d91506106a9565b346102e45760403660031901126102e45760206106fd6106f5615112565b600435615fb4565b6040519015158152f35b346102e45760403660031901126102e45761073d600435610726615112565b9061073861073382615a0b565b61606a565b616231565b6101405180f35b346102e45760203660031901126102e4576004356040516316fc1ba760e11b81526006600482015281602482015260208160448173__$418a42c2ace6135936f69e0acb768a6277$__5af48015610605576101405190610a59575b6107a9915061557f565b6015546107c0906001600160a01b03161515615702565b6107ca33826160a8565b15610a0657601554604051637967637760e11b815260048101929092526101405190829060249082906001600160a01b03165afa9081156106055761014051916108d8575b5060405160208101916020825280518093526040820192602060408260051b850101920193610140515b8281106108465784840385f35b909192603f198582030183528551908151815260018060a01b03602083015116602082015260a0610886604084015160c0604085015260c0840190614ec5565b92606081015160608401526080810151608084015201519060048210156108be5760a001526020958601959093920190600101610839565b634e487b7160e01b61014051526021600452602461014051fd5b90503d8061014051833e6108ec8183615301565b8101906020818303126102e4578051906001600160401b0382116102e457019080601f830112156102e45781519161092383615ca0565b926109316040519485615301565b80845260208085019160051b830101918383116102e45760208101915b8383106109605750505050508161080f565b82516001600160401b0381116102e45782019060c0828703601f1901126102e4576040519161098e836152e6565b602081015183526109a1604082016155ca565b60208401526060810151906001600160401b0382116102e4576109cb88602060c0948401016154a3565b60408501526080810151606085015260a0810151608085015201519060048210156102e457826020939260a08594015281520192019161094e565b60405162461bcd60e51b815260206004820152602560248201527f4e6f7420617574686f72697a656420746f20766965772061636365737320686960448201526473746f727960d81b6064820152608490fd5b506020813d602011610a8c575b81610a7360209383615301565b810103126102e457610a876107a991615572565b61079f565b3d9150610a66565b346102e45760203660031901126102e457610aad6150fc565b6013546040516386c3441560e01b8152336004820152610140519091829060249082906001600160a01b03165afa90811561060557610b13916020916101405191610b8b575b50610b00815115156158a1565b8160405193828580945193849201614ea2565b8101600b8152030190209060018060a01b0316600052602052604060002060405190816020825491828152019161014051526020610140512090610140515b818110610b75576103d185610b6981870382615301565b6040519182918261516b565b8254845260209093019260019283019201610b52565b610baa91503d8061014051833e610ba28183615301565b8101906154e8565b84610af3565b346102e457610bbe366151fb565b916000805160206165638339815191526101405152610140516020526040610140512060018060a01b03331660005260205260ff604060002054168015610e67575b8015610e55575b15610e13576000805160206165038339815191526101405152610140516020526040610140512060018060a01b03821660005260205260ff6040600020541615610dd05760018060a01b0316908161014051526001602052604061014051209260018060401b038111610db657610c7e84546153bf565b601f8111610d75575b506101405193601f8211600114610cfb57610ccc828060008051602061658383398151915296976101405191610cf0575b508160011b916000199060031b1c19161790565b90555b610ce6604051928392602084526020840191615be8565b0390a26101405180f35b905085013588610cb8565b601f198216948161014051526020610140512090610140515b878110610d5d575083600080516020616583833981519152969710610d43575b5050600182811b019055610ccf565b840135600019600385901b60f8161c191690558580610d34565b90916020600181928589013581550193019101610d14565b610da69085610140515260206101405120601f840160051c81019160208510610dac575b601f0160051c0190615a66565b84610c87565b9091508190610d99565b634e487b7160e01b61014051526041600452602461014051fd5b60405162461bcd60e51b815260206004820152601b60248201527a41646472657373206973206e6f74206120756e697665727369747960281b6044820152606490fd5b60405162461bcd60e51b815260206004820152601a6024820152794e6f7420617574686f72697a656420746f20736574206e616d6560301b6044820152606490fd5b50336001600160a01b03821614610c07565b50337f00000000000000000000000000000000000000000000000000000000000000006001600160a01b031614610c00565b346102e45760403660031901126102e4576004356001600160401b0381116102e457610ec990369060040161513e565b6024356001600160401b0381116102e457610ee890369060040161513e565b610ef3929192616009565b8115610ff357604051634a0ab76b60e11b815260106004820152608060248201529260209184918291610f419190610f2f60848501888b615be8565b84810360031901604486015291615be8565b336064830152038173__$418a42c2ace6135936f69e0acb768a6277$__5af4918215610605576101405192610fb9575b50817fd86d539582c7bd4f6009dae64cfee262a9ad9897d422fafeb23e9362f287e1e0610fae602095604051918291888352339689840191615be8565b0390a3604051908152f35b91506020823d602011610feb575b81610fd460209383615301565b81010312610fe6579051906020610f71565b600080fd5b3d9150610fc7565b60405162461bcd60e51b815260206004820152600c60248201526b496e76616c6964206e616d6560a01b6044820152606490fd5b346102e457611035366151fb565b91906000805160206165638339815191526101405152610140516020526040610140512060018060a01b03331660005260205260ff60406000205416801561130b575b61108190615a1f565b6000805160206165038339815191526101405152610140516020526040610140512060018060a01b03831660005260205260ff604060002054166112cf576000805160206165038339815191526101405152610140516020526040610140512060018060a01b03831660005260205260ff6040600020541615611271575b61014080516001600160a01b0384169081905260016020529051604090209093906001600160401b038211610db65761113881546153bf565b601f811161123b575b506101405182601f81116001146111ce57610140516111739282610cf057508160011b916000199060031b1c19161790565b90555b600254600160401b811015610db657600080516020616583833981519152936111aa826001610ccf94016002556002615889565b9080546001600160a01b0360039390931b83811b199091169290931690921b179055565b50601f19831690826101405152836020610140512092610140515b818110611220575010611206575b5050600182811b019055611176565b840135600019600385901b60f8161c1916905585806111f7565b878401358555600190940193602093840193879350016111e9565b61126b9082610140515260206101405120601f850160051c81019160208610610dac57601f0160051c0190615a66565b85611141565b6101408051600080516020616503833981519152908190529051602081815260408083206001600160a01b03871660008181529190935220805460ff19166001179055339290916000805160206164e38339815191529080a46110ff565b60405162461bcd60e51b8152602060048201526014602482015273416c7265616479206120756e697665727369747960601b6044820152606490fd5b50337f00000000000000000000000000000000000000000000000000000000000000006001600160a01b031614611078565b346102e457610140513660031901126102e4576020604051610140518152f35b346102e45760e03660031901126102e4576004356001600160401b0381116102e45761138d90369060040161513e565b6024356001600160401b0381116102e4576113ac90369060040161513e565b6113b7929192615128565b906064356001600160401b0381116102e4576113d790369060040161513e565b92906084356001600160401b0381116102e4576113f890369060040161513e565b60a4356001600160401b0381116102e45761141790369060040161513e565b93909460c4359760208910156102e45761142f616009565b6114376162a1565b6001600160a01b0382169161144d831515615c09565b6013546040516386c3441560e01b815260048101859052610140516001600160a01b039092169181602481855afa908115610605576101405191611661575b5051156115fd575b50506040519a8b9863fbdf492360e01b8a5260048a016006905260248a0161012090528d8c6101248c01906114c892615be8565b906003198b83030160448c01526114de92615be8565b9160648901526003198883030160848901526114f992615be8565b906003198683030160a487015261150f92615be8565b906003198483030160c485015261152592615be8565b61153260e4830184614eea565b33610104830152038373__$418a42c2ace6135936f69e0acb768a6277$__91815a93602094f49283156106055761014051936115c6575b5060209383927f8a9f62701df42f18a82cdd37c50a7bce4cd48487ff236cabc609440251f87c3e926115b56115ab604051948594606086526060860191615be8565b9188840190614eea565b3360408301520390a2604051908152f35b909192506020813d6020116115f5575b816115e360209383615301565b81010312610fe6575191906020611569565b3d91506115d6565b803b156102e45761162c918e918d6040518095819482936314a2f2eb60e21b8452610140519760048501615c4f565b039161014051905af1801561060557611646575b80611494565b6101405161165391615301565b610140516102e4578c611640565b61167891503d8061014051833e610ba28183615301565b8f61148c565b346102e45760403660031901126102e457611697615112565b6004356101405152600a602052604061014051209060018060a01b0316600052602052602060ff604060002054166040519015158152f35b346102e457610140513660031901126102e4576116ea616009565b33610140515260096020526040610140512060405190816020825491828152019161014051526020610140512090610140515b818110611734576103d185610b6981870382615301565b825484526020909301926001928301920161171d565b346102e45760403660031901126102e457611763615112565b600435610140515261014051602052604061014051209060018060a01b0316600052602052602060ff604060002054166040519015158152f35b346102e45760203660031901126102e4576004356001600160401b0381116102e4576117cd90369060040161513e565b906117d6616009565b6117de6162a1565b81156118c357604051633811a9ef60e21b815260066004820152606060248201529161180e606484018284615be8565b33604485015283806101405192038173__$418a42c2ace6135936f69e0acb768a6277$__5af492831561060557610140519361189c575b50806040519283378101906101405182528033920390207f1949bcb8762ad61ab8a8f3175c5787a3204c83583381bb42cdcdbf62141b11c46101405161014051a3610140515b815181101561073d5760010161188b565b6118bc9193503d8061014051833e6118b48183615301565b810190615ccb565b9183611845565b60405162461bcd60e51b8152602060048201526012602482015271125b9d985b1a59081cdd1d59195b9d08125160721b6044820152606490fd5b346102e45760203660031901126102e45760043560405161191d816152e6565b610140518152606060208201526060604082015261014051606082015261014051608082015260a061014051910152806101405152601060205280604061014051205403611a5b576101405152601060205260406101405120604051611982816152e6565b81548152604051916119a28361199b81600185016153f9565b0384615301565b602082019283526040516119c4816119bd81600286016153f9565b0382615301565b6040830190815260018060a01b036003830154169160608401928352611a3960ff6005600484015493608088019485520154169260a086019315158452611a26604051978897602089525160208901525160c0604089015260e0880190614ec5565b9051868203601f19016060880152614ec5565b92516001600160a01b031660808501525160a084015251151560c08301520390f35b60405162461bcd60e51b815260206004820152601a60248201527910dd5cdd1bdb481d1e5c1948191bd95cc81b9bdd08195e1a5cdd60321b6044820152606490fd5b346102e45760203660031901126102e4576001600160a01b03611abe6150fc565b16610140515260016020526103d16119bd611ae560406101405120604051928380926153f9565b604051918291602083526020830190614ec5565b346102e457610140513660031901126102e457610140805160008051602061656383398151915290525160208181526040918290203360009081529152205460ff168015611b91575b611b4b90615a1f565b611b536162a1565b600160ff1960055416176005557f62e78cea01bee320cd4e420270b5ea74000d11b0c9f74754ebdbfc544b05a2586020604051338152a16101405180f35b50337f00000000000000000000000000000000000000000000000000000000000000006001600160a01b031614611b42565b346102e457610140513660031901126102e457611bde616009565b33610140515260116020526040610140512060405190816020825491828152019161014051526020610140512090610140515b818110611c28576103d185610b6981870382615301565b8254845260209093019260019283019201611c11565b346102e457610140513660031901126102e4576040517f00000000000000000000000000000000000000000000000000000000000000006001600160a01b03168152602090f35b346102e457611c93366151a5565b73__$418a42c2ace6135936f69e0acb768a6277$__6040516316fc1ba760e11b815260066004820152846024820152602081604481855af48015610605576101405190611e92575b611ce5915061557f565b601654611cfc906001600160a01b03161515615747565b6040519063355e181360e11b8252600660048301528460248301528160448161014051935af4908115610605576101405191611e6b575b506001600160a01b031633148015611e39575b15611df5576016546001600160a01b031691823b156102e457611d9192604051808095819463f5e5331b60e01b83528860048401526040602484015261014051966044840191615be8565b039161014051905af1801561060557611dda575b50604051904282527f66955207f6367a8fdf32152ae1acb6b5a01814adb9d11a49c6c818ebee74391460203393a36101405180f35b61014051611de791615301565b610140516102e45781611da5565b60405162461bcd60e51b815260206004820152601c60248201527b4e6f7420617574686f72697a656420746f20726f74617465206b657960201b6044820152606490fd5b50337f00000000000000000000000000000000000000000000000000000000000000006001600160a01b031614611d46565b611e8291503d8061014051833e6106848183615301565b5097505050505050505084611d33565b506020813d602011611ec5575b81611eac60209383615301565b810103126102e457611ec0611ce591615572565b611cdb565b3d9150611e9f565b346102e457610140513660031901126102e45760206040516000805160206165638339815191528152f35b346102e45760203660031901126102e4576004356001600160401b0381116102e457611f2890369060040161513e565b6013546001600160a01b031691823b156102e457611f629260405180809581946314a2f2eb60e21b83526101405196339160048501615c4f565b039161014051905af1801561060557611f7c576101405180f35b61014051611f8991615301565b610140516102e4578061073d565b346102e45760203660031901126102e457611fb06150fc565b611fe4337f00000000000000000000000000000000000000000000000000000000000000006001600160a01b0316146157ff565b6000805160206165638339815191526101405152610140516020526040610140512060018060a01b03821660005260205260ff60406000205416612162576000805160206165638339815191526101405152610140516020526040610140512060018060a01b03821660005260205260ff6040600020541615612104575b60018060a01b03811690816101405152600460205260ff604061014051205416156120bc575b5033907fbf3f493c772c8c283fd124432c2d0f539ab343faa04258fe88e52912d36b102b6101405161014051a36101405180f35b60035490600160401b821015610db6576111aa8260016120e194016003556003615889565b806101405152600460205260406101405120600160ff1982541617905581612088565b6101408051600080516020616563833981519152908190529051602081815260408083206001600160a01b03861660008181529190935220805460ff19166001179055339290916000805160206164e38339815191529080a4612062565b60405162461bcd60e51b815260206004820152601060248201526f20b63932b0b23c9030b71030b236b4b760811b6044820152606490fd5b346102e457610140513660031901126102e4576014546015546016546040519283926103d1926001600160a01b03908116929181169116846151d8565b346102e457610140513660031901126102e457602060ff600554166040519015158152f35b346102e45760203660031901126102e4576103d1610b6961221b6150fc565b615d76565b346102e4576101003660031901126102e4576004356001600160401b0381116102e45761225190369060040161513e565b60c05260e0526024356001600160401b0381116102e45761227690369060040161513e565b60a052612281615128565b906064356001600160401b0381116102e4576122a190369060040161513e565b90926084356001600160401b0381116102e4576122c290369060040161513e565b919060a4356001600160401b0381116102e4576122e390369060040161513e565b60c4356001600160401b0381116102e45761230290369060040161513e565b939095602060e43510156102e457612318616009565b6123206162a1565b6123346001600160a01b0387161515615c09565b801561290457601454612351906001600160a01b031615156156c0565b601554612368906001600160a01b03161515615702565b60165461237f906001600160a01b03161515615747565b6013546040516386c3441560e01b81526001600160a01b0388811660048301526101405192169181602481855afa9081156106055761014051916128e7575b505115612888575b50604051610120526123da610120516152cb565b6101405161012051526101405160206101205101526040516123fb816152cb565b604051612407816152cb565b6101405181526101405160208201528152604051612424816152cb565b6101405181526101405160208201526020820152604051612444816152cb565b61014051815261014051602082015260405190612460826152cb565b600d5492600184018411612814576001840183523360208401526001808060a01b036014541694610140515060405161010052636622094f60e11b61010051520160046101005101523360246101005101526124c56044610100510161012051615c78565b6084610100510161014051905b6002821061286a57505050602092916124f661250492610104610100510190615c78565b610144610100510190615c78565b6101846101005191610100519061014051905af1998a1561060557610140519a61282e575b600d54600181018111612814576040516001602082019201825260018060601b03198960601b1660408201523360601b605482015242606882015260688152612573608882615301565b51902060808080526040519a9198919061258d908c615301565b60038b52608051601f19013660208d01378a51156127fa573360208c01528a51600110156127fa576001600160a01b03821660408c01528a51600210156127fa579a9998979695949392919060608a01600160a01b600190037f00000000000000000000000000000000000000000000000000000000000000001690526040519b8c9b634a2b175360e11b8d5260048d016006905260248d016101a090526101a48d0160c0519060e0519161264192615be8565b8d81036003190160448f015260a05161265992615be8565b6001600160a01b0390921660648d01528b82036003190160848d015261267e92615be8565b906003198a83030160a48b015261269492615be8565b906003198883030160c48901526126aa92615be8565b916126ba60e48781019035614eea565b3361010487015287610124870152610144860152600319858303016101648601526126e492615be8565b600319838203016101848401528151908181526020019160200190610140515b8181106127d8575050509080602092038173__$418a42c2ace6135936f69e0acb768a6277$__5af49081156106055761014051916127a5575b50807f59718eaa111fb8150b3cfbe471d8f908241a1d0822f8e4d7055d3bec700cfbec60209360405180916080518252612780608051830160c05160e051615be8565b9061278f88840160e435614eea565b33604084015260608301520390a2604051908152f35b90506020813d6020116127d0575b816127c060209383615301565b81010312610fe65751602061273d565b3d91506127b3565b82516001600160a01b0316845285945060209384019390920191600101612704565b634e487b7160e01b61014051526032600452602461014051fd5b634e487b7160e01b61014051526011600452602461014051fd5b995060203d602011612863575b8061284b60209261010051615301565b610100519081010312610fe657610100515199612529565b503d61283b565b602060408261287c6001948751615c78565b019301910190916124d2565b803b156102e457604051906314a2f2eb60e21b825281610140519181806128b88c60c05160e05160048501615c4f565b039161014051905af1801561060557156123c657610140516128d991615301565b610140516102e4578a6123c6565b6128fe91503d8061014051833e610ba28183615301565b8c6123be565b60405162461bcd60e51b815260206004820152601b60248201527a092dcecc2d8d2c840cadcc6e4f2e0e8cac84092a08ca640d0c2e6d602b1b6044820152606490fd5b346102e457610140513660031901126102e45760206040516000805160206165238339815191528152f35b346102e457610140513660031901126102e457610140805160008051602061656383398151915290525160208181526040918290203360009081529152205460ff168015612a44575b6129c490615a1f565b60055460ff811615612a085760ff19166005557f5db9ee0a495bf2e6ff9c91a7834c1ba4fdd244a5e8aa4e537bd38aeae4b073aa6020604051338152a16101405180f35b60405162461bcd60e51b815260206004820152601460248201527314185d5cd8589b194e881b9bdd081c185d5cd95960621b6044820152606490fd5b50337f00000000000000000000000000000000000000000000000000000000000000006001600160a01b0316146129bb565b346102e457610140513660031901126102e45760206040516000805160206165038339815191528152f35b346102e457612aaf366151a5565b612ab761550d565b50610140805160008051602061652383398151915290525160208181526040918290203360009081529152205460ff1615612d1d5773__$418a42c2ace6135936f69e0acb768a6277$__916040516316fc1ba760e11b815260066004820152846024820152602081604481875af48015610605576101405190612ce2575b612b3f915061557f565b8115612ca1576015548491906001600160a01b031680612c10575b50612b927f49d0f143c8a72c7394deae1d5d4b00313077a7b1fa5a1eb0c5a66fca1e8ab9df9160405194604086526040860191615be8565b924260208201528033940390a360405191630bb7d71d60e41b83526006600484015260248301523360448301528160648161014051935af48015610605576103d1916101405191612beb575b5060405191829182614fef565b612c0a91503d8061014051833e612c028183615301565b810190615a8a565b82612bde565b8092503b156102e4576040519163154bd42b60e31b835285600484015233602484015260806044840152601060848401526f454d455247454e43595f41434345535360801b60a48401526101405160648401528260c481610140519361014051905af191821561060557859215612b5a57612c919192506101405190615301565b610140516102e457839085612b5a565b60405162461bcd60e51b8152602060048201526019602482015278115b595c99d95b98de481c99585cdbdb881c995c5d5a5c9959603a1b6044820152606490fd5b506020813d602011612d15575b81612cfc60209383615301565b810103126102e457612d10612b3f91615572565b612b35565b3d9150612cef565b612de1612d29336162f6565b612dc16011612d45600080516020616523833981519152616436565b92603760405194859276020b1b1b2b9b9a1b7b73a3937b61d1030b1b1b7bab73a1604d1b6020850152612d818151809260208688019101614ea2565b83017001034b99036b4b9b9b4b733903937b6329607d1b83820152612db0825180936020604885019101614ea2565b01010301601f198101835282615301565b60405162461bcd60e51b8152602060048201529182916024830190614ec5565b0390fd5b346102e45760203660031901126102e4576004358061014051526006602052612e168160406101405120541461537b565b61014051526006602052602060ff6009604061014051200154166040519015158152f35b346102e457612e48366150e6565b90612e5161550d565b5073__$418a42c2ace6135936f69e0acb768a6277$__916040516316fc1ba760e11b815260066004820152826024820152602081604481875af480156106055761014051906130d2575b612ea5915061557f565b6014546001600160a01b0316612ebc8115156156c0565b601554612ed3906001600160a01b03161515615702565b60206040518092639fe45a0160e01b82528180612ef533898960048501615789565b039161014051905af1908115610605576101405191613098575b506015546040516319da283360e31b8152919060209083906001600160a01b03168180612f40338a600484016157aa565b03915afa801561060557610140519061305d575b612f6692508115613055575b506157c3565b60405192630bb7d71d60e41b8452600660048501528260248501523360448501528360648161014051935af4918215610605576103d1936101405193613036575b50612fb233826160a8565b15612fff575b604051916060835260046060840152635649455760e01b608084015260208301524260408301526000805160206165a383398151915260a03393a360405191829182614fef565b60405161300d602082615301565b61014051815260a0840152604051613026602082615301565b61014051815260c0840152612fb8565b61304e9193503d8061014051833e612c028183615301565b9184612fa7565b905085612f60565b506020823d602011613090575b8161307760209383615301565b810103126102e45761308b612f6692615572565b612f54565b3d915061306a565b90506020813d6020116130ca575b816130b360209383615301565b810103126102e4576130c490615572565b84612f0f565b3d91506130a6565b506020813d602011613105575b816130ec60209383615301565b810103126102e457613100612ea591615572565b612e9b565b3d91506130df565b346102e45760803660031901126102e457600435613129615112565b906044359073__$418a42c2ace6135936f69e0acb768a6277$__926040516316fc1ba760e11b815260066004820152826024820152602081604481885af48015610605576101405190613356575b613181915061557f565b6001600160a01b0316908115613311576014546131a8906001600160a01b031615156156c0565b6015546131bf906001600160a01b03161515615702565b6040519363355e181360e11b8552600660048601528160248601526101405185604481845af49081156106055761321060209260c49761014051916132ea575b506001600160a01b031633146158e8565b604051958680926372f3d2c560e01b82526006600483015285602483015286604483015287606483015260643560848301523360a48301525af49283156106055761014051936132b5575b6020945080156132aa5761326f9042615a7d565b905b60405191848352858301527f969d0504a0c3f31936c4fad85801e244e51195369570bed5a075e0331ab54a9f60403393a4604051908152f35b506101405190613271565b92506020843d6020116132e2575b816132d060209383615301565b81010312610fe657602093519261325b565b3d91506132c3565b61330191503d8061014051833e6106848183615301565b50505050505092505050886131ff565b60405162461bcd60e51b815260206004820152601d60248201527f496e76616c6964206164647265737320746f20736861726520776974680000006044820152606490fd5b506020813d602011613389575b8161337060209383615301565b810103126102e45761338461318191615572565b613177565b3d9150613363565b346102e45760403660031901126102e4576133aa615112565b336001600160a01b038216036133c65761073d90600435616231565b60405162461bcd60e51b815260206004820152602f60248201527f416363657373436f6e74726f6c3a2063616e206f6e6c792072656e6f756e636560448201526e103937b632b9903337b91039b2b63360891b6064820152608490fd5b346102e45760403660031901126102e45760043561343f615112565b9061344c61073382615a0b565b806101405152610140516020526040610140512060018060a01b03831660005260205260ff6040600020541615613484576101405180f35b610140805182905251602081815260408083206001600160a01b0395909516600081815295909252909320805460ff19166001179055339291906000805160206164e38339815191529080a4808061073d565b346102e45760203660031901126102e4576004356001600160401b0381116102e457613509602091369060040161513e565b91908260405193849283378101600881520301902060405190816020825491828152019161014051526020610140512090610140515b818110613556576103d185610b6981870382615301565b825484526020909301926001928301920161353f565b346102e45760403660031901126102e457600435613588615112565b81610140515260066020526135a58260406101405120541461537b565b6013546040516386c3441560e01b8152336004820152610140519091829060249082906001600160a01b03165afa9081156106055761014051916136e2575b506135f1815115156158a1565b61362f8151602083012084610140515260066020526119bd61362260016040610140512001604051928380926153f9565b60208151910120146158e8565b73__$418a42c2ace6135936f69e0acb768a6277$__803b156102e45760405163da18ebaf60e01b81526101405190918290818061367187898b60048501615926565b03915af48015610605576136c7575b5061368a90615951565b610140516001600160a01b039092169290917faff6e534ab1a03be3cfb349ea9a41ee6cdc768addd7f0e2c3dab67571d8ac3049080a46101405180f35b610140516136d491615301565b610140516102e45783613680565b6136f991503d8061014051833e610ba28183615301565b836135e4565b346102e45760603660031901126102e4576137186150fc565b613720615112565b613728615128565b916000805160206165638339815191526101405152610140516020526040610140512060018060a01b03331660005260205260ff604060002054168015613943575b61377390615a1f565b6001600160a01b0381168015613900576001600160a01b03831680156138bb576001600160a01b03851691821561387857601480546001600160a01b031990811692909217905560158054821683179055601680549091168317905573__$418a42c2ace6135936f69e0acb768a6277$__90813b156102e4576040519263f09df73360e01b845260066004850152602484015260448301528160648161014051935af480156106055761385d575b506138537f113cdadc0cb7d6b469b81efaaedfe5c62d8b7e8e256af162acdd268efc07bbb793604051938493846151d8565b0390a16101405180f35b6101405161386a91615301565b610140516102e45783613821565b60405162461bcd60e51b815260206004820152601b60248201527a496e76616c6964204b65792053746f72616765206164647265737360281b6044820152606490fd5b60405162461bcd60e51b815260206004820152601e60248201527f496e76616c696420416363657373204d616e61676572206164647265737300006044820152606490fd5b60405162461bcd60e51b815260206004820152601b60248201527a496e76616c6964205a4b50204d616e61676572206164647265737360281b6044820152606490fd5b50337f00000000000000000000000000000000000000000000000000000000000000006001600160a01b03161461376a565b346102e45760203660031901126102e45761398e6150fc565b610140805160008051602061656383398151915290525160208181526040918290203360009081529152205460ff168015613bb2575b6139cd90615a1f565b6000805160206165038339815191526101405152610140516020526040610140512060018060a01b03821660005260205260ff60406000205416613b57575b60018060a01b0316806101405152600160205260406101405120613a3081546153bf565b80613b02575b5050610140515b60025480821015613afa5782613a528361586e565b905460039190911b1c6001600160a01b031614613a725750600101613a3d565b600019810192508211612814576111aa613a8e613aa69361586e565b905460039190911b1c6001600160a01b03169161586e565b6002548015613ae05760001901613ad6613ac1826002615889565b81549060018060a01b039060031b1b19169055565b6002556101405180f35b634e487b7160e01b61014051526031600452602461014051fd5b50505061073d565b601f8111600114613b1c57506101405190555b8180613a36565b613b3f908261014051526001601f60206101405120920160051c82019101615a66565b61014080518290525160208120918190559055613b15565b6101408051600080516020616503833981519152908190529051602081815260408083206001600160a01b03861660008181529190935220805460ff19169055339290916000805160206165438339815191529080a4613a0c565b50337f00000000000000000000000000000000000000000000000000000000000000006001600160a01b0316146139c4565b346102e45760203660031901126102e4576020613c02600435615a0b565b604051908152f35b346102e45760603660031901126102e45760206106fd613c28615128565b602435600435615971565b346102e45760403660031901126102e457600435613c4f615112565b8161014051526006602052613c6c8260406101405120541461537b565b6013546040516386c3441560e01b8152336004820152610140519091829060249082906001600160a01b03165afa908115610605576101405191613d96575b50613cb8815115156158a1565b613ce98151602083012084610140515260066020526119bd61362260016040610140512001604051928380926153f9565b73__$418a42c2ace6135936f69e0acb768a6277$__90813b156102e45760405163db810d4760e01b815261014051909283908180613d2c86898b60048501615926565b03915af491821561060557613d4692613d83575b50615951565b610140516001600160a01b039092169290917fc2423a58507863fe4ba6405dd105f958afc6ee0eff57522e1971a36e8fafd73c9080a46101405180f35b61014051613d9091615301565b84613d40565b613dad91503d8061014051833e610ba28183615301565b83613cab565b346102e45760203660031901126102e457613dcc6150fc565b7f00000000000000000000000000000000000000000000000000000000000000006001600160a01b031690613e023383146157ff565b6001600160a01b03169081146140345760008051602061656383398151915261014051526101405160205260406101405120610140515081610140515260205260ff604061014051205416156140005760008051602061656383398151915261014051526101405160205260406101405120610140515081610140515260205260ff604061014051205416613f93575b806101405152600460205260ff604061014051205416613ee0575b33907fdb9d5d31320daf5bc7181d565b6da4d12e30f0f4d5aa324a992426c14a1d19ce6101405161014051a36101405180f35b610140515b6003549081811015613f8c5782613efb8261583d565b905460039190911b1c6001600160a01b031614613f1c576001915001613ee5565b6000198201918211612814576111aa613f37613f4f9361583d565b905460039190911b1c6001600160a01b03169161583d565b6003548015613ae05760001901613f6a613ac1826003615889565b60035580610140515260046020526040610140512060ff198154169055613ead565b5050613ead565b6000805160206165638339815191526101405152610140516020526040610140512061014051508161014051526020526040610140512060ff19815416905533816000805160206165638339815191526000805160206165438339815191526101405161014051a4613e92565b60405162461bcd60e51b815260206004820152600c60248201526b2737ba1030b71030b236b4b760a11b6044820152606490fd5b60405162461bcd60e51b815260206004820152601960248201527821b0b73737ba103932b6b7bb329039bab832b91030b236b4b760391b6044820152606490fd5b346102e457610140513660031901126102e4576020601254604051908152f35b346102e4576140a3366150e6565b73__$418a42c2ace6135936f69e0acb768a6277$__6040516316fc1ba760e11b815260066004820152836024820152602081604481855af480156106055761014051906143c8575b6140f5915061557f565b6014546001600160a01b031661410c8115156156c0565b601554614123906001600160a01b03161515615702565b60165461413a906001600160a01b03161515615747565b60206040518092639fe45a0160e01b8252818061415c338a8a60048501615789565b039161014051905af190811561060557610140519161438e575b506015546040516319da283360e31b8152919060209083906001600160a01b031681806141a7338b600484016157aa565b03915afa8015610605576101405190614353575b6141cc9250811561305557506157c3565b6141d633846160a8565b156142fe576040519163397cd6b960e21b8352600660048401528360248401523360448401526101405183606481855af49283156106055761014051936142df575b506040519163f833e09960e01b8352600660048401528460248401523360448401528260648161014051935af4908115610605576142b2946103d19361014051936142c0575b50604051916060835260086060840152671113d5d39313d05160c21b608084015260208301524260408301526000805160206165a383398151915260a03393a3604051938493604085526040850190614ec5565b908382036020850152614ec5565b6142d89193503d8061014051833e610ba28183615301565b918661425e565b6142f79193503d8061014051833e610ba28183615301565b9184614218565b60405162461bcd60e51b815260206004820152602760248201527f496e73756666696369656e74207065726d697373696f6e7320666f7220646563604482015266393cb83a34b7b760c91b6064820152608490fd5b506020823d602011614386575b8161436d60209383615301565b810103126102e4576143816141cc92615572565b6141bb565b3d9150614360565b90506020813d6020116143c0575b816143a960209383615301565b810103126102e4576143ba90615572565b84614176565b3d915061439c565b506020813d6020116143fb575b816143e260209383615301565b810103126102e4576143f66140f591615572565b6140eb565b3d91506143d5565b346102e457610140513660031901126102e4576013546040516001600160a01b039091168152602090f35b346102e457610140513660031901126102e4576020600d54604051908152f35b346102e45760403660031901126102e4576004356024358015158091036102e457614477616009565b610140805183905260106020525160409020600301546001600160a01b031633036144ef5760207fc49db19e98f37a91c758a4b59695c5a8babbdb9ee2ff7215a577c3b6c2f8575491836101405152601082526005604061014051200160ff1981541660ff8316179055604051908152a26101405180f35b60405162461bcd60e51b815260206004820152600f60248201526e2737ba103a34329031b932b0ba37b960891b6044820152606490fd5b346102e457610140513660031901126102e4576101405173__$418a42c2ace6135936f69e0acb768a6277$__60015b600d5481116145f5576040516316fc1ba760e11b81526006600482015260248101829052602081604481865af49081156106055761014051916145bc575b506145a7575b6145a29061569b565b614555565b916145b46145a29161569b565b929050614599565b90506020813d82116145ed575b816145d660209383615301565b810103126102e4576145e790615572565b84614593565b3d91506145c9565b602083604051908152f35b346102e45760203660031901126102e45760043561461c615324565b50806101405152600660205261463a8160406101405120541461537b565b610140515260066020526103d16040610140512060096040519161465d8361527d565b80548352604051614675816119bd81600186016153f9565b602084015260405161468e816119bd81600286016153f9565b60408481019190915260038201546001600160a01b03166060850152516146bc816119bd81600486016153f9565b60808401526040516146d5816119bd81600586016153f9565b60a08401526040516146ee816119bd81600686016153f9565b60c084015261470760ff60078301541660e0850161547c565b60088181015461010085015291015460ff81161515610120840152901c6001600160a01b031661014082015260405191829182614f0d565b346102e45760203660031901126102e45760043561475b61550d565b5073__$418a42c2ace6135936f69e0acb768a6277$__6040516316fc1ba760e11b815260066004820152826024820152602081604481855af48015610605576101405190614a11575b6147ae915061557f565b6040519063355e181360e11b8252600660048301528260248301526101405182604481845af4918215610605576101405193849384928392839283928391829182918291906149d4575b50156149985760405163691d726d60e11b81526006600482015260248101859052936020856044818d5af4948515610605576101405195614963575b506020906044604051809c819363b8370edd60e01b83526006600484015260248301525af4988915610605576101405199614921575b50906103d19a6148f2959493926040519b6148848d6152af565b8c5260208c015260408b015260018060a01b031660608a015260808901526101405150610140515061014051506040516148bf602082615301565b61014051815260a08901526040516148d8602082615301565b61014051815260c089015260e0880152610100870161547c565b61012085015215156101408401526001600160a01b031661016083015261018082015260405191829182614fef565b949392919098506020853d60201161495b575b8161494160209383615301565b810103126102e457935197929391929091906103d161486a565b3d9150614934565b9094506020813d602011614990575b8161497f60209383615301565b810103126102e45751936020614834565b3d9150614972565b60405162461bcd60e51b81526020600482015260146024820152735265636f7264206973206e6f742073656375726560601b6044820152606490fd5b98505050505096505050506149f79192503d8061014051833e6106848183615301565b969a9899989097919692959394909390929091908c6147f8565b506020813d602011614a44575b81614a2b60209383615301565b810103126102e457614a3f6147ae91615572565b6147a4565b3d9150614a1e565b346102e45760203660031901126102e45760043563ffffffff60e01b81168091036102e457602090637965db0b60e01b8114908115614a91575b506040519015158152f35b6301ffc9a760e01b14905082614a86565b346102e45760203660031901126102e457600435614abe615324565b508061014051526006602052614adc8160406101405120541461537b565b80610140515260066020526040610140512060405190614afb8261527d565b80548252604051614b13816119bd81600186016153f9565b60208301908152604051614b2e816119bd81600287016153f9565b60408481019190915260038301546001600160a01b0316606085015251614b5c816119bd81600487016153f9565b608084015260405190614b7d82614b7681600587016153f9565b0383615301565b60a08401918252600960405193614ba285614b9b81600685016153f9565b0386615301565b60c08601948552614bbd60ff60078301541660e0880161547c565b6008810154610100870152015460ff8116151561012086015260018060a01b039060081c1661014085019181835261014051913314614e99575b6101408051889052600a6020908152815160408082203390925291529051205460ff16614e90575b61014080516000805160206165638339815191529052805160208181526040808320339093529190529051205460ff168015614e5e575b614e55575b6013546040516386c3441560e01b815233600482015261014051909291839060249082906001600160a01b03165afa918215610605576101405192614e36575b5081518015159283614e1c575b505050614e14575b15614dc5576103d1946101405152600a60205260406101405120610140515060018060a01b033316610140515260205260ff604061014051205416159081614db0575b5080614d79575b80614d46575b614d13575b505060405191829182614f0d565b60405190614d22602083615301565b6101405182525260405190614d38602083615301565b610140518252528280614d05565b50337f00000000000000000000000000000000000000000000000000000000000000006001600160a01b03161415614d00565b5061014080516000805160206165638339815191529052805160208181526040808320339093529190529051205460ff1615614cfa565b516001600160a01b0316331415905085614cf3565b60405162461bcd60e51b815260206004820152602160248201527f4e6f207065726d697373696f6e20746f20766965772074686973207265636f726044820152601960fa1b6064820152608490fd5b506001614cb0565b602091929350012090516020815191012014878080614ca8565b614e4e9192503d8061014051833e610ba28183615301565b9088614c9b565b60019150614c5b565b50337f00000000000000000000000000000000000000000000000000000000000000006001600160a01b031614614c56565b60019150614c1f565b60019150614bf7565b60005b838110614eb55750506000910152565b8181015183820152602001614ea5565b90602091614ede81518092818552858086019101614ea2565b601f01601f1916010190565b906020821015614ef75752565b634e487b7160e01b600052602160045260246000fd5b6020815281516020820152610160614fad614f97614f81614f56614f406020880151866040890152610180880190614ec5565b6040880151878203601f19016060890152614ec5565b60608701516001600160a01b0316608087810191909152870151868203601f190160a0880152614ec5565b60a0860151858203601f190160c0870152614ec5565b60c0850151848203601f190160e0860152614ec5565b92614fc160e0820151610100850190614eea565b610100810151610120840152610120810151151561014084015261014060018060a01b039101511691015290565b60208152815160208201526101a061018061509261507c61506661503b61502560208901518760408a01526101c0890190614ec5565b6040890151888203601f190160608a0152614ec5565b60608801516001600160a01b0316608088810191909152880151878203601f190160a0890152614ec5565b60a0870151868203601f190160c0880152614ec5565b60c0860151858203601f190160e0870152614ec5565b9360e08101516101008501526150b2610100820151610120860190614eea565b610120810151610140850152610140810151151561016085015260018060a01b036101608201511682850152015191015290565b6040906003190112610fe6576004359060243590565b600435906001600160a01b0382168203610fe657565b602435906001600160a01b0382168203610fe657565b604435906001600160a01b0382168203610fe657565b9181601f84011215610fe6578235916001600160401b038311610fe65760208381860195010111610fe657565b602060408183019282815284518094520192019060005b81811061518f5750505090565b8251845260209384019390920191600101615182565b906040600319830112610fe65760043591602435906001600160401b038211610fe6576151d49160040161513e565b9091565b6001600160a01b0391821681529181166020830152909116604082015260600190565b906040600319830112610fe6576004356001600160a01b0381168103610fe65791602435906001600160401b038211610fe6576151d49160040161513e565b602060408183019282815284518094520192019060005b81811061525e5750505090565b82516001600160a01b0316845260209384019390920191600101615251565b61016081019081106001600160401b0382111761529957604052565b634e487b7160e01b600052604160045260246000fd5b6101a081019081106001600160401b0382111761529957604052565b604081019081106001600160401b0382111761529957604052565b60c081019081106001600160401b0382111761529957604052565b601f909101601f19168101906001600160401b0382119082101761529957604052565b604051906153318261527d565b600061014083828152606060208201526060604082015282606082015260606080820152606060a0820152606060c08201528260e082015282610100820152826101208201520152565b1561538257565b60405162461bcd60e51b8152602060048201526015602482015274149958dbdc9908191bd95cc81b9bdd08195e1a5cdd605a1b6044820152606490fd5b90600182811c921680156153ef575b60208310146153d957565b634e487b7160e01b600052602260045260246000fd5b91607f16916153ce565b60009291815491615409836153bf565b808352926001811690811561545f575060011461542557505050565b60009081526020812093945091925b838310615445575060209250010190565b600181602092949394548385870101520191019190615434565b915050602093945060ff929192191683830152151560051b010190565b6020821015614ef75752565b6001600160401b03811161529957601f01601f191660200190565b81601f82011215610fe657602081519101906154be81615488565b926154cc6040519485615301565b81845281830111610fe6576154e5916020840190614ea2565b90565b90602082820312610fe65781516001600160401b038111610fe6576154e592016154a3565b6040519061551a826152af565b600061018083828152606060208201526060604082015282606082015260606080820152606060a0820152606060c08201528260e0820152826101008201528261012082015282610140820152826101608201520152565b51908115158203610fe657565b1561558657565b60405162461bcd60e51b815260206004820152601c60248201527b14d958dd5c99481c9958dbdc9908191bd95cc81b9bdd08195e1a5cdd60221b6044820152606490fd5b51906001600160a01b0382168203610fe657565b909161014082840312610fe657815160208301519093906001600160401b038111610fe6578161560f9185016154a3565b60408401519093906001600160401b038111610fe657826156319183016154a3565b9261563e606083016155ca565b608083015190936001600160401b038211610fe65761565e9184016154a3565b9160a08101516020811015610fe6579160c08201519161568060e08201615572565b916154e561012061569461010085016155ca565b9301615572565b60001981146156aa5760010190565b634e487b7160e01b600052601160045260246000fd5b156156c757565b60405162461bcd60e51b81526020600482015260136024820152721692d40813585b9859d95c881b9bdd081cd95d606a1b6044820152606490fd5b1561570957565b60405162461bcd60e51b81526020600482015260166024820152751058d8d95cdcc813585b9859d95c881b9bdd081cd95d60521b6044820152606490fd5b1561574e57565b60405162461bcd60e51b815260206004820152601360248201527212d95e4814dd1bdc9859d9481b9bdd081cd95d606a1b6044820152606490fd5b90815260208101919091526001600160a01b03909116604082015260600190565b9081526001600160a01b03909116602082015260400190565b156157ca57565b60405162461bcd60e51b815260206004820152600d60248201526c1058d8d95cdcc819195b9a5959609a1b6044820152606490fd5b1561580657565b60405162461bcd60e51b815260206004820152600f60248201526e2737ba1039bab832b91030b236b4b760891b6044820152606490fd5b60035481101561585857600360005260206000200190600090565b634e487b7160e01b600052603260045260246000fd5b60025481101561585857600260005260206000200190600090565b80548210156158585760005260206000200190600090565b156158a857565b60405162461bcd60e51b8152602060048201526018602482015277139bdd0818481c9959da5cdd195c9959081cdd1d59195b9d60421b6044820152606490fd5b156158ef57565b60405162461bcd60e51b815260206004820152600f60248201526e139bdd081e5bdd5c881c9958dbdc99608a1b6044820152606490fd5b6154e5939260809260068352602083015260018060a01b031660408201528160608201520190614ec5565b61596990602060405192828480945193849201614ea2565b810103902090565b6015549092906001600160a01b03168015615a02576159ac93600060209460405196879586948593637c14a20760e01b855260048501615789565b03925af19081156159f6576000916159c2575090565b90506020813d6020116159ee575b816159dd60209383615301565b81010312610fe6576154e590615572565b3d91506159d0565b6040513d6000823e3d90fd5b50505050600090565b600052600060205260016040600020015490565b15615a2657565b60405162461bcd60e51b81526020600482015260186024820152772737ba1030b236b4b71037b91039bab832b91030b236b4b760411b6044820152606490fd5b818110615a71575050565b60008155600101615a66565b919082018092116156aa57565b602081830312610fe6578051906001600160401b038211610fe657016101a081830312610fe65760405191615abe836152af565b8151835260208201516001600160401b038111610fe65781615ae19184016154a3565b602084015260408201516001600160401b038111610fe65781615b059184016154a3565b6040840152615b16606083016155ca565b606084015260808201516001600160401b038111610fe65781615b3a9184016154a3565b608084015260a08201516001600160401b038111610fe65781615b5e9184016154a3565b60a084015260c0820151906001600160401b038211610fe657615b829183016154a3565b60c083015260e081015160e0830152610100810151906020821015610fe65761018091610100840152610120810151610120840152615bc46101408201615572565b610140840152615bd761016082016155ca565b610160840152015161018082015290565b908060209392818452848401376000828201840152601f01601f1916010190565b15615c1057565b60405162461bcd60e51b8152602060048201526017602482015276496e76616c69642073747564656e74206164647265737360481b6044820152606490fd5b91602091615c6891959495604085526040850191615be8565b6001600160a01b03909416910152565b906000905b60028210615c8a57505050565b6020806001928551815201930191019091615c7d565b6001600160401b0381116152995760051b60200190565b80518210156158585760209160051b010190565b602081830312610fe6578051906001600160401b038211610fe657019080601f83011215610fe6578151615cfe81615ca0565b92615d0c6040519485615301565b81845260208085019260051b820101928311610fe657602001905b828210615d345750505090565b8151815260209182019101615d27565b90615d4e82615ca0565b615d5b6040519182615301565b8281528092615d6c601f1991615ca0565b0190602036910137565b601354604051632d056f1360e11b81526001600160a01b03928316600482018190529392909160009183916024918391165afa9081156159f657600091615f99575b5060405192631b13abfd60e11b845260066004850152602484015260008360448173__$418a42c2ace6135936f69e0acb768a6277$__5af49283156159f657600093615f7e575b5080518015615f7a5760209181615e1e84936040518096819501614ea2565b810160088152030190206040518082602082945493848152019060005260206000209260005b818110615f61575050615e5992500382615301565b615e6e615e698451835190615a7d565b615d44565b92600091825b8251841015615ea657615e9e600191615e8d8686615cb7565b51615e98828a615cb7565b5261569b565b930192615e74565b915092915060005b8351811015615f23576000805b838110615ef6575b5015615ed2575b600101615eae565b90615eee600191615ee38487615cb7565b51615e988289615cb7565b919050615eca565b615f008387615cb7565b51615f0b8289615cb7565b5114615f1957600101615ebb565b5050600138615ec3565b50909150615f3081615d44565b9060005b818110615f42575090925050565b80615f4f60019287615cb7565b51615f5a8286615cb7565b5201615f34565b8454835260019485019486945060209093019201615e44565b5050565b615f9291933d8091833e6118b48183615301565b9138615dff565b615fae91503d806000833e610ba28183615301565b38615db8565b6015546001600160a01b0316918215616001576040516319da283360e31b815292602092849283918291615feb91600484016157aa565b03915afa9081156159f6576000916159c2575090565b505050600090565b3360009081527f1a7760066bd1f06df3a1a816a948cb99a3a2e8ffa5089500e84706868bfe072d602052604090205460ff161561604257565b612de161604e336162f6565b612dc16011612d45600080516020616503833981519152616436565b60008181526020818152604080832033845290915290205460ff161561608d5750565b612de190612dc16011612d456160a2336162f6565b93616436565b9073__$418a42c2ace6135936f69e0acb768a6277$__916040516316fc1ba760e11b815260066004820152816024820152602081604481875af49081156159f6576000916161f7575b50156160015760009060446040518095819363355e181360e11b83526006600484015260248301525af49081156159f6576000926000926161cc575b506001600160a01b03908116921682146161c5576001600160a01b031681146161bf577f00000000000000000000000000000000000000000000000000000000000000006001600160a01b031681146161bf5760009081527f7d7ffb7a348e1c6a02869081a26547b49160dd3df72d1d75a570eb9b698292ec602052604090205460ff166161ba57600090565b600190565b50600190565b5050600190565b9092506161e491503d806000833e6106848183615301565b509897505050505091505091903861612d565b90506020813d602011616229575b8161621260209383615301565b81010312610fe65761622390615572565b386160f1565b3d9150616205565b6000818152602081815260408083206001600160a01b038616845290915290205460ff1661625d575050565b6000818152602081815260408083206001600160a01b0395909516808452949091528120805460ff19169055339291906000805160206165438339815191529080a4565b60ff600554166162ad57565b60405162461bcd60e51b815260206004820152601060248201526f14185d5cd8589b194e881c185d5cd95960821b6044820152606490fd5b908151811015615858570160200190565b600090616303602a615488565b916163116040519384615301565b602a835261631f602a615488565b6020840190601f1901368237835115616422576030905382516001101561640e576078602184015350602960005b600182116163a257505061635e5790565b606460405162461bcd60e51b815260206004820152602060248201527f537472696e67733a20686578206c656e67746820696e73756666696369656e746044820152fd5b9091600f811660108110156163fa576f181899199a1a9b1b9c1cb0b131b232b360811b901a6163d184866162e5565b5360041c9180156163e657600019019061634d565b634e487b7160e01b82526011600452602482fd5b634e487b7160e01b83526032600452602483fd5b634e487b7160e01b81526032600452602490fd5b634e487b7160e01b82526032600452602482fd5b6000906164436042615488565b916164516040519384615301565b6042835261645f6042615488565b6020840190601f1901368237835115616422576030905382516001101561640e576078602184015350604160005b6001821161649e57505061635e5790565b9091600f811660108110156163fa576f181899199a1a9b1b9c1cb0b131b232b360811b901a6164cd84866162e5565b5360041c9180156163e657600019019061648d56fe2f8788117e7eff1d82e926ec794901d17c78024a50270940304540a733656f0d5bb0bf1fabd5e975fc7a4520766d9e86e0eb281f8c7c44fcd3dfe60a11e786ca7613a25ecc738585a232ad50a301178f12b3ba8887d13e138b523c4269c47689f6391f5c32d9c69d2a47ea670b442974b53935d1edc7fd64eb21e047a839171ba49807205ce4d355092ef5a8a18f56e8913cf4a201fbe287825b095693c21775c27f3bae021ab8e78d67f94f2cd8248055d6ae911c4cf44c62bd025cd3574ee184f607d07b620efaa10b4909af5ffa090104ad6279e7cbcb7b6b7e301433894aa2646970667358221220990829ce1ecbe39936d7af752b458a7b0eb0467d4b738a8c31cf4c857315bb2664736f6c634300081c0033608080604052346015576108c8908161001b8239f35b600080fdfe608080604052600436101561001357600080fd5b60003560e01c908163528bcbac146101f3575080635a0ade26146101a957806386c34415146101a9578063a82e3b001461014c578063bd5ba462146100f6578063c6ddfefb146100b75763ce09213b1461006c57600080fd5b346100b257602061007c36610804565b8161009060405192838151938492016106b4565b600190820190815281900382019020546040516001600160a01b039091168152f35b600080fd5b346100b257602060ff6100e0826100cd36610804565b81604051938285809451938492016106b4565b8101600081520301902054166040519015158152f35b346100b25760203660031901126100b2576004356001600160401b0381116100b25760ff602061012b81933690600401610671565b91908260405193849283378101600081520301902054166040519015158152f35b346100b25760203660031901126100b2576004356001600160401b0381116100b257602061017f81923690600401610671565b9190826040519384928337600190820190815203019020546040516001600160a01b039091168152f35b346100b25760203660031901126100b2576001600160a01b036101ca61069e565b1660005260026020526101ef6101e36040600020610760565b604051918291826106d7565b0390f35b346100b25760403660031901126100b2576004356001600160401b0381116100b257610223903690600401610671565b6024356001600160a01b03811693908490036100b257811561063a575082156106035760ff604051828482376020818481016000815203019020541660001461047e576040518183823760018183019081528190036020019020546001600160a01b03169182610414575b604051828282376001838201908152819003602090810190912080546001600160a01b0319168617905560008581526002909152604090206001600160401b0383116103fe576102de8154610703565b601f81116103c1575b50600083601f811160011461035e578061031792600091610353575b508160011b916000199060031b1c19161790565b90555b8160405192839283378101600081520390207f55066e0ef5d53e826887694254397ccd8c9936f6bab5e8d7592b001695658874600080a4005b905084013588610303565b50818152602081209084601f198116825b8181106103a657501061038c575b5050600183811b01905561031a565b830135600019600386901b60f8161c19169055858061037d565b8684013585556001909401936020938401938893500161036f565b6103ee90826000526020600020601f860160051c810191602087106103f4575b601f0160051c019061087b565b856102e7565b90915081906103e1565b634e487b7160e01b600052604160045260246000fd5b826000526002602052604060002061042c8154610703565b908161043a575b505061028e565b81601f600093116001146104525750555b8480610433565b8183526020832061046e91601f0160051c81019060010161087b565b808252816020812091555561044b565b90604051828282376020818481016000815203019020600160ff19825416179055604051828282376001838201908152819003602090810190912080546001600160a01b0319168517905560008481526002909152604090206001600160401b0383116103fe576104ef8154610703565b601f81116105d1575b50600083601f811160011461056e57806105279260009161056357508160011b916000199060031b1c19161790565b90555b8160405192839283378101600081520390207faa541cc9975b48a66ff0fcced1b6a07701b89f4bf70332c0e06f406f61b8e979600080a3005b905084013587610303565b50818152602081209084601f198116825b8181106105b657501061059c575b5050600183811b01905561052a565b830135600019600386901b60f8161c19169055848061058d565b8684013585556001909401936020938401938893500161057f565b6105fd90826000526020600020601f860160051c810191602087106103f457601f0160051c019061087b565b846104f8565b60405162461bcd60e51b815260206004820152600f60248201526e496e76616c6964206164647265737360881b6044820152606490fd5b62461bcd60e51b8152602060048201526012602482015271125b9d985b1a59081cdd1d59195b9d08125160721b6044820152606490fd5b9181601f840112156100b2578235916001600160401b0383116100b257602083818601950101116100b257565b600435906001600160a01b03821682036100b257565b60005b8381106106c75750506000910152565b81810151838201526020016106b7565b604091602082526106f781518092816020860152602086860191016106b4565b601f01601f1916010190565b90600182811c92168015610733575b602083101461071d57565b634e487b7160e01b600052602260045260246000fd5b91607f1691610712565b601f909101601f19168101906001600160401b038211908210176103fe57604052565b906040519182600082549261077484610703565b80845293600181169081156107e2575060011461079b575b506107999250038361073d565b565b90506000929192526020600020906000915b8183106107c6575050906020610799928201013861078c565b60209193508060019154838589010152019101909184926107ad565b90506020925061079994915060ff191682840152151560051b8201013861078c565b60206003198201126100b2576004356001600160401b0381116100b257816023820112156100b2576004810135906001600160401b0382116103fe5760405192610858601f8401601f19166020018561073d565b828452602483830101116100b25781600092602460209301838601378301015290565b818110610886575050565b6000815560010161087b56fea264697066735822122098f729f892792996fa7501cb87cac0fb2ecac271f45da06916c9fe5288f5b43364736f6c634300081c00332f8788117e7eff1d82e926ec794901d17c78024a50270940304540a733656f0d7d7ffb7a348e1c6a02869081a26547b49160dd3df72d1d75a570eb9b698292ec2155616cb3971b66bf28f1af4ff3722784e6d7a4b2b25bc9fe623232dcd690c8ad3228b676f7d3cd4284a5443f17f1962b36e491b30a40b2405849e597ba5fb5",
  "linkReferences": {
    "contracts/libraries/RecordStorage.sol": {
      "RecordStorage": [
        {
          "length": 20,
          "start": 1961
        },
        {
          "length": 20,
          "start": 2681
        },
        {
          "length": 20,
          "start": 4682
        },
        {
          "length": 20,
          "start": 6204
        },
        {
          "length": 20,
          "start": 6942
        },
        {
          "length": 20,
          "start": 8084
        },
        {
          "length": 20,
          "start": 10774
        },
        {
          "length": 20,
          "start": 11757
        },
        {
          "length": 20,
          "start": 12627
        },
        {
          "length": 20,
          "start": 13359
        },
        {
          "length": 20,
          "start": 14640
        },
        {
          "length": 20,
          "start": 15056
        },
        {
          "length": 20,
          "start": 16362
        },
        {
          "length": 20,
          "start": 17316
        },
        {
          "length": 20,
          "start": 18494
        },
        {
          "length": 20,
          "start": 19037
        },
        {
          "length": 20,
          "start": 24794
        },
        {
          "length": 20,
          "start": 25514
        }
      ]
    }
  },
  "deployedLinkReferences": {
    "contracts/libraries/RecordStorage.sol": {
      "RecordStorage": [
        {
          "length": 20,
          "start": 1194
        },
        {
          "length": 20,
          "start": 1914
        },
        {
          "length": 20,
          "start": 3915
        },
        {
          "length": 20,
          "start": 5437
        },
        {
          "length": 20,
          "start": 6175
        },
        {
          "length": 20,
          "start": 7317
        },
        {
          "length": 20,
          "start": 10007
        },
        {
          "length": 20,
          "start": 10990
        },
        {
          "length": 20,
          "start": 11860
        },
        {
          "length": 20,
          "start": 12592
        },
        {
          "length": 20,
          "start": 13873
        },
        {
          "length": 20,
          "start": 14289
        },
        {
          "length": 20,
          "start": 15595
        },
        {
          "length": 20,
          "start": 16549
        },
        {
          "length": 20,
          "start": 17727
        },
        {
          "length": 20,
          "start": 18270
        },
        {
          "length": 20,
          "start": 24027
        },
        {
          "length": 20,
          "start": 24747
        }
      ]
    }
  }
}