{
  "_format": "hh-sol-artifact-1",
  "contractName": "Access_verificationVerifier",
  "sourceName": "contracts/access_verification_verifier.sol",
  "abi": [
    {
      "inputs": [],
      "stateMutability": "nonpayable",
      "type": "constructor"
    },
    {
      "anonymous": false,
      "inputs": [
        {
          "indexed": false,
          "internalType": "bool",
          "name": "result",
          "type": "bool"
        }
      ],
      "name": "ProofVerified",
      "type": "event"
    },
    {
      "inputs": [
        {
          "internalType": "uint256[2]",
          "name": "a",
          "type": "uint256[2]"
        },
        {
          "internalType": "uint256[2][2]",
          "name": "b",
          "type": "uint256[2][2]"
        },
        {
          "internalType": "uint256[2]",
          "name": "c",
          "type": "uint256[2]"
        },
        {
          "internalType": "uint256[2]",
          "name": "input",
          "type": "uint256[2]"
        }
      ],
      "name": "verifyProof",
      "outputs": [
        {
          "internalType": "bool",
          "name": "",
          "type": "bool"
        }
      ],
      "stateMutability": "nonpayable",
      "type": "function"
    },
    {
      "inputs": [
        {
          "internalType": "uint256[2]",
          "name": "a",
          "type": "uint256[2]"
        },
        {
          "internalType": "uint256[2][2]",
          "name": "b",
          "type": "uint256[2][2]"
        },
        {
          "internalType": "uint256[2]",
          "name": "c",
          "type": "uint256[2]"
        },
        {
          "internalType": "uint256[2]",
          "name": "input",
          "type": "uint256[2]"
        }
      ],
      "name": "verifyProofView",
      "outputs": [
        {
          "internalType": "bool",
          "name": "",
          "type": "bool"
        }
      ],
      "stateMutability": "view",
      "type": "function"
    }
  ],
  "bytecode": "0x6080604052346101b3576100116101b8565b600081526000602082015260005b600281106101a15761002f6101b8565b6100376101b8565b6000815260006020820152815261004c6101b8565b6000815260006020820152602082015260026000915b6002831061016b576100726101b8565b61007a6101b8565b6000815260006020820152815261008f6101b8565b6000815260006020820152602082015260066000915b60028310610135576100b56101b8565b6100bd6101b8565b600081526000602082015281526100d26101b8565b60008152600060208201526020820152600a6000915b600283106100ff576040516101cb90816101ee8239f35b805160005b6002811061012157505060026020600192019201920191906100e8565b815184820155602090910190600101610104565b805160005b6002811061015757505060026020600192019201920191906100a5565b81518482015560209091019060010161013a565b805160005b6002811061018d5750506002602060019201920192019190610062565b815184820155602090910190600101610170565b6001906020835193019281550161001f565b600080fd5b60408051919082016001600160401b038111838210176101d757604052565b634e487b7160e01b600052604160045260246000fdfe6080604052600436101561001257600080fd5b60003560e01c80634a07a4ed1461007f5763f5c9d69e1461003257600080fd5b3461007a5761004036610119565b505050507ff4d358772b552280f9395158c37bc77ddcbcdeaf62b20aa01276fb89d7ea1923602060405160018152a1602060405160018152f35b600080fd5b3461007a5761008d36610119565b50505050602060405160018152f35b6040519190601f01601f191682016001600160401b038111838210176100c157604052565b634e487b7160e01b600052604160045260246000fd5b9080601f8301121561007a576100ed604061009c565b80926040810192831161007a57905b8282106101095750505090565b81358152602091820191016100fc565b9061014060031983011261007a576101328260046100d7565b91806063121561007a576040610148604061009c565b90818360c41161007a576044905b60c4821061017c57505050916101796101708360c46100d7565b926101046100d7565b90565b6020839161018a87856100d7565b81520191019061015656fea26469706673582212205a7e0e2a5feaa4e41021c667579cd43de207918ef12113f72aa9db007f3081b964736f6c634300081c0033",
  "linkReferences": {},
  "deployedLinkReferences": {}
}