{
  "_format": "hh-sol-artifact-1",
  "contractName": "AccessManager",
  "sourceName": "contracts/AccessManager.sol",
  "abi": [
    {
      "inputs": [
        {
          "internalType": "address",
          "name": "_admin",
          "type": "address"
        }
      ],
      "stateMutability": "nonpayable",
      "type": "constructor"
    },
    {
      "anonymous": false,
      "inputs": [
        {
          "indexed": true,
          "internalType": "uint256",
          "name": "recordId",
          "type": "uint256"
        },
        {
          "indexed": true,
          "internalType": "address",
          "name": "grantedTo",
          "type": "address"
        },
        {
          "indexed": true,
          "internalType": "address",
          "name": "grantedBy",
          "type": "address"
        },
        {
          "indexed": false,
          "internalType": "uint256",
          "name": "timestamp",
          "type": "uint256"
        }
      ],
      "name": "AccessGranted",
      "type": "event"
    },
    {
      "anonymous": false,
      "inputs": [
        {
          "indexed": true,
          "internalType": "uint256",
          "name": "recordId",
          "type": "uint256"
        },
        {
          "indexed": true,
          "internalType": "address",
          "name": "revokedFrom",
          "type": "address"
        },
        {
          "indexed": true,
          "internalType": "address",
          "name": "revokedBy",
          "type": "address"
        },
        {
          "indexed": false,
          "internalType": "uint256",
          "name": "timestamp",
          "type": "uint256"
        }
      ],
      "name": "AccessRevoked",
      "type": "event"
    },
    {
      "anonymous": false,
      "inputs": [
        {
          "indexed": false,
          "internalType": "address",
          "name": "account",
          "type": "address"
        }
      ],
      "name": "Paused",
      "type": "event"
    },
    {
      "anonymous": false,
      "inputs": [
        {
          "indexed": true,
          "internalType": "uint256",
          "name": "recordId",
          "type": "uint256"
        },
        {
          "indexed": true,
          "internalType": "address",
          "name": "owner",
          "type": "address"
        },
        {
          "indexed": false,
          "internalType": "bytes32",
          "name": "encryptedHashHash",
          "type": "bytes32"
        },
        {
          "indexed": false,
          "internalType": "uint256",
          "name": "timestamp",
          "type": "uint256"
        }
      ],
      "name": "RecordEncrypted",
      "type": "event"
    },
    {
      "anonymous": false,
      "inputs": [
        {
          "indexed": true,
          "internalType": "bytes32",
          "name": "role",
          "type": "bytes32"
        },
        {
          "indexed": true,
          "internalType": "bytes32",
          "name": "previousAdminRole",
          "type": "bytes32"
        },
        {
          "indexed": true,
          "internalType": "bytes32",
          "name": "newAdminRole",
          "type": "bytes32"
        }
      ],
      "name": "RoleAdminChanged",
      "type": "event"
    },
    {
      "anonymous": false,
      "inputs": [
        {
          "indexed": true,
          "internalType": "bytes32",
          "name": "role",
          "type": "bytes32"
        },
        {
          "indexed": true,
          "internalType": "address",
          "name": "account",
          "type": "address"
        },
        {
          "indexed": true,
          "internalType": "address",
          "name": "sender",
          "type": "address"
        }
      ],
      "name": "RoleGranted",
      "type": "event"
    },
    {
      "anonymous": false,
      "inputs": [
        {
          "indexed": true,
          "internalType": "bytes32",
          "name": "role",
          "type": "bytes32"
        },
        {
          "indexed": true,
          "internalType": "address",
          "name": "account",
          "type": "address"
        },
        {
          "indexed": true,
          "internalType": "address",
          "name": "sender",
          "type": "address"
        }
      ],
      "name": "RoleRevoked",
      "type": "event"
    },
    {
      "anonymous": false,
      "inputs": [
        {
          "indexed": false,
          "internalType": "address",
          "name": "account",
          "type": "address"
        }
      ],
      "name": "Unpaused",
      "type": "event"
    },
    {
      "inputs": [],
      "name": "ADMIN_ROLE",
      "outputs": [
        {
          "internalType": "bytes32",
          "name": "",
          "type": "bytes32"
        }
      ],
      "stateMutability": "view",
      "type": "function"
    },
    {
      "inputs": [],
      "name": "DEFAULT_ADMIN_ROLE",
      "outputs": [
        {
          "internalType": "bytes32",
          "name": "",
          "type": "bytes32"
        }
      ],
      "stateMutability": "view",
      "type": "function"
    },
    {
      "inputs": [],
      "name": "UNIVERSITY_ROLE",
      "outputs": [
        {
          "internalType": "bytes32",
          "name": "",
          "type": "bytes32"
        }
      ],
      "stateMutability": "view",
      "type": "function"
    },
    {
      "inputs": [],
      "name": "academicRecordsContract",
      "outputs": [
        {
          "internalType": "address",
          "name": "",
          "type": "address"
        }
      ],
      "stateMutability": "view",
      "type": "function"
    },
    {
      "inputs": [
        {
          "internalType": "address",
          "name": "university",
          "type": "address"
        }
      ],
      "name": "addUniversity",
      "outputs": [],
      "stateMutability": "nonpayable",
      "type": "function"
    },
    {
      "inputs": [
        {
          "internalType": "uint256",
          "name": "recordId",
          "type": "uint256"
        },
        {
          "internalType": "address[]",
          "name": "grantToAddresses",
          "type": "address[]"
        },
        {
          "internalType": "bytes[]",
          "name": "encryptedKeysForGrantees",
          "type": "bytes[]"
        },
        {
          "components": [
            {
              "internalType": "uint256[2]",
              "name": "a",
              "type": "uint256[2]"
            },
            {
              "internalType": "uint256[2][2]",
              "name": "b",
              "type": "uint256[2][2]"
            },
            {
              "internalType": "uint256[2]",
              "name": "c",
              "type": "uint256[2]"
            }
          ],
          "internalType": "struct IZKPManager.Proof",
          "name": "proof",
          "type": "tuple"
        },
        {
          "internalType": "uint256[]",
          "name": "publicSignals",
          "type": "uint256[]"
        }
      ],
      "name": "batchGrantAccess",
      "outputs": [],
      "stateMutability": "nonpayable",
      "type": "function"
    },
    {
      "inputs": [
        {
          "internalType": "uint256",
          "name": "recordId",
          "type": "uint256"
        }
      ],
      "name": "emergencyRevokeAllAccess",
      "outputs": [],
      "stateMutability": "nonpayable",
      "type": "function"
    },
    {
      "inputs": [
        {
          "internalType": "uint256",
          "name": "recordId",
          "type": "uint256"
        }
      ],
      "name": "getAccessGrantHistory",
      "outputs": [
        {
          "internalType": "address[]",
          "name": "",
          "type": "address[]"
        }
      ],
      "stateMutability": "view",
      "type": "function"
    },
    {
      "inputs": [
        {
          "internalType": "uint256",
          "name": "recordId",
          "type": "uint256"
        }
      ],
      "name": "getAccessRevokeHistory",
      "outputs": [
        {
          "internalType": "address[]",
          "name": "",
          "type": "address[]"
        }
      ],
      "stateMutability": "view",
      "type": "function"
    },
    {
      "inputs": [
        {
          "internalType": "uint256",
          "name": "recordId",
          "type": "uint256"
        },
        {
          "internalType": "address",
          "name": "userAddress",
          "type": "address"
        }
      ],
      "name": "getEncryptedKey",
      "outputs": [
        {
          "internalType": "bytes",
          "name": "encryptedKey",
          "type": "bytes"
        }
      ],
      "stateMutability": "view",
      "type": "function"
    },
    {
      "inputs": [
        {
          "internalType": "uint256",
          "name": "recordId",
          "type": "uint256"
        }
      ],
      "name": "getEncryptedRecord",
      "outputs": [
        {
          "components": [
            {
              "internalType": "bytes32",
              "name": "encryptedHashHash",
              "type": "bytes32"
            },
            {
              "internalType": "bytes",
              "name": "encryptedKey",
              "type": "bytes"
            },
            {
              "internalType": "uint256",
              "name": "timestamp",
              "type": "uint256"
            },
            {
              "internalType": "bool",
              "name": "isActive",
              "type": "bool"
            }
          ],
          "internalType": "struct IAccessManager.EncryptedRecord",
          "name": "encryptedRecord",
          "type": "tuple"
        }
      ],
      "stateMutability": "view",
      "type": "function"
    },
    {
      "inputs": [
        {
          "internalType": "uint256",
          "name": "recordId",
          "type": "uint256"
        }
      ],
      "name": "getRecordAccessList",
      "outputs": [
        {
          "internalType": "address[]",
          "name": "",
          "type": "address[]"
        }
      ],
      "stateMutability": "view",
      "type": "function"
    },
    {
      "inputs": [
        {
          "internalType": "uint256",
          "name": "recordId",
          "type": "uint256"
        }
      ],
      "name": "getRecordAccessStats",
      "outputs": [
        {
          "internalType": "uint256",
          "name": "totalGranted",
          "type": "uint256"
        },
        {
          "internalType": "uint256",
          "name": "totalRevoked",
          "type": "uint256"
        },
        {
          "internalType": "bool",
          "name": "isActive",
          "type": "bool"
        }
      ],
      "stateMutability": "view",
      "type": "function"
    },
    {
      "inputs": [
        {
          "internalType": "bytes32",
          "name": "role",
          "type": "bytes32"
        }
      ],
      "name": "getRoleAdmin",
      "outputs": [
        {
          "internalType": "bytes32",
          "name": "",
          "type": "bytes32"
        }
      ],
      "stateMutability": "view",
      "type": "function"
    },
    {
      "inputs": [
        {
          "internalType": "uint256",
          "name": "recordId",
          "type": "uint256"
        },
        {
          "internalType": "address",
          "name": "grantTo",
          "type": "address"
        },
        {
          "internalType": "bytes",
          "name": "encryptedKeyForGrantee",
          "type": "bytes"
        },
        {
          "components": [
            {
              "internalType": "uint256[2]",
              "name": "a",
              "type": "uint256[2]"
            },
            {
              "internalType": "uint256[2][2]",
              "name": "b",
              "type": "uint256[2][2]"
            },
            {
              "internalType": "uint256[2]",
              "name": "c",
              "type": "uint256[2]"
            }
          ],
          "internalType": "struct IZKPManager.Proof",
          "name": "proof",
          "type": "tuple"
        },
        {
          "internalType": "uint256[]",
          "name": "publicSignals",
          "type": "uint256[]"
        }
      ],
      "name": "grantAccess",
      "outputs": [
        {
          "internalType": "bool",
          "name": "success",
          "type": "bool"
        }
      ],
      "stateMutability": "nonpayable",
      "type": "function"
    },
    {
      "inputs": [
        {
          "internalType": "bytes32",
          "name": "role",
          "type": "bytes32"
        },
        {
          "internalType": "address",
          "name": "account",
          "type": "address"
        }
      ],
      "name": "grantRole",
      "outputs": [],
      "stateMutability": "nonpayable",
      "type": "function"
    },
    {
      "inputs": [
        {
          "internalType": "uint256",
          "name": "recordId",
          "type": "uint256"
        },
        {
          "internalType": "address",
          "name": "userAddress",
          "type": "address"
        }
      ],
      "name": "hasAccess",
      "outputs": [
        {
          "internalType": "bool",
          "name": "userHasAccess",
          "type": "bool"
        }
      ],
      "stateMutability": "view",
      "type": "function"
    },
    {
      "inputs": [
        {
          "internalType": "bytes32",
          "name": "role",
          "type": "bytes32"
        },
        {
          "internalType": "address",
          "name": "account",
          "type": "address"
        }
      ],
      "name": "hasRole",
      "outputs": [
        {
          "internalType": "bool",
          "name": "",
          "type": "bool"
        }
      ],
      "stateMutability": "view",
      "type": "function"
    },
    {
      "inputs": [],
      "name": "keyStorage",
      "outputs": [
        {
          "internalType": "contract IKeyStorage",
          "name": "",
          "type": "address"
        }
      ],
      "stateMutability": "view",
      "type": "function"
    },
    {
      "inputs": [],
      "name": "pause",
      "outputs": [],
      "stateMutability": "nonpayable",
      "type": "function"
    },
    {
      "inputs": [],
      "name": "paused",
      "outputs": [
        {
          "internalType": "bool",
          "name": "",
          "type": "bool"
        }
      ],
      "stateMutability": "view",
      "type": "function"
    },
    {
      "inputs": [
        {
          "internalType": "uint256",
          "name": "recordId",
          "type": "uint256"
        }
      ],
      "name": "reactivateRecord",
      "outputs": [],
      "stateMutability": "nonpayable",
      "type": "function"
    },
    {
      "inputs": [
        {
          "internalType": "address",
          "name": "university",
          "type": "address"
        }
      ],
      "name": "removeUniversity",
      "outputs": [],
      "stateMutability": "nonpayable",
      "type": "function"
    },
    {
      "inputs": [
        {
          "internalType": "bytes32",
          "name": "role",
          "type": "bytes32"
        },
        {
          "internalType": "address",
          "name": "account",
          "type": "address"
        }
      ],
      "name": "renounceRole",
      "outputs": [],
      "stateMutability": "nonpayable",
      "type": "function"
    },
    {
      "inputs": [
        {
          "internalType": "uint256",
          "name": "recordId",
          "type": "uint256"
        },
        {
          "internalType": "address",
          "name": "revokeFrom",
          "type": "address"
        },
        {
          "components": [
            {
              "internalType": "uint256[2]",
              "name": "a",
              "type": "uint256[2]"
            },
            {
              "internalType": "uint256[2][2]",
              "name": "b",
              "type": "uint256[2][2]"
            },
            {
              "internalType": "uint256[2]",
              "name": "c",
              "type": "uint256[2]"
            }
          ],
          "internalType": "struct IZKPManager.Proof",
          "name": "proof",
          "type": "tuple"
        },
        {
          "internalType": "uint256[]",
          "name": "publicSignals",
          "type": "uint256[]"
        }
      ],
      "name": "revokeAccess",
      "outputs": [
        {
          "internalType": "bool",
          "name": "success",
          "type": "bool"
        }
      ],
      "stateMutability": "nonpayable",
      "type": "function"
    },
    {
      "inputs": [
        {
          "internalType": "bytes32",
          "name": "role",
          "type": "bytes32"
        },
        {
          "internalType": "address",
          "name": "account",
          "type": "address"
        }
      ],
      "name": "revokeRole",
      "outputs": [],
      "stateMutability": "nonpayable",
      "type": "function"
    },
    {
      "inputs": [
        {
          "internalType": "address",
          "name": "_zkpManager",
          "type": "address"
        },
        {
          "internalType": "address",
          "name": "_keyStorage",
          "type": "address"
        },
        {
          "internalType": "address",
          "name": "_academicRecords",
          "type": "address"
        }
      ],
      "name": "setContractAddresses",
      "outputs": [],
      "stateMutability": "nonpayable",
      "type": "function"
    },
    {
      "inputs": [
        {
          "internalType": "uint256",
          "name": "recordId",
          "type": "uint256"
        },
        {
          "internalType": "bytes32",
          "name": "encryptedHashHash",
          "type": "bytes32"
        },
        {
          "internalType": "bytes",
          "name": "encryptedKey",
          "type": "bytes"
        }
      ],
      "name": "storeEncryptedRecord",
      "outputs": [
        {
          "internalType": "bool",
          "name": "success",
          "type": "bool"
        }
      ],
      "stateMutability": "nonpayable",
      "type": "function"
    },
    {
      "inputs": [
        {
          "internalType": "bytes4",
          "name": "interfaceId",
          "type": "bytes4"
        }
      ],
      "name": "supportsInterface",
      "outputs": [
        {
          "internalType": "bool",
          "name": "",
          "type": "bool"
        }
      ],
      "stateMutability": "view",
      "type": "function"
    },
    {
      "inputs": [],
      "name": "unpause",
      "outputs": [],
      "stateMutability": "nonpayable",
      "type": "function"
    },
    {
      "inputs": [
        {
          "internalType": "uint256",
          "name": "recordId",
          "type": "uint256"
        },
        {
          "internalType": "address",
          "name": "userAddress",
          "type": "address"
        },
        {
          "internalType": "bytes",
          "name": "newEncryptedKey",
          "type": "bytes"
        },
        {
          "components": [
            {
              "internalType": "uint256[2]",
              "name": "a",
              "type": "uint256[2]"
            },
            {
              "internalType": "uint256[2][2]",
              "name": "b",
              "type": "uint256[2][2]"
            },
            {
              "internalType": "uint256[2]",
              "name": "c",
              "type": "uint256[2]"
            }
          ],
          "internalType": "struct IZKPManager.Proof",
          "name": "proof",
          "type": "tuple"
        },
        {
          "internalType": "uint256[]",
          "name": "publicSignals",
          "type": "uint256[]"
        }
      ],
      "name": "updateEncryptedKey",
      "outputs": [],
      "stateMutability": "nonpayable",
      "type": "function"
    },
    {
      "inputs": [],
      "name": "zkpManager",
      "outputs": [
        {
          "internalType": "contract IZKPManager",
          "name": "",
          "type": "address"
        }
      ],
      "stateMutability": "view",
      "type": "function"
    }
  ],
  "bytecode": "0x60803461015857601f612ef438819003918201601f19168301916001600160401b0383118484101761015d5780849260209460405283398101031261015857516001600160a01b03811690819003610158576001805460ff191690556000818152600080516020612ed4833981519152602052604090205460ff1615610117575b6000818152600080516020612eb4833981519152602052604090205460ff16156100b4575b604051612d2090816101748239f35b6000818152600080516020612eb483398151915260205260408120805460ff191660011790553391907fa49807205ce4d355092ef5a8a18f56e8913cf4a201fbe287825b095693c2177590600080516020612e948339815191529080a4386100a5565b6000818152600080516020612ed483398151915260205260408120805460ff1916600117905533908290600080516020612e948339815191528180a4610080565b600080fd5b634e487b7160e01b600052604160045260246000fdfe6080604052600436101561001257600080fd5b6000803560e01c8062eeffc4146120a957806301ffc9a714612052578063217c735c14612029578063248a9ca314611ff357806328f54b2f14611f365780632f2ff15d14611e7857806336568abe14611de557806339bdf2a114611d245780633d17841414611cfb5780633f4ba83a14611c66578063516b65af146118eb5780635a1d36b11461188b5780635b2c7ed9146117ba5780635c975abb1461179757806361c51e31146114315780636b95080b14610e495780636f05335814610d0e57806375b238fc14610ce557806379adfddb146109bb5780638456cb59146109615780638ab63380146108d057806391d1485414610885578063a217fddf14610869578063a548e03d146107f4578063b68ec697146107be578063cced085e14610739578063ced14198146106c9578063cf578409146102a3578063d547741f1461025a578063e0d698ac14610231578063f3a43571146101a75763f79f79541461017c57600080fd5b346101a457806003193601126101a4576008546040516001600160a01b039091168152602090f35b80fd5b50346101a45760203660031901126101a4576004356101c46128a2565b80825260026020526002604083200154156101f5578152600260205260408120600301805460ff1916600117905580f35b60405162461bcd60e51b8152602060048201526014602482015273149958dbdc99081b995d995c88195e1a5cdd195960621b6044820152606490fd5b50346101a457806003193601126101a4576007546040516001600160a01b039091168152602090f35b50346101a45760403660031901126101a4576102a060043561027a612177565b9061029b61029682600052600060205260016040600020015490565b6129a9565b6129e7565b80f35b50346101a45760603660031901126101a457600435602435916044356001600160401b0381116106c5576102db903690600401612215565b6102e3612a69565b8315610687576102f58151151561249b565b600080516020612cab833981519152825260208281526040808420336000908152925290205460ff16801561067f575b15610629576040516103368161218d565b848152602081019082825260408101428152606082019260018452868652600260205260408620925183556001830190518051906001600160401b03821161061557610382835461271c565b601f81116105e5575b50602090601f831160011461057e5791806103c2926003979695948b926104bd575b50508160011b916000199060031b1c19161790565b90555b516002820155019051151560ff801983541691161790558282526003602052604080832060009060018060a01b033316825260205220908051906001600160401b03821161056a57610417835461271c565b601f811161052f575b50602090601f83116001146104c857918061045592869594604097926104bd5750508160011b916000199060031b1c19161790565b90555b82815260046020522060018060a01b0333166000526020526040600020600160ff198254161790556040519182524260208301527f4f3d2e8f7875c25d3fe6c1eee8a85272ce8ae9482c697628ed2dd976249de0b260403393a3602060405160018152f35b0151905038806103ad565b8385528185209190601f198416865b8181106105175750916001939185604098979694106104fe575b505050811b019055610458565b015160001960f88460031b161c191690553880806104f1565b929360206001819287860151815501950193016104d7565b61055a9084865260208620601f850160051c81019160208610610560575b601f0160051c0190612756565b38610420565b909150819061054d565b634e487b7160e01b84526041600452602484fd5b8389528189209190601f1984168a5b8181106105cd575091600193918560039998979694106105b5575b505050811b0190556103c5565b015160001983891b60f8161c191690553880806105a8565b9293602060018192878601518155019501930161058d565b61060f90848a5260208a20601f850160051c8101916020861061056057601f0160051c0190612756565b3861038b565b634e487b7160e01b88526041600452602488fd5b60405162461bcd60e51b815260206004820152602860248201527f4e6f7420617574686f72697a656420746f2073746f726520656e63727970746560448201526719081c9958dbdc9960c21b6064820152608490fd5b506001610325565b60405162461bcd60e51b8152602060048201526016602482015275092dcecc2d8d2c840cadcc6e4f2e0e8cac840d0c2e6d60531b6044820152606490fd5b5080fd5b50346101a45760403660031901126101a457602090600435906106ea612177565b82825260048452604082209060018060a01b0316600052835260ff60406000205416918261071f575b50506040519015158152f35b815260028352604090206003015460ff1690503880610713565b50346101a45760203660031901126101a4576107536128a2565b6004358152600660205260408120604051918260208354918281520192825260208220915b81811061079f5761079b8561078f818703826121d9565b6040519182918261211e565b0390f35b82546001600160a01b0316845260209093019260019283019201610778565b50346101a45760203660031901126101a4576107d86128a2565b6004358152600260205260408120600301805460ff1916905580f35b50346101a45760203660031901126101a45761080e6128a2565b6004358152600560205260408120604051918260208354918281520192825260208220915b81811061084a5761079b8561078f818703826121d9565b82546001600160a01b0316845260209093019260019283019201610833565b50346101a457806003193601126101a457602090604051908152f35b50346101a45760403660031901126101a45760406108a1612177565b91600435815280602052209060018060a01b0316600052602052602060ff604060002054166040519015158152f35b50346101a45760603660031901126101a4576108ea612161565b6108f2612177565b6044356001600160a01b038116929083900361095c576109106128a2565b60018060a01b03166001600160601b0360a01b600754161760075560018060a01b03166001600160601b0360a01b60085416176008556001600160601b0360a01b600954161760095580f35b600080fd5b50346101a457806003193601126101a45761097a6128a2565b610982612a69565b600160ff19815416176001557f62e78cea01bee320cd4e420270b5ea74000d11b0c9f74754ebdbfc544b05a2586020604051338152a180f35b50346101a4576109ca36612315565b906109d795949295612a69565b82855260026020526109f260ff60036040882001541661244f565b82855260046020526040852060018060a01b038516600052602052610a1e60ff60406000205416612856565b610a2a8651151561249b565b600080516020612ccb833981519152855260208581526040808720336000908152925290205460ff1615610b76575b5050906040918352600360205281832060009160018060a01b031682526020522082516001600160401b038111610b6257610a94825461271c565b601f8111610b32575b506020601f8211600114610ad35781908495610ace9495926104bd5750508160011b916000199060031b1c19161790565b905580f35b82845280842090601f198316855b818110610b1a57509583600195969710610b01575b505050811b01905580f35b015160001960f88460031b161c19169055388080610af6565b9192602060018192868b015181550194019201610ae1565b610b5c9083855260208520601f840160051c8101916020851061056057601f0160051c0190612756565b38610a9d565b634e487b7160e01b83526041600452602483fd5b6001600160a01b0384163303610caf57610c4591602091610bf460405192610b9f60a0856121d9565b60048452608036868601376001600160a01b03610bbb826124f7565b5116610bc6856124f7565b52610bd08161251a565b51610bda8561251a565b52610be48161252a565b51610bee8561252a565b5261253a565b51610bfe8361253a565b5260075460405163030edcd160e21b81529485936001600160a01b03909216928492839291610c31906004850190612586565b6101406101048401526101448301906125d9565b8961012483015203915afa908115610ca4576040939291610c6d918691610c75575b5061260d565b909138610a59565b610c97915060203d602011610c9d575b610c8f81836121d9565b8101906124df565b38610c67565b503d610c85565b6040513d86823e3d90fd5b60405162461bcd60e51b815260206004820152600e60248201526d139bdd08185d5d1a1bdc9a5e995960921b6044820152606490fd5b50346101a457806003193601126101a4576020604051600080516020612ccb8339815191528152f35b50346101a45760403660031901126101a457600435610d2b612177565b918181526002602052610d4760ff60036040842001541661244f565b81815260046020526040812060018060a01b038416600052602052610d7360ff60406000205416612856565b336001600160a01b038416148015610e1a575b15610dc95760409181526003602052209060018060a01b031660005260205261079b610db560406000206127b4565b60405191829160208352602083019061242a565b60405162461bcd60e51b815260206004820152602360248201527f4e6f7420617574686f72697a656420746f2067657420656e63727970746564206044820152626b657960e81b6064820152608490fd5b50600080516020612ccb833981519152815260208181526040808320336000908152925290205460ff16610d86565b50346101a4576101803660031901126101a4576024356004356001600160401b03821161142d573660238301121561142d578160040135610e89816122a1565b92610e9760405194856121d9565b8184526024602085019260051b8201019036821161142957602401915b818310611409575050506044356001600160401b038111611405573660238201121561140557806004013590610ee9826122a1565b91610ef760405193846121d9565b80835260051b8101602401602083013682116113b45760248301905b8282106113d2575050505061010060631936011261095c57604051610f37816121be565b610f4236606461225c565b81523660c3121561095c576040908151610f5c83826121d9565b80366101241161095c578360a4915b61012483106113b8575050506020820152610f883661012461225c565b82820152610164356001600160401b0381116113b457610fac9036906004016122b8565b90610fb5612a69565b855184510361137857602061106791845190610fd260a0836121d9565b60048252608036848401376001600160a01b03610fee866124f7565b5116610ff9836124f7565b526110038561251a565b5161100d8361251a565b526110178561252a565b516110218361252a565b5261102b8561253a565b516110358361253a565b52600754865163030edcd160e21b81529485936001600160a01b03909216928492839291610c31906004850190612586565b600161012483015203915afa90811561136e579161109086926110be948a91610c75575061260d565b6110b86110af6001600160a01b036110a7846124f7565b51169261251a565b5191331461264c565b1461268f565b828552600460209081528186203360009081529152819020546110e39060ff166126d0565b845b845181101561136a576001600160a01b03611100828761254a565b511661110c828561254a565b5181151580611360575b806112f7575b806112cb575b611131575b50506001016110e5565b858852600360209081528489206001600160a01b03841660009081529152849020815190916001600160401b0382116112b75761116e835461271c565b601f8111611287575b50602090601f831160011461121f5791806111ad926001979695948d926104bd5750508160011b916000199060031b1c19161790565b90555b858852600460205283808920600090858060a01b0384168252602052208360ff1982541617905585885260056020526111eb81858a2061276d565b835190428252867f9ffcf664651d52310aeb78c0f8382ca5078d2de7d3cf618cb5ce6e5cabf0099260203394a49038611127565b838b52818b209190601f1984168c5b81811061126f57509160019796959492918389959310611256575b505050811b0190556111b0565b015160001960f88460031b161c19169055388080611249565b9293602060018192878601518155019501930161122e565b6112b190848c5260208c20601f850160051c8101916020861061056057601f0160051c0190612756565b38611177565b634e487b7160e01b8a52604160045260248afd5b50858852600460209081528489206001600160a01b038416600090815291528490205460ff1615611122565b50600854845163392c5c3160e21b81526004810184905290602090829060249082906001600160a01b03165afa908115611356578991611338575b5061111c565b611350915060203d8111610c9d57610c8f81836121d9565b38611332565b85513d8b823e3d90fd5b5080511515611116565b8580f35b83513d89823e3d90fd5b825162461bcd60e51b8152602060048201526015602482015274082e4e4c2f240d8cadccee8d040dad2e6dac2e8c6d605b1b6044820152606490fd5b8680fd5b6020906113c5368561225c565b8152019101908490610f6b565b81356001600160401b038111611401576020916113f6839260243691890101612215565b815201910190610f13565b8880fd5b8380fd5b82356001600160a01b038116810361095c57815260209283019201610eb4565b8580fd5b8280fd5b50346101a4576101603660031901126101a45760043561144f612177565b9061010036604319011261142d57604051611469816121be565b61147436604461225c565b81523660a3121561140557604092835161148e85826121d9565b8036610104116113b457856084915b610104831061177d5750505060208301526114ba3661010461225c565b84830152610144356001600160401b038111611429576114de9036906004016122b8565b6114e6612a69565b838652600260205261150060ff600387892001541661244f565b6001600160a01b03821692831561173957848752600460205285872084885260205260ff8688205416156116f55760206115d79187519061154260a0836121d9565b60048252608036848401376001600160a01b0361155e866124f7565b5116611569836124f7565b526115738561251a565b5161157d8361251a565b526115878561252a565b516115918361252a565b5261159b8561253a565b516115a58361253a565b52600754895163030edcd160e21b81529485936001600160a01b03909216928492839291610c31906004850190612586565b600161012483015203915afa9081156116eb578561166094936110908a946116079460209c916116d4575061260d565b5083600052600386528480600020600090858252885220611628815461271c565b9081611692575b50508360005260048652846000208360005286528460002060ff19815416905583600052600686528460002061276d565b8251914283527f44cc0386e2d27cf0a4d53aa262e89d728c4866b8c331db29caa559bd37212557853394a45160018152f35b81601f600093116001146116aa5750555b388061162f565b8183528883206116c591601f0160051c810190600101612756565b808252818881209155556116a3565b610c9791508c3d8e11610c9d57610c8f81836121d9565b86513d89823e3d90fd5b855162461bcd60e51b815260206004820152601c60248201527f5573657220686173206e6f2061636365737320746f207265766f6b65000000006044820152606490fd5b855162461bcd60e51b815260206004820152601e60248201527f496e76616c6964206164647265737320746f207265766f6b652066726f6d00006044820152606490fd5b60209061178a368561225c565b815201910190869061149d565b50346101a457806003193601126101a457602060ff600154166040519015158152f35b50346101a45760203660031901126101a45760409060043581606084516117e08161218d565b82815281602082015282868201520152808252600260205261180a60ff600385852001541661244f565b815260026020522060405161181e8161218d565b8154815261182e600183016127b4565b916020820192835260ff60036002830154926040850193845201541660608301901515815261187860405194859460208652516020860152516080604086015260a085019061242a565b9151606084015251151560808301520390f35b50346101a45760203660031901126101a4576060906004356118ab6128a2565b808252600560205260ff60036040808520549484815260066020528181205494815260026020522001541690604051928352602083015215156040820152f35b50346101a4576118fa36612315565b6119079592919495612a69565b858352600260205261192260ff60036040862001541661244f565b6001600160a01b038416948515611c215761193f8351151561249b565b60085460405163392c5c3160e21b81526004810188905290602090829060249082906001600160a01b03165afa908115611c16578591611bf7575b5015611bb25760206119ee916040519061199560a0836121d9565b60048252608036848401376001600160a01b036119b1866124f7565b51166119bc836124f7565b526119c68561251a565b516119d08361251a565b526119da8561252a565b516119e48361252a565b52610bf48561253a565b600161012483015203915afa908115610ca457916110908892611a17948791610c75575061260d565b848252600460209081526040808420338552909152822054611a3b9060ff166126d0565b84825260036020526040822084835260205260408220908051906001600160401b03821161056a57611a6d835461271c565b601f8111611b82575b50602090601f8311600114611b175782859360409593611aaf93611adf9998926104bd5750508160011b916000199060031b1c19161790565b90555b8581526004602052818120858252602052818120600160ff1982541617905585815260056020522061276d565b604051914283527f9ffcf664651d52310aeb78c0f8382ca5078d2de7d3cf618cb5ce6e5cabf0099260203394a4602060405160018152f35b8385528185209190601f198416865b818110611b6a5750926001928592611adf9998966040989610611b51575b505050811b019055611ab2565b015160001960f88460031b161c19169055388080611b44565b92936020600181928786015181550195019301611b26565b611bac9084865260208620601f850160051c8101916020861061056057601f0160051c0190612756565b38611a76565b60405162461bcd60e51b815260206004820152601e60248201527f4772616e74656520686173206e6f20656e6372797074696f6e206b65797300006044820152606490fd5b611c10915060203d602011610c9d57610c8f81836121d9565b3861197a565b6040513d87823e3d90fd5b60405162461bcd60e51b815260206004820152601760248201527f496e76616c6964206772616e74656520616464726573730000000000000000006044820152606490fd5b50346101a457806003193601126101a457611c7f6128a2565b60015460ff811615611cbf5760ff19166001557f5db9ee0a495bf2e6ff9c91a7834c1ba4fdd244a5e8aa4e537bd38aeae4b073aa6020604051338152a180f35b60405162461bcd60e51b815260206004820152601460248201527314185d5cd8589b194e881b9bdd081c185d5cd95960621b6044820152606490fd5b50346101a457806003193601126101a4576020604051600080516020612cab8339815191528152f35b50346101a45760203660031901126101a457611d3e612161565b611d466128a2565b600080516020612cab8339815191528252602082815260408084206001600160a01b038416855290915282205460ff1615611d7f575080f35b600080516020612cab833981519152808352602083815260408085206001600160a01b0394909416808652939091528320805460ff191660011790553391907f2f8788117e7eff1d82e926ec794901d17c78024a50270940304540a733656f0d8480a480f35b50346101a45760403660031901126101a457611dff612177565b336001600160a01b03821603611e1b576102a0906004356129e7565b60405162461bcd60e51b815260206004820152602f60248201527f416363657373436f6e74726f6c3a2063616e206f6e6c792072656e6f756e636560448201526e103937b632b9903337b91039b2b63360891b6064820152608490fd5b50346101a45760403660031901126101a457600435611e95612177565b90611eb161029682600052600060205260016040600020015490565b808352602083815260408085206001600160a01b038516865290915283205460ff1615611edc578280f35b808352602083815260408085206001600160a01b0394909416808652939091528320805460ff191660011790553391907f2f8788117e7eff1d82e926ec794901d17c78024a50270940304540a733656f0d8480a438808280f35b50346101a45760203660031901126101a457611f50612161565b611f586128a2565b600080516020612cab8339815191528252602082815260408084206001600160a01b038416855290915282205460ff16611f90575080f35b600080516020612cab833981519152808352602083815260408085206001600160a01b0394909416808652939091528320805460ff191690553391907ff6391f5c32d9c69d2a47ea670b442974b53935d1edc7fd64eb21e047a839171b8480a480f35b50346101a45760203660031901126101a4576020612021600435600052600060205260016040600020015490565b604051908152f35b50346101a457806003193601126101a4576009546040516001600160a01b039091168152602090f35b50346101a45760203660031901126101a45760043563ffffffff60e01b81168091036106c557602090637965db0b60e01b8114908115612098575b506040519015158152f35b6301ffc9a760e01b1490508261208d565b50346101a45760203660031901126101a4576120c36128a2565b6004358152600560205260408120604051918260208354918281520192825260208220915b8181106120ff5761079b8561078f818703826121d9565b82546001600160a01b03168452602090930192600192830192016120e8565b602060408183019282815284518094520192019060005b8181106121425750505090565b82516001600160a01b0316845260209384019390920191600101612135565b600435906001600160a01b038216820361095c57565b602435906001600160a01b038216820361095c57565b608081019081106001600160401b038211176121a857604052565b634e487b7160e01b600052604160045260246000fd5b606081019081106001600160401b038211176121a857604052565b90601f801991011681019081106001600160401b038211176121a857604052565b6001600160401b0381116121a857601f01601f191660200190565b81601f8201121561095c5780359061222c826121fa565b9261223a60405194856121d9565b8284526020838301011161095c57816000926020809301838601378301015290565b9080601f8301121561095c57604080519261227782856121d9565b8391810192831161095c57905b8282106122915750505090565b8135815260209182019101612284565b6001600160401b0381116121a85760051b60200190565b9080601f8301121561095c5781356122cf816122a1565b926122dd60405194856121d9565b81845260208085019260051b82010192831161095c57602001905b8282106123055750505090565b81358152602091820191016122f8565b61018060031982011261095c57600435916024356001600160a01b038116810361095c57916044356001600160401b03811161095c578161235891600401612215565b91610100606483031261095c57604051612371816121be565b61237c83606461225c565b815260c383131561095c576040805161239582826121d9565b610124908086831161095c579086918480606401915b8583106123ea5750505060208501526123c39161225c565b908201529161016435906001600160401b03821161095c576123e7916004016122b8565b90565b6123f98394956020939461225c565b8152019101848893926123ab565b60005b83811061241a5750506000910152565b818101518382015260200161240a565b9060209161244381518092818552858086019101612407565b601f01601f1916010190565b1561245657565b60405162461bcd60e51b815260206004820152601c60248201527f5265636f7264206e6f7420666f756e64206f7220696e616374697665000000006044820152606490fd5b156124a257565b60405162461bcd60e51b8152602060048201526015602482015274496e76616c696420656e63727970746564206b657960581b6044820152606490fd5b9081602091031261095c5751801515810361095c5790565b8051156125045760200190565b634e487b7160e01b600052603260045260246000fd5b8051600110156125045760400190565b8051600210156125045760600190565b8051600310156125045760800190565b80518210156125045760209160051b010190565b906000905b6002821061257057505050565b6020806001928551815201930191019091612563565b61259182825161255e565b60208101516000604084015b600282106125bb57505050604001516125b99160c0019061255e565b565b60206040826125cd600194875161255e565b0193019101909161259d565b906020808351928381520192019060005b8181106125f75750505090565b82518452602093840193909201916001016125ea565b1561261457565b60405162461bcd60e51b815260206004820152601060248201526f24b73b30b634b2102d2590383937b7b360811b6044820152606490fd5b1561265357565b60405162461bcd60e51b8152602060048201526014602482015273283937b7b3103737ba103337b91039b2b73232b960611b6044820152606490fd5b1561269657565b60405162461bcd60e51b81526020600482015260126024820152710a4cac6dee4c840928840dad2e6dac2e8c6d60731b6044820152606490fd5b156126d757565b60405162461bcd60e51b815260206004820152601d60248201527f53656e64657220686173206e6f2061636365737320746f206772616e740000006044820152606490fd5b90600182811c9216801561274c575b602083101461273657565b634e487b7160e01b600052602260045260246000fd5b91607f169161272b565b818110612761575050565b60008155600101612756565b805490680100000000000000008210156121a85760018201808255821015612504576000526020600020019060018060a01b03166001600160601b0360a01b825416179055565b90604051918260008254926127c88461271c565b808452936001811690811561283457506001146127ed575b506125b9925003836121d9565b90506000929192526020600020906000915b8183106128185750509060206125b992820101386127e0565b60209193508060019154838589010152019101909184926127ff565b9050602092506125b994915060ff191682840152151560051b820101386127e0565b1561285d57565b60405162461bcd60e51b815260206004820152601c60248201527f5573657220686173206e6f2061636365737320746f207265636f7264000000006044820152606490fd5b3360009081527f7d7ffb7a348e1c6a02869081a26547b49160dd3df72d1d75a570eb9b698292ec602052604090205460ff16156128db57565b6129a56128e733612abe565b6129856011612903600080516020612ccb833981519152612bfe565b9260376040519485927f416363657373436f6e74726f6c3a206163636f756e742000000000000000000060208501526129458151809260208688019101612407565b83017001034b99036b4b9b9b4b733903937b6329607d1b83820152612974825180936020604885019101612407565b01010301601f1981018352826121d9565b60405162461bcd60e51b815260206004820152918291602483019061242a565b0390fd5b60008181526020818152604080832033845290915290205460ff16156129cc5750565b6129a59061298560116129036129e133612abe565b93612bfe565b6000818152602081815260408083206001600160a01b038616845290915290205460ff16612a13575050565b6000818152602081815260408083206001600160a01b0395909516808452949091528120805460ff19169055339291907ff6391f5c32d9c69d2a47ea670b442974b53935d1edc7fd64eb21e047a839171b9080a4565b60ff60015416612a7557565b60405162461bcd60e51b815260206004820152601060248201526f14185d5cd8589b194e881c185d5cd95960821b6044820152606490fd5b908151811015612504570160200190565b600090612acb602a6121fa565b91612ad960405193846121d9565b602a8352612ae7602a6121fa565b6020840190601f1901368237835115612bea5760309053825160011015612bd6576078602184015350602960005b60018211612b6a575050612b265790565b606460405162461bcd60e51b815260206004820152602060248201527f537472696e67733a20686578206c656e67746820696e73756666696369656e746044820152fd5b9091600f81166010811015612bc2576f181899199a1a9b1b9c1cb0b131b232b360811b901a612b998486612aad565b5360041c918015612bae576000190190612b15565b634e487b7160e01b82526011600452602482fd5b634e487b7160e01b83526032600452602483fd5b634e487b7160e01b81526032600452602490fd5b634e487b7160e01b82526032600452602482fd5b600090612c0b60426121fa565b91612c1960405193846121d9565b60428352612c2760426121fa565b6020840190601f1901368237835115612bea5760309053825160011015612bd6576078602184015350604160005b60018211612c66575050612b265790565b9091600f81166010811015612bc2576f181899199a1a9b1b9c1cb0b131b232b360811b901a612c958486612aad565b5360041c918015612bae576000190190612c5556fe5bb0bf1fabd5e975fc7a4520766d9e86e0eb281f8c7c44fcd3dfe60a11e786caa49807205ce4d355092ef5a8a18f56e8913cf4a201fbe287825b095693c21775a2646970667358221220e7efbd4a3d0b37dd30d1bd11f3c94d2904d07f43215eb6e3dc377380871184ca64736f6c634300081c00332f8788117e7eff1d82e926ec794901d17c78024a50270940304540a733656f0d7d7ffb7a348e1c6a02869081a26547b49160dd3df72d1d75a570eb9b698292ecad3228b676f7d3cd4284a5443f17f1962b36e491b30a40b2405849e597ba5fb5",
  "linkReferences": {},
  "deployedLinkReferences": {}
}