{
  "_format": "hh-sol-artifact-1",
  "contractName": "KeyStorage",
  "sourceName": "contracts/KeyStorage.sol",
  "abi": [
    {
      "inputs": [
        {
          "internalType": "address",
          "name": "_admin",
          "type": "address"
        }
      ],
      "stateMutability": "nonpayable",
      "type": "constructor"
    },
    {
      "anonymous": false,
      "inputs": [
        {
          "indexed": true,
          "internalType": "address",
          "name": "userAddress",
          "type": "address"
        },
        {
          "indexed": false,
          "internalType": "string",
          "name": "publicKey",
          "type": "string"
        },
        {
          "indexed": false,
          "internalType": "uint256",
          "name": "timestamp",
          "type": "uint256"
        }
      ],
      "name": "KeyGenerated",
      "type": "event"
    },
    {
      "anonymous": false,
      "inputs": [
        {
          "indexed": true,
          "internalType": "address",
          "name": "userAddress",
          "type": "address"
        },
        {
          "indexed": false,
          "internalType": "string",
          "name": "newPublicKey",
          "type": "string"
        },
        {
          "indexed": false,
          "internalType": "uint256",
          "name": "timestamp",
          "type": "uint256"
        }
      ],
      "name": "KeyUpdated",
      "type": "event"
    },
    {
      "anonymous": false,
      "inputs": [
        {
          "indexed": false,
          "internalType": "address",
          "name": "account",
          "type": "address"
        }
      ],
      "name": "Paused",
      "type": "event"
    },
    {
      "anonymous": false,
      "inputs": [
        {
          "indexed": true,
          "internalType": "bytes32",
          "name": "role",
          "type": "bytes32"
        },
        {
          "indexed": true,
          "internalType": "bytes32",
          "name": "previousAdminRole",
          "type": "bytes32"
        },
        {
          "indexed": true,
          "internalType": "bytes32",
          "name": "newAdminRole",
          "type": "bytes32"
        }
      ],
      "name": "RoleAdminChanged",
      "type": "event"
    },
    {
      "anonymous": false,
      "inputs": [
        {
          "indexed": true,
          "internalType": "bytes32",
          "name": "role",
          "type": "bytes32"
        },
        {
          "indexed": true,
          "internalType": "address",
          "name": "account",
          "type": "address"
        },
        {
          "indexed": true,
          "internalType": "address",
          "name": "sender",
          "type": "address"
        }
      ],
      "name": "RoleGranted",
      "type": "event"
    },
    {
      "anonymous": false,
      "inputs": [
        {
          "indexed": true,
          "internalType": "bytes32",
          "name": "role",
          "type": "bytes32"
        },
        {
          "indexed": true,
          "internalType": "address",
          "name": "account",
          "type": "address"
        },
        {
          "indexed": true,
          "internalType": "address",
          "name": "sender",
          "type": "address"
        }
      ],
      "name": "RoleRevoked",
      "type": "event"
    },
    {
      "anonymous": false,
      "inputs": [
        {
          "indexed": false,
          "internalType": "address",
          "name": "account",
          "type": "address"
        }
      ],
      "name": "Unpaused",
      "type": "event"
    },
    {
      "inputs": [],
      "name": "ADMIN_ROLE",
      "outputs": [
        {
          "internalType": "bytes32",
          "name": "",
          "type": "bytes32"
        }
      ],
      "stateMutability": "view",
      "type": "function"
    },
    {
      "inputs": [],
      "name": "DEFAULT_ADMIN_ROLE",
      "outputs": [
        {
          "internalType": "bytes32",
          "name": "",
          "type": "bytes32"
        }
      ],
      "stateMutability": "view",
      "type": "function"
    },
    {
      "inputs": [
        {
          "internalType": "address[]",
          "name": "users",
          "type": "address[]"
        },
        {
          "internalType": "string[]",
          "name": "publicKeys",
          "type": "string[]"
        },
        {
          "internalType": "bytes32[]",
          "name": "zkpIdentities",
          "type": "bytes32[]"
        }
      ],
      "name": "batchRegisterKeys",
      "outputs": [],
      "stateMutability": "nonpayable",
      "type": "function"
    },
    {
      "inputs": [
        {
          "internalType": "address",
          "name": "userAddress",
          "type": "address"
        }
      ],
      "name": "deactivateKeys",
      "outputs": [],
      "stateMutability": "nonpayable",
      "type": "function"
    },
    {
      "inputs": [
        {
          "internalType": "address",
          "name": "userAddress",
          "type": "address"
        }
      ],
      "name": "emergencyResetKeys",
      "outputs": [],
      "stateMutability": "nonpayable",
      "type": "function"
    },
    {
      "inputs": [
        {
          "internalType": "string",
          "name": "publicKey",
          "type": "string"
        },
        {
          "internalType": "bytes32",
          "name": "zkpIdentity",
          "type": "bytes32"
        }
      ],
      "name": "generateKeys",
      "outputs": [
        {
          "internalType": "bool",
          "name": "success",
          "type": "bool"
        }
      ],
      "stateMutability": "nonpayable",
      "type": "function"
    },
    {
      "inputs": [],
      "name": "getAllRegisteredUsers",
      "outputs": [
        {
          "internalType": "address[]",
          "name": "",
          "type": "address[]"
        }
      ],
      "stateMutability": "view",
      "type": "function"
    },
    {
      "inputs": [
        {
          "internalType": "address[]",
          "name": "users",
          "type": "address[]"
        }
      ],
      "name": "getBatchUserKeys",
      "outputs": [
        {
          "components": [
            {
              "internalType": "string",
              "name": "publicKey",
              "type": "string"
            },
            {
              "internalType": "bytes32",
              "name": "zkpIdentity",
              "type": "bytes32"
            },
            {
              "internalType": "uint256",
              "name": "timestamp",
              "type": "uint256"
            },
            {
              "internalType": "bool",
              "name": "isActive",
              "type": "bool"
            }
          ],
          "internalType": "struct KeyStorage.UserKeys[]",
          "name": "",
          "type": "tuple[]"
        }
      ],
      "stateMutability": "view",
      "type": "function"
    },
    {
      "inputs": [
        {
          "internalType": "address",
          "name": "userAddress",
          "type": "address"
        }
      ],
      "name": "getPublicKey",
      "outputs": [
        {
          "internalType": "string",
          "name": "publicKey",
          "type": "string"
        }
      ],
      "stateMutability": "view",
      "type": "function"
    },
    {
      "inputs": [
        {
          "internalType": "bytes32",
          "name": "role",
          "type": "bytes32"
        }
      ],
      "name": "getRoleAdmin",
      "outputs": [
        {
          "internalType": "bytes32",
          "name": "",
          "type": "bytes32"
        }
      ],
      "stateMutability": "view",
      "type": "function"
    },
    {
      "inputs": [],
      "name": "getTotalRegisteredUsers",
      "outputs": [
        {
          "internalType": "uint256",
          "name": "",
          "type": "uint256"
        }
      ],
      "stateMutability": "view",
      "type": "function"
    },
    {
      "inputs": [
        {
          "internalType": "bytes32",
          "name": "zkpIdentity",
          "type": "bytes32"
        }
      ],
      "name": "getUserByZKPIdentity",
      "outputs": [
        {
          "internalType": "address",
          "name": "userAddress",
          "type": "address"
        }
      ],
      "stateMutability": "view",
      "type": "function"
    },
    {
      "inputs": [
        {
          "internalType": "address",
          "name": "userAddress",
          "type": "address"
        }
      ],
      "name": "getUserKeyDetails",
      "outputs": [
        {
          "components": [
            {
              "internalType": "string",
              "name": "publicKey",
              "type": "string"
            },
            {
              "internalType": "bytes32",
              "name": "zkpIdentity",
              "type": "bytes32"
            },
            {
              "internalType": "uint256",
              "name": "timestamp",
              "type": "uint256"
            },
            {
              "internalType": "bool",
              "name": "isActive",
              "type": "bool"
            }
          ],
          "internalType": "struct KeyStorage.UserKeys",
          "name": "",
          "type": "tuple"
        }
      ],
      "stateMutability": "view",
      "type": "function"
    },
    {
      "inputs": [
        {
          "internalType": "address",
          "name": "userAddress",
          "type": "address"
        }
      ],
      "name": "getZKPIdentity",
      "outputs": [
        {
          "internalType": "bytes32",
          "name": "zkpIdentity",
          "type": "bytes32"
        }
      ],
      "stateMutability": "view",
      "type": "function"
    },
    {
      "inputs": [
        {
          "internalType": "bytes32",
          "name": "role",
          "type": "bytes32"
        },
        {
          "internalType": "address",
          "name": "account",
          "type": "address"
        }
      ],
      "name": "grantRole",
      "outputs": [],
      "stateMutability": "nonpayable",
      "type": "function"
    },
    {
      "inputs": [
        {
          "internalType": "address",
          "name": "userAddress",
          "type": "address"
        }
      ],
      "name": "hasKeys",
      "outputs": [
        {
          "internalType": "bool",
          "name": "userHasKeys",
          "type": "bool"
        }
      ],
      "stateMutability": "view",
      "type": "function"
    },
    {
      "inputs": [
        {
          "internalType": "bytes32",
          "name": "role",
          "type": "bytes32"
        },
        {
          "internalType": "address",
          "name": "account",
          "type": "address"
        }
      ],
      "name": "hasRole",
      "outputs": [
        {
          "internalType": "bool",
          "name": "",
          "type": "bool"
        }
      ],
      "stateMutability": "view",
      "type": "function"
    },
    {
      "inputs": [
        {
          "internalType": "bytes32",
          "name": "zkpIdentity",
          "type": "bytes32"
        }
      ],
      "name": "isZKPIdentityAvailable",
      "outputs": [
        {
          "internalType": "bool",
          "name": "",
          "type": "bool"
        }
      ],
      "stateMutability": "view",
      "type": "function"
    },
    {
      "inputs": [],
      "name": "pause",
      "outputs": [],
      "stateMutability": "nonpayable",
      "type": "function"
    },
    {
      "inputs": [],
      "name": "paused",
      "outputs": [
        {
          "internalType": "bool",
          "name": "",
          "type": "bool"
        }
      ],
      "stateMutability": "view",
      "type": "function"
    },
    {
      "inputs": [
        {
          "internalType": "address",
          "name": "userAddress",
          "type": "address"
        }
      ],
      "name": "reactivateKeys",
      "outputs": [],
      "stateMutability": "nonpayable",
      "type": "function"
    },
    {
      "inputs": [
        {
          "internalType": "bytes32",
          "name": "role",
          "type": "bytes32"
        },
        {
          "internalType": "address",
          "name": "account",
          "type": "address"
        }
      ],
      "name": "renounceRole",
      "outputs": [],
      "stateMutability": "nonpayable",
      "type": "function"
    },
    {
      "inputs": [
        {
          "internalType": "bytes32",
          "name": "role",
          "type": "bytes32"
        },
        {
          "internalType": "address",
          "name": "account",
          "type": "address"
        }
      ],
      "name": "revokeRole",
      "outputs": [],
      "stateMutability": "nonpayable",
      "type": "function"
    },
    {
      "inputs": [
        {
          "internalType": "bytes4",
          "name": "interfaceId",
          "type": "bytes4"
        }
      ],
      "name": "supportsInterface",
      "outputs": [
        {
          "internalType": "bool",
          "name": "",
          "type": "bool"
        }
      ],
      "stateMutability": "view",
      "type": "function"
    },
    {
      "inputs": [],
      "name": "unpause",
      "outputs": [],
      "stateMutability": "nonpayable",
      "type": "function"
    },
    {
      "inputs": [
        {
          "internalType": "string",
          "name": "newPublicKey",
          "type": "string"
        },
        {
          "internalType": "bytes32",
          "name": "newZkpIdentity",
          "type": "bytes32"
        }
      ],
      "name": "updateKeys",
      "outputs": [
        {
          "internalType": "bool",
          "name": "success",
          "type": "bool"
        }
      ],
      "stateMutability": "nonpayable",
      "type": "function"
    },
    {
      "inputs": [
        {
          "internalType": "string",
          "name": "publicKey",
          "type": "string"
        }
      ],
      "name": "validatePublicKey",
      "outputs": [
        {
          "internalType": "bool",
          "name": "",
          "type": "bool"
        }
      ],
      "stateMutability": "pure",
      "type": "function"
    }
  ],
  "bytecode": "0x60803461015857601f61253538819003918201601f19168301916001600160401b0383118484101761015d5780849260209460405283398101031261015857516001600160a01b03811690819003610158576001805460ff191690556000818152600080516020612515833981519152602052604090205460ff1615610117575b60008181526000805160206124f5833981519152602052604090205460ff16156100b4575b60405161236190816101748239f35b60008181526000805160206124f583398151915260205260408120805460ff191660011790553391907fa49807205ce4d355092ef5a8a18f56e8913cf4a201fbe287825b095693c21775906000805160206124d58339815191529080a4386100a5565b600081815260008051602061251583398151915260205260408120805460ff19166001179055339082906000805160206124d58339815191528180a4610080565b600080fd5b634e487b7160e01b600052604160045260246000fdfe6080604052600436101561001257600080fd5b60003560e01c80630174a8331461148757806301ffc9a714611431578063044628ee146113425780630ab934a4146111f85780631c5f18c0146111d7578063248a9ca3146111a25780632f2ff15d146110e657806336568abe14611054578063397388af14610f805780633f4ba83a14610eec5780635c975abb14610ec9578063754efcc914610eab57806375b238fc14610e705780638456cb5914610e17578063857cdbb814610dac5780638889423c14610d1857806391d1485414610ccb578063927d417d14610c97578063a217fddf14610c7b578063ace6106014610c46578063c1c93bad14610ad4578063d36772a2146107ef578063d4aa167114610399578063d547741f14610352578063e47f0490146101d0578063e4b170c41461018e5763ee176fcc1461014557600080fd5b34610189576020366003190112610189576004356001600160401b0381116101895761017f61017a6020923690600401611564565b611e4a565b6040519015158152f35b600080fd5b34610189576020366003190112610189576001600160a01b036101af6114e1565b166000526002602052602060ff600360406000200154166040519015158152f35b34610189576020366003190112610189576101e96114e1565b6101f1611f22565b6001600160a01b031660008181526002602052604090206003015460ff1661031757806000526002602052600260406000200154156102dc5780600052600260205260016040600020015480600052600360205260018060a01b0360406000205416610297578160005260026020526003604060002001600160ff1982541617905560005260036020526040600020906001600160601b0360a01b825416179055600080f35b60405162461bcd60e51b815260206004820152601b60248201527f5a4b50206964656e7469747920616c726561647920696e2075736500000000006044820152606490fd5b60405162461bcd60e51b815260206004820152601360248201527255736572206e6576657220686164206b65797360681b6044820152606490fd5b60405162461bcd60e51b81526020600482015260136024820152724b65797320616c72656164792061637469766560681b6044820152606490fd5b34610189576040366003190112610189576103976004356103716114f7565b9061039261038d82600052600060205260016040600020015490565b61203b565b6120bd565b005b34610189576060366003190112610189576004356001600160401b038111610189576103c9903690600401611671565b602435906001600160401b03821161018957366023830112156101895781600401356103f48161165a565b926104026040519485611528565b8184526024602085019260051b820101903682116101895760248101925b8284106107c05760443585876001600160401b0383116101895736602384011215610189578260040135926104548461165a565b936104626040519586611528565b8085526024602086019160051b8301019136831161018957602401905b8282106107b057505050610491611f22565b8151815180911490816107a5575b50156107685760005b8251811015610397576001600160a01b036104c38285611e25565b511680600052600260205260ff6003604060002001541661075f576104e88286611e25565b516000908152600360205260409020546001600160a01b031661075f5761050f8284611e25565b5161051a8387611e25565b51604051916105288361150d565b82526020820190815260408201428152606083019160018352846000526002602052604060002093518051906001600160401b0382116107495761056c865461172b565b601f811161070c575b50602090601f831160011461069a57926105b5836105d9979460019b9a99979460039760009261068f575b50508160011b916000199060031b1c19161790565b85555b518885015551600284015551151591019060ff801983541691151516179055565b6105e38287611e25565b5160005260036020526040600020838060a01b0382166001600160601b0360a01b82541617905580600052600560205260ff6040600020541615610669575b7f3bc034cb22747e85b1e520c7004ea3a0988b1bc6e2bf7b118280fe3e2ca8ba9861065f6106508487611e25565b51604051918291429083611893565b0390a25b016104a8565b61067281611814565b80600052600560205260406000208360ff19825416179055610622565b015190508f806105a0565b90601f1983169187600052816000209260005b8181106106f457509360019a99989693600396938c93836105d99b98106106dc575b505050811b0185556105b8565b015160001983891b60f8161c191690558e80806106cf565b929360206001819287860151815501950193016106ad565b61073990876000526020600020601f850160051c8101916020861061073f575b601f0160051c0190611765565b8b610575565b909150819061072c565b634e487b7160e01b600052604160045260246000fd5b50600190610663565b60405162461bcd60e51b8152602060048201526015602482015274082e4e4c2f240d8cadccee8d040dad2e6dac2e8c6d605b1b6044820152606490fd5b90508351148461049f565b813581526020918201910161047f565b83356001600160401b038111610189576020916107e4839260243691870101611564565b815201930192610420565b34610189576107fd366115ab565b906000610808612079565b338152600260205260ff60036040832001541615610a8f5761082c8251151561177c565b6108378315156117c8565b828152600360205260408120546001600160a01b0316158015610a71575b15610a1a57338082526002602081815260408085206001015485526003825280852080546001600160a01b0319169055928452528120825193906001600160401b038511610a06576108a7815461172b565b601f81116109d6575b506020601f86116001146109735785604095966108e2928691610968575b508160011b916000199060031b1c19161790565b90555b3382526002602052806001848420015533825260026020524260028484200155815260036020522060018060a01b0333166001600160601b0360a01b8254161790557f3400289392e6878be46800c29a96ad7160a3f1a75e184681655db961fd97b67f604051806109593394429083611893565b0390a260206001604051908152f35b9050870151886108ce565b81845280842090601f198716855b8181106109be575091879160409798600194106109a5575b5050811b0190556108e5565b88015160001960f88460031b161c191690558780610999565b9192602060018192868b015181550194019201610981565b610a009082855260208520601f880160051c8101916020891061073f57601f0160051c0190611765565b856108b0565b634e487b7160e01b83526041600452602483fd5b60405162461bcd60e51b815260206004820152602960248201527f5a4b50206964656e7469747920616c7265616479207573656420627920616e6f6044820152683a3432b9103ab9b2b960b91b6064820152608490fd5b50828152600360205260408120546001600160a01b03163314610855565b60405162461bcd60e51b815260206004820152601960248201527f5573657220686173206e6f206578697374696e67206b657973000000000000006044820152606490fd5b34610189576020366003190112610189576004356001600160401b03811161018957610b04903690600401611671565b610b0c611f22565b805190610b188261165a565b91610b266040519384611528565b808352610b35601f199161165a565b0160005b818110610c2f57505060005b8151811015610bc7576001906001600160a01b03610b638285611e25565b51166000526002602052604060002060ff600360405192610b838461150d565b610b8c81611d5c565b84528581015460208501526002810154604085015201541615156060820152610bb58286611e25565b52610bc08185611e25565b5001610b45565b826040518091602082016020835281518091526040830190602060408260051b8601019301916000905b828210610c0057505050500390f35b91936001919395506020610c1f8192603f198a82030186528851611624565b9601920192018594939192610bf1565b602090610c3a611e00565b82828701015201610b39565b34610189576020366003190112610189576004356000526003602052602060018060a01b036040600020541615604051908152f35b3461018957600036600319011261018957602060405160008152f35b34610189576020366003190112610189576004356000526003602052602060018060a01b0360406000205416604051908152f35b3461018957604036600319011261018957610ce46114f7565b600435600052600060205260406000209060018060a01b0316600052602052602060ff604060002054166040519015158152f35b3461018957602036600319011261018957610d316114e1565b610d39611e00565b50610d42611f22565b60018060a01b03166000526002602052610da8604060002060ff600360405192610d6b8461150d565b610d7481611d5c565b8452600181015460208501526002810154604085015201541615156060820152604051918291602083526020830190611624565b0390f35b34610189576020366003190112610189576001600160a01b03610dcd6114e1565b16806000526002602052610deb60ff600360406000200154166116df565b6000526002602052610da8610e036040600020611d5c565b6040519182916020835260208301906115ff565b3461018957600036600319011261018957610e30611f22565b610e38612079565b600160ff19815416176001557f62e78cea01bee320cd4e420270b5ea74000d11b0c9f74754ebdbfc544b05a2586020604051338152a1005b346101895760003660031901126101895760206040517fa49807205ce4d355092ef5a8a18f56e8913cf4a201fbe287825b095693c217758152f35b34610189576000366003190112610189576020600454604051908152f35b3461018957600036600319011261018957602060ff600154166040519015158152f35b3461018957600036600319011261018957610f05611f22565b60015460ff811615610f445760ff19166001557f5db9ee0a495bf2e6ff9c91a7834c1ba4fdd244a5e8aa4e537bd38aeae4b073aa6020604051338152a1005b60405162461bcd60e51b815260206004820152601460248201527314185d5cd8589b194e881b9bdd081c185d5cd95960621b6044820152606490fd5b3461018957600036600319011261018957610f99611f22565b6040518060206004549283815201809260046000527f8a35acfbc15ff81a39ae7d344fd709f28e8600b4aa8c65c6b64bfe7fe36bd19b9060005b8181106110355750505081610fe9910382611528565b6040519182916020830190602084525180915260408301919060005b818110611013575050500390f35b82516001600160a01b0316845285945060209384019390920191600101611005565b82546001600160a01b0316845260209093019260019283019201610fd3565b346101895760403660031901126101895761106d6114f7565b336001600160a01b0382160361108957610397906004356120bd565b60405162461bcd60e51b815260206004820152602f60248201527f416363657373436f6e74726f6c3a2063616e206f6e6c792072656e6f756e636560448201526e103937b632b9903337b91039b2b63360891b6064820152608490fd5b34610189576040366003190112610189576004356111026114f7565b9061111e61038d82600052600060205260016040600020015490565b6000818152602081815260408083206001600160a01b038616845290915290205460ff161561114957005b6000818152602081815260408083206001600160a01b0395909516808452949091528120805460ff19166001179055339291907f2f8788117e7eff1d82e926ec794901d17c78024a50270940304540a733656f0d9080a4005b346101895760203660031901126101895760206111cf600435600052600060205260016040600020015490565b604051908152f35b3461018957602061017f6111ea366115ab565b906111f3612079565b6118af565b34610189576020366003190112610189576001600160a01b036112196114e1565b16803314801561130a575b156112bb5780600052600260205260ff600360406000200154161561127e5760009081526002602090815260408083206003818101805460ff191690556001909101548452909152902080546001600160a01b0319169055005b60405162461bcd60e51b81526020600482015260156024820152744b65797320616c726561647920696e61637469766560581b6044820152606490fd5b60405162461bcd60e51b815260206004820152602160248201527f4e6f7420617574686f72697a656420746f2064656163746976617465206b65796044820152607360f81b6064820152608490fd5b503360009081527f7d7ffb7a348e1c6a02869081a26547b49160dd3df72d1d75a570eb9b698292ec602052604090205460ff16611224565b346101895760203660031901126101895761135b6114e1565b611363611f22565b6001600160a01b031660008181526002602052604090206003015460ff166113fd575b600052600260205260006003604082206113a0815461172b565b806113ba575b508260018201558260028201550155600080f35b601f81116001146113d057508281555b836113a6565b818452602084206113ec91601f0160051c810190600101611765565b8083528260208120818355556113ca565b806000526002602052600160406000200154600052600360205260406000206001600160601b0360a01b8154169055611386565b346101895760203660031901126101895760043563ffffffff60e01b811680910361018957602090637965db0b60e01b8114908115611476575b506040519015158152f35b6301ffc9a760e01b1490508261146b565b34610189576020366003190112610189576001600160a01b036114a86114e1565b168060005260026020526114c660ff600360406000200154166116df565b60005260026020526020600160406000200154604051908152f35b600435906001600160a01b038216820361018957565b602435906001600160a01b038216820361018957565b608081019081106001600160401b0382111761074957604052565b90601f801991011681019081106001600160401b0382111761074957604052565b6001600160401b03811161074957601f01601f191660200190565b81601f820112156101895780359061157b82611549565b926115896040519485611528565b8284526020838301011161018957816000926020809301838601378301015290565b604060031982011261018957600435906001600160401b038211610189576115d591600401611564565b9060243590565b60005b8381106115ef5750506000910152565b81810151838201526020016115df565b90602091611618815180928185528580860191016115dc565b601f01601f1916010190565b9060608061163b84516080855260808501906115ff565b9360208101516020850152604081015160408501520151151591015290565b6001600160401b0381116107495760051b60200190565b9080601f83011215610189578135906116898261165a565b926116976040519485611528565b82845260208085019360051b82010191821161018957602001915b8183106116bf5750505090565b82356001600160a01b0381168103610189578152602092830192016116b2565b156116e657565b60405162461bcd60e51b815260206004820152601760248201527f5573657220686173206e6f20616374697665206b6579730000000000000000006044820152606490fd5b90600182811c9216801561175b575b602083101461174557565b634e487b7160e01b600052602260045260246000fd5b91607f169161173a565b818110611770575050565b60008155600101611765565b1561178357565b60405162461bcd60e51b815260206004820152601a60248201527f5075626c6963206b65792063616e6e6f7420626520656d7074790000000000006044820152606490fd5b156117cf57565b60405162461bcd60e51b815260206004820152601b60248201527f5a4b50206964656e746974792063616e6e6f74206265207a65726f00000000006044820152606490fd5b6004546801000000000000000081101561074957600181018060045581101561187d5760046000527f8a35acfbc15ff81a39ae7d344fd709f28e8600b4aa8c65c6b64bfe7fe36bd19b0180546001600160a01b0319166001600160a01b03909216919091179055565b634e487b7160e01b600052603260045260246000fd5b9291906118aa6020916040865260408601906115ff565b930152565b9190916118be8151151561177c565b8215156118ca816117c8565b6000848152600360205260409020546001600160a01b0316611d175733600052600260205260ff60036040600020015416611b005750909160405161190e8161150d565b8281526020810182815260408201428152606083019160018352336000526002602052604060002093518051906001600160401b03821161074957611953865461172b565b601f8111611ace575b50602090601f8311600114611a5f5782600395936119bc9897959361199793600092611a545750508160011b916000199060031b1c19161790565b85555b51600185015551600284015551151591019060ff801983541691151516179055565b600090815260036020908152604080832080546001600160a01b031916339081179091558352600590915290205460ff1615611a2d575b7f3bc034cb22747e85b1e520c7004ea3a0988b1bc6e2bf7b118280fe3e2ca8ba9860405180611a253394429083611893565b0390a2600190565b611a3633611814565b3360005260056020526040600020600160ff198254161790556119f3565b0151905038806105a0565b90601f1983169187600052816000209260005b818110611ab65750926001928592600398966119bc9b9a989610611a9e575b505050811b01855561199a565b015160001983891b60f8161c19169055388080611a91565b92936020600181928786015181550195019301611a72565b611afa90876000526020600020601f850160051c8101916020861061073f57601f0160051c0190611765565b3861195c565b600090611b0b612079565b338252600260205260ff60036040842001541615610a8f57611b3890611b338451151561177c565b6117c8565b838152600360205260408120546001600160a01b0316158015611cf9575b15610a1a57338082526002602081815260408085206001015485526003825280852080546001600160a01b0319169055928452528120825194906001600160401b038611610a0657611ba8815461172b565b601f8111611cc9575b50602095601f8111600114611c665780611be49160409697988691611c5b57508160011b916000199060031b1c19161790565b90555b3382526002602052806001848420015533825260026020524260028484200155815260036020522060018060a01b0333166001600160601b0360a01b8254161790557f3400289392e6878be46800c29a96ad7160a3f1a75e184681655db961fd97b67f60405180611a253394429083611893565b9050870151386108ce565b818452868420601f198216855b818110611cb15750906040969798836001949310611c98575b5050811b019055611be7565b88015160001960f88460031b161c191690553880611c8c565b878a015183556020998a019960019093019201611c73565b611cf39082855260208520601f890160051c81019160208a1061073f57601f0160051c0190611765565b38611bb1565b50838152600360205260408120546001600160a01b03163314611b56565b60405162461bcd60e51b815260206004820152601960248201527f5a4b50206964656e7469747920616c72656164792075736564000000000000006044820152606490fd5b9060405191826000825492611d708461172b565b8084529360018116908115611dde5750600114611d97575b50611d9592500383611528565b565b90506000929192526020600020906000915b818310611dc2575050906020611d959282010138611d88565b6020919350806001915483858901015201910190918492611da9565b905060209250611d9594915060ff191682840152151560051b82010138611d88565b60405190611e0d8261150d565b60006060838181528260208201528260408201520152565b805182101561187d5760209160051b010190565b90815181101561187d570160200190565b805160408110908115611f16575b50611f105760005b8151811015611f09576001600160f81b0319611e7c8284611e39565b5116600360fc1b8110159081611efa575b8115611ed6575b8115611eb0575b5015611ea957600101611e60565b5050600090565b606160f81b811015915081611ec7575b5038611e9b565b603360f91b1015905038611ec0565b9050604160f81b81101580611eec575b90611e94565b50602360f91b811115611ee6565b603960f81b8111159150611e8d565b5050600190565b50600090565b61020091501138611e58565b3360009081527f7d7ffb7a348e1c6a02869081a26547b49160dd3df72d1d75a570eb9b698292ec602052604090205460ff1615611f5b57565b612037611f673361213f565b6120176011611f957fa49807205ce4d355092ef5a8a18f56e8913cf4a201fbe287825b095693c2177561227f565b9260376040519485927f416363657373436f6e74726f6c3a206163636f756e74200000000000000000006020850152611fd781518092602086880191016115dc565b83017001034b99036b4b9b9b4b733903937b6329607d1b838201526120068251809360206048850191016115dc565b01010301601f198101835282611528565b60405162461bcd60e51b81526020600482015291829160248301906115ff565b0390fd5b60008181526020818152604080832033845290915290205460ff161561205e5750565b612037906120176011611f956120733361213f565b9361227f565b60ff6001541661208557565b60405162461bcd60e51b815260206004820152601060248201526f14185d5cd8589b194e881c185d5cd95960821b6044820152606490fd5b6000818152602081815260408083206001600160a01b038616845290915290205460ff166120e9575050565b6000818152602081815260408083206001600160a01b0395909516808452949091528120805460ff19169055339291907ff6391f5c32d9c69d2a47ea670b442974b53935d1edc7fd64eb21e047a839171b9080a4565b60009061214c602a611549565b9161215a6040519384611528565b602a8352612168602a611549565b6020840190601f190136823783511561226b5760309053825160011015612257576078602184015350602960005b600182116121eb5750506121a75790565b606460405162461bcd60e51b815260206004820152602060248201527f537472696e67733a20686578206c656e67746820696e73756666696369656e746044820152fd5b9091600f81166010811015612243576f181899199a1a9b1b9c1cb0b131b232b360811b901a61221a8486611e39565b5360041c91801561222f576000190190612196565b634e487b7160e01b82526011600452602482fd5b634e487b7160e01b83526032600452602483fd5b634e487b7160e01b81526032600452602490fd5b634e487b7160e01b82526032600452602482fd5b60009061228c6042611549565b9161229a6040519384611528565b604283526122a86042611549565b6020840190601f190136823783511561226b5760309053825160011015612257576078602184015350604160005b600182116122e75750506121a75790565b9091600f81166010811015612243576f181899199a1a9b1b9c1cb0b131b232b360811b901a6123168486611e39565b5360041c91801561222f5760001901906122d656fea26469706673582212208c8dfd49e2cbecf6a1057b6ba1eb3d2ec203957ab4e9a0b9c837b25eced386b864736f6c634300081c00332f8788117e7eff1d82e926ec794901d17c78024a50270940304540a733656f0d7d7ffb7a348e1c6a02869081a26547b49160dd3df72d1d75a570eb9b698292ecad3228b676f7d3cd4284a5443f17f1962b36e491b30a40b2405849e597ba5fb5",
  "linkReferences": {},
  "deployedLinkReferences": {}
}