{
  "_format": "hh-sol-artifact-1",
  "contractName": "KeyStorage",
  "sourceName": "contracts/KeyStorage.sol",
  "abi": [
    {
      "inputs": [],
      "stateMutability": "nonpayable",
      "type": "constructor"
    },
    {
      "inputs": [
        {
          "internalType": "address",
          "name": "admin",
          "type": "address"
        },
        {
          "internalType": "uint256",
          "name": "recordId",
          "type": "uint256"
        }
      ],
      "name": "EmergencyAccessLimitExceeded",
      "type": "error"
    },
    {
      "inputs": [],
      "name": "InvalidAuthorizedUsers",
      "type": "error"
    },
    {
      "inputs": [],
      "name": "InvalidKeyData",
      "type": "error"
    },
    {
      "inputs": [
        {
          "internalType": "uint256",
          "name": "recordId",
          "type": "uint256"
        }
      ],
      "name": "KeyAlreadyExists",
      "type": "error"
    },
    {
      "inputs": [
        {
          "internalType": "uint256",
          "name": "recordId",
          "type": "uint256"
        }
      ],
      "name": "KeyNotFound",
      "type": "error"
    },
    {
      "inputs": [
        {
          "internalType": "uint256",
          "name": "recordId",
          "type": "uint256"
        },
        {
          "internalType": "uint256",
          "name": "nextRotationTime",
          "type": "uint256"
        }
      ],
      "name": "KeyRotationNotDue",
      "type": "error"
    },
    {
      "inputs": [
        {
          "internalType": "uint256",
          "name": "count",
          "type": "uint256"
        },
        {
          "internalType": "uint256",
          "name": "max",
          "type": "uint256"
        }
      ],
      "name": "TooManyAuthorizedUsers",
      "type": "error"
    },
    {
      "inputs": [
        {
          "internalType": "uint256",
          "name": "recordId",
          "type": "uint256"
        },
        {
          "internalType": "address",
          "name": "accessor",
          "type": "address"
        }
      ],
      "name": "UnauthorizedKeyAccess",
      "type": "error"
    },
    {
      "anonymous": false,
      "inputs": [
        {
          "indexed": true,
          "internalType": "address",
          "name": "admin",
          "type": "address"
        },
        {
          "indexed": true,
          "internalType": "address",
          "name": "addedBy",
          "type": "address"
        }
      ],
      "name": "AdminAdded",
      "type": "event"
    },
    {
      "anonymous": false,
      "inputs": [
        {
          "indexed": true,
          "internalType": "address",
          "name": "admin",
          "type": "address"
        },
        {
          "indexed": true,
          "internalType": "address",
          "name": "removedBy",
          "type": "address"
        }
      ],
      "name": "AdminRemoved",
      "type": "event"
    },
    {
      "anonymous": false,
      "inputs": [
        {
          "indexed": true,
          "internalType": "uint256",
          "name": "recordId",
          "type": "uint256"
        },
        {
          "indexed": true,
          "internalType": "address",
          "name": "admin",
          "type": "address"
        },
        {
          "indexed": false,
          "internalType": "string",
          "name": "reason",
          "type": "string"
        }
      ],
      "name": "EmergencyKeyAccess",
      "type": "event"
    },
    {
      "anonymous": false,
      "inputs": [
        {
          "indexed": true,
          "internalType": "uint256",
          "name": "recordId",
          "type": "uint256"
        },
        {
          "indexed": true,
          "internalType": "address",
          "name": "updatedBy",
          "type": "address"
        },
        {
          "indexed": false,
          "internalType": "uint256",
          "name": "newAuthorizedUsersCount",
          "type": "uint256"
        }
      ],
      "name": "KeyAccessUpdated",
      "type": "event"
    },
    {
      "anonymous": false,
      "inputs": [
        {
          "indexed": true,
          "internalType": "uint256",
          "name": "recordId",
          "type": "uint256"
        },
        {
          "indexed": true,
          "internalType": "address",
          "name": "accessor",
          "type": "address"
        }
      ],
      "name": "KeyAccessed",
      "type": "event"
    },
    {
      "anonymous": false,
      "inputs": [
        {
          "indexed": true,
          "internalType": "uint256",
          "name": "recordId",
          "type": "uint256"
        },
        {
          "indexed": true,
          "internalType": "address",
          "name": "rotatedBy",
          "type": "address"
        }
      ],
      "name": "KeyRotated",
      "type": "event"
    },
    {
      "anonymous": false,
      "inputs": [
        {
          "indexed": true,
          "internalType": "uint256",
          "name": "recordId",
          "type": "uint256"
        },
        {
          "indexed": true,
          "internalType": "address",
          "name": "issuer",
          "type": "address"
        },
        {
          "indexed": false,
          "internalType": "uint256",
          "name": "authorizedUsersCount",
          "type": "uint256"
        }
      ],
      "name": "KeyStored",
      "type": "event"
    },
    {
      "anonymous": false,
      "inputs": [
        {
          "indexed": false,
          "internalType": "address",
          "name": "account",
          "type": "address"
        }
      ],
      "name": "Paused",
      "type": "event"
    },
    {
      "anonymous": false,
      "inputs": [
        {
          "indexed": true,
          "internalType": "bytes32",
          "name": "role",
          "type": "bytes32"
        },
        {
          "indexed": true,
          "internalType": "bytes32",
          "name": "previousAdminRole",
          "type": "bytes32"
        },
        {
          "indexed": true,
          "internalType": "bytes32",
          "name": "newAdminRole",
          "type": "bytes32"
        }
      ],
      "name": "RoleAdminChanged",
      "type": "event"
    },
    {
      "anonymous": false,
      "inputs": [
        {
          "indexed": true,
          "internalType": "bytes32",
          "name": "role",
          "type": "bytes32"
        },
        {
          "indexed": true,
          "internalType": "address",
          "name": "account",
          "type": "address"
        },
        {
          "indexed": true,
          "internalType": "address",
          "name": "sender",
          "type": "address"
        }
      ],
      "name": "RoleGranted",
      "type": "event"
    },
    {
      "anonymous": false,
      "inputs": [
        {
          "indexed": true,
          "internalType": "bytes32",
          "name": "role",
          "type": "bytes32"
        },
        {
          "indexed": true,
          "internalType": "address",
          "name": "account",
          "type": "address"
        },
        {
          "indexed": true,
          "internalType": "address",
          "name": "sender",
          "type": "address"
        }
      ],
      "name": "RoleRevoked",
      "type": "event"
    },
    {
      "anonymous": false,
      "inputs": [
        {
          "indexed": true,
          "internalType": "address",
          "name": "university",
          "type": "address"
        },
        {
          "indexed": false,
          "internalType": "string",
          "name": "name",
          "type": "string"
        }
      ],
      "name": "UniversityNameUpdated",
      "type": "event"
    },
    {
      "anonymous": false,
      "inputs": [
        {
          "indexed": false,
          "internalType": "address",
          "name": "account",
          "type": "address"
        }
      ],
      "name": "Unpaused",
      "type": "event"
    },
    {
      "inputs": [],
      "name": "ADMIN_ROLE",
      "outputs": [
        {
          "internalType": "bytes32",
          "name": "",
          "type": "bytes32"
        }
      ],
      "stateMutability": "view",
      "type": "function"
    },
    {
      "inputs": [],
      "name": "DEFAULT_ADMIN_ROLE",
      "outputs": [
        {
          "internalType": "bytes32",
          "name": "",
          "type": "bytes32"
        }
      ],
      "stateMutability": "view",
      "type": "function"
    },
    {
      "inputs": [],
      "name": "MAX_AUTHORIZED_USERS",
      "outputs": [
        {
          "internalType": "uint256",
          "name": "",
          "type": "uint256"
        }
      ],
      "stateMutability": "view",
      "type": "function"
    },
    {
      "inputs": [],
      "name": "MAX_EMERGENCY_ACCESS_PER_ADMIN",
      "outputs": [
        {
          "internalType": "uint256",
          "name": "",
          "type": "uint256"
        }
      ],
      "stateMutability": "view",
      "type": "function"
    },
    {
      "inputs": [],
      "name": "SUPER_ADMIN",
      "outputs": [
        {
          "internalType": "address",
          "name": "",
          "type": "address"
        }
      ],
      "stateMutability": "view",
      "type": "function"
    },
    {
      "inputs": [],
      "name": "SUPER_ADMIN_ROLE",
      "outputs": [
        {
          "internalType": "bytes32",
          "name": "",
          "type": "bytes32"
        }
      ],
      "stateMutability": "view",
      "type": "function"
    },
    {
      "inputs": [],
      "name": "UNIVERSITY_ROLE",
      "outputs": [
        {
          "internalType": "bytes32",
          "name": "",
          "type": "bytes32"
        }
      ],
      "stateMutability": "view",
      "type": "function"
    },
    {
      "inputs": [
        {
          "internalType": "address",
          "name": "adminAddress",
          "type": "address"
        }
      ],
      "name": "addAdmin",
      "outputs": [],
      "stateMutability": "nonpayable",
      "type": "function"
    },
    {
      "inputs": [
        {
          "internalType": "address",
          "name": "universityAddress",
          "type": "address"
        },
        {
          "internalType": "string",
          "name": "name",
          "type": "string"
        }
      ],
      "name": "addUniversity",
      "outputs": [],
      "stateMutability": "nonpayable",
      "type": "function"
    },
    {
      "inputs": [
        {
          "internalType": "uint256",
          "name": "recordId",
          "type": "uint256"
        },
        {
          "internalType": "string",
          "name": "reason",
          "type": "string"
        }
      ],
      "name": "emergencyKeyAccess",
      "outputs": [
        {
          "internalType": "bytes",
          "name": "",
          "type": "bytes"
        }
      ],
      "stateMutability": "nonpayable",
      "type": "function"
    },
    {
      "inputs": [],
      "name": "getAllAdmins",
      "outputs": [
        {
          "internalType": "address[]",
          "name": "",
          "type": "address[]"
        }
      ],
      "stateMutability": "view",
      "type": "function"
    },
    {
      "inputs": [],
      "name": "getAllUniversities",
      "outputs": [
        {
          "internalType": "address[]",
          "name": "",
          "type": "address[]"
        }
      ],
      "stateMutability": "view",
      "type": "function"
    },
    {
      "inputs": [
        {
          "internalType": "uint256",
          "name": "recordId",
          "type": "uint256"
        }
      ],
      "name": "getAuthorizedUsers",
      "outputs": [
        {
          "internalType": "address[]",
          "name": "",
          "type": "address[]"
        }
      ],
      "stateMutability": "view",
      "type": "function"
    },
    {
      "inputs": [
        {
          "internalType": "uint256",
          "name": "recordId",
          "type": "uint256"
        },
        {
          "internalType": "address",
          "name": "accessor",
          "type": "address"
        }
      ],
      "name": "getEncryptedKey",
      "outputs": [
        {
          "internalType": "bytes",
          "name": "",
          "type": "bytes"
        }
      ],
      "stateMutability": "view",
      "type": "function"
    },
    {
      "inputs": [
        {
          "internalType": "uint256",
          "name": "recordId",
          "type": "uint256"
        }
      ],
      "name": "getEncryptedKeyWithLogging",
      "outputs": [
        {
          "internalType": "bytes",
          "name": "",
          "type": "bytes"
        }
      ],
      "stateMutability": "nonpayable",
      "type": "function"
    },
    {
      "inputs": [
        {
          "internalType": "uint256",
          "name": "recordId",
          "type": "uint256"
        }
      ],
      "name": "getKeyMetadata",
      "outputs": [
        {
          "internalType": "address",
          "name": "issuer",
          "type": "address"
        },
        {
          "internalType": "uint256",
          "name": "createdAt",
          "type": "uint256"
        },
        {
          "internalType": "uint256",
          "name": "lastRotated",
          "type": "uint256"
        },
        {
          "internalType": "uint256",
          "name": "authorizedCount",
          "type": "uint256"
        }
      ],
      "stateMutability": "view",
      "type": "function"
    },
    {
      "inputs": [
        {
          "internalType": "bytes32",
          "name": "role",
          "type": "bytes32"
        }
      ],
      "name": "getRoleAdmin",
      "outputs": [
        {
          "internalType": "bytes32",
          "name": "",
          "type": "bytes32"
        }
      ],
      "stateMutability": "view",
      "type": "function"
    },
    {
      "inputs": [
        {
          "internalType": "address",
          "name": "universityAddress",
          "type": "address"
        }
      ],
      "name": "getUniversityName",
      "outputs": [
        {
          "internalType": "string",
          "name": "",
          "type": "string"
        }
      ],
      "stateMutability": "view",
      "type": "function"
    },
    {
      "inputs": [
        {
          "internalType": "uint256",
          "name": "recordId",
          "type": "uint256"
        },
        {
          "internalType": "address",
          "name": "user",
          "type": "address"
        }
      ],
      "name": "getUserAccessCount",
      "outputs": [
        {
          "internalType": "uint256",
          "name": "",
          "type": "uint256"
        }
      ],
      "stateMutability": "view",
      "type": "function"
    },
    {
      "inputs": [
        {
          "internalType": "bytes32",
          "name": "role",
          "type": "bytes32"
        },
        {
          "internalType": "address",
          "name": "account",
          "type": "address"
        }
      ],
      "name": "grantRole",
      "outputs": [],
      "stateMutability": "nonpayable",
      "type": "function"
    },
    {
      "inputs": [
        {
          "internalType": "uint256",
          "name": "recordId",
          "type": "uint256"
        },
        {
          "internalType": "address",
          "name": "accessor",
          "type": "address"
        }
      ],
      "name": "hasKeyAccess",
      "outputs": [
        {
          "internalType": "bool",
          "name": "",
          "type": "bool"
        }
      ],
      "stateMutability": "view",
      "type": "function"
    },
    {
      "inputs": [
        {
          "internalType": "bytes32",
          "name": "role",
          "type": "bytes32"
        },
        {
          "internalType": "address",
          "name": "account",
          "type": "address"
        }
      ],
      "name": "hasRole",
      "outputs": [
        {
          "internalType": "bool",
          "name": "",
          "type": "bool"
        }
      ],
      "stateMutability": "view",
      "type": "function"
    },
    {
      "inputs": [
        {
          "internalType": "uint256",
          "name": "recordId",
          "type": "uint256"
        }
      ],
      "name": "isKeyRotationDue",
      "outputs": [
        {
          "internalType": "bool",
          "name": "",
          "type": "bool"
        }
      ],
      "stateMutability": "view",
      "type": "function"
    },
    {
      "inputs": [
        {
          "internalType": "uint256",
          "name": "recordId",
          "type": "uint256"
        }
      ],
      "name": "keyExists",
      "outputs": [
        {
          "internalType": "bool",
          "name": "",
          "type": "bool"
        }
      ],
      "stateMutability": "view",
      "type": "function"
    },
    {
      "inputs": [],
      "name": "keyRotationInterval",
      "outputs": [
        {
          "internalType": "uint256",
          "name": "",
          "type": "uint256"
        }
      ],
      "stateMutability": "view",
      "type": "function"
    },
    {
      "inputs": [],
      "name": "pause",
      "outputs": [],
      "stateMutability": "nonpayable",
      "type": "function"
    },
    {
      "inputs": [],
      "name": "paused",
      "outputs": [
        {
          "internalType": "bool",
          "name": "",
          "type": "bool"
        }
      ],
      "stateMutability": "view",
      "type": "function"
    },
    {
      "inputs": [
        {
          "internalType": "address",
          "name": "adminAddress",
          "type": "address"
        }
      ],
      "name": "removeAdmin",
      "outputs": [],
      "stateMutability": "nonpayable",
      "type": "function"
    },
    {
      "inputs": [
        {
          "internalType": "address",
          "name": "universityAddress",
          "type": "address"
        }
      ],
      "name": "removeUniversity",
      "outputs": [],
      "stateMutability": "nonpayable",
      "type": "function"
    },
    {
      "inputs": [
        {
          "internalType": "bytes32",
          "name": "role",
          "type": "bytes32"
        },
        {
          "internalType": "address",
          "name": "account",
          "type": "address"
        }
      ],
      "name": "renounceRole",
      "outputs": [],
      "stateMutability": "nonpayable",
      "type": "function"
    },
    {
      "inputs": [
        {
          "internalType": "bytes32",
          "name": "role",
          "type": "bytes32"
        },
        {
          "internalType": "address",
          "name": "account",
          "type": "address"
        }
      ],
      "name": "revokeRole",
      "outputs": [],
      "stateMutability": "nonpayable",
      "type": "function"
    },
    {
      "inputs": [
        {
          "internalType": "uint256",
          "name": "recordId",
          "type": "uint256"
        },
        {
          "internalType": "bytes",
          "name": "newEncryptedKey",
          "type": "bytes"
        }
      ],
      "name": "rotateKey",
      "outputs": [],
      "stateMutability": "nonpayable",
      "type": "function"
    },
    {
      "inputs": [
        {
          "internalType": "uint256",
          "name": "newInterval",
          "type": "uint256"
        }
      ],
      "name": "setKeyRotationInterval",
      "outputs": [],
      "stateMutability": "nonpayable",
      "type": "function"
    },
    {
      "inputs": [
        {
          "internalType": "address",
          "name": "universityAddress",
          "type": "address"
        },
        {
          "internalType": "string",
          "name": "name",
          "type": "string"
        }
      ],
      "name": "setUniversityName",
      "outputs": [],
      "stateMutability": "nonpayable",
      "type": "function"
    },
    {
      "inputs": [
        {
          "internalType": "uint256",
          "name": "recordId",
          "type": "uint256"
        },
        {
          "internalType": "bytes",
          "name": "encryptedKey",
          "type": "bytes"
        },
        {
          "internalType": "address[]",
          "name": "authorizedUsers",
          "type": "address[]"
        }
      ],
      "name": "storeEncryptedKey",
      "outputs": [],
      "stateMutability": "nonpayable",
      "type": "function"
    },
    {
      "inputs": [
        {
          "internalType": "bytes4",
          "name": "interfaceId",
          "type": "bytes4"
        }
      ],
      "name": "supportsInterface",
      "outputs": [
        {
          "internalType": "bool",
          "name": "",
          "type": "bool"
        }
      ],
      "stateMutability": "view",
      "type": "function"
    },
    {
      "inputs": [],
      "name": "unpause",
      "outputs": [],
      "stateMutability": "nonpayable",
      "type": "function"
    },
    {
      "inputs": [
        {
          "internalType": "uint256",
          "name": "recordId",
          "type": "uint256"
        },
        {
          "internalType": "address[]",
          "name": "newAuthorizedUsers",
          "type": "address[]"
        }
      ],
      "name": "updateKeyAccess",
      "outputs": [],
      "stateMutability": "nonpayable",
      "type": "function"
    }
  ],
  "bytecode": "0x60a0604052346102af573360808190526000908152600080516020612efb833981519152602052604090205460ff161561026f575b336000908152600080516020612edb833981519152602052604090205460ff161561020d575b336000908152600080516020612ebb833981519152602052604090205460ff16156101ab575b6003546801000000000000000081101561019557600181018060035581101561017f577fc2575a0e9e593c00f959f8c92f12db2869c3395a3b0502d05e2516446f71f85b0180546001600160a01b0319163390811790915560009081526004602052604090819020805460ff199081166001179091556005805490911690556301e1338060085551612be690816102b5823960805181818161038b015281816103d7015281816105a00152818161075901528181610a1601528181610c9601528181610e2e01528181610ea601528181610f1d0152818161164a015281816117c301528181611b5501528181611cbe01528181612102015261283c0152f35b634e487b7160e01b600052603260045260246000fd5b634e487b7160e01b600052604160045260246000fd5b336000818152600080516020612ebb83398151915260205260408120805460ff1916600117905581907fa49807205ce4d355092ef5a8a18f56e8913cf4a201fbe287825b095693c2177590600080516020612e9b8339815191529080a4610080565b336000818152600080516020612edb83398151915260205260408120805460ff1916600117905581907f7613a25ecc738585a232ad50a301178f12b3ba8887d13e138b523c4269c4768990600080516020612e9b8339815191529080a461005a565b336000818152600080516020612efb83398151915260205260408120805460ff191660011790558190600080516020612e9b8339815191528180a4610034565b600080fdfe608080604052600436101561001357600080fd5b60003560e01c90816301ffc9a714612158575080630963174314611f42578063167f56d814611efa5780631785f53c14611ca3578063193e0b4e14611c7d57806320f8849814611ba9578063248a9ca314611b8357806328f54b2f146119475780632f2ff15d146118ac57806336568abe1461181a5780633d178414146117f15780633f44b9d3146116785780633f4ba83a1461158a5780634460bdd61461154f57806349e31004146114dc5780635c975abb146114b95780636cade3c61461149d5780636dff00a8146111545780636f053358146110cc5780637048027514610efe57806375b238fc14610ed55780637c7c7c3c14610e9057806382d1eac814610e5c5780638456cb5914610da8578063882f040314610d4957806391d1485414610cfc578063a217fddf14610ce0578063a5cf3d1814610cc4578063a908dc6214610a44578063baf9077b14610807578063ca248619146107df578063d35e058614610687578063d547741f1461064f578063d5e9c9c414610631578063e9523c97146105ce578063ed914af3146104ca578063f597d994146104575763f5e5331b146101c157600080fd5b34610452576101cf3661227c565b6101da92919261267b565b81600052600660205260ff600460406000200154161561043d57801561042d5781600052600660205260406000209060018060a01b0360018301541633141580610406575b806103d3575b6103ba57336000908152600080516020612b11833981519152602052604090205460ff161580610387575b610351575b6001600160401b03811161033b57610277816102718454612470565b846125e6565b6000601f82116001146102d857819061029b9394956000926102cd575b50506125ab565b81555b60034291015533907fc58f187461d8fe0baa4f6561df3f4bdf3df79e1876f863105bb80b344bdd413a600080a3005b013590503880610294565b601f198216948382526020822091805b878110610323575083600195969710610309575b505050811b01815561029e565b0135600019600384901b60f8161c191690553880806102fc565b909260206001819286860135815501940191016102e8565b634e487b7160e01b600052604160045260246000fd5b61036260038301546008549061262b565b80421061036f5750610255565b8363a2bc187d60e01b60005260045260245260446000fd5b50337f00000000000000000000000000000000000000000000000000000000000000006001600160a01b03161415610250565b826307c3fbe160e21b6000526004523360245260446000fd5b50337f00000000000000000000000000000000000000000000000000000000000000006001600160a01b03161415610225565b50336000908152600080516020612b11833981519152602052604090205460ff161561021f565b6279e89f60e41b60005260046000fd5b5063055e3ac560e31b60005260045260246000fd5b600080fd5b34610452576000366003190112610452576040516002548082526020820190600260005260206000209060005b8181106104ab576104a78561049b8187038261252d565b604051918291826122ee565b0390f35b82546001600160a01b0316845260209093019260019283019201610484565b3461045257602036600319011261045257336000908152600080516020612b1183398151915260205260409020546004359060ff16801561059c575b61050f90612564565b620151808110610562576305a39a80811161052957600855005b60405162461bcd60e51b8152602060048201526011602482015270496e74657276616c20746f6f206c6f6e6760781b6044820152606490fd5b60405162461bcd60e51b8152602060048201526012602482015271125b9d195c9d985b081d1bdbc81cda1bdc9d60721b6044820152606490fd5b50337f00000000000000000000000000000000000000000000000000000000000000006001600160a01b031614610506565b34610452576000366003190112610452576040516003548082526020820190600360005260206000209060005b818110610612576104a78561049b8187038261252d565b82546001600160a01b03168452602090930192600192830192016105fb565b34610452576000366003190112610452576020600854604051908152f35b346104525760403660031901126104525761068560043561066e6121db565b9061068061067b82612550565b61287a565b612756565b005b346104525760203660031901126104525760043580600052600660205260ff60046040600020015416156107cb57806000526006602052604060002060018060a01b03600182015416331415806107af575b80610788575b80610755575b61073c57600601604051908054808352602083019160005260206000209060005b81811061071d576104a78561049b8187038261252d565b82546001600160a01b0316845260209093019260019283019201610706565b506307c3fbe160e21b6000526004523360245260446000fd5b50337f00000000000000000000000000000000000000000000000000000000000000006001600160a01b031614156106e5565b50336000908152600080516020612b11833981519152602052604090205460ff16156106df565b5033600090815260058201602052604090205460ff16156106d9565b63055e3ac560e31b60005260045260246000fd5b346104525760203660031901126104525760206107fd600435612638565b6040519015158152f35b3461045257610815366122af565b336000908152600080516020612b1183398151915260205260409020549192909160ff168015610a12575b8015610a00575b156109be576001600160a01b0381166000908152600080516020612af1833981519152602052604090205460ff161561097b576001600160a01b03166000818152600160205260409020929091906001600160401b03821161033b576108b7826108b18654612470565b866125e6565b600093601f831160011461090b576108e98380600080516020612b918339815191529697600091610900575b506125ab565b90555b6108fb604051928392836125be565b0390a2005b9050840135886108e3565b80855260208520601f19841695805b878110610963575084600080516020612b91833981519152969710610949575b5050600183811b0190556108ec565b830135600019600386901b60f8161c19169055858061093a565b9091602060018192858801358155019301910161091a565b60405162461bcd60e51b815260206004820152601b60248201527a41646472657373206973206e6f74206120756e697665727369747960281b6044820152606490fd5b60405162461bcd60e51b815260206004820152601a6024820152794e6f7420617574686f72697a656420746f20736574206e616d6560301b6044820152606490fd5b50336001600160a01b03821614610847565b50337f00000000000000000000000000000000000000000000000000000000000000006001600160a01b031614610840565b3461045257610a52366122af565b336000908152600080516020612b11833981519152602052604090205491929160ff168015610c92575b610a8590612564565b6001600160a01b0382166000908152600080516020612af1833981519152602052604090205460ff16610c56576001600160a01b0382166000908152600080516020612af1833981519152602052604090205460ff1615610bfc575b6001600160a01b03821660008181526001602052604090209093906001600160401b03831161033b57610b1e83610b188354612470565b836125e6565b600083601f8111600114610b995780610b3e9260009161090057506125ab565b90555b600254600160401b81101561033b57600080516020612b9183398151915293610b758260016108ec9401600255600261237d565b9080546001600160a01b0360039390931b83811b199091169290931690921b179055565b50818152602081209084601f198116825b818110610be1575010610bc7575b5050600183811b019055610b41565b830135600019600386901b60f8161c191690558580610bb8565b86840135855560019094019360209384019388935001610baa565b6001600160a01b0382166000818152600080516020612af183398151915260205260408120805460ff19166001179055339190600080516020612b3183398151915290600080516020612ad18339815191529080a4610ae1565b60405162461bcd60e51b8152602060048201526014602482015273416c7265616479206120756e697665727369747960601b6044820152606490fd5b50337f00000000000000000000000000000000000000000000000000000000000000006001600160a01b031614610a7c565b3461045257600036600319011261045257602060405160648152f35b3461045257600036600319011261045257602060405160008152f35b3461045257604036600319011261045257610d156121db565b600435600052600060205260406000209060018060a01b0316600052602052602060ff604060002054166040519015158152f35b34610452576020366003190112610452576001600160a01b03610d6a6121f1565b1660005260016020526104a7610d8d610d946040600020604051928380926124aa565b038261252d565b60405191829160208352602083019061222a565b3461045257600036600319011261045257336000908152600080516020612b11833981519152602052604090205460ff168015610e2a575b610de990612564565b610df161267b565b600160ff1960055416176005557f62e78cea01bee320cd4e420270b5ea74000d11b0c9f74754ebdbfc544b05a2586020604051338152a1005b50337f00000000000000000000000000000000000000000000000000000000000000006001600160a01b031614610de0565b34610452576020366003190112610452576004356000526006602052602060ff600460406000200154166040519015158152f35b34610452576000366003190112610452576040517f00000000000000000000000000000000000000000000000000000000000000006001600160a01b03168152602090f35b34610452576000366003190112610452576020604051600080516020612b718339815191528152f35b3461045257602036600319011261045257610f176121f1565b610f4b337f00000000000000000000000000000000000000000000000000000000000000006001600160a01b0316146123f5565b6001600160a01b0381166000908152600080516020612b11833981519152602052604090205460ff16611094576001600160a01b0381166000908152600080516020612b11833981519152602052604090205460ff161561103a575b6001600160a01b03811660008181526004602052604090205490919060ff1615610ff6575b5033907fbf3f493c772c8c283fd124432c2d0f539ab343faa04258fe88e52912d36b102b600080a3005b60035490600160401b82101561033b57610b7582600161101b9401600355600361237d565b8060005260046020526040600020600160ff1982541617905581610fcc565b6001600160a01b0381166000818152600080516020612b1183398151915260205260408120805460ff19166001179055339190600080516020612b7183398151915290600080516020612ad18339815191529080a4610fa7565b60405162461bcd60e51b815260206004820152601060248201526f20b63932b0b23c9030b71030b236b4b760811b6044820152606490fd5b34610452576040366003190112610452576004356110e86121db565b81600052600660205260ff600460406000200154161561043d5781600052600660205260406000209161111b82826127c6565b15611135576040516104a790610d9481610d8d81886124aa565b6307c3fbe160e21b60005260045260018060a01b031660245260446000fd5b34610452576060366003190112610452576004356024356001600160401b0381116104525761118790369060040161224f565b9091906044356001600160401b038111610452576111a99036906004016121ab565b336000908152600080516020612af18339815191526020526040902054909491929060ff16156113d5576111db61267b565b83600052600660205260ff600460406000200154166113c057801561042d57841580156113b6575b61139c5761121185846126bf565b6000848152600660205260409020916001600160401b03821161033b576112428261123c8554612470565b856125e6565b600090601f83116001146113385761126492916000918361132d5750506125ab565b81555b600181810180546001600160a01b031916331790554260028301819055600383015560048201805460ff19169091179055600581019160069091019060005b8581106112dd5785856040519182527fbde9e84c340d35fc209936c1d5227c46e76a81bdc786e78fa1633663a1c6245760203393a3005b8060406112f56112f06001948a876123ac565b6123bc565b600090848060a01b0316815286602052208260ff198254161790556113276113216112f0838a876123ac565b856123d0565b016112a6565b013590508780610294565b8382526020822091601f198416815b818110611384575090846001959493921061136a575b505050811b018155611267565b0135600019600384901b60f8161c1916905586808061135d565b91936020600181928787013581550195019201611347565b8463bdd56fb960e01b600052600452606460245260446000fd5b5060648511611203565b8363d8a971e560e01b60005260045260246000fd5b6114996113e1336128e4565b61147960116113fd600080516020612b31833981519152612a24565b92603760405194859276020b1b1b2b9b9a1b7b73a3937b61d1030b1b1b7bab73a1604d1b60208501526114398151809260208688019101612207565b83017001034b99036b4b9b9b4b733903937b6329607d1b83820152611468825180936020604885019101612207565b01010301601f19810183528261252d565b60405162461bcd60e51b815260206004820152918291602483019061222a565b0390fd5b34610452576000366003190112610452576020604051600a8152f35b3461045257600036600319011261045257602060ff600554166040519015158152f35b346104525760203660031901126104525760043580600052600660205260ff60046040600020015416156107cb5760005260066020526080604060002060018060a01b03600182015416906002810154906006600382015491015491604051938452602084015260408301526060820152f35b346104525760003660031901126104525760206040517f7613a25ecc738585a232ad50a301178f12b3ba8887d13e138b523c4269c476898152f35b3461045257600036600319011261045257336000908152600080516020612b11833981519152602052604090205460ff168015611646575b6115cb90612564565b60055460ff81161561160a5760ff19166005557f5db9ee0a495bf2e6ff9c91a7834c1ba4fdd244a5e8aa4e537bd38aeae4b073aa6020604051338152a1005b60405162461bcd60e51b815260206004820152601460248201527314185d5cd8589b194e881b9bdd081c185d5cd95960621b6044820152606490fd5b50337f00000000000000000000000000000000000000000000000000000000000000006001600160a01b0316146115c2565b34610452576116863661227c565b336000908152600080516020612b11833981519152602052604090205460ff1680156117bf575b6116b690612564565b6116be61267b565b82600052600660205260ff60046040600020015416156117aa57801561042d578290816000526009602052604060002060018060a01b033316600052602052600a60406000205410156117915761176c7fa86d113226f1d4933adec789ac9825e97375c9f548deae41b4705a91f81089e691836000526009602052604060002060018060a01b033316600052602052604060002061175c8154612461565b90556040519182913396836125be565b0390a360005260066020526104a7610d8d610d946040600020604051928380926124aa565b50634bbe89fd60e01b6000523360045260245260446000fd5b8263055e3ac560e31b60005260045260246000fd5b50337f00000000000000000000000000000000000000000000000000000000000000006001600160a01b0316146116ad565b34610452576000366003190112610452576020604051600080516020612b318339815191528152f35b34610452576040366003190112610452576118336121db565b336001600160a01b0382160361184f5761068590600435612756565b60405162461bcd60e51b815260206004820152602f60248201527f416363657373436f6e74726f6c3a2063616e206f6e6c792072656e6f756e636560448201526e103937b632b9903337b91039b2b63360891b6064820152608490fd5b34610452576040366003190112610452576004356118c86121db565b906118d561067b82612550565b6000818152602081815260408083206001600160a01b038616845290915290205460ff161561190057005b6000818152602081815260408083206001600160a01b0395909516808452949091528120805460ff1916600117905533929190600080516020612ad18339815191529080a4005b34610452576020366003190112610452576119606121f1565b336000908152600080516020612b11833981519152602052604090205460ff168015611b51575b61199090612564565b6001600160a01b0381166000908152600080516020612af1833981519152602052604090205460ff16611afa575b6001600160a01b0316600081815260016020526040902080546119e090612470565b9081611ab6575b505060005b600254808210156106855782611a0183612362565b905460039190911b1c6001600160a01b031614611a2157506001016119ec565b600019810192508211611aa057610b75611a3d611a5593612362565b905460039190911b1c6001600160a01b031691612362565b6002548015611a8a5760001901611a85611a7082600261237d565b81549060018060a01b039060031b1b19169055565b600255005b634e487b7160e01b600052603160045260246000fd5b634e487b7160e01b600052601160045260246000fd5b81601f60009311600114611ace5750555b81806119e7565b81835260208320611aea91601f0160051c810190600101612395565b8082528160208120915555611ac7565b6001600160a01b0381166000818152600080516020612af183398151915260205260408120805460ff19169055339190600080516020612b3183398151915290600080516020612b518339815191529080a46119be565b50337f00000000000000000000000000000000000000000000000000000000000000006001600160a01b031614611987565b34610452576020366003190112610452576020611ba1600435612550565b604051908152f35b3461045257602036600319011261045257600435611bc561267b565b80600052600660205260ff60046040600020015416156107cb57611be933826127c6565b15611c6557806104a7916000526007602052604060002060018060a01b0333166000526020526040600020611c1e8154612461565b90556040519033817fb6d37ccc0af0492b2857af2defd46af91e290b991ac11f602a2daef368b19754600080a36000526006602052610d9481610d8d8160406000206124aa565b6307c3fbe160e21b6000526004523360245260446000fd5b346104525760403660031901126104525760206107fd611c9b6121db565b600435612433565b3461045257602036600319011261045257611cbc6121f1565b7f00000000000000000000000000000000000000000000000000000000000000006001600160a01b031690611cf23383146123f5565b6001600160a01b0316908114611eb9576000818152600080516020612b11833981519152602052604090205460ff1615611e85576000818152600080516020612b11833981519152602052604090205460ff16611e37575b80600052600460205260ff60406000205416611d8a575b33907fdb9d5d31320daf5bc7181d565b6da4d12e30f0f4d5aa324a992426c14a1d19ce600080a3005b60005b6003549081811015611e305782611da382612331565b905460039190911b1c6001600160a01b031614611dc4576001915001611d8d565b6000198201918211611aa057610b75611ddf611df793612331565b905460039190911b1c6001600160a01b031691612331565b6003548015611a8a5760001901611e12611a7082600361237d565b600355806000526004602052604060002060ff198154169055611d61565b5050611d61565b6000818152600080516020612b1183398151915260205260408120805460ff1916905533908290600080516020612b7183398151915290600080516020612b518339815191529080a4611d4a565b60405162461bcd60e51b815260206004820152600c60248201526b2737ba1030b71030b236b4b760a11b6044820152606490fd5b60405162461bcd60e51b815260206004820152601960248201527821b0b73737ba103932b6b7bb329039bab832b91030b236b4b760391b6044820152606490fd5b3461045257604036600319011261045257611f136121db565b600435600052600760205260406000209060018060a01b03166000526020526020604060002054604051908152f35b34610452576040366003190112610452576004356024356001600160401b03811161045257611f759036906004016121ab565b9190611f7f61267b565b81600052600660205260ff600460406000200154161561043d57816000526006602052604060002060018060a01b0360018201541633141580612131575b806120fe575b6103ba57831580156120f4575b6120da57611fe0848394936126bf565b6000916005600683019201925b8254811015612030578060406120056001938661237d565b905460039190911b1c60a084901b849003166000908152602087905220805460ff1916905501611fed565b5092815460008355806120be575b5060005b8581106120795785856040519182527f9ba79d5c85566c63aa71c6aadac85906ae7d960453edd73ebbc7fa08645d046c60203393a3005b80604061208c6112f06001948a876123ac565b600090848060a01b0316815286602052208260ff198254161790556120b86113216112f0838a876123ac565b01612042565b6120d49083600052602060002090810190612395565b8561203e565b8363bdd56fb960e01b600052600452606460245260446000fd5b5060648411611fd0565b50337f00000000000000000000000000000000000000000000000000000000000000006001600160a01b03161415611fc3565b50336000908152600080516020612b11833981519152602052604090205460ff1615611fbd565b34610452576020366003190112610452576004359063ffffffff60e01b821680920361045257602091637965db0b60e01b811490811561219a575b5015158152f35b6301ffc9a760e01b14905083612193565b9181601f84011215610452578235916001600160401b038311610452576020808501948460051b01011161045257565b602435906001600160a01b038216820361045257565b600435906001600160a01b038216820361045257565b60005b83811061221a5750506000910152565b818101518382015260200161220a565b9060209161224381518092818552858086019101612207565b601f01601f1916010190565b9181601f84011215610452578235916001600160401b038311610452576020838186019501011161045257565b9060406003198301126104525760043591602435906001600160401b038211610452576122ab9160040161224f565b9091565b906040600319830112610452576004356001600160a01b03811681036104525791602435906001600160401b038211610452576122ab9160040161224f565b602060408183019282815284518094520192019060005b8181106123125750505090565b82516001600160a01b0316845260209384019390920191600101612305565b60035481101561234c57600360005260206000200190600090565b634e487b7160e01b600052603260045260246000fd5b60025481101561234c57600260005260206000200190600090565b805482101561234c5760005260206000200190600090565b8181106123a0575050565b60008155600101612395565b919081101561234c5760051b0190565b356001600160a01b03811681036104525790565b80549190600160401b83101561033b5782610b759160016123f39501815561237d565b565b156123fc57565b60405162461bcd60e51b815260206004820152600f60248201526e2737ba1039bab832b91030b236b4b760891b6044820152606490fd5b9081600052600660205260ff600460406000200154161561245a57612457916127c6565b90565b5050600090565b6000198114611aa05760010190565b90600182811c921680156124a0575b602083101461248a57565b634e487b7160e01b600052602260045260246000fd5b91607f169161247f565b600092918154916124ba83612470565b808352926001811690811561251057506001146124d657505050565b60009081526020812093945091925b8383106124f6575060209250010190565b6001816020929493945483858701015201910191906124e5565b915050602093945060ff929192191683830152151560051b010190565b601f909101601f19168101906001600160401b0382119082101761033b57604052565b600052600060205260016040600020015490565b1561256b57565b60405162461bcd60e51b81526020600482015260186024820152772737ba1030b236b4b71037b91039bab832b91030b236b4b760411b6044820152606490fd5b8160011b916000199060031b1c19161790565b90918060409360208452816020850152848401376000828201840152601f01601f1916010190565b9190601f81116125f557505050565b6123f3926000526020600020906020601f840160051c83019310612621575b601f0160051c0190612395565b9091508190612614565b91908201809211611aa057565b80600052600660205260ff600460406000200154161561267557600052600660205261266f6003604060002001546008549061262b565b42101590565b50600090565b60ff6005541661268757565b60405162461bcd60e51b815260206004820152601060248201526f14185d5cd8589b194e881c185d5cd95960821b6044820152606490fd5b9060005b8181106126cf57505050565b6001600160a01b036126e56112f08385876123ac565b16156127455760018101808211611aa0575b82811061270757506001016126c3565b6127156112f08385876123ac565b6001600160a01b0361272b6112f08487896123ac565b6001600160a01b03909216911614612745576001016126f7565b631a9924b560e11b60005260046000fd5b6000818152602081815260408083206001600160a01b038616845290915290205460ff16612782575050565b6000818152602081815260408083206001600160a01b0395909516808452949091528120805460ff1916905533929190600080516020612b518339815191529080a4565b600090815260066020526040902060018101546001600160a01b039283169216821461287357600590826000520160205260ff6040600020541661286d576000818152600080516020612b11833981519152602052604090205460ff1690811561283a575b5061283557600090565b600190565b7f00000000000000000000000000000000000000000000000000000000000000006001600160a01b03161490503861282b565b50600190565b5050600190565b60008181526020818152604080832033845290915290205460ff161561289d5750565b6114999061147960116113fd6128b2336128e4565b93612a24565b6001600160401b03811161033b57601f01601f191660200190565b90815181101561234c570160200190565b6000906128f1602a6128b8565b916128ff604051938461252d565b602a835261290d602a6128b8565b6020840190601f1901368237835115612a1057603090538251600110156129fc576078602184015350602960005b6001821161299057505061294c5790565b606460405162461bcd60e51b815260206004820152602060248201527f537472696e67733a20686578206c656e67746820696e73756666696369656e746044820152fd5b9091600f811660108110156129e8576f181899199a1a9b1b9c1cb0b131b232b360811b901a6129bf84866128d3565b5360041c9180156129d457600019019061293b565b634e487b7160e01b82526011600452602482fd5b634e487b7160e01b83526032600452602483fd5b634e487b7160e01b81526032600452602490fd5b634e487b7160e01b82526032600452602482fd5b600090612a3160426128b8565b91612a3f604051938461252d565b60428352612a4d60426128b8565b6020840190601f1901368237835115612a1057603090538251600110156129fc576078602184015350604160005b60018211612a8c57505061294c5790565b9091600f811660108110156129e8576f181899199a1a9b1b9c1cb0b131b232b360811b901a612abb84866128d3565b5360041c9180156129d4576000190190612a7b56fe2f8788117e7eff1d82e926ec794901d17c78024a50270940304540a733656f0d1a7760066bd1f06df3a1a816a948cb99a3a2e8ffa5089500e84706868bfe072d7d7ffb7a348e1c6a02869081a26547b49160dd3df72d1d75a570eb9b698292ec5bb0bf1fabd5e975fc7a4520766d9e86e0eb281f8c7c44fcd3dfe60a11e786caf6391f5c32d9c69d2a47ea670b442974b53935d1edc7fd64eb21e047a839171ba49807205ce4d355092ef5a8a18f56e8913cf4a201fbe287825b095693c21775c27f3bae021ab8e78d67f94f2cd8248055d6ae911c4cf44c62bd025cd3574ee1a264697066735822122014dcf8e542dcfb56bd0706637dd05f28cf38e4c88cc565a8bf9efc84ed141a9364736f6c634300081c00332f8788117e7eff1d82e926ec794901d17c78024a50270940304540a733656f0d7d7ffb7a348e1c6a02869081a26547b49160dd3df72d1d75a570eb9b698292ec2155616cb3971b66bf28f1af4ff3722784e6d7a4b2b25bc9fe623232dcd690c8ad3228b676f7d3cd4284a5443f17f1962b36e491b30a40b2405849e597ba5fb5",
  "linkReferences": {},
  "deployedLinkReferences": {}
}