{
  "_format": "hh-sol-artifact-1",
  "contractName": "StudentManagement",
  "sourceName": "contracts/modules/StudentManagement.sol",
  "abi": [
    {
      "anonymous": false,
      "inputs": [
        {
          "indexed": true,
          "internalType": "string",
          "name": "studentId",
          "type": "string"
        },
        {
          "indexed": true,
          "internalType": "address",
          "name": "oldAddress",
          "type": "address"
        },
        {
          "indexed": true,
          "internalType": "address",
          "name": "newAddress",
          "type": "address"
        }
      ],
      "name": "StudentAddressUpdated",
      "type": "event"
    },
    {
      "anonymous": false,
      "inputs": [
        {
          "indexed": true,
          "internalType": "string",
          "name": "studentId",
          "type": "string"
        },
        {
          "indexed": true,
          "internalType": "address",
          "name": "studentAddress",
          "type": "address"
        }
      ],
      "name": "StudentRegistered",
      "type": "event"
    },
    {
      "inputs": [
        {
          "internalType": "address",
          "name": "",
          "type": "address"
        }
      ],
      "name": "addressToStudentId",
      "outputs": [
        {
          "internalType": "string",
          "name": "",
          "type": "string"
        }
      ],
      "stateMutability": "view",
      "type": "function"
    },
    {
      "inputs": [
        {
          "internalType": "string",
          "name": "studentId",
          "type": "string"
        }
      ],
      "name": "getStudentAddress",
      "outputs": [
        {
          "internalType": "address",
          "name": "",
          "type": "address"
        }
      ],
      "stateMutability": "view",
      "type": "function"
    },
    {
      "inputs": [
        {
          "internalType": "address",
          "name": "studentAddress",
          "type": "address"
        }
      ],
      "name": "getStudentId",
      "outputs": [
        {
          "internalType": "string",
          "name": "",
          "type": "string"
        }
      ],
      "stateMutability": "view",
      "type": "function"
    },
    {
      "inputs": [
        {
          "internalType": "string",
          "name": "studentId",
          "type": "string"
        }
      ],
      "name": "isStudentRegistered",
      "outputs": [
        {
          "internalType": "bool",
          "name": "",
          "type": "bool"
        }
      ],
      "stateMutability": "view",
      "type": "function"
    },
    {
      "inputs": [
        {
          "internalType": "string",
          "name": "studentId",
          "type": "string"
        },
        {
          "internalType": "address",
          "name": "studentAddress",
          "type": "address"
        }
      ],
      "name": "registerStudent",
      "outputs": [],
      "stateMutability": "nonpayable",
      "type": "function"
    },
    {
      "inputs": [
        {
          "internalType": "string",
          "name": "",
          "type": "string"
        }
      ],
      "name": "studentAddresses",
      "outputs": [
        {
          "internalType": "address",
          "name": "",
          "type": "address"
        }
      ],
      "stateMutability": "view",
      "type": "function"
    },
    {
      "inputs": [
        {
          "internalType": "string",
          "name": "",
          "type": "string"
        }
      ],
      "name": "studentExists",
      "outputs": [
        {
          "internalType": "bool",
          "name": "",
          "type": "bool"
        }
      ],
      "stateMutability": "view",
      "type": "function"
    }
  ],
  "bytecode": "0x608080604052346015576108d3908161001b8239f35b600080fdfe608080604052600436101561001357600080fd5b60003560e01c908163528bcbac146101f5575080635a0ade26146101ab57806386c34415146101ab578063a82e3b001461014d578063bd5ba462146100f6578063c6ddfefb146100b75763ce09213b1461006c57600080fd5b346100b257602061007c3661080d565b8161009060405192838151938492016106be565b600190820190815281900382019020546040516001600160a01b039091168152f35b600080fd5b346100b257602060ff6100e0826100cd3661080d565b81604051938285809451938492016106be565b8101600081520301902054166040519015158152f35b346100b25760203660031901126100b25760043567ffffffffffffffff81116100b25760ff602061012c8193369060040161067a565b91908260405193849283378101600081520301902054166040519015158152f35b346100b25760203660031901126100b25760043567ffffffffffffffff81116100b25760206101818192369060040161067a565b9190826040519384928337600190820190815203019020546040516001600160a01b039091168152f35b346100b25760203660031901126100b2576001600160a01b036101cc6106a8565b1660005260026020526101f16101e56040600020610769565b604051918291826106e1565b0390f35b346100b25760403660031901126100b25760043567ffffffffffffffff81116100b25761022690369060040161067a565b6024356001600160a01b03811693908490036100b25781156106435750821561060c5760ff6040518284823760208184810160008152030190205416600014610484576040518183823760018183019081528190036020019020546001600160a01b0316918261041a575b604051828282376020818481016001815203019020846bffffffffffffffffffffffff60a01b825416179055836000526002602052604060002067ffffffffffffffff8311610404576102e4815461070d565b601f81116103c7575b50600083601f8111600114610364578061031d92600091610359575b508160011b916000199060031b1c19161790565b90555b8160405192839283378101600081520390207f55066e0ef5d53e826887694254397ccd8c9936f6bab5e8d7592b001695658874600080a4005b905084013588610309565b50818152602081209084601f198116825b8181106103ac575010610392575b5050600183811b019055610320565b830135600019600386901b60f8161c191690558580610383565b86840135855560019094019360209384019388935001610375565b6103f490826000526020600020601f860160051c810191602087106103fa575b601f0160051c0190610886565b856102ed565b90915081906103e7565b634e487b7160e01b600052604160045260246000fd5b8260005260026020526040600020610432815461070d565b9081610440575b5050610291565b81601f600093116001146104585750555b8480610439565b8183526020832061047491601f0160051c810190600101610886565b8082528160208120915555610451565b90604051828282376020818481016000815203019020600160ff19825416179055604051828282376020818481016001815203019020836bffffffffffffffffffffffff60a01b825416179055826000526002602052604060002067ffffffffffffffff8311610404576104f8815461070d565b601f81116105da575b50600083601f811160011461057757806105309260009161056c57508160011b916000199060031b1c19161790565b90555b8160405192839283378101600081520390207faa541cc9975b48a66ff0fcced1b6a07701b89f4bf70332c0e06f406f61b8e979600080a3005b905084013587610309565b50818152602081209084601f198116825b8181106105bf5750106105a5575b5050600183811b019055610533565b830135600019600386901b60f8161c191690558480610596565b86840135855560019094019360209384019388935001610588565b61060690826000526020600020601f860160051c810191602087106103fa57601f0160051c0190610886565b84610501565b60405162461bcd60e51b815260206004820152600f60248201526e496e76616c6964206164647265737360881b6044820152606490fd5b62461bcd60e51b8152602060048201526012602482015271125b9d985b1a59081cdd1d59195b9d08125160721b6044820152606490fd5b9181601f840112156100b25782359167ffffffffffffffff83116100b257602083818601950101116100b257565b600435906001600160a01b03821682036100b257565b60005b8381106106d15750506000910152565b81810151838201526020016106c1565b6040916020825261070181518092816020860152602086860191016106be565b601f01601f1916010190565b90600182811c9216801561073d575b602083101461072757565b634e487b7160e01b600052602260045260246000fd5b91607f169161071c565b90601f8019910116810190811067ffffffffffffffff82111761040457604052565b906040519182600082549261077d8461070d565b80845293600181169081156107eb57506001146107a4575b506107a292500383610747565b565b90506000929192526020600020906000915b8183106107cf5750509060206107a29282010138610795565b60209193508060019154838589010152019101909184926107b6565b9050602092506107a294915060ff191682840152151560051b82010138610795565b60206003198201126100b25760043567ffffffffffffffff81116100b257816023820112156100b25780600401359067ffffffffffffffff82116104045760405192610863601f8401601f191660200185610747565b828452602483830101116100b25781600092602460209301838601378301015290565b818110610891575050565b6000815560010161088656fea26469706673582212204b1a13be4cbd2d3359f89d29d2fd5f012d1d7d48cf3fca980c9c53cb38b30ff264736f6c634300081c0033",
  "linkReferences": {},
  "deployedLinkReferences": {}
}