{
  "_format": "hh-sol-artifact-1",
  "contractName": "StudentManagement",
  "sourceName": "contracts/modules/StudentManagement.sol",
  "abi": [
    {
      "anonymous": false,
      "inputs": [
        {
          "indexed": true,
          "internalType": "string",
          "name": "studentId",
          "type": "string"
        },
        {
          "indexed": true,
          "internalType": "address",
          "name": "oldAddress",
          "type": "address"
        },
        {
          "indexed": true,
          "internalType": "address",
          "name": "newAddress",
          "type": "address"
        }
      ],
      "name": "StudentAddressUpdated",
      "type": "event"
    },
    {
      "anonymous": false,
      "inputs": [
        {
          "indexed": true,
          "internalType": "string",
          "name": "studentId",
          "type": "string"
        },
        {
          "indexed": true,
          "internalType": "address",
          "name": "studentAddress",
          "type": "address"
        }
      ],
      "name": "StudentRegistered",
      "type": "event"
    },
    {
      "inputs": [
        {
          "internalType": "address",
          "name": "",
          "type": "address"
        }
      ],
      "name": "addressToStudentId",
      "outputs": [
        {
          "internalType": "string",
          "name": "",
          "type": "string"
        }
      ],
      "stateMutability": "view",
      "type": "function"
    },
    {
      "inputs": [
        {
          "internalType": "string",
          "name": "studentId",
          "type": "string"
        }
      ],
      "name": "getStudentAddress",
      "outputs": [
        {
          "internalType": "address",
          "name": "",
          "type": "address"
        }
      ],
      "stateMutability": "view",
      "type": "function"
    },
    {
      "inputs": [
        {
          "internalType": "address",
          "name": "studentAddress",
          "type": "address"
        }
      ],
      "name": "getStudentId",
      "outputs": [
        {
          "internalType": "string",
          "name": "",
          "type": "string"
        }
      ],
      "stateMutability": "view",
      "type": "function"
    },
    {
      "inputs": [
        {
          "internalType": "string",
          "name": "studentId",
          "type": "string"
        }
      ],
      "name": "isStudentRegistered",
      "outputs": [
        {
          "internalType": "bool",
          "name": "",
          "type": "bool"
        }
      ],
      "stateMutability": "view",
      "type": "function"
    },
    {
      "inputs": [
        {
          "internalType": "string",
          "name": "studentId",
          "type": "string"
        },
        {
          "internalType": "address",
          "name": "studentAddress",
          "type": "address"
        }
      ],
      "name": "registerStudent",
      "outputs": [],
      "stateMutability": "nonpayable",
      "type": "function"
    },
    {
      "inputs": [
        {
          "internalType": "string",
          "name": "",
          "type": "string"
        }
      ],
      "name": "studentAddresses",
      "outputs": [
        {
          "internalType": "address",
          "name": "",
          "type": "address"
        }
      ],
      "stateMutability": "view",
      "type": "function"
    },
    {
      "inputs": [
        {
          "internalType": "string",
          "name": "",
          "type": "string"
        }
      ],
      "name": "studentExists",
      "outputs": [
        {
          "internalType": "bool",
          "name": "",
          "type": "bool"
        }
      ],
      "stateMutability": "view",
      "type": "function"
    }
  ],
  "bytecode": "0x608080604052346015576108c8908161001b8239f35b600080fdfe608080604052600436101561001357600080fd5b60003560e01c908163528bcbac146101f3575080635a0ade26146101a957806386c34415146101a9578063a82e3b001461014c578063bd5ba462146100f6578063c6ddfefb146100b75763ce09213b1461006c57600080fd5b346100b257602061007c36610804565b8161009060405192838151938492016106b4565b600190820190815281900382019020546040516001600160a01b039091168152f35b600080fd5b346100b257602060ff6100e0826100cd36610804565b81604051938285809451938492016106b4565b8101600081520301902054166040519015158152f35b346100b25760203660031901126100b2576004356001600160401b0381116100b25760ff602061012b81933690600401610671565b91908260405193849283378101600081520301902054166040519015158152f35b346100b25760203660031901126100b2576004356001600160401b0381116100b257602061017f81923690600401610671565b9190826040519384928337600190820190815203019020546040516001600160a01b039091168152f35b346100b25760203660031901126100b2576001600160a01b036101ca61069e565b1660005260026020526101ef6101e36040600020610760565b604051918291826106d7565b0390f35b346100b25760403660031901126100b2576004356001600160401b0381116100b257610223903690600401610671565b6024356001600160a01b03811693908490036100b257811561063a575082156106035760ff604051828482376020818481016000815203019020541660001461047e576040518183823760018183019081528190036020019020546001600160a01b03169182610414575b604051828282376001838201908152819003602090810190912080546001600160a01b0319168617905560008581526002909152604090206001600160401b0383116103fe576102de8154610703565b601f81116103c1575b50600083601f811160011461035e578061031792600091610353575b508160011b916000199060031b1c19161790565b90555b8160405192839283378101600081520390207f55066e0ef5d53e826887694254397ccd8c9936f6bab5e8d7592b001695658874600080a4005b905084013588610303565b50818152602081209084601f198116825b8181106103a657501061038c575b5050600183811b01905561031a565b830135600019600386901b60f8161c19169055858061037d565b8684013585556001909401936020938401938893500161036f565b6103ee90826000526020600020601f860160051c810191602087106103f4575b601f0160051c019061087b565b856102e7565b90915081906103e1565b634e487b7160e01b600052604160045260246000fd5b826000526002602052604060002061042c8154610703565b908161043a575b505061028e565b81601f600093116001146104525750555b8480610433565b8183526020832061046e91601f0160051c81019060010161087b565b808252816020812091555561044b565b90604051828282376020818481016000815203019020600160ff19825416179055604051828282376001838201908152819003602090810190912080546001600160a01b0319168517905560008481526002909152604090206001600160401b0383116103fe576104ef8154610703565b601f81116105d1575b50600083601f811160011461056e57806105279260009161056357508160011b916000199060031b1c19161790565b90555b8160405192839283378101600081520390207faa541cc9975b48a66ff0fcced1b6a07701b89f4bf70332c0e06f406f61b8e979600080a3005b905084013587610303565b50818152602081209084601f198116825b8181106105b657501061059c575b5050600183811b01905561052a565b830135600019600386901b60f8161c19169055848061058d565b8684013585556001909401936020938401938893500161057f565b6105fd90826000526020600020601f860160051c810191602087106103f457601f0160051c019061087b565b846104f8565b60405162461bcd60e51b815260206004820152600f60248201526e496e76616c6964206164647265737360881b6044820152606490fd5b62461bcd60e51b8152602060048201526012602482015271125b9d985b1a59081cdd1d59195b9d08125160721b6044820152606490fd5b9181601f840112156100b2578235916001600160401b0383116100b257602083818601950101116100b257565b600435906001600160a01b03821682036100b257565b60005b8381106106c75750506000910152565b81810151838201526020016106b7565b604091602082526106f781518092816020860152602086860191016106b4565b601f01601f1916010190565b90600182811c92168015610733575b602083101461071d57565b634e487b7160e01b600052602260045260246000fd5b91607f1691610712565b601f909101601f19168101906001600160401b038211908210176103fe57604052565b906040519182600082549261077484610703565b80845293600181169081156107e2575060011461079b575b506107999250038361073d565b565b90506000929192526020600020906000915b8183106107c6575050906020610799928201013861078c565b60209193508060019154838589010152019101909184926107ad565b90506020925061079994915060ff191682840152151560051b8201013861078c565b60206003198201126100b2576004356001600160401b0381116100b257816023820112156100b2576004810135906001600160401b0382116103fe5760405192610858601f8401601f19166020018561073d565b828452602483830101116100b25781600092602460209301838601378301015290565b818110610886575050565b6000815560010161087b56fea264697066735822122098f729f892792996fa7501cb87cac0fb2ecac271f45da06916c9fe5288f5b43364736f6c634300081c0033",
  "linkReferences": {},
  "deployedLinkReferences": {}
}