{
  "_format": "hh-sol-artifact-1",
  "contractName": "ZKPManager",
  "sourceName": "contracts/ZKPManager.sol",
  "abi": [
    {
      "inputs": [
        {
          "internalType": "address",
          "name": "_admin",
          "type": "address"
        }
      ],
      "stateMutability": "nonpayable",
      "type": "constructor"
    },
    {
      "anonymous": false,
      "inputs": [
        {
          "indexed": true,
          "internalType": "address",
          "name": "userAddress",
          "type": "address"
        },
        {
          "indexed": true,
          "internalType": "uint256",
          "name": "recordId",
          "type": "uint256"
        },
        {
          "indexed": false,
          "internalType": "enum IZKPManager.AccessType",
          "name": "accessType",
          "type": "uint8"
        },
        {
          "indexed": false,
          "internalType": "uint256",
          "name": "timestamp",
          "type": "uint256"
        }
      ],
      "name": "AccessVerified",
      "type": "event"
    },
    {
      "anonymous": false,
      "inputs": [
        {
          "indexed": false,
          "internalType": "address",
          "name": "account",
          "type": "address"
        }
      ],
      "name": "Paused",
      "type": "event"
    },
    {
      "anonymous": false,
      "inputs": [
        {
          "indexed": true,
          "internalType": "address",
          "name": "verifier",
          "type": "address"
        },
        {
          "indexed": true,
          "internalType": "uint256",
          "name": "recordId",
          "type": "uint256"
        },
        {
          "indexed": false,
          "internalType": "bool",
          "name": "isValid",
          "type": "bool"
        },
        {
          "indexed": false,
          "internalType": "uint256",
          "name": "timestamp",
          "type": "uint256"
        }
      ],
      "name": "ProofVerified",
      "type": "event"
    },
    {
      "anonymous": false,
      "inputs": [
        {
          "indexed": true,
          "internalType": "uint256",
          "name": "recordId",
          "type": "uint256"
        },
        {
          "indexed": true,
          "internalType": "address",
          "name": "sharedBy",
          "type": "address"
        },
        {
          "indexed": true,
          "internalType": "address",
          "name": "sharedWith",
          "type": "address"
        },
        {
          "indexed": false,
          "internalType": "uint256",
          "name": "timestamp",
          "type": "uint256"
        }
      ],
      "name": "RecordShared",
      "type": "event"
    },
    {
      "anonymous": false,
      "inputs": [
        {
          "indexed": true,
          "internalType": "bytes32",
          "name": "role",
          "type": "bytes32"
        },
        {
          "indexed": true,
          "internalType": "bytes32",
          "name": "previousAdminRole",
          "type": "bytes32"
        },
        {
          "indexed": true,
          "internalType": "bytes32",
          "name": "newAdminRole",
          "type": "bytes32"
        }
      ],
      "name": "RoleAdminChanged",
      "type": "event"
    },
    {
      "anonymous": false,
      "inputs": [
        {
          "indexed": true,
          "internalType": "bytes32",
          "name": "role",
          "type": "bytes32"
        },
        {
          "indexed": true,
          "internalType": "address",
          "name": "account",
          "type": "address"
        },
        {
          "indexed": true,
          "internalType": "address",
          "name": "sender",
          "type": "address"
        }
      ],
      "name": "RoleGranted",
      "type": "event"
    },
    {
      "anonymous": false,
      "inputs": [
        {
          "indexed": true,
          "internalType": "bytes32",
          "name": "role",
          "type": "bytes32"
        },
        {
          "indexed": true,
          "internalType": "address",
          "name": "account",
          "type": "address"
        },
        {
          "indexed": true,
          "internalType": "address",
          "name": "sender",
          "type": "address"
        }
      ],
      "name": "RoleRevoked",
      "type": "event"
    },
    {
      "anonymous": false,
      "inputs": [
        {
          "indexed": false,
          "internalType": "address",
          "name": "account",
          "type": "address"
        }
      ],
      "name": "Unpaused",
      "type": "event"
    },
    {
      "inputs": [],
      "name": "ACCESS_VERIFICATION_CIRCUIT",
      "outputs": [
        {
          "internalType": "uint8",
          "name": "",
          "type": "uint8"
        }
      ],
      "stateMutability": "view",
      "type": "function"
    },
    {
      "inputs": [],
      "name": "ADMIN_ROLE",
      "outputs": [
        {
          "internalType": "bytes32",
          "name": "",
          "type": "bytes32"
        }
      ],
      "stateMutability": "view",
      "type": "function"
    },
    {
      "inputs": [],
      "name": "DEFAULT_ADMIN_ROLE",
      "outputs": [
        {
          "internalType": "bytes32",
          "name": "",
          "type": "bytes32"
        }
      ],
      "stateMutability": "view",
      "type": "function"
    },
    {
      "inputs": [],
      "name": "RECORD_SHARING_CIRCUIT",
      "outputs": [
        {
          "internalType": "uint8",
          "name": "",
          "type": "uint8"
        }
      ],
      "stateMutability": "view",
      "type": "function"
    },
    {
      "inputs": [],
      "name": "UNIVERSITY_ROLE",
      "outputs": [
        {
          "internalType": "bytes32",
          "name": "",
          "type": "bytes32"
        }
      ],
      "stateMutability": "view",
      "type": "function"
    },
    {
      "inputs": [],
      "name": "academicRecordsContract",
      "outputs": [
        {
          "internalType": "address",
          "name": "",
          "type": "address"
        }
      ],
      "stateMutability": "view",
      "type": "function"
    },
    {
      "inputs": [],
      "name": "accessManagerContract",
      "outputs": [
        {
          "internalType": "address",
          "name": "",
          "type": "address"
        }
      ],
      "stateMutability": "view",
      "type": "function"
    },
    {
      "inputs": [
        {
          "internalType": "address",
          "name": "university",
          "type": "address"
        }
      ],
      "name": "addUniversity",
      "outputs": [],
      "stateMutability": "nonpayable",
      "type": "function"
    },
    {
      "inputs": [
        {
          "internalType": "uint256[]",
          "name": "recordIds",
          "type": "uint256[]"
        },
        {
          "internalType": "enum IZKPManager.AccessType[]",
          "name": "accessTypes",
          "type": "uint8[]"
        },
        {
          "components": [
            {
              "internalType": "uint256[2]",
              "name": "a",
              "type": "uint256[2]"
            },
            {
              "internalType": "uint256[2][2]",
              "name": "b",
              "type": "uint256[2][2]"
            },
            {
              "internalType": "uint256[2]",
              "name": "c",
              "type": "uint256[2]"
            }
          ],
          "internalType": "struct IZKPManager.Proof[]",
          "name": "proofs",
          "type": "tuple[]"
        },
        {
          "internalType": "uint256[][]",
          "name": "publicSignalsArray",
          "type": "uint256[][]"
        }
      ],
      "name": "batchVerifyAccess",
      "outputs": [
        {
          "internalType": "bool[]",
          "name": "results",
          "type": "bool[]"
        }
      ],
      "stateMutability": "nonpayable",
      "type": "function"
    },
    {
      "inputs": [
        {
          "internalType": "uint256",
          "name": "recordId",
          "type": "uint256"
        }
      ],
      "name": "getRecordAccessHistory",
      "outputs": [
        {
          "internalType": "address[]",
          "name": "",
          "type": "address[]"
        }
      ],
      "stateMutability": "view",
      "type": "function"
    },
    {
      "inputs": [
        {
          "internalType": "bytes32",
          "name": "role",
          "type": "bytes32"
        }
      ],
      "name": "getRoleAdmin",
      "outputs": [
        {
          "internalType": "bytes32",
          "name": "",
          "type": "bytes32"
        }
      ],
      "stateMutability": "view",
      "type": "function"
    },
    {
      "inputs": [
        {
          "internalType": "uint8",
          "name": "circuitType",
          "type": "uint8"
        }
      ],
      "name": "getVerificationKey",
      "outputs": [
        {
          "internalType": "bytes",
          "name": "verificationKey",
          "type": "bytes"
        }
      ],
      "stateMutability": "view",
      "type": "function"
    },
    {
      "inputs": [
        {
          "internalType": "bytes32",
          "name": "role",
          "type": "bytes32"
        },
        {
          "internalType": "address",
          "name": "account",
          "type": "address"
        }
      ],
      "name": "grantRole",
      "outputs": [],
      "stateMutability": "nonpayable",
      "type": "function"
    },
    {
      "inputs": [
        {
          "internalType": "bytes32",
          "name": "role",
          "type": "bytes32"
        },
        {
          "internalType": "address",
          "name": "account",
          "type": "address"
        }
      ],
      "name": "hasRole",
      "outputs": [
        {
          "internalType": "bool",
          "name": "",
          "type": "bool"
        }
      ],
      "stateMutability": "view",
      "type": "function"
    },
    {
      "inputs": [
        {
          "internalType": "uint256",
          "name": "recordId",
          "type": "uint256"
        },
        {
          "internalType": "address",
          "name": "userAddress",
          "type": "address"
        }
      ],
      "name": "hasVerifiedAccess",
      "outputs": [
        {
          "internalType": "bool",
          "name": "hasAccess",
          "type": "bool"
        }
      ],
      "stateMutability": "view",
      "type": "function"
    },
    {
      "inputs": [],
      "name": "keyStorageContract",
      "outputs": [
        {
          "internalType": "address",
          "name": "",
          "type": "address"
        }
      ],
      "stateMutability": "view",
      "type": "function"
    },
    {
      "inputs": [],
      "name": "pause",
      "outputs": [],
      "stateMutability": "nonpayable",
      "type": "function"
    },
    {
      "inputs": [],
      "name": "paused",
      "outputs": [
        {
          "internalType": "bool",
          "name": "",
          "type": "bool"
        }
      ],
      "stateMutability": "view",
      "type": "function"
    },
    {
      "inputs": [
        {
          "internalType": "address",
          "name": "university",
          "type": "address"
        }
      ],
      "name": "removeUniversity",
      "outputs": [],
      "stateMutability": "nonpayable",
      "type": "function"
    },
    {
      "inputs": [
        {
          "internalType": "bytes32",
          "name": "role",
          "type": "bytes32"
        },
        {
          "internalType": "address",
          "name": "account",
          "type": "address"
        }
      ],
      "name": "renounceRole",
      "outputs": [],
      "stateMutability": "nonpayable",
      "type": "function"
    },
    {
      "inputs": [
        {
          "internalType": "bytes32",
          "name": "role",
          "type": "bytes32"
        },
        {
          "internalType": "address",
          "name": "account",
          "type": "address"
        }
      ],
      "name": "revokeRole",
      "outputs": [],
      "stateMutability": "nonpayable",
      "type": "function"
    },
    {
      "inputs": [
        {
          "internalType": "uint256",
          "name": "recordId",
          "type": "uint256"
        },
        {
          "internalType": "address",
          "name": "userAddress",
          "type": "address"
        }
      ],
      "name": "revokeVerifiedAccess",
      "outputs": [],
      "stateMutability": "nonpayable",
      "type": "function"
    },
    {
      "inputs": [
        {
          "internalType": "address",
          "name": "_academicRecords",
          "type": "address"
        },
        {
          "internalType": "address",
          "name": "_keyStorage",
          "type": "address"
        },
        {
          "internalType": "address",
          "name": "_accessManager",
          "type": "address"
        }
      ],
      "name": "setContractAddresses",
      "outputs": [],
      "stateMutability": "nonpayable",
      "type": "function"
    },
    {
      "inputs": [
        {
          "internalType": "uint8",
          "name": "circuitType",
          "type": "uint8"
        },
        {
          "internalType": "bytes",
          "name": "verificationKey",
          "type": "bytes"
        }
      ],
      "name": "setVerificationKey",
      "outputs": [],
      "stateMutability": "nonpayable",
      "type": "function"
    },
    {
      "inputs": [
        {
          "internalType": "uint256",
          "name": "recordId",
          "type": "uint256"
        },
        {
          "internalType": "address",
          "name": "sharedWith",
          "type": "address"
        },
        {
          "components": [
            {
              "internalType": "uint256[2]",
              "name": "a",
              "type": "uint256[2]"
            },
            {
              "internalType": "uint256[2][2]",
              "name": "b",
              "type": "uint256[2][2]"
            },
            {
              "internalType": "uint256[2]",
              "name": "c",
              "type": "uint256[2]"
            }
          ],
          "internalType": "struct IZKPManager.Proof",
          "name": "proof",
          "type": "tuple"
        },
        {
          "internalType": "uint256[]",
          "name": "publicSignals",
          "type": "uint256[]"
        }
      ],
      "name": "shareRecordWithZKP",
      "outputs": [
        {
          "internalType": "bool",
          "name": "success",
          "type": "bool"
        }
      ],
      "stateMutability": "nonpayable",
      "type": "function"
    },
    {
      "inputs": [
        {
          "internalType": "bytes4",
          "name": "interfaceId",
          "type": "bytes4"
        }
      ],
      "name": "supportsInterface",
      "outputs": [
        {
          "internalType": "bool",
          "name": "",
          "type": "bool"
        }
      ],
      "stateMutability": "view",
      "type": "function"
    },
    {
      "inputs": [],
      "name": "unpause",
      "outputs": [],
      "stateMutability": "nonpayable",
      "type": "function"
    },
    {
      "inputs": [
        {
          "internalType": "uint256",
          "name": "recordId",
          "type": "uint256"
        },
        {
          "internalType": "enum IZKPManager.AccessType",
          "name": "accessType",
          "type": "uint8"
        },
        {
          "components": [
            {
              "internalType": "uint256[2]",
              "name": "a",
              "type": "uint256[2]"
            },
            {
              "internalType": "uint256[2][2]",
              "name": "b",
              "type": "uint256[2][2]"
            },
            {
              "internalType": "uint256[2]",
              "name": "c",
              "type": "uint256[2]"
            }
          ],
          "internalType": "struct IZKPManager.Proof",
          "name": "proof",
          "type": "tuple"
        },
        {
          "internalType": "uint256[]",
          "name": "publicSignals",
          "type": "uint256[]"
        }
      ],
      "name": "verifyAccess",
      "outputs": [
        {
          "internalType": "bool",
          "name": "success",
          "type": "bool"
        }
      ],
      "stateMutability": "nonpayable",
      "type": "function"
    },
    {
      "inputs": [
        {
          "components": [
            {
              "internalType": "uint256[2]",
              "name": "a",
              "type": "uint256[2]"
            },
            {
              "internalType": "uint256[2][2]",
              "name": "b",
              "type": "uint256[2][2]"
            },
            {
              "internalType": "uint256[2]",
              "name": "c",
              "type": "uint256[2]"
            }
          ],
          "internalType": "struct IZKPManager.Proof",
          "name": "proof",
          "type": "tuple"
        },
        {
          "internalType": "uint256[]",
          "name": "publicSignals",
          "type": "uint256[]"
        },
        {
          "internalType": "uint8",
          "name": "circuitType",
          "type": "uint8"
        }
      ],
      "name": "verifyProof",
      "outputs": [
        {
          "internalType": "bool",
          "name": "isValid",
          "type": "bool"
        }
      ],
      "stateMutability": "view",
      "type": "function"
    }
  ],
  "bytecode": "0x60803461015857601f61220838819003918201601f19168301916001600160401b0383118484101761015d5780849260209460405283398101031261015857516001600160a01b03811690819003610158576001805460ff1916905560008181526000805160206121e8833981519152602052604090205460ff1615610117575b60008181526000805160206121c8833981519152602052604090205460ff16156100b4575b60405161203490816101748239f35b60008181526000805160206121c883398151915260205260408120805460ff191660011790553391907fa49807205ce4d355092ef5a8a18f56e8913cf4a201fbe287825b095693c21775906000805160206121a88339815191529080a4386100a5565b60008181526000805160206121e883398151915260205260408120805460ff19166001179055339082906000805160206121a88339815191528180a4610080565b600080fd5b634e487b7160e01b600052604160045260246000fdfe608080604052600436101561001357600080fd5b60003560e01c908162b230f6146116855750806301ffc9a71461162f5780630c3b7344146114b05780630f5740ff14611487578063217c735c1461145e578063248a9ca31461142957806328f54b2f146113625780632c8b6212146113395780632f2ff15d1461127d57806336568abe146111eb57806339bdf2a1146111205780633d178414146110e55780633f4ba83a146110515780635c975abb1461102e5780635f4a5e421461101257806375b238fc14610fd7578063819f1ec614610f505780638456cb5914610ef75780638ab6338014610e6a5780638e7c6ec31461099657806391d1485414610949578063a217fddf1461015d578063b8de507b14610865578063c46b7dc1146106bb578063d547741f14610674578063d70340f3146103dc578063d93565ed146101fb578063f6e152cd1461017e5763fe980d661461015d57600080fd5b3461017957600036600319011261017957602060405160008152f35b600080fd5b346101795760403660031901126101795760043561019a6118e7565b906101a3611b80565b806000526003602052604060002060018060a01b038316600052602052604060002060ff198154169055600052600460205260406000209060018060a01b0316600052602052604060002060ff198154169055600080f35b3461017957610160366003190112610179576004356102186118e7565b90610222366117c1565b90610144356001600160401b03811161017957610243903690600401611864565b9161024c611d59565b60006001815260026020526102646040822054611960565b1561039c57506004835110610357576102808361028592611b0f565b611a10565b6001600160a01b036102968361199a565b5116916102c3826102b06102a9846119a7565b51936119b7565b51926102bd338714611a4f565b14611a92565b61012c8101809111610341576102db90421115611ad3565b60008181526004602090815260408083206001600160a01b039690961680845295825291829020805460ff1916600117905590514281527f282074b625e371f4430def4599ad6a7c8aae4c09bf8472d82803963800912ec79190a4602060405160018152f35b634e487b7160e01b600052601160045260246000fd5b60405162461bcd60e51b815260206004820152601b60248201527f496e73756666696369656e74207075626c6963207369676e616c7300000000006044820152606490fd5b60405162461bcd60e51b815260206004820152601860248201527715995c9a599a58d85d1a5bdb881ad95e481b9bdd081cd95d60421b6044820152606490fd5b346101795761016036600319011261017957600435602435600481101561017957610406366117c1565b90610144356001600160401b03811161017957610427903690600401611864565b91610430611d59565b600080805260026020527fac33ff75c19e70fe83507db0d683fd3465c996598dc972688b7ace676c89077b5461046590611960565b1561039c57506004835110610357576102808361048192611b0f565b6001600160a01b036104928361199a565b51169161049e816119a7565b5181516002101561065e576104c8856104bb6060850151946119b7565b51926102bd338814611a4f565b82600092036106225761012c810180911161060e576104e990421115611ad3565b6104f38284611d9d565b156105d2578381526003602090815260408083206001600160a01b03861684528252808320805460ff191660011790558583526005909152812080549190680100000000000000008310156105be57600183018082558310156105aa578152602090200180546001600160a01b03191683179055604080517f8b5721a8374b5561a021cb9808c9773a2f3c0bb0405e138a84e5651e3f40d5f5926105989082906119db565b426020820152a3602060405160018152f35b634e487b7160e01b82526032600452602482fd5b634e487b7160e01b82526041600452602482fd5b60405162461bcd60e51b81526020600482015260146024820152731058d8d95cdcc81b9bdd081c195c9b5a5d1d195960621b6044820152606490fd5b634e487b7160e01b82526011600452602482fd5b60405162461bcd60e51b8152602060048201526014602482015273082c6c6cae6e640e8f2e0ca40dad2e6dac2e8c6d60631b6044820152606490fd5b634e487b7160e01b600052603260045260246000fd5b34610179576040366003190112610179576106b96004356106936118e7565b906106b46106af82600052600060205260016040600020015490565b611c99565b611cd7565b005b34610179576040366003190112610179576106d46118c1565b6024356001600160401b0381116101795736602382011215610179578060040135916106ff83611945565b9261070d604051948561175b565b808452366024828501011161017957602081600092602460ff96018388013785010152610738611b80565b166000526002602052604060002081516001600160401b03811161084f576107608254611960565b601f8111610807575b50602092601f82116001146107a7579281929360009261079c575b5050600019600383901b1c191660019190911b179055005b015190508380610784565b601f1982169383600052806000209160005b8681106107ef57508360019596106107d6575b505050811b019055005b015160001960f88460031b161c191690558380806107cc565b919260206001819286850151815501940192016107b9565b826000526020600020601f830160051c81019160208410610845575b601f0160051c01905b8181106108395750610769565b6000815560010161082c565b9091508190610823565b634e487b7160e01b600052604160045260246000fd5b346101795760203660031901126101795760ff6108806118c1565b1660005260026020526040600020604051906000908054906108a182611960565b808552916001811690811561092257506001146108e1575b6108dd846108c98186038261175b565b604051918291602083526020830190611920565b0390f35b600090815260208120939250905b808210610908575090915081016020016108c9826108b9565b9192600181602092548385880101520191019092916108ef565b60ff191660208087019190915292151560051b850190920192506108c991508390506108b9565b34610179576040366003190112610179576109626118e7565b600435600052600060205260406000209060018060a01b0316600052602052602060ff604060002054166040519015158152f35b34610179576080366003190112610179576004356001600160401b038111610179576109c6903690600401611864565b602435906001600160401b03821161017957366023830112156101795781600401356109f18161184d565b926109ff604051948561175b565b8184526024602085019260051b8201019036821161017957602401915b818310610e51575050506044356001600160401b0381116101795736602382011215610179578060040135610a508161184d565b91610a5e604051938461175b565b8183526024602084019260081b8201019036821161017957602401915b818310610db7575050506064356001600160401b0381116101795736602382011215610179578060040135610aaf8161184d565b91610abd604051938461175b565b8183526024602084019260051b820101903682116101795760248101925b828410610d885750505050610aee611d59565b825184518091149081610d7d575b5080610d72575b15610d3557825193610b2d610b178661184d565b95610b25604051978861175b565b80875261184d565b602086019490601f190136863760005b8151811015610cee57610b5081836119c7565b51610b5b82856119c7565b51906004821015610cd85790610ba891610b7584896119c7565b5190610b8185896119c7565b519160405194859463d70340f360e01b8652610164860193600487015260248601906119db565b610bb66044850182516119e8565b6020810151600090608486015b60028310610cae575050506040610be19101516101048501906119e8565b6101606101448401528151809152602061018484019201906000905b808210610c9257505050908060209203816000305af18091600091610c50575b50509060019115600014610c3f576000610c37828a6119c7565b525b01610b3d565b81610c4a828a6119c7565b52610c39565b6020813d8211610c8a575b81610c686020938361175b565b81010312610c865751908115158203610c8357508190610c1d565b80fd5b5080fd5b3d9150610c5b565b9193509160208060019286518152019401920184939291610bfd565b81929394959650604081610cc7602093600195516119e8565b019201920190918695949392610bc3565b634e487b7160e01b600052602160045260246000fd5b85876040519182916020830190602084525180915260408301919060005b818110610d1a575050500390f35b82511515845285945060209384019390920191600101610d0c565b60405162461bcd60e51b8152602060048201526015602482015274082e4e4c2f240d8cadccee8d040dad2e6dac2e8c6d605b1b6044820152606490fd5b508151815114610b03565b905082511485610afc565b83356001600160401b03811161017957602091610dac839260243691870101611864565b815201930192610adb565b600061010084360312610c835750604051610dd181611740565b610ddb368561177c565b815236605f850112156101795760408051610df6828261175b565b8060c087019136831161017957838801905b838210610e3857505091610e2984926101009694602080970152369061177c565b90820152815201920191610a7b565b60208591610e46368561177c565b815201910190610e08565b8235600481101561017957815260209283019201610a1c565b3461017957606036600319011261017957610e836118d1565b610e8b6118e7565b6044356001600160a01b038116929083900361017957610ea9611b80565b60018060a01b03166001600160601b0360a01b600654161760065560018060a01b03166001600160601b0360a01b60075416176007556001600160601b0360a01b6008541617600855600080f35b3461017957600036600319011261017957610f10611b80565b610f18611d59565b600160ff19815416176001557f62e78cea01bee320cd4e420270b5ea74000d11b0c9f74754ebdbfc544b05a2586020604051338152a1005b3461017957604036600319011261017957600435610f6c6118e7565b90806000526003602052604060002060018060a01b03831660005260205260ff60406000205416908115610fa8575b6020826040519015158152f35b9050600052600460205260406000209060018060a01b0316600052602052602060ff6040600020541682610f9b565b346101795760003660031901126101795760206040517fa49807205ce4d355092ef5a8a18f56e8913cf4a201fbe287825b095693c217758152f35b3461017957600036600319011261017957602060405160018152f35b3461017957600036600319011261017957602060ff600154166040519015158152f35b346101795760003660031901126101795761106a611b80565b60015460ff8116156110a95760ff19166001557f5db9ee0a495bf2e6ff9c91a7834c1ba4fdd244a5e8aa4e537bd38aeae4b073aa6020604051338152a1005b60405162461bcd60e51b815260206004820152601460248201527314185d5cd8589b194e881b9bdd081c185d5cd95960621b6044820152606490fd5b346101795760003660031901126101795760206040517f5bb0bf1fabd5e975fc7a4520766d9e86e0eb281f8c7c44fcd3dfe60a11e786ca8152f35b34610179576020366003190112610179576111396118d1565b611141611b80565b6001600160a01b0381166000908152600080516020611fdf833981519152602052604090205460ff161561117157005b6001600160a01b03166000818152600080516020611fdf83398151915260205260408120805460ff191660011790553391907f5bb0bf1fabd5e975fc7a4520766d9e86e0eb281f8c7c44fcd3dfe60a11e786ca907f2f8788117e7eff1d82e926ec794901d17c78024a50270940304540a733656f0d9080a4005b34610179576040366003190112610179576112046118e7565b336001600160a01b03821603611220576106b990600435611cd7565b60405162461bcd60e51b815260206004820152602f60248201527f416363657373436f6e74726f6c3a2063616e206f6e6c792072656e6f756e636560448201526e103937b632b9903337b91039b2b63360891b6064820152608490fd5b34610179576040366003190112610179576004356112996118e7565b906112b56106af82600052600060205260016040600020015490565b6000818152602081815260408083206001600160a01b038616845290915290205460ff16156112e057005b6000818152602081815260408083206001600160a01b0395909516808452949091528120805460ff19166001179055339291907f2f8788117e7eff1d82e926ec794901d17c78024a50270940304540a733656f0d9080a4005b34610179576000366003190112610179576008546040516001600160a01b039091168152602090f35b346101795760203660031901126101795761137b6118d1565b611383611b80565b6001600160a01b0381166000908152600080516020611fdf833981519152602052604090205460ff166113b257005b6001600160a01b03166000818152600080516020611fdf83398151915260205260408120805460ff191690553391907f5bb0bf1fabd5e975fc7a4520766d9e86e0eb281f8c7c44fcd3dfe60a11e786ca907ff6391f5c32d9c69d2a47ea670b442974b53935d1edc7fd64eb21e047a839171b9080a4005b34610179576020366003190112610179576020611456600435600052600060205260016040600020015490565b604051908152f35b34610179576000366003190112610179576006546040516001600160a01b039091168152602090f35b34610179576000366003190112610179576007546040516001600160a01b039091168152602090f35b3461017957366003190161014081126101795761010013610179576040516114d781611740565b6114e236600461177c565b8152366063121561017957604080516114fb828261175b565b803660c41161017957826044915b60c483106116155750505060208301526115243660c461177c565b81830152610104356001600160401b03811161017957611548903690600401611864565b916101243560ff8116809103610179576000908152600260205261156e83822054611960565b156115d6575060048351106115925760209261158991611b0f565b90519015158152f35b815162461bcd60e51b815260206004820152601b60248201527f496e73756666696369656e74207075626c6963207369676e616c7300000000006044820152606490fd5b825162461bcd60e51b815260206004820152601860248201527715995c9a599a58d85d1a5bdb881ad95e481b9bdd081cd95d60421b6044820152606490fd5b602090611622368561177c565b8152019101908390611509565b346101795760203660031901126101795760043563ffffffff60e01b811680910361017957602090637965db0b60e01b8114908115611674575b506040519015158152f35b6301ffc9a760e01b14905082611669565b3461017957602036600319011261017957600435600052600560205260406000209081548082526020820190819360005260206000209060005b81811061172157505050816116d591038261175b565b6040519182916020830190602084525180915260408301919060005b8181106116ff575050500390f35b82516001600160a01b03168452859450602093840193909201916001016116f1565b82546001600160a01b03168452602090930192600192830192016116bf565b606081019081106001600160401b0382111761084f57604052565b90601f801991011681019081106001600160401b0382111761084f57604052565b9080601f83011215610179576040805192611797828561175b565b8391810192831161017957905b8282106117b15750505090565b81358152602091820191016117a4565b90610100604319830112610179576040516117db81611740565b80926117e881604461177c565b82528060a31215610179576040908151611802838261175b565b80826101041161017957836084915b610104831061183357505050602084015261182e9061010461177c565b910152565b602090611840868561177c565b8152019101908490611811565b6001600160401b03811161084f5760051b60200190565b9080601f8301121561017957813561187b8161184d565b92611889604051948561175b565b81845260208085019260051b82010192831161017957602001905b8282106118b15750505090565b81358152602091820191016118a4565b6004359060ff8216820361017957565b600435906001600160a01b038216820361017957565b602435906001600160a01b038216820361017957565b60005b8381106119105750506000910152565b8181015183820152602001611900565b90602091611939815180928185528580860191016118fd565b601f01601f1916010190565b6001600160401b03811161084f57601f01601f191660200190565b90600182811c92168015611990575b602083101461197a57565b634e487b7160e01b600052602260045260246000fd5b91607f169161196f565b80511561065e5760200190565b80516001101561065e5760400190565b80516003101561065e5760800190565b805182101561065e5760209160051b010190565b906004821015610cd85752565b906000905b600282106119fa57505050565b60208060019285518152019301910190916119ed565b15611a1757565b60405162461bcd60e51b815260206004820152601060248201526f24b73b30b634b2102d2590383937b7b360811b6044820152606490fd5b15611a5657565b60405162461bcd60e51b8152602060048201526014602482015273283937b7b3103737ba103337b91039b2b73232b960611b6044820152606490fd5b15611a9957565b60405162461bcd60e51b81526020600482015260126024820152710a4cac6dee4c840928840dad2e6dac2e8c6d60731b6044820152606490fd5b15611ada57565b60405162461bcd60e51b815260206004820152600d60248201526c141c9bdbd988195e1c1a5c9959609a1b6044820152606490fd5b8051511580611b73575b611b6c57604001805151159081611b5e575b50611b5857611b398161199a565b5115611b5857611b48906119b7565b5115611b5357600190565b600090565b50600090565b602091505101511538611b2b565b5050600090565b5060208151015115611b19565b3360009081527f7d7ffb7a348e1c6a02869081a26547b49160dd3df72d1d75a570eb9b698292ec602052604090205460ff1615611bb957565b611c95611bc533611e1a565b611c756011611bf37fa49807205ce4d355092ef5a8a18f56e8913cf4a201fbe287825b095693c21775611f32565b9260376040519485927f416363657373436f6e74726f6c3a206163636f756e74200000000000000000006020850152611c3581518092602086880191016118fd565b83017001034b99036b4b9b9b4b733903937b6329607d1b83820152611c648251809360206048850191016118fd565b01010301601f19810183528261175b565b60405162461bcd60e51b8152602060048201529182916024830190611920565b0390fd5b60008181526020818152604080832033845290915290205460ff1615611cbc5750565b611c9590611c756011611bf3611cd133611e1a565b93611f32565b6000818152602081815260408083206001600160a01b038616845290915290205460ff16611d03575050565b6000818152602081815260408083206001600160a01b0395909516808452949091528120805460ff19169055339291907ff6391f5c32d9c69d2a47ea670b442974b53935d1edc7fd64eb21e047a839171b9080a4565b60ff60015416611d6557565b60405162461bcd60e51b815260206004820152601060248201526f14185d5cd8589b194e881c185d5cd95960821b6044820152606490fd5b906004811015610cd85780611db3575050600190565b60018103611dc2575050600190565b60028103611df657506001600160a01b03166000908152600080516020611fdf833981519152602052604090205460ff1690565b6003915014611e0457600090565b600190565b90815181101561065e570160200190565b600090611e27602a611945565b91611e35604051938461175b565b602a8352611e43602a611945565b6020840190601f19013682378351156105aa5760309053825160011015611f1e576078602184015350602960005b60018211611ec6575050611e825790565b606460405162461bcd60e51b815260206004820152602060248201527f537472696e67733a20686578206c656e67746820696e73756666696369656e746044820152fd5b9091600f81166010811015611f0a576f181899199a1a9b1b9c1cb0b131b232b360811b901a611ef58486611e09565b5360041c91801561060e576000190190611e71565b634e487b7160e01b83526032600452602483fd5b634e487b7160e01b81526032600452602490fd5b600090611f3f6042611945565b91611f4d604051938461175b565b60428352611f5b6042611945565b6020840190601f19013682378351156105aa5760309053825160011015611f1e576078602184015350604160005b60018211611f9a575050611e825790565b9091600f81166010811015611f0a576f181899199a1a9b1b9c1cb0b131b232b360811b901a611fc98486611e09565b5360041c91801561060e576000190190611f8956fe1a7760066bd1f06df3a1a816a948cb99a3a2e8ffa5089500e84706868bfe072da26469706673582212206aeae938b27b3ac796ebd697cb048a338bfa0daf05dc4306fc78818ed1fdd9fa64736f6c634300081c00332f8788117e7eff1d82e926ec794901d17c78024a50270940304540a733656f0d7d7ffb7a348e1c6a02869081a26547b49160dd3df72d1d75a570eb9b698292ecad3228b676f7d3cd4284a5443f17f1962b36e491b30a40b2405849e597ba5fb5",
  "linkReferences": {},
  "deployedLinkReferences": {}
}